:100000000C9491000C94B9000C94B9000C94251D2B
:100010000C948D1C0C94B9000C94B9000C94B9008C
:100020000C94B9000C94B9000C94B9000C94D21C37
:100030000C94B9000C94B9000C94B9000C94B9005C
:100040000C94261B0C94B9000C94F41A0C94CE1A40
:100050000C94B9000C94B9000C94B9000C94B9003C
:100060000C94721B0C94B9000C94701B0C94701BB4
:100070000C94701B0C94701B0C94701B0C94701BD4
:100080000C94701B0C94701B0C94701B0C94701BC4
:100090000C94701B0C94701B0C94701B0C94701BB4
:1000A0000C94701B0C94701B0C94701B0C94701BA4
:1000B0000C94701B00000000240027002A002D0073
:1000C00000000000250028002B002E00000000008A
:1000D0002300260029002C00040404040404040462
:1000E00002020202020203030303030305050505DE
:1000F00001020408102040800102040810200102BF
:100100000408102004080102090C0A08000201007A
:1001100000030407000000000000000000000000D1
:100120002F1D11241FBECFEFD8E0DEBFCDBF15E0DD
:10013000A0E0B1E0E6E8F2E502C005900D92A0373C
:10014000B107D9F727E0A0E7B5E001C01D92A331C0
:10015000B207E1F710E0C1E9D0E004C02197FE0149
:100160000E94DC27C039D107C9F70E94301F0C94C8
:1001700041290C940000FC01538D448D252F30E063
:10018000842F90E0821B930B541710F0CF960895A4
:1001900001970895FC01918D828D981761F0A28DD1
:1001A000AE0FBF2FB11D5D968C91928D9F5F9F7397
:1001B000928F90E008958FEF9FEF0895FC01918D4D
:1001C000828D981731F0828DE80FF11D858D90E0BA
:1001D00008958FEF9FEF0895FC01918D228D892F57
:1001E00090E0805C9F4F821B91098F73992708953F
:1001F000FC01A48DA80FB92FB11DA35ABF4F2C919C
:10020000848D90E001968F739927848FA689B78992
:100210002C93A089B1898C91837080648C93938D89
:10022000848D981306C00288F389E02D80818F7D2C
:1002300080830895EF92FF920F931F93CF93DF93E4
:10024000EC0181E0888F9B8D8C8D98131AC0E88912
:10025000F989808185FF15C09FB7F894EE89FF89E1
:100260006083E889F98980818370806480839FBF7F
:1002700081E090E0DF91CF911F910F91FF90EF907F
:100280000895F62E0B8D10E00F5F1F4F0F7311278F
:10029000E02E8C8D8E110CC00FB607FCFACFE889CA
:1002A000F989808185FFF5CFCE010E94F800F1CF5A
:1002B000EB8DEC0FFD2FF11DE35AFF4FF0829FB73E
:1002C000F8940B8FEA89FB8980818062CFCFCF932E
:1002D000DF93EC01888D8823B9F0AA89BB89E8896E
:1002E000F9898C9185FD03C0808186FD0DC00FB614
:1002F00007FCF7CF8C9185FFF2CF808185FFEDCF92
:10030000CE010E94F800E9CFDF91CF9108958CE4EF
:1003100096E00E94EC0021E0892B09F420E0822F76
:10032000089580E090E0892B29F00E9487018111D7
:100330000E94000080E090E0892B49F080E090E08E
:10034000892B29F00E94000081110C94000008956F
:10035000AF92BF92CF92DF92EF92FF920F931F93D3
:10036000CF93DF936C017B018B01040F151FEB0111
:100370005E01AE18BF08C017D10759F06991D601C8
:10038000ED91FC910190F081E02DC6010995892B3A
:1003900079F7C501DF91CF911F910F91FF90EF90F9
:1003A000DF90CF90BF90AF90089581508D3008F0CE
:1003B0003DC0E82FF0E0E152FE4F0C94DC27F6013F
:1003C000FA01EC01F20116021602FD010302070216
:1003D0000D02160211021702809180008F77809320
:1003E00080000895809180008F7DF9CF84B58F774C
:1003F00084BD089584B58F7DFBCF8091B0008F7749
:100400008093B00008958091B0008F7DF9CF8091E6
:1004100090008F77809390000895809190008F7D59
:10042000F9CF8091A0008F778093A00008958091EC
:10043000A0008F7DF9CFCF93DF93282F30E0F90113
:10044000E85FFE4F8491F901E051FF4FD491F9012B
:10045000E852FF4FC491CC23A1F081110E94D50135
:10046000EC2FF0E0EE0FFF1FE453FF4FA591B49186
:10047000EC91ED2381E090E009F480E0DF91CF91F1
:10048000089580E090E0FACF1F93CF93DF93282F59
:1004900030E0F901E85FFE4F8491F901E051FF4F30
:1004A000D491F901E852FF4FC491CC23A9F0162F43
:1004B00081110E94D501EC2FF0E0EE0FFF1FE054F8
:1004C000FF4FA591B4918FB7F894EC91111108C02A
:1004D000D095DE23DC938FBFDF91CF911F910895DC
:1004E000DE2BF8CF60E081E00E94440260E082E011
:1004F0000E94440260E080E00E94440260E084E0E8
:100500000E94440260E086E10E94440260E085E0CF
:100510000E94440260E086E00C944402CF93DF9393
:1005200090E0FC01E051FF4F249188529F4FFC0165
:1005300084918823C9F090E0880F991FFC01EC5446
:10054000FF4FA591B491FC01E054FF4FC591D491A8
:1005500061110DC09FB7F8948C91209582238C93E4
:100560008881282328839FBFDF91CF91089562302F
:1005700051F49FB7F8943C91822F809583238C93FC
:10058000E8812E2BEFCF8FB7F894EC912E2B2C9384
:100590008FBFEACF8E50806480937C0080917A0078
:1005A000806480937A0080917A0086FDFCCF8091F0
:1005B00078009091790008953FB7F8948091BD0537
:1005C0009091BE05A091BF05B091C00526B5A89B2E
:1005D00005C02F3F19F00196A11DB11D3FBFBA2FD5
:1005E000A92F982F8827BC01CD01620F711D811D95
:1005F000911D43E0660F771F881F991F4A95D1F719
:100600000895FC017996CB010596DB012D91BD0182
:100610002193A817B907C9F708959C0197FF02C055
:10062000215F3F4F44E0359527954A95E1F74AE031
:10063000429FF001439FF00D112460E170E00E94A1
:1006400087278E0F9F1F08956AE070E00E9487271A
:1006500024E0660F771F2A95E1F7860F971F08950C
:100660001F93CF93DF93C1E0C0937805882399F15E
:10067000D091B8001091BA008091BC008A7B809321
:10068000BC0060E082E10E94440260E083E10E94DD
:10069000440210921606C09315061092F00561E010
:1006A00082E10E94440261E083E10E944402809161
:1006B000B9008E7F8093B9008091B9008D7F8093BF
:1006C000B90080E28093B80085E48093BC00109369
:1006D000BA00D093B800DF91CF911F910895CF92C7
:1006E000DF92EF92FF920F931F93CF93DF93D091FE
:1006F0003F0681E0D13208F09CC0C0913E060E94C6
:10070000DC026B017C018091160681116CC082E0D5
:100710008093160681E0809315068FEF8093140670
:1007200010921306D0931206AEE1B6E0E2EFF5E0C8
:1007300080E0D8138DC01092F1058091F105CC0FA7
:10074000C82BC093F1058091F005813009F084C079
:100750001092F0050E94DC026B017C018091F10592
:100760008093BB008091180690911906A0911A06FB
:10077000B0911B06892B8A2B8B2BA1F00E94DC02E7
:10078000009118061091190620911A0630911B0647
:100790006C197D098E099F09061717072807390765
:1007A00008F442C08091BC0083FDD8CF85EC8093D3
:1007B000BC000E94DC026B017C0180911606823035
:1007C00009F44CC0809114068F3F09F469C08091F0
:1007D0001406803209F466C080911406803309F44F
:1007E00063C084E026C08091180690911906A091FC
:1007F0001A06B0911B06892B8A2B8B2B09F483CF09
:100800000E94DC02009118061091190620911A0628
:1008100030911B066C197D098E099F090617170771
:100820002807390708F06FCF809117060E94300320
:1008300085E010921D0610923F0610921C06DF9173
:10084000CF911F910F91FF90EF90DF90CF9008957F
:100850009D9191938F5F6DCF85EEA9CF8091180602
:1008600090911906A0911A06B0911B06892B8A2B2C
:100870008B2B09F4A2CF0E94DC0200911806109184
:10088000190620911A0630911B066C197D098E09F4
:100890009F09061717072807390708F08ECFC4CF1E
:1008A00080E0C7CF82E0C5CF83E0C3CFCF92DF9295
:1008B000EF92FF920F931F93CF93DF93D82FC62F02
:1008C000613208F098C00E94DC026B017C018091CB
:1008D000160681116BC081E0809316068093150681
:1008E0009FEF90931406109213069C0F909312069C
:1008F0008093F1058091F105DD0FD82BD093F105A0
:100900008091F005813009F078C01092F0050E94C6
:10091000DC026B017C018091F1058093BB0080912A
:10092000180690911906A0911A06B0911B06892B02
:100930008A2B8B2BA1F00E94DC02009118061091EB
:10094000190620911A0630911B066C197D098E0933
:100950009F09061717072807390708F448C0809130
:10096000BC0083FDD8CF85EC8093BC000E94DC02E4
:100970006B017C0180911606813009F440C08091A2
:1009800013068C1710F4C0911306E2EFF5E0A0ED0A
:10099000B5E080E08C1355C08C2FDF91CF911F9173
:1009A0000F91FF90EF90DF90CF90089580911806FF
:1009B00090911906A0911A06B0911B06892B8A2BDB
:1009C0008B2B09F484CF0E94DC0200911806109151
:1009D000190620911A0630911B066C197D098E09A3
:1009E0009F09061717072807390708F070CF80916D
:1009F00017060E943003C0E0CFCF85EEB5CF8091BF
:100A0000180690911906A0911A06B0911B06892B21
:100A10008A2B8B2B09F4AECF0E94DC0200911806C2
:100A20001091190620911A0630911B066C197D0948
:100A30008E099F09061717072807390708F09ACF6C
:100A4000D6CF91919D938F5FA5CF20919905260FC9
:100A50003327331F21323105ECF420911606FC01B7
:100A600090E080E0243069F082E00895A09199053B
:100A70002191AC0147585A4FA40FB52FB11D2C93AB
:100A80000196861798F380919905680F60939905F0
:100A900080E0089581E008950895E091CF05809168
:100AA000CE05E81730F4F0E0E053FA4F808190E093
:100AB00008958FEF9FEF08959091CF058091CE0517
:100AC0002FEF3FEF981748F4E92FF0E0E053FA4F8B
:100AD000208130E09F5F9093CF05C90108958091F8
:100AE000CE059091CF05891B990B0895CF92DF9287
:100AF000EF92FF920F931F93CF93DF937C01CB0173
:100B00008A0120911C06222389F0EB016B01C40E9F
:100B1000D51ECC15DD0569F06991D701ED91FC91E9
:100B20000190F081E02DC7010995F3CF642F0E9459
:100B30002505C801DF91CF911F910F91FF90EF9094
:100B4000DF90CF900895CF93DF931F92CDB7DEB79C
:100B5000698320911C062223F9F020913F06203260
:100B600058F021E030E0FC013383228390E080E004
:100B70000F90DF91CF91089580911D06E82FF0E04E
:100B8000E25EF94F998190838F5F80931D06809379
:100B90003F0681E090E0ECCF61E0CE0101960E943B
:100BA0002505F7CF682F80E496E00C94A305CF933A
:100BB000DF93EB0121E020931C0628E620933E06FC
:100BC00010921D0610923F060E94D205CE010E948F
:100BD000D205DF91CF910C946F03CF92EF92FF92E9
:100BE0000F931F93CF93DF93F82E162FD42FC22F7E
:100BF00081E080931C0688E680933E0610921D06D5
:100C000010923F0690E080E00E94D2058F2D90E088
:100C10000E9424030E94D205812F90E00E942403A9
:100C20000E94D2058D2F90E00E9424030E94D205DD
:100C30008C2F90E00E9424030E94D205802F90E028
:100C40000E9424030E94D2058E2D90E00E9424036E
:100C50000E94D2058C2D90E00E9424030E94D205B0
:100C6000DF91CF911F910F91FF90EF90CF900C9457
:100C70006F0390E080E00895FC012481358180813C
:100C800091811216130654F4181619062CF482E0FA
:100C9000818717821682089581E0FACF1816190607
:100CA000DCF3232BC1F7892BB1F71186F2CFCF9359
:100CB000DF93EC0160E08FE00E94440260E08EE090
:100CC0000E94440260E088E00E94440260E087E005
:100CD0000E9444021882DF91CF910895CF93DF9351
:100CE000EC0161E08FE00E94440261E08EE00E942E
:100CF000440261E088E00E94440261E087E00E94D3
:100D0000440281E08883DF91CF910895089508958A
:100D100008950895DC01ED91FC910680F781E02DA6
:100D20000994CF93DF93EC018A819B81FC01EB5204
:100D3000FF4F8B549F4FEC0188819981AA81BB8121
:100D400080839183A283B383DF91CF910895DC01E7
:100D50001296ED91FC91ED52FF4F208131812F5F72
:100D60003F4F318320830C9491060F931F93FC0116
:100D700082819381FC01EB54FF4F8B529F4F408146
:100D8000518162817381FC0180819181A281B38153
:100D90008A019B01081B190B2A0B3B0BC901B801E7
:100DA0001F910F910895CF92DF92EF92FF920F93D0
:100DB0001F93CF93DF93FC0102811381F801ED5261
:100DC000FF4F0190F081E02DE830F10508F05EC0A2
:100DD000EC01E351F94F0C94DC27F50604075B079F
:100DE000A20703085A08B808030968E474E0C801B8
:100DF0008B599F4FDF91CF911F910F91FF90EF90F3
:100E0000DF90CF900C9401038E859F8580369242AF
:100E10000CF045C0CE010E94B50623E030E040E072
:100E200050E00E94BD27285F3F4D3F872E870E85EB
:100E30001F85EA81FB81EB59FF4F083620E112073D
:100E4000B4F1C80168EE73E00E948727CB012AE065
:100E500030E0B9010E948727818FC80164E670E005
:100E60000E948727CB01B9010E948727828F81E3E7
:100E7000838FC801B9010E948727CB01B9010E9465
:100E80008727848F80E2858F81E0808FDF91CF91EB
:100E90001F910F91FF90EF90DF90CF90089580E623
:100EA00092E29F878E87CE010E94A706C0CF6EE494
:100EB00074E0CF019FCFF801EB59FF4F88E0818F9D
:100EC000828F81E3838F148E80E2858F81E0808F13
:100ED000CE010E94B506653FE1E07E0781059105E0
:100EE000BCF06C3BF2E07F07810591054CF0695E38
:100EF000734081099109673C71058105910540F4B2
:100F00008A819B816EE474E08B599F4F0E9401039C
:100F1000CE010E94B506613D7740810591050CF434
:100F2000B5CFCE010E94A706EA81FB81ED52FF4FAB
:100F300085E090E091838083EA81FB81E358FF4F55
:100F40001082A4CF0E94B5062C8D3D8D37FF02C0C4
:100F50002D5F3F4F3595279535952795032E000C2E
:100F6000440B550B0E94BD27CA01B90124E030E0B3
:100F700040E050E00E94BD2761307105C1F134F5B9
:100F8000672B69F1CE010E94B5062C8D3D8D89013C
:100F9000330F220B330B06171707280739070CF0FE
:100FA00075CF8E899F8928893989281739072CF1AF
:100FB00001969F8B8E8BCE01DF91CF911F910F9168
:100FC000FF90EF90DF90CF900C9491066230710506
:100FD00089F063307105B1F666E674E002C064E53D
:100FE00074E0C8018B599F4F0E940103CBCF6AE583
:100FF00074E0F7CF60E674E0F4CFCE010E94A7065C
:101000001F8A1E8A43CF0E94B5062E8D3F8D37FF63
:1010100002C02D5F3F4F3595279535952795032EB7
:10102000000C440B550B0E94BD27CA01B90124E0F6
:1010300030E040E050E00E94BD276130710571F161
:10104000E4F4672B19F1CE010E94B5062E8D3F8D79
:101050008901330F220B330B0617170728073907AF
:101060000CF014CF888D998D2A893B892817390770
:10107000DCF00196998F888F9ECF6230710589F0E0
:101080006330710501F76EE774E002C06CE674E04E
:10109000C8018B599F4F0E940103D5CF62E774E0CE
:1010A000F7CF68E774E0F4CFCE010E94A706198E4F
:1010B000188EECCE0E94B5066B017C0188A199A127
:1010C00065E070E00E9487279B01770F440B550B6A
:1010D000C701B6010E94BD27CA01B90125E030E071
:1010E00040E050E00E94BD2762307105A9F104F58F
:1010F0006115710531F16130710559F1CE010E9420
:10110000B50628A139A18901330F220B330B06172D
:101110001707280739070CF0B9CE8A8D9B8D2C89CB
:101120003D8928173907F4F001969B8F8A8F43CFAA
:1011300063307105A1F06430710501F76AE874E06D
:1011400002C06EE474E0C8018B599F4F0E940103F6
:10115000D5CF64E574E0F7CF62E774E0F4CF64E8DC
:1011600074E0F1CFCE010E94A7061B8E1A8E8ECEA0
:101170006AE874E0C8018B599F4F0E9401038A817D
:101180009B818C010F561F4F8B549F4FFC01608138
:1011900071818281938128EE33E040E050E00E942B
:1011A0009B272DE730E040E050E00E949B27F801AC
:1011B00020816E33710581059105F8F4211103C07A
:1011C000C8010E946E06CE010E94B506613D7740BF
:1011D000810591050CF45ACECE010E94A7068A81A2
:1011E0009B818F569F4FDF91CF911F910F91FF9061
:1011F000EF90DF90CF900C945706222321F3C80183
:101200000E945706E0CF60E974E0C8018B599F4FF8
:101210000E940103CE010E94B50628853985890107
:10122000330F220B330B06171707280739070CF06B
:101230002DCECE01DF91CF911F910F91FF90EF90B6
:10124000DF90CF900C94A70608950895089508950F
:1012500008950895089508950895089508950895A6
:101260000895089508950895089508950895089596
:101270000895089508950895089508950895089586
:1012800008957F928F929F92AF92BF92CF92DF92FA
:10129000EF92FF920F931F93CF93DF93FC01C281D4
:1012A000D381FE01E85AFF4FE080F180B7010F2C97
:1012B000000C880B990B0E9457264B015C0120E023
:1012C00030E040E251E40E94AD250E941F260AE072
:1012D00010E0CB01B8010E948727D82E20E030E033
:1012E00048EC52E4C501B4010E94AD250E941F26BE
:1012F000CB01B8010E948727C82E20E030E04AE7E2
:1013000054E4C501B4010E94AD250E941F26CB0103
:10131000B8010E948727782E20E030E44CE156E4A3
:10132000C501B4010E940727CB59DF4F181614F5E9
:1013300020E030E44CE156E4C501B4010E94AD2543
:101340000E941F26CB01B8010E948727898F7A8EC1
:1013500081E38B8FCC8EDD8EDF91CF911F910F912A
:10136000FF90EF90DF90CF90BF90AF909F908F90C5
:101370007F900895798ECA8E80E28B8FDC8EC701B4
:10138000B8010E9487278D8FE7CFFC01828193816E
:1013900066E974E08B599F4F0C940103CF93DF9360
:1013A000FC01A281B3818FB7F8944091C10550919F
:1013B000C2056091C3057091C4058FBFA553BF4F8F
:1013C0004D935D936D937C931397A281B381AA5A39
:1013D000BF4F8D919C91119701968D939C93A28103
:1013E000B381AA5ABF4F8D919C9111970A9714F01F
:1013F0001D921C92A281B381ED01CA5ADF4F8881F0
:101400009981A653BF4F892BB1F41C92828193819D
:10141000FC01E153FF4F8A5A9F4FDC018D919C9153
:10142000092E000CAA0BBB0B80839183A283B3838C
:10143000DF91CF91089581E08C93E8CFFC01828108
:1014400093816CE974E08B599F4F0C940103DC018C
:101450001296ED91FC91DF01AA53BF4F64E070E05A
:101460008D919C919B01281B390BC9010E948727F4
:10147000EB59FF4F92E7918F95E4928F90E2938F13
:101480009AE2948F858F0895DC011296ED91FC917C
:10149000DF01A755BF4F9C91EB59FF4F80E2818F31
:1014A000828F838F8AE2848F958F0895FC018281D9
:1014B000938162EA74E08B599F4F0C940103AF92C1
:1014C000BF92CF92EF920F93CF93DF93DC011296EE
:1014D000ED91FC911397EA5AFF4F8081918101961B
:1014E000918380831296ED91FC911397EA5AFF4FF6
:1014F000808191818536910514F0118210821296B7
:101500008D919C91BC016A5A7F4FAC0148575F4F47
:101510009C0129573F4FEC01CA57DF4FDC01AB5705
:10152000BF4F5C01E4E8AE0EB11C8D579F4FFB012D
:10153000C080FA01E080F901008128814C91F50119
:101540006081FC0180810E94ED05DF91CF910F91B8
:10155000EF90CF90BF90AF900895DC011296ED917F
:10156000FC91DF01AA5ABF4F8D919C91EB59FF4F1F
:101570008436910529F468E474E0CF010C940103EA
:1015800022E3218F20E3228F20E2238F6AE070E0A4
:101590000E948727648F858F0895FC018281938143
:1015A00068EA74E08B599F4F0C940103AF92BF928D
:1015B000CF92EF920F93CF93DF93DC011296ED91D0
:1015C000FC911397EA5AFF4F808191810196918394
:1015D00080831296ED91FC911397EA5AFF4F808118
:1015E0009181089721F481E090E0918380831296A5
:1015F0008D919C91BC0167577F4FAC0148575F4F5D
:101600009C0129573F4FEC01CA5ADF4FDC01AB5711
:10161000BF4F5C01E4E8AE0EB11C8D579F4FFB013C
:10162000C080FA01E080F901008128814C91F50128
:101630006081FC0180810E94ED05DF91CF910F91C7
:10164000EF90CF90BF90AF900895FC01828193817D
:10165000FC01EA5AFF4F0190F081E02DFF27EE0FC9
:10166000FF1FE80FF91F608171818B599F4F0C9408
:101670000103FC01828193816EEA74E08B599F4FD4
:101680000C940103AF92BF92CF92EF920F93CF933E
:10169000DF93DC011296ED91FC911397EA5AFF4F0C
:1016A0008081918101969183808312964D915C9106
:1016B0001397FA01E757FF4F80818370EA01C857FB
:1016C000DF4FF397811107C08881823021F4808138
:1016D00091814D97B1F02881022E000C330B265FCB
:1016E0003F4F220F331F240F351FE9012881398115
:1016F000808191812817390724F481E090E091835B
:10170000808312968D919C91BC0167577F4FAC01ED
:1017100048575F4F9C012A5A3F4FEC01CA57DF4F91
:10172000DC01AB57BF4F5C01E4E8AE0EB11C8D5736
:101730009F4FFB01C080FA01E080F9010081288100
:101740004C91E5016881FC0180810E94ED05DF91EB
:10175000CF910F91EF90CF90BF90AF900895DC01A3
:101760001296ED91FC91DF01AA5ABF4F2D913C9149
:10177000C9016AE070E00E948727611101C060E240
:10178000EB59FF4F80E2818F828F838F648FC90175
:101790006AE070E00E948727858F0895AF92BF921C
:1017A000CF92EF920F93CF93DF93DC011296ED91DE
:1017B000FC911397EA5AFF4F8081918101969183A2
:1017C00080831296ED91FC911397EA5AFF4F808126
:1017D00091810D9721F481E090E0918380831296AE
:1017E0008D919C91BC0167577F4FAC014A5A5F4F66
:1017F0009C0129573F4FEC01CA57DF4FDC01AB5723
:10180000BF4F5C01E4E8AE0EB11C8D579F4FFB014A
:10181000C080FA01E080F901008128814C91F50136
:101820006081FC0180810E94ED05DF91CF910F91D5
:10183000EF90CF90BF90AF900895DC011296ED919C
:10184000FC91DF01AA5ABF4F2D913C91C9016AE07A
:1018500070E00E948727611101C060E2EB59FF4FE1
:10186000618FC9016AE070E00E948727828F80E261
:10187000838F848F858F0895FC018281938164EB2F
:1018800074E08B599F4F0C940103AF92BF92CF929B
:10189000EF920F93CF93DF93FC012085211136C087
:1018A000EC0182819381BC0167577F4FAC0148579F
:1018B0005F4F9C0129573F4FDC01AA57BF4F5C0186
:1018C000F5E8AF0EB11C8A5A9F4FFB01C080FA01A8
:1018D000E080F90100812C91F5014081FC016081DB
:1018E00080E00E94ED05EA81FB81E154FF4F108208
:1018F00081E08887EA81FB81EB54FF4F80819181F1
:10190000A281B3818C839D83AE83BF83DF91CF910E
:101910000F91EF90CF90BF90AF900895DC01ED91C3
:10192000FC910084F185E02D0994DC011296ED9183
:10193000FC911397EA5AFF4F208131812F5F3F4F6F
:10194000318320831296ED91FC91EA5AFF4F8081FA
:101950009181CC9711F4118210820895DC011296C6
:10196000ED91FC91DF01AA5ABF4F2D913C91EB59AB
:10197000FF4F90E2918F928F938FC9016AE070E0E0
:101980000E948727648F858F0895DC011296ED9160
:10199000FC911397EA5AFF4F208131812F5F3F4F0F
:1019A000318320831296ED91FC91EA5AFF4F80819A
:1019B0009181489711F4118210820895DC011296EA
:1019C000ED91FC91DF01AA5ABF4F2D913C91C901C5
:1019D0006AE070E00E948727611101C060E2EB5964
:1019E000FF4F618FC9016AE070E00E948727828FF4
:1019F00080E2838F848F858F0895FC01828193819B
:101A00006AEB74E08B599F4F0C940103DC01129632
:101A1000ED91FC91DF01AA5ABF4F2D913C91C90174
:101A20006AE070E00E948727611101C060E2EB5913
:101A3000FF4F80E2818F828F838F648FC9016AE0BC
:101A400070E00E948727858F0895DC011296ED9142
:101A5000FC91DF01AA5ABF4F2D913C91C9016AE068
:101A600070E00E948727611101C060E2EB59FF4FCF
:101A7000618FC9016AE070E00E948727828F80E24F
:101A8000838F848F858F0895DC011296ED91FC91F0
:101A90001397EA5AFF4F208131812F5F3F4F3183E7
:101AA00020831296ED91FC91EA5AFF4F808191813B
:101AB000039711F4118210820895FC0182819381B1
:101AC000FC01EA5AFF4F2081318160EC74E021155E
:101AD000310551F066EC74E02130310529F02230F7
:101AE000310531F46CEC74E08B599F4F0C94010379
:101AF0000895FC018281938162ED74E08B599F4FC0
:101B00000C940103FC018281938168ED74E08B5990
:101B10009F4F0C9401038F929F92AF92BF92CF92EE
:101B2000DF92EF92FF920F931F93CF93DF93FC010D
:101B3000C281D381FE01EB54FF4F4081518162810C
:101B400073818E010B551F4FF801C580D680E78049
:101B5000F0844A015B018C189D08AE08BF088081A3
:101B60009181B0E0A0E088159905AA05BB0520F099
:101B7000CD28CE28CF2859F5F801458356836783B1
:101B8000708784E10E94CA02BC01990F880B990BEF
:101B90000E94572623E333E343E550E40E940C27D9
:101BA00020E030E040E85AE30E940C2720E030E0DB
:101BB00040E05FE30E943B252AE037ED43E25CE32F
:101BC0000E94AD25F8016387748785879687F801A1
:101BD000C384D484E584F684FE01E755FF4FB080CA
:101BE0008E010B591F4FF6E4BF124FC020E030E0CA
:101BF00040E151E4C701B6010E940C2720E030E02B
:101C000040EA50E40E94AD2520E030E040E052E49C
:101C10000E943C256B017C0120E030E048EC52E45E
:101C20000E94AD250E941F26F801618F20E030E060
:101C300040E251E4C701B6010E94AD250E941F2673
:101C40008AE0882E912CCB01B4010E948727F801ED
:101C5000828F80E2838FC701B6010E941F26CB01CD
:101C6000B4010E948727F801848FCE57DF4FB882D6
:101C7000DF91CF911F910F91FF90EF90DF90CF9068
:101C8000BF90AF909F908F90089581E0FE01E35840
:101C9000FF4F808320E030E040E251E4C701B6010D
:101CA0000E94AD250E941F26F801618FC701B60171
:101CB0000E941F26CB016AE070E00E948727F8018E
:101CC000828F80E2838F8AE2CFCFFC018281938171
:101CD000FC01EA57FF4FE081F0E0EE0FFF1FE80F35
:101CE000F91F608171818B599F4F0C940103DC01B6
:101CF0001296ED91FC91DF01A358BF4F91E09C93A8
:101D000016968C91EB59FF4F20E2218F228F938FF3
:101D10006AE00E947927848F958F0895DC011296DE
:101D2000ED91FC91DF01A857BF4F5C91852F6AE0D0
:101D30000E947927382F811101C030E2DF01A957B5
:101D4000BF4F4C91842F6AE00E947927282F811180
:101D500001C020E2EB59FF4F318F3AE0852F632F0E
:101D60000E947927928F80E2838F248F842F632FA4
:101D70000E947927958F0895CF92DF92EF92FF927C
:101D80001F93CF93DF93EC01FC01E956FF4FC7800F
:101D9000D084E184F284C701B6012CE330E040E056
:101DA00050E00E949B27122FFE01EC55FF4F243676
:101DB0002CF08081811102C081E0808380818823A2
:101DC00031F013E68BE3C82ED12CE12CF12CC701A6
:101DD000B6012CE330E040E050E00E949B27362F14
:101DE000CB59DF4F2AE0812F622F0E947927898FFC
:101DF0009A8F81E08B8F832F622F0E9479278C8F9F
:101E00009D8FDF91CF911F91FF90EF90DF90CF904A
:101E10000895CF93DF93EC018A819B810E94BC0ED1
:101E20008A819B816EED74E08B599F4F0E94010364
:101E3000EA81FB81E358FF4F81E08083DF91CF91FE
:101E40000895CF93DF93EC018A819B810E94BC0EA1
:101E5000EA81FB81E358FF4F81E08083DF91CF91DE
:101E60000895CF93DF93EC018A819B810E94BC0E81
:101E70008A819B81FC01E956FF4FDC01AC57BF4FC3
:101E80004C91042E000C550B54962C91421B510979
:101E900027FD53956CE3649FD001659FB00D11241D
:101EA000EC01CD57DF4F2881022E000C330B40810F
:101EB000241B310947FD33952A0F3B1FDC01AB572B
:101EC000BF4F4C91042E000C550B54967C91471B30
:101ED000510977FD5395C0E1DEE04C9FD0014D9F45
:101EE000B00D5C9FB00D11242A0F3B1FDC01A957D8
:101EF000BF4F4C91042E000C550B85569F4FDC01B3
:101F00008C91DA01A81BB10987FDB395CD01A0EA38
:101F1000B5E08A9FA0018B9F500D9A9F500D112410
:101F2000649FC001659F900D1124820F931F092E9D
:101F3000000CAA0BBB0B87839087A187B287DF9128
:101F4000CF910895FC01DC01AB57BF4F3C91832F2B
:101F50006AE00E947927811101C080E2DF01AC575D
:101F6000BF4F4C91EB59FF4F818F2AE0832F622F97
:101F70000E947927928F138E842F622F0E947927D7
:101F8000848F958F08950F931F93CF93DF93EC0168
:101F90008B0188819981009739F0DC01ED91FC91EA
:101FA0000280F381E02D099519830883F801D3831A
:101FB000C283DF91CF911F910F9108950F931F93CB
:101FC000CF93DF93EC010A811B81F801ED52FF4FA3
:101FD000808191810097F1F4CE010E94A7068A8149
:101FE0009B81FC01EB52FF4F8B549F4FDC014D91C5
:101FF0005D916D917C914083518362837383EA810B
:10200000FB81E358FF4F81E08083DF91CF911F91E7
:102010000F9108950797CCF384E090E00E941C286C
:102020002EE334E0FC0131832083BC01C801DF9141
:10203000CF911F910F910C94C30FCF93DF93FC01AD
:10204000C281D381FE01EC57FF4F50813196408110
:102050003196308131962081319690813196808100
:102060003E96DE01AD57BF4F6C9160835183428332
:10207000338324839583868381E090E094878387EC
:1020800084E090E00E941C282EED32E0FC013183B8
:102090002083BC01CE01DF91CF910C94C30FCF936D
:1020A000DF93FC01C281D38184E090E00E941C2870
:1020B0002EE334E0FC0131832083BC01CE01DF91AB
:1020C000CF910C94C30FCF93DF93DC011296ED9167
:1020D000FC911397EC55FF4F10821296CD91DC9135
:1020E000FE01E956FF4F1486138684E090E00E94BB
:1020F0001C282CEE32E0FC0131832083BC01CE0190
:10210000DF91CF910C94C30FCF93DF93FC01C28179
:10211000D38184E090E00E941C282EE334E0FC018F
:1021200031832083BC01CE01DF91CF910C94C30F8A
:10213000CF93DF93FC01C281D381FE01E956FF4FAB
:1021400082E090E09487838784E090E00E941C28DE
:1021500020ED32E0FC0131832083BC01CE01DF9110
:10216000CF910C94C30FCF93DF93FC01C281D38135
:1021700084E090E00E941C282EE334E0FC013183CF
:102180002083BC01CE01DF91CF910C94C30FCF937C
:10219000DF93FC01C281D38184E090E00E941C287F
:1021A0002EE334E0FC0131832083BC01CE01DF91BA
:1021B000CF910C94C30FCF93DF93FC01C281D381E5
:1021C00084E090E00E941C282CE732E0FC0131837F
:1021D0002083BC01CE01DF91CF910C94C30FCF932C
:1021E000DF93FC01C281D38184E090E00E941C282F
:1021F00024E631E0FC0131832083BC01CE01DF9174
:10220000CF910C94C30FCF93DF93FC01C281D38194
:1022100084E090E00E941C282EE334E0FC0131832E
:102220002083BC01CE01DF91CF910C94C30FBF92EC
:10223000CF92DF92EF92FF920F931F93CF93DF9392
:102240008C01FC0182819381FC01E153FF4F4081AD
:10225000518162817381EC01CB59DF4F49305105C7
:1022600061057105C9F564EE74E0CE010E940103B9
:102270002FB7F8948091C1059091C205A091C30534
:10228000B091C4052FBFF801C281D381FE01E5538F
:10229000FF4F4081518162817381841B950BA60B96
:1022A000B70B89389341A105B105E8F184E090E0CE
:1022B0000E941C282EE334E0FC0131832083BC0102
:1022C000CE01DF91CF911F910F91FF90EF90DF90A2
:1022D000CF90BF900C94C30FFC01EA5AFF4F2081AE
:1022E0003181220F331F220F331F820F931FFC01F6
:1022F00066A577A580A991A920E2298F2A8F2B8F27
:102300005AE0C52ED12CE12CF12CA70196010E9498
:102310009B27B62ECA01B901A70196010E949B27EF
:102320006C8FBD8EA5CFDF91CF911F910F91FF9044
:10233000EF90DF90CF90BF9008950F931F93CF93AE
:10234000DF93EC010A811B8184E090E00E941C284D
:1023500022E731E0DC012D933C93BC01C8010E94CF
:10236000C30FEA81FB81EA5AFF4F11821082EA8192
:10237000FB81E153FF4F1082118212821382EA81A6
:10238000FB812FB7F8948091C1059091C205A0916F
:10239000C305B091C4052FBFE553FF4F80839183E0
:1023A000A283B383EA81FB81DF01AA5ABF4F8D91DB
:1023B0009C91E653FF4F892BC1F410828A819B8147
:1023C000FC01E153FF4F8A5A9F4FDC018D919C9194
:1023D000092E000CAA0BBB0B80839183A283B383CD
:1023E000DF91CF911F910F91089581E08083E6CF17
:1023F000CF93DF93FC01C281D38184E090E00E94FF
:102400001C282EE334E0FC0131832083BC01CE0183
:10241000DF91CF910C94C30FCF93DF93FC01C28166
:10242000D38184E090E00E941C282EE334E0FC017C
:1024300031832083BC01CE01DF91CF910C94C30F77
:10244000CF93DF93FC01C281D38184E090E00E94AE
:102450001C2828E033E0FC0131832083BC01CE013D
:10246000DF91CF910C94C30FCF93DF93FC01C28116
:10247000D38184E090E00E941C282CE931E0FC012B
:1024800031832083BC01CE01DF91CF910C94C30F27
:10249000CF93DF93FC01C281D38184E090E00E945E
:1024A0001C282EE334E0FC0131832083BC01CE01E3
:1024B000DF91CF910C94C30FCF93DF93FC01C281C6
:1024C000D38184E090E00E941C282AEA31E0FC01DC
:1024D00031832083BC01CE01DF91CF910C94C30FD7
:1024E000CF93DF93DC0112962D913C91F901EA5ACA
:1024F000FF4F27573F4FD9012C91022E000C330B71
:1025000031832083FC01C281D38184E090E00E946A
:102510001C2828EB31E0DC012D933C93BC01CE015B
:10252000DF91CF910C94C30FCF93DF93FC01C28155
:10253000D38184E090E00E941C282EE334E0FC016B
:1025400031832083BC01CE01DF91CF910C94C30F66
:10255000CF93DF93FC01C281D38184E090E00E949D
:102560001C2826EC31E0FC0131832083BC01CE0124
:10257000DF91CF910C94C30FCF93DF93DC011296C0
:102580002D913C91F901EA5AFF4F2A573F4FD9014B
:102590002C91022E000C330B31832083FC01C2816D
:1025A000D38184E090E00E941C2824ED31E0DC011E
:1025B0002D933C93BC01CE01DF91CF910C94C30FBE
:1025C000CF93DF93FC01C281D38184E090E00E942D
:1025D0001C282EE334E0FC0131832083BC01CE01B2
:1025E000DF91CF910C94C30FCF93DF93FC01228135
:1025F0003381D901AA5ABF4F29573F4FE90188813A
:10260000082E000C990B8D939C9342815381DA0123
:10261000A757BF4F8C918370EA01C857DF4FD397FC
:10262000811108C08881823029F48D919C91119785
:102630004D97A9F02881022E000C330B265F3F4FE7
:10264000220F331F240F351FE901888199812D91B5
:102650003C9111978217930714F48D939C93C28138
:10266000D38184E090E00E941C2820EF31E0FC013F
:1026700031832083BC01CE01DF91CF910C94C30F35
:10268000CF93DF93FC01C281D38184E090E00E946C
:102690001C2822EE31E0FC0131832083BC01CE01F5
:1026A000DF91CF910C94C30FCF93DF93DC0112968F
:1026B0002D913C91F901EA5AFF4F28573F4FD9011C
:1026C0002C91022E000C330B31832083FC01C2813C
:1026D000D38184E090E00E941C282EEF31E0DC01E1
:1026E0002D933C93BC01CE01DF91CF910C94C30F8D
:1026F0000F931F93CF93DF93EC012A813B81888551
:10270000F901EB59FF4F882369F16AEE74E0CF01BC
:102710000E9401030A811B81F801EB54FF4F808165
:102720009181A281B3814C815D816E817F81841B07
:10273000950BA60BB70B853F9140A105B10520F184
:10274000188684E090E00E941C282EE334E0DC012F
:102750002D933C93BC01C801DF91CF911F910F9144
:102760000C94C30FD901A358BF4F91E09C932D57F0
:102770003F4FD9018C9120E2218F228F938F6AE005
:102780000E947927848F958FDF91CF911F910F91B0
:102790000895AF92BF92CF92EF920F93CF93DF93B2
:1027A000EC018A819B81BC0167577F4FAC01485780
:1027B0005F4F9C0129573F4FDC01AA57BF4F5C0177
:1027C000E5E8AE0EB11C8A5A9F4FFB01C080FA01AA
:1027D000E080F90100812C91F5014081FC016081CC
:1027E00080E00E94ED05EA81FB81E154FF4F81E02A
:1027F00080830A80DB81C02D89E090E00E941C2844
:10280000FC018AE192E09183808314821582168212
:1028100017821086BF01CE01DF91CF910F91EF900B
:10282000CF90BF90AF900C94C30FAF92BF92CF9256
:10283000EF920F93CF93DF93EC018A819B81BC01D0
:1028400067577F4FAC0148575F4F9C0129573F4F57
:10285000DC01AA57BF4F5C01E6E5AE0EB11C8C57F8
:102860009F4FFB01C080FA01E080F90100812C91AB
:10287000D5014C91FC01608180E00E94ED058A81C8
:102880009B81FC01EA5AFF4F8C579F4FDC018C91D2
:10289000082E000C990B918380830A80DB81C02D68
:1028A00084E090E00E941C2828E232E0FC013183A1
:1028B0002083BC01CE01DF91CF910F91EF90CF909B
:1028C000BF90AF900C94C30FCF93DF93FC01C281F4
:1028D000D38184E090E00E941C282CE032E0FC01CF
:1028E00031832083BC01CE01DF91CF910C94C30FC3
:1028F000CF93DF93DC0112962D913C91F901EA5AB6
:10290000FF4F2B573F4FD9012C91022E000C330B58
:1029100031832083FC01C281D38184E090E00E9456
:102920001C2826E332E0DC012D933C93BC01CE0150
:10293000DF91CF910C94C30FCF93DF93EC01EA8129
:10294000FB81EA5AFF4F808191810E942403BC01E0
:102950008BE090E00E94D70560E870E08DE090E0A9
:102960000E94D7050A80DB81C02D84E090E00E94A0
:102970001C282EE334E0FC0131832083BC01CE010E
:10298000DF91CF910C94C30FCF93DF93FC01C281F1
:10299000D38184E090E00E941C2824E432E0FC0112
:1029A00031832083BC01CE01DF91CF910C94C30F02
:1029B000CF93DF93DC011296ED91FC911397EA5AC5
:1029C000FF4F118210821296CD91DC9184E090E04D
:1029D0000E941C282EE632E0FC0131832083BC01DA
:1029E000CE01DF91CF910C94C30FCF93DF93FC0105
:1029F000C281D38184E090E00E941C282CE732E061
:102A0000FC0131832083BC01CE01DF91CF910C9476
:102A1000C30FCF93DF93FC01C281D38184E090E0A8
:102A20000E941C282EE334E0FC0131832083BC018A
:102A3000CE01DF91CF910C94C30FCF93DF93FC01B4
:102A4000C281D38184E090E00E941C2828E932E012
:102A5000FC0131832083BC01CE01DF91CF910C9426
:102A6000C30FCF93DF93FC01C281D38184E090E058
:102A70000E941C282EE334E0FC0131832083BC013A
:102A8000CE01DF91CF910C94C30FCF93DF93FC0164
:102A9000C281D38184E090E00E941C282AE832E0C1
:102AA000FC0131832083BC01CE01DF91CF910C94D6
:102AB000C30FCF93DF93FC01C281D38184E090E008
:102AC0000E941C282EE334E0FC0131832083BC01EA
:102AD000CE01DF91CF910C94C30FCF93DF93FC0114
:102AE000C281D38184E090E00E941C2828E932E072
:102AF000FC0131832083BC01CE01DF91CF910C9486
:102B0000C30FCF93DF93FC01C281D38184E090E0B7
:102B10000E941C282EE334E0FC0131832083BC0199
:102B2000CE01DF91CF910C94C30FCF93DF93FC01C3
:102B3000C281D38184E090E00E941C2828E932E021
:102B4000FC0131832083BC01CE01DF91CF910C9435
:102B5000C30FCF93DF93FC01C281D38184E090E067
:102B60000E941C2826EA32E0FC0131832083BC014C
:102B7000CE01DF91CF910C94C30FCF93DF93FC0173
:102B8000C281D38184E090E00E941C2828E932E0D1
:102B9000FC0131832083BC01CE01DF91CF910C94E5
:102BA000C30FCF93DF93FC01C281D38184E090E017
:102BB0000E941C2824EB32E0FC0131832083BC01FD
:102BC000CE01DF91CF910C94C30F21E020931C061E
:102BD00028E620933E0610921D0610923F060E94A2
:102BE000D2050E946F0361E088E60E9456041092AD
:102BF000CF058093CE0580E496E00C945C05CF93DE
:102C0000DF938FE090E00E94E515EC0181E0809376
:102C10001C0688E680933E0610921D0610923F0621
:102C20008FE090E00E94D205CE018C7F99270E9410
:102C3000D205DF91CF910C946F03CF93DF93EC011A
:102C40008C549F4F0E94FF15FE01E853FF4F1082E6
:102C500060E083E00E948E02FE01EE56FF4F10827C
:102C6000CE018F569F4FDF91CF910C945706FF9264
:102C70000F931F93CF93DF93F82EC091EB06D09163
:102C8000EC06FE01E752FF4F10828E010F561F4FD8
:102C9000C8010E9457060E947202CE010E941D16B2
:102CA000C154DF4F1882C8010E94570661E084E1D9
:102CB0000E948E0260E084E10E9444021092B00003
:102CC0001092B1001092B3001092B40061E084E160
:102CD0000E948E0260E084E10E9444020E9472021F
:102CE00060E085E10E94440281E08093C905109272
:102CF0000B0710920C0710920D0710920E071092FE
:102D00000507109206071092070710920807FF2088
:102D100009F4AFC080916800816080936800809161
:102D20006B00866080936B00809168008260809366
:102D3000680080916C00886080936C0080917A00BC
:102D40008093770510927A0085B7982F90668F7DD3
:102D500080648093760595BF8091760585BF10923B
:102D60006F0083B7816083BF88958091C9058823F0
:102D700009F484C0C091EB06D091EC06CE018F56C9
:102D80009F4F0E94570660E084E10E948E0283E616
:102D90008093B0008DE08093B10082E18093B30016
:102DA00089E08093B40060E083E00E948E02CE56FA
:102DB000DF4F188219821A821B821C8261E086E131
:102DC0000E9444028091EB069091EC06FC01E653D0
:102DD000FF4F10823D9721E0208384589F4FFC01D4
:102DE00020831092C9058091F7069091F806909380
:102DF0000A078093090783B78E7F83BF8091770589
:102E000080937A008091CA059091CB05A091CC0562
:102E1000B091CD058093C5059093C605A093C705D5
:102E2000B093C80510920107109202071092030791
:102E30001092040780916F00826080936F0061E0C0
:102E400085E10E944402C091EB06D091EC0684E03B
:102E500090E00E941C282EE334E0FC0131832083A3
:102E6000BC01CE01DF91CF911F910F91FF900C9487
:102E7000C30F1092680010926B0056CFDF91CF9174
:102E80001F910F91FF900895EF92FF920F931F9360
:102E9000CF93DF938C01FC01828193810E941D16E8
:102EA000F80182819381FC01EA53FF4F2081318137
:102EB000243031050CF058C0E254F1092081022E73
:102EC000000C330B7901FFEFEF1AFF0A8B579F4F6E
:102ED000FC01C0810C2E000CDD0BFCE3EF16F104AD
:102EE0005CF079014BE3E41AF108CE010196679793
:102EF000883191050CF4EC0161E070E087E090E02E
:102F00000E94D705CE010E942403BC0189E090E015
:102F10000E94D705C7010E942403BC0188E090E00D
:102F20000E94D70560E870E08AE090E00E94D70533
:102F300065E070E08EE090E00E94D705F801C28164
:102F4000D38184E090E00E941C2820E831E0FC015D
:102F500031832083BC01CE01DF91CF911F910F916E
:102F6000FF90EF900C94C30F11821082E7CFCF93A4
:102F7000DF93EC018A819B819C0120543F4FDC014F
:102F8000AB54BF4F8C539F4FFC0140815181052EA4
:102F9000000C660B770B8D919D910D90BC91A02D2F
:102FA000841B950BA60BB70BF90180839183A28339
:102FB000B383EA81FB81EA53FF4F118210828A8139
:102FC0009B810E941D160A80DB81C02D84E090E069
:102FD0000E941C282EE334E0FC0131832083BC01D5
:102FE000CE01DF91CF910C94C30F2F923F924F925D
:102FF0005F926F927F928F929F92AF92BF92CF9289
:10300000DF92EF92FF920F931F93CF93DF9300D045
:103010001F92CDB7DEB78C01FC010280F381E02D59
:10302000FB83EA83EB54FF4F60817181828193813E
:1030300028EE33E040E050E00E949B27653F71405E
:103040008105910508F4B0C08A819B810E94A20F7E
:10305000F8010280F381E02DFB83EA83E853FF4F00
:103060008081882309F4BBC02A803B80F5EB2F0EBA
:10307000311CF101C080D180E280F380EA81FB81C4
:10308000E054FF4F80809180A280B380EA81FB8171
:10309000E753FF4F8081882379F1C701B60128EEFD
:1030A00033E040E050E00E94BD272B013C010A8143
:1030B0001B810E561F4FF801F081F9832DE730E098
:1030C00040E050E00E94BD276E33710581059105F7
:1030D0000CF073C024EF421621E052066104710423
:1030E0000CF06BC08981811107C061E083E00E9410
:1030F0008E0281E0F80180830A811B810F561F4FE9
:10310000F101608171818281938128EE33E040E09A
:1031100050E00E949B272B013C01F80130802DE7F5
:1031200030E040E050E00E949B276E33710581053E
:10313000910508F04DC0F4EF4F16F1E05F06610411
:10314000710408F045C0311003C0C8010E946E062A
:10315000C818D908EA08FB08EA81FB81EC53FF4F45
:1031600080819181092E000CAA0BBB0B8C159D054B
:10317000AE05BF05A4F58A819B810F900F900F903B
:10318000DF91CF911F910F91FF90EF90DF90CF9043
:10319000BF90AF909F908F907F906F905F904F9077
:1031A0003F902F900C941D1662ED74E08A819B81F4
:1031B0008B599F4F0E9401034BCFF981FF2309F4E4
:1031C0009BCF60E083E00E948E02F801108294CFD2
:1031D000332009F4BDCFC8010E945706B9CF0F9024
:1031E0000F900F90DF91CF911F910F91FF90EF9073
:1031F000DF90CF90BF90AF909F908F907F906F9017
:103200005F904F903F902F9008950F931F93CF930F
:10321000DF93EC01EA81FB81EA5AFF4F80819181C3
:103220000E942403BC018CE090E00E94D7058BE053
:1032300090E00E94E5150A811B810E940D03F801B0
:10324000EA5AFF4F918380830A80DB81C02D84E09E
:1032500090E00E941C2822E532E0FC0131832083AB
:10326000BC01CE01DF91CF911F910F910C94C30F40
:103270000F931F93CF93DF93EC018A819B81FC0115
:10328000EA5AFF4F208131812230310501F564E097
:1032900070E08EE090E00E94D7050A811B8184E0F7
:1032A00090E00E941C282EE334E0FC01318320834F
:1032B000BC01C8010E94C30FEA81FB81EC54FF4F9F
:1032C00081E08083DF91CF911F910F9108958C54FD
:1032D0009F4FFC0110828A819B81FC01EA5AFF4FBB
:1032E00020813181232B29F487539F4F21E0FC015A
:1032F00020838A819B81FC01EA5AFF4F2081318122
:103300002130310521F487539F4FFC01108266E084
:1033100070E08EE090E00E94D7058A819B818C54FA
:103320009F4F0E94FF158CE090E00E94E5150A81F6
:103330001B810E940D03F801EA5AFF4F918380839D
:103340000A80DB81C02D84E090E00E941C2820E6EA
:1033500032E0FC0131832083BC01CE01DF91CF91AB
:103360001F910F910C94C30F0F931F93CF93DF9373
:10337000EC01EA81FB81E752FF4F1082EA81FB8179
:10338000E652FF4F10828A819B810E94A20F8CE03F
:1033900090E00E94E5150E940D038C018BE090E007
:1033A0000E94E5150A80DB81C02DFE01EB57FF4F1F
:1033B0008081082E000C990B80179107D1F431976A
:1033C00080818823B1F0EC5BFF4F8081882389F0F6
:1033D00084E090E00E941C282EE831E0FC0131835B
:1033E0002083BC01CE01DF91CF911F910F910C94EE
:1033F000C30FDF91CF911F910F910895CF93DF936A
:10340000FC0101900020E9F73197AF01481B590BEF
:10341000BC018CE496E00E94A801EC0142E050E07F
:1034200060EF74E08CE496E00E94A8018C0F9D1F71
:10343000DF91CF91089585ED8093BC0080911806AF
:1034400090911906A0911A06B0911B060796A11D2E
:10345000B11D23E0B695A795979587952A95D1F745
:103460002091BC0024FD03C01092160608954091DF
:1034700018065091190660911A0670911B06452B8B
:10348000462B472B69F30097A105B10541F02AE1CE
:103490002A95F1F700C00197A109B109E1CF809108
:1034A00017060C9430030C94B8280C94B8280C948C
:1034B000B8280C94B8280C94B8280C94B8280C940C
:1034C000B8280C94B8280C94B8280C94B8280C94FC
:1034D000B8280C94B8280C94B8280C94B8280C94EC
:1034E000B8280C94B8280C94B8280C94B8280C94DC
:1034F000B8280C94B8280C94B8280C94B8280C94CC
:10350000B8280C94B8280C94B8280C94B8280C94BB
:10351000B8280C94B8280C94B8280C94B8280C94AB
:10352000B8280C94B8280C94B828DC011296ED91B8
:10353000FC91E755FF4F2081233419F526E42083C1
:10354000DC011296ED91FC91EB55FF4F6481828175
:10355000938120917405309175052F5F3F4F309313
:103560007505209374054091E9065091EA064115CE
:10357000510519F04217530734F483EF94E00C948B
:10358000FE1923E4DCCF9C012F5F3F4F21303240F6
:103590001CF085E195E0F3CF0C942D251F920F923E
:1035A0000FB60F9211242F933F934F935F936F9316
:1035B0007F938F939F93AF93BF93EF93FF938CE48D
:1035C00096E00E94F800FF91EF91BF91AF919F911B
:1035D0008F917F916F915F914F913F912F910F90BC
:1035E0000FBE0F901F9018951F920F920FB60F925B
:1035F00011242F938F939F93EF93FF93E0915C0699
:10360000F0915D068081E0916206F091630682FD93
:103610001BC09081809165068F5F8F732091660635
:10362000821741F0E0916506F0E0E45BF94F958F79
:1036300080936506FF91EF919F918F912F910F904D
:103640000FBE0F901F9018958081F4CF1F920F929C
:103650000FB60F9211242F933F938F939F93AF93A5
:10366000BF938091C1059091C205A091C305B0910F
:10367000C4053091BC0526E0230F2D3758F502967E
:10368000A11DB11D2093BC058093C1059093C20577
:10369000A093C305B093C4058091BD059091BE056C
:1036A000A091BF05B091C0050196A11DB11D8093E9
:1036B000BD059093BE05A093BF05B093C005BF9113
:1036C000AF919F918F913F912F910F900FBE0F90CF
:1036D0001F90189529E8230F0396A11DB11DD2CF85
:1036E0000C94B9001F920F920FB60F9211242F93D2
:1036F0003F934F935F936F937F938F939F93AF937A
:10370000BF93EF93FF938091B900887F803609F4CF
:103710004AC0F0F5883209F4A5C018F5803109F4E3
:1037200099C0B8F4882309F4F5C0883009F492C030
:10373000FF91EF91BF91AF919F918F917F916F9189
:103740005F914F913F912F910F900FBE0F901F905F
:103750001895883109F486C0803251F78093140699
:1037600014C0803409F49BC040F48033B9F388332B
:10377000F9F68093140685ECAEC0803509F483C059
:10378000883509F494C0883499F60E941B1AD0CF6A
:10379000883909F48AC038F5883729F050F488361A
:1037A00011F0803729F683E0809316061092BB054E
:1037B00055C0883809F479C0803919F0803809F08B
:1037C000B7CF8091BB05803208F06FC0E091BB0598
:1037D00081E08E0F8093BB058091BB00F0E0E55641
:1037E000FA4F80833BC0803B39F0D0F4803A09F433
:1037F00077C0883A09F09CCF84E080931606109237
:103800009A0510929905F0E0E0E0099580919905FC
:1038100081110FC081E0809399051092790509C04C
:10382000803C09F4A8CF883C09F4A5CF883B09F077
:103830007FCFE0919A0581E08E0F80939A05F0E0AA
:10384000E758FA4F80818093BB0090919A05809150
:10385000990529C08091F1058093BB0085EC809388
:10386000BC0066CF9091130680911206981758F508
:10387000E091130681E08E0F80931306F0E0EE5086
:10388000FA4F8081E9CFE091130681E08E0F80939B
:1038900013068091BB00F0E0EE50FA4F80839091C8
:1038A0001306809112069817C8F285E8D8CFE091E8
:1038B000130681E08E0F809313068091BB00F0E029
:1038C000EE50FA4F80838091150681115ECF81E022
:1038D0008093F00584EA8093BC001092160628CFEE
:1038E00085EC8093BC00109216068091BB05803257
:1038F00030F4E091BB05F0E0E556FA4F108260919C
:10390000BB0570E08BE995E0F0E0E0E009951092EE
:10391000BB050ECF1092140638CF1F920F920FB630
:103920000F9211242F934F935F936F937F938F93F5
:103930009F93AF93BF93CF93DF93EF93FF938091C8
:10394000EB069091EC06FC01E853FF4F208121111A
:1039500017C0DC01A054BF4FEC01CB54DF4F4881AE
:1039600059816A817B814D935D936D937C9313970D
:1039700021E0208332978081918101969183808319
:10398000FF91EF91DF91CF91BF91AF919F918F9177
:103990007F916F915F914F912F910F900FBE0F907C
:1039A0001F9018951F920F920FB60F9211242F930C
:1039B0003F934F935F936F937F938F939F93AF93B7
:1039C000BF93CF93DF93EF93FF93C091EB06D0911A
:1039D000EC06CB59DF4F8D899E899C01255031091A
:1039E0002530310518F08F3091051CF160E085E03D
:1039F0000E94440260E086E00E9444028D899E8914
:103A0000019684319105F1F09E8B8D8BFF91EF91A2
:103A1000DF91CF91BF91AF919F918F917F916F91E6
:103A20005F914F913F912F910F900FBE0F901F907C
:103A300018958530910514F461E0D9CF0A97059760
:103A4000E8F6FACF1E8A1D8AE1CF1F920F920FB6B9
:103A50000F9211240F900FBE0F901F901895CF92C8
:103A6000DF92EF92FF920F931F93CF93DF93109209
:103A70004F0610924E0688EE93E0A0E0B0E08093EF
:103A8000500690935106A0935206B09353062AE134
:103A900034E030934D0620934C0625EC30E0309313
:103AA00059062093580624EC30E030935B062093AF
:103AB0005A0620EC30E030935D0620935C0621EC42
:103AC00030E030935F0620935E0622EC30E03093C6
:103AD00061062093600626EC30E030936306209365
:103AE00062061092650610926606109267061092A2
:103AF000680624E6C22ED12CD092EA06C092E906CE
:103B00001092430610924206809344069093450615
:103B1000A0934606B09347068CE294E0909341064A
:103B2000809340068AE090E09093EE068093ED0645
:103B30008FE090E09093F0068093EF068AE091E0AA
:103B40009093F2068093F10684E091E09093F4065E
:103B50008093F30680E091E09093F6068093F5065B
:103B600084E090E09093F8068093F70683E090E07D
:103B70009093FA068093F90682E090E09093FC0619
:103B80008093FB0681E090E09093FE068093FD0613
:103B9000109200071092FF0660E080E10E948E0202
:103BA0001092010710920207109203071092040767
:103BB0001092050710920607109207071092080747
:103BC00010920A071092090710920B0710920C0727
:103BD00010920D0710920E0784E090E00E941C28BE
:103BE0007C018EE394E0F701918380838BED90E07C
:103BF0000E941C28EC01DC011D921D928EE0E6E083
:103C0000F1E001900D928A95E1F780ED97E0998BB4
:103C1000888B86E990E09B8B8A8B8AE1E4E1F1E076
:103C2000DE01549601900D928A95E1F788E2EEE26A
:103C3000F1E0DE019E9601900D928A95E1F7FE017A
:103C4000EA5AFF4F118210823296118210828E0141
:103C5000055A1F4F88EE93E0F8019383828362E058
:103C600089E00E948E0262E08AE00E948E02F801E2
:103C70001582148211821082178216821086118694
:103C8000065F1F4F8AE0E6E5F1E0D80101900D9252
:103C90008A95E1F784EF91E0F80193878287D48ACF
:103CA000C38A61E085E00E948E0261E086E00E94A6
:103CB0008E0261E080E00E948E0261E081E00E945D
:103CC0008E0261E082E00E948E0261E084E00E9448
:103CD0008E0261E086E10E948E0260E086E10E9431
:103CE000440261E085E00E94440260E086E00E94B8
:103CF0004402F89410928000109281001092850086
:103D0000109284008EE190E0909389008093880067
:103D10008091810088608093810080918100836020
:103D20008093810080916F00826080936F0078940F
:103D3000F8011486118A128A158616861786108A4B
:103D4000108E168A158A178A7E9610821182128228
:103D50001382148215821682379610821182128283
:103D6000138214821582168261E08FE00E948E0217
:103D700061E08EE00E948E0261E088E00E948E0287
:103D800061E087E00E948E02CE018F569F4F0E9415
:103D9000570683E68093B0008DE08093B10082E106
:103DA0008093B30089E08093B40060E083E00E94D8
:103DB0008E02FE01EE56FF4F108211821282138294
:103DC0001482359610821182128213821482158217
:103DD000168217821086118612861486138615861F
:103DE000005C1F4F88E893E1F8019183808380E1B4
:103DF00090E09383828360E084E10E948E02F80168
:103E00008281938101968130924024F085E195E092
:103E10000E94FE19F801158216821782108683E42B
:103E200084831386148615861686FE01EC54FF4F94
:103E300081E08083709680E395E791838083B7016A
:103E4000CE010E94C30FD093EC06C093EB06DF9126
:103E5000CF911F910F91FF90EF90DF90CF90089539
:103E6000789484B5826084BD84B5816084BD85B555
:103E7000826085BD85B5816085BD80916E00816061
:103E800080936E0010928100809181008260809307
:103E90008100809181008160809381008091800009
:103EA0008160809380008091B10084608093B10034
:103EB0008091B00081608093B00080919100826019
:103EC0008093910080919100816080939100809116
:103ED00090008160809390008091A1008260809327
:103EE000A1008091A10081608093A1008091A00039
:103EF00081608093A00080917A00846080937A0032
:103F000080917A00826080937A0080917A008E7F1F
:103F100080937A0080917A00806880937A00109272
:103F2000C10061E085E10E948E0260E085E10E94AF
:103F3000440283B7817F846083BF81E00E9437168B
:103F4000E091EB06F091EC06E85AFF4F82E090E03A
:103F5000918380838CEE282E82E0382E8FB7F894E0
:103F60008090C1059090C205A090C305B090C40593
:103F70008FBF8092CA059092CB05A092CC05B092DB
:103F8000CD050091EB061091EC06F801EB54FF4FC4
:103F900080829182A282B3828091090790910A0760
:103FA0002091F7063091F8068217930709F0D8C0E0
:103FB0004091010750910207609103077091040737
:103FC00095018401041B150B260B370B8091ED0620
:103FD0009091EE06B0E0A0E080179107A207B3072A
:103FE00028F0452B462B472B09F067C0809201072C
:103FF00090920207A0920307B092040780E10E940A
:10400000CA02EC0140900507509006076090070730
:10401000709008076091EF067091F00690E080E0E4
:104020000E9455264B015C01AC019B01C301B2010A
:104030000E94A82587FF44C0BE0190E080E00E9456
:10404000552620910B0730910C0740910D07509198
:104050000E070E943C256B017C01C0920B07D09299
:104060000C07E0920D07F0920E0720E030E040E8E8
:104070005FE3C301B2010E943C252B013C01409249
:104080000507509206076092070770920807AC0177
:104090009B01C501B4010E94A82581110EC0A30196
:1040A0009201C701B6010E94AD2560930B07709382
:1040B0000C0780930D0790930E070E9491014ECF3D
:1040C00080900B0790900C07A0900D07B0900E0702
:1040D0006091F1067091F20690E080E00E94552612
:1040E0009B01AC01C501B4010E94072718164CF4CE
:1040F0008091FF069091000790930A07809309072B
:10410000DCCF6091F3067091F40690E080E00E94AD
:1041100055269B01AC01C501B4010E940727181662
:104120002CF48091FD069091FE06E6CF6091F50695
:104130007091F60690E080E00E9455269B01AC014C
:10414000C501B4010E94072718162CF48091FB06C4
:104150009091FC06D1CF8091F9069091FA06CCCFD0
:104160002091F9063091FA068217930721F480E036
:104170000E943716A2CF8091C905811136C0E8018F
:10418000C458DF4F8881882381F161E086E10E9475
:1041900044022091090730910A078091FB06909113
:1041A000FC062817390721F061E082E00E944402F2
:1041B0001882F801E754FF4F80829182A282B38275
:1041C0008092C5059092C605A092C705B092C80519
:1041D0002091090730910A078091FB069091FC0617
:1041E0002817390771F40E94720220910907309153
:1041F0000A078091FB069091FC062817390709F4FD
:10420000AFC18AE00E941B02E801C55ADF4F892B2B
:1042100039F48C819D8101969D838C83F12C09C09A
:104220008C819D8118161906CCF71D821C82FF24F3
:10423000F39489E00E941B02892B39F488819981CB
:1042400001969983888360E008C088819981181657
:104250001906CCF71982188261E04C815D812A81B0
:104260003B8188819981241735070CF0E9C3281711
:1042700039070CF020C225E030E03F832E8382E036
:10428000898781E080931C0688E680933E06109221
:104290001D0610923F0690E080E00E94D2050E9429
:1042A0006F0367E088E60E9456041092CF05809362
:1042B000CE0580E496E00E945C058F7799270E94E6
:1042C0000D03F801ED57FF4F808380E496E00E94D4
:1042D0005C050E940D03F801EC57FF4F808380E4DA
:1042E00096E00E945C058F7399270E940D03F801E8
:1042F000EB57FF4F808380E496E00E945C050E94AC
:104300000D03F801EA57FF4F808380E496E00E9496
:104310005C050E940D03F801E957FF4F808380E49C
:1043200096E00E945C050E940D03F801E857FF4FDC
:10433000808380E496E00E945C050E940D03F801F2
:10434000E757FF4F8083D8018D919C91DC01ED915F
:10435000FC910480F581E02D09957801BDEBEB0E11
:10436000F11CF7018081882381F05801FEEBAF0E2C
:10437000B11CD5018C91882309F4BBC1CE010E94E8
:104380003C06E5011882F7011082F801EF59FF4F52
:10439000808191818230910509F4FBC108F0ADC1A3
:1043A000009709F4DDC1019709F4E8C1E091EB063B
:1043B000F091EC068090CA059090CB05A090CC05BA
:1043C000B090CD052091090730910A078091FD0634
:1043D0009091FE06EF01CB59DF4F28173907F1F412
:1043E000DF01A754BF4F8D919D910D90BC91A02DE1
:1043F000B501A401481B590B6A0B7B0B808991897D
:10440000092E000CAA0BBB0B481759076A077B073C
:1044100028F469E675E0CE010E9401038C858230A4
:1044200011F483E08C878A8981111A8A8D859E8593
:10443000AF85B889B501A401481B590B6A0B7B0BEA
:104440008A859B85092E000CAA0BBB0B48175907C0
:104450006A077B0718F0488D442329F041E08B8DD3
:10446000803209F440E02C858C8D803209F072C2D4
:10447000213009F072C2822F90E0FE01E80FF91F8F
:10448000E18D21116FC22989222309F48EC210E027
:1044900000E0EB3738F4F0E0EE0FFF1FE05EFC4F7A
:1044A000008111810478112721E02A8B198A880F55
:1044B000991FFE01E80FF91F80819181082B192BAC
:1044C000442321F08C819D81082B192B61E084E02D
:1044D0000E944402F12CE12CC8010E2C02C09695DA
:1044E00087950A94E2F761E080FF60E080E00E9437
:1044F00044025A985A9A599A5998FFEFEF1AFF0AAC
:104500002CE0E216F10441F760E084E00E944402EE
:104510008C859989992319F0982F9B7F11F08F5FD3
:104520008C878D859E85AF85B889B501A401481B10
:10453000590B6A0B7B0B8A859B85880F991F092E67
:10454000000CAA0BBB0B84179507A607B70720F42E
:104550008D869E86AF86B88A8C85853009F41C8648
:104560008091090790910A072091FD063091FE067F
:104570008217930739F02091FB063091FC068217D1
:10458000930751F5A091EB06B091EC06ED01CB54E9
:10459000DF4FFD01E754FF4F8881998120813181F0
:1045A000821B930B50962D913C9151978217930744
:1045B0009CF45296ED91FC9153979D012F563F4FDD
:1045C000BF01660F771F0E9487278E179F070CF089
:1045D00007C2C9010E946E06E091EB06F091EC065D
:1045E0004091CA055091CB056091CC057091CD05E5
:1045F000DF01AF59BF4F8D919C911197892B41F0ED
:104600004093C5055093C6056093C7057093C805D0
:104610001D921C92DF01A358BF4F1C92A35BBF4F9A
:104620008C91882309F4E0C18091C5059091C6055D
:10463000A091C705B091C8054A015B01881A990A83
:10464000AA0ABB0ADF01A153BF4F0D90BC91A02D58
:10465000AA0FBB1FAA0FBB1FAE0FBF1F9E962D91A7
:104660003D914D915C91D197A0E6BAEE0E94E22770
:10467000681579058A059B0508F01FCD8091C9054D
:1046800081111BCDE853FF4F8081811116CD81E050
:104690006FCD141615060CF4D7C18985823029F424
:1046A00085E090E09F838E83ECCDA4E0B0E0BF83F3
:1046B000AE8381E0E5CD181619060CF4C5C18985D5
:1046C000823029F4E5E0F0E0FF83EE83DACD83E089
:1046D00090E09F838E83EDCFFF2009F4D2CD8985B2
:1046E000811103C081E090E0DDCF1F821E82198618
:1046F000C8CDCE010E943C0646CE8430910509F417
:10470000F6C008F450C0059709F050CED801CD91FD
:10471000DC91EA81FB81E752FF4F1082EA81FB8145
:10472000E652FF4F10828A819B810E941D168A816A
:104730009B81FC01EA5AFF4F81539F4FDC018D9111
:104740009C91918380830A80DB81C02D84E090E07E
:104750000E941C2826E133E0FC0131832083A9C09C
:10476000F801E752FF4F8081882309F41FCE31966C
:10477000808181111BCE81E0808318CED8018D917C
:104780009C91EC01E881F9810680F781E02D099583
:104790000DCEF80180819181DC01ED91FC910084C6
:1047A000F185E02DF4CFF801C081D181EA81FB8150
:1047B000E752FF4F1082EA81FB81E652FF4F1082E1
:1047C0000A811B81F801E757FF4F8081843609F089
:1047D00056C082E290E00E941C28FC0122EC32E0EC
:1047E0003183208388EE93E095838483A0EDB7E046
:1047F000B783A68328EB3BE03187208780EA9FE0E0
:1048000093878287A8E8B3E1B587A48784E090E125
:104810009787868724E030E0318B208B82E090E020
:10482000938B828B958B848B178A168A118E108EB0
:10483000138E128E8AEF90E0958F848F978F868FDC
:1048400087E791E091A380A3BF01C8010E94C30F35
:10485000EA81FB81ED52FF4F118210828A819B8198
:10486000FC01EB52FF4F8B549F4FEC0188819981E3
:10487000AA81BB8180839183A283B38397CDC80132
:104880000E941D160A80DB81C02DFE01E956FF4FF4
:10489000838594858130910589F082309105C1F03E
:1048A000892BE9F484E090E00E941C28FC0131820D
:1048B0002082BC01CE010E94C30F78CD84E090E03D
:1048C0000E941C28EEEDF2E0DC01ED93FC93F1CFA9
:1048D00084E090E00E941C28E0EDF2E0F5CF84E057
:1048E00090E00E941C28DC012D923C92E2CFE8016E
:1048F00008811981F801C281D381FE01E652FF4F80
:104900008081882339F084E090E00E941C28E8E050
:10491000F3E0DACFC752DF4F81E08883D8011296E7
:10492000ED91FC911397E652FF4F108212968D91F4
:104930009C910E941D16F801C281D381FE01E956A7
:10494000FF4F1486138684E090E00E941C28EAEF53
:10495000F2E0BACF233009F48ECD253008F0D8CD5F
:1049600040E089CD243079F529892223F1F010E047
:1049700000E0EB3738F4F0E0EE0FFF1FE05EFC4F95
:10498000008111810870127051E05A8B198A2B89AD
:104990003C891216130634F0598B2F5F3F4F3C8B26
:1049A0002B8B85CD1C8A1B8A82CD10E000E0EB3773
:1049B00038F4F0E0EE0FFF1FE05EFC4F0081118144
:1049C00021E0298B74CD10E000E0EB3708F06FCDCB
:1049D000F0E0EE0FFF1FE05EFC4F0081118167CD1C
:1049E000C9010E945706F8CDDF01A154BF4F8C9139
:1049F000882399F08091C5059091C605A091C705BF
:104A0000B091C805481B590B6A0B7B0B413C544DB8
:104A10006140710508F032CE50CB8091C505909170
:104A2000C605A091C705B091C805481B590B6A0B74
:104A30007B0B413E5E426105710508F01FCE3DCB08
:104A4000281739070CF425CE662309F445CE89854D
:104A500081114BCE82E090E025CE262FF999FECF32
:104A60001FBA92BD81BD20BD0FB6F894FA9AF99A8B
:104A70000FBE019608955058BB27AA270E945325C0
:104A80000C94CD260E94BF2638F00E94C62620F046
:104A900039F49F3F19F426F40C94BC260EF4E095EB
:104AA000E7FB0C94B626E92F0E94DE2658F3BA17CE
:104AB000620773078407950720F079F4A6F50C9434
:104AC00000270EF4E0950B2EBA2FA02D0B01B90193
:104AD00090010C01CA01A0011124FF27591B99F074
:104AE000593F50F4503E68F11A16F040A22F232F80
:104AF000342F4427585FF3CF469537952795A795D0
:104B0000F0405395C9F77EF41F16BA0B620B730B76
:104B1000840BBAF09150A1F0FF0FBB1F661F771FE7
:104B2000881FC2F70EC0BA0F621F731F841F48F49C
:104B3000879577956795B795F7959E3F08F0B0CF25
:104B40009395880F08F09927EE0F9795879508950C
:104B50000E94922608F481E008950E94C1250C94D9
:104B6000CD260E94C62658F00E94BF2640F029F4A8
:104B70005F3F29F00C94B62651110C9401270C9438
:104B8000BC260E94DE2668F39923B1F3552391F3E6
:104B9000951B550BBB27AA2762177307840738F0AC
:104BA0009F5F5F4F220F331F441FAA1FA9F335D009
:104BB0000E2E3AF0E0E832D091505040E695001CBD
:104BC000CAF72BD0FE2F29D0660F771F881FBB1F77
:104BD000261737074807AB07B0E809F0BB0B802D55
:104BE000BF01FF2793585F4F3AF09E3F510578F081
:104BF0000C94B6260C9401275F3FE4F3983ED4F35F
:104C0000869577956795B795F7959F5FC9F7880F54
:104C1000911D9695879597F90895E1E0660F771FA6
:104C2000881FBB1F621773078407BA0720F0621B37
:104C3000730B840BBA0BEE1F88F7E09508950E9462
:104C400026266894B1110C94012708950E94E62647
:104C500088F09F5798F0B92F9927B751B0F0E1F03D
:104C6000660F771F881F991F1AF0BA95C9F714C0ED
:104C7000B13091F00E940027B1E008950C94002714
:104C8000672F782F8827B85F39F0B93FCCF3869526
:104C900077956795B395D9F73EF490958095709583
:104CA00061957F4F8F4F9F4F0895E89409C097FB00
:104CB0003EF490958095709561957F4F8F4F9F4FF3
:104CC0009923A9F0F92F96E9BB279395F695879537
:104CD00077956795B795F111F8CFFAF4BB0F11F4FA
:104CE00060FF1BC06F5F7F4F8F4F9F4F16C08823A1
:104CF00011F096E911C0772321F09EE8872F762FD7
:104D000005C0662371F096E8862F70E060E02AF017
:104D10009A95660F771F881FDAF7880F9695879503
:104D200097F90895990F0008550FAA0BE0E8FEEFD8
:104D300016161706E807F907C0F012161306E4075F
:104D4000F50798F0621B730B840B950B39F40A2658
:104D500061F0232B242B252B21F408950A2609F436
:104D6000A140A6958FEF811D811D089597F99F673A
:104D700080E870E060E008959FEF80EC08950024E3
:104D80000A941616170618060906089500240A94B0
:104D900012161306140605060895092E0394000C36
:104DA00011F4882352F0BB0F40F4BF2B11F460FFC5
:104DB00004C06F5F7F4F8F4F9F4F089557FD9058EE
:104DC000440F551F59F05F3F71F04795880F97FBCF
:104DD000991F61F09F3F79F0879508951216130689
:104DE0001406551FF2CF4695F1DF08C016161706B8
:104DF0001806991FF1CF86957105610508940895ED
:104E0000E894BB2766277727CB0197F908950E947E
:104E1000922608F48FEF08950E941F270C94CD2648
:104E20000E94BF2638F00E94C62620F0952311F07C
:104E30000C94B6260C94BC2611240C9401270E94D5
:104E4000DE2670F3959FC1F3950F50E0551F629FCA
:104E5000F001729FBB27F00DB11D639FAA27F00DD3
:104E6000B11DAA1F649F6627B00DA11D661F829FFA
:104E70002227B00DA11D621F739FB00DA11D621FDF
:104E8000839FA00D611D221F749F3327A00D611DFC
:104E9000231F849F600D211D822F762F6A2F1124DE
:104EA0009F5750409AF0F1F088234AF0EE0FFF1F11
:104EB000BB1F661F771F881F91505040A9F79E3F68
:104EC000510580F00C94B6260C9401275F3FE4F363
:104ED000983ED4F3869577956795B795F795E795BE
:104EE0009F5FC1F7FE2B880F911D9695879597F9C7
:104EF000089587FB082E062687FD819567FD61953D
:104F00000E94ED270EF4919507FC8195089597FB7B
:104F1000072E16F4009407D077FD09D00E94F927D8
:104F200007FC05D03EF4909581959F4F08957095AC
:104F300061957F4F0895A1E21A2EAA1BBB1BFD01AC
:104F40000DC0AA1FBB1FEE1FFF1FA217B307E40768
:104F5000F50720F0A21BB30BE40BF50B661F771FC0
:104F6000881F991F1A9469F76095709580959095A0
:104F70009B01AC01BD01CF010895052E97FB1EF4E6
:104F800000940E94D42757FD07D00E949B2707FC5E
:104F900003D04EF40C94D42750954095309521952C
:104FA0003F4F4F4F5F4F0895909580957095619555
:104FB0007F4F8F4F9F4F0895EE0FFF1F0590F49185
:104FC000E02D09940E940D28A59F900DB49F900D8F
:104FD000A49F800D911D11240895991B79E004C0B0
:104FE000991F961708F0961B881F7A95C9F7809528
:104FF0000895AA1BBB1B51E107C0AA1FBB1FA61720
:10500000B70710F0A61BB70B881F991F5A95A9F771
:1050100080959095BC01CD010895A29FB001B39FEA
:10502000C001A39F700D811D1124911DB29F700DB1
:10503000811D1124911D08950F931F93CF93DF932A
:105040008230910510F482E090E0E0911107F09138
:10505000120730E020E0B0E0A0E0309799F421158D
:10506000310509F44AC0281B390B24303105D8F525
:105070008A819B816115710589F1FB01938382838C
:10508000FE0111C0408151810281138148175907E7
:10509000E0F04817590799F4109761F012960C93B5
:1050A000129713961C933296CF01DF91CF911F91E7
:1050B0000F9108950093110710931207F4CF211553
:1050C000310551F04217530738F0A901DB019A016D
:1050D000BD01DF01F801C1CFEF01F9CF90931207B5
:1050E00080931107CDCFFE01E20FF31F81939193BF
:1050F0002250310939832883D7CF20910F0730916F
:105100001007232B41F420910201309103013093C9
:10511000100720930F072091000130910101211504
:10512000310541F42DB73EB740910401509105017E
:10513000241B350BE0910F07F0911007E217F307DE
:10514000A0F42E1B3F0B2817390778F0AC014E5FF7
:105150005F4F2417350748F04E0F5F1F509310071D
:1051600040930F07819391939FCFF0E0E0E09CCFB5
:10517000CF93DF930097E9F0FC01329713821282FC
:10518000A0911107B0911207ED0130E020E01097D7
:10519000A1F420813181820F931F20910F0730915C
:1051A00010072817390709F061C0F0931007E09342
:1051B0000F07DF91CF910895EA01CE17DF07E8F5D9
:1051C0004A815B819E0141155105B1F7E901FB83DD
:1051D000EA8349915991C40FD51FEC17FD0761F47B
:1051E000808191810296840F951FE90199838883BC
:1051F000828193819B838A83F0E0E0E012968D9117
:105200009C9113970097B9F52D913C911197CD0181
:105210000296820F931F20910F07309110072817D5
:10522000390739F6309751F510921207109211078D
:10523000B0931007A0930F07BCCFD383C2834081E4
:105240005181840F951FC817D90761F44E5F5F4FD6
:1052500088819981480F591F518340838A819B819E
:10526000938382832115310509F0B0CFF0931207A3
:10527000E09311079ECFFD01DC01C0CF13821282A3
:06528000D7CFF894FFCF28
:105286000000130780003F0545054B0551055705EE
:105296005D05630500001F001C001F001E001F00A7
:1052A6001E001F001F001E001F001E001F00000022
:1052B60000000100000003000000050000000A00D5
:1052C60000000F0000001E0000002D0000003C0042
:1052D60000000F2700002000020040000001000827
:1052E600000000004009931A4109C710C7100000CA
:1052F60000003E098F1A17110311CE0900000000A5
:105306003C098B1A270AF811F811000000003B0926
:10531600891AF517B7174417000000003A09871ACB
:10532600440A0C12951A000000003909851A560A1B
:1053360034122012000000003809831AAD0A481200
:105346005F0A000000003709811ACD0A70125C124C
:105356000000000036097F1A250B9412D60A0000B9
:1053660000003509531A390BBC12A81200000000C0
:1053760034097D1AAF0BE012420B0000000033091E
:105386007B1A1D0CF412CE0B000000003209791AAC
:105396003C0C54134013000000003109771A7813AF
:1053A6008E0C450C000000003009751AAE0CC913AE
:1053B600950C000000002F09731ADE0C1514C50C9D
:1053C600000000002E09711AFD0C78146414000008
:1053D60000002D096F1A060D9C14950C00000000A4
:1053E6002C096D1A250D0519C50C000000002B09A6
:1053F6006B1A5D0D3819440D000000002A09691A60
:10540600790DD814C414000000002809651A8B0D04
:1054160031151D15000000002709631A650E591580
:105426004515000000002609611A770E81156D15D5
:105436000000000025095F1A8E0EA91595150000BB
:10544600000089065B1AD306DE0F8A0600000000FC
:105456008706571A210F8410631000000000860685
:10546600551A310FB3109810000000008806591A1B
:10547600090F4F101D10000000002909671A820D40
:105486000915F514000000003F09911AC509EF102F
:10549600DB10000000003D098D1A1E0A9D119D11AA
:1054A6009D02080215061906880699049D0409023C
:1054B6009D069906000000000000000000000000A4
:1054C60000000000000000000000000000000000D6
:1054D60000000000000000000000000000000000C6
:1054E60000000000000000000000000000000000B6
:1054F600000000008106000000000000000084009B
:105506009D02080215061906880699049D040902DB
:105516009D06990600000000000011000000000032
:1055260000008D069D0695009D02950485049D0448
:105536008C06080219020000940009028D029D02E1
:10554600850600008D06990494049C029C021802AC
:105556008C0688061506000000000000000000000A
:1055660000008D069C0414041C06950685049D0403
:105576008C04040019020000940008040C041C04A6
:10558600850600000404990494041C001C001800FD
:105596008C0698061506000000001A01A801BB003B
:1055A6006701EC00CA00DE0000000000A3057605D6
:1055B60039064C056F055C054D0500000000240901
:1055C6005D1AB419D115BD153139203835002020A2
:1055D600202020003D2020202000203D20202000EB
:1055E6002020203D2000202020203D003D2020209E
:1055F6003D003D3D20202000203D203D2000202074
:10560600203D3D003D3D203D20003D3D203D3D00EF
:10561600313920353500534520726E0050412074D3
:1056260059007445206E6E00594520417200646F22
:10563600205555004441207445007469206E6E0063
:105646004F6E202020005369204C45004F462046CF
:105656002000414C20417200534520742000303018
:1056660031303000393920393900202031303000CE
:105676000D0A004578636565646564206D61786927
:105686006D756D206E756D626572206F662077721E
:105696006974657300417474656D707420746F204D
:1056A6007772697465206F757473696465206F66B7
:1056B60020454550524F4D206D656D6F7279004EF5
:1056C6004E206F6E007475204520005555204564A8
:1056D600007468207520004672206920005341201E
:1056E6007420005375206E20004241204C6F00004C
:00000001FF
