:020000040000FA
:100000000C9491000C94B9000C94B9000C943C1D14
:100010000C94A41C0C94B9000C94B9000C94B90075
:100020000C94B9000C94B9000C94B9000C94E91C20
:100030000C94B9000C94B9000C94B9000C94B9005C
:100040000C943D1B0C94B9000C940B1B0C94E51AFA
:100050000C94B9000C94B9000C94B9000C94B9003C
:100060000C94891B0C94B9000C94871B0C94871B6F
:100070000C94871B0C94871B0C94871B0C94871B78
:100080000C94871B0C94871B0C94871B0C94871B68
:100090000C94871B0C94871B0C94871B0C94871B58
:1000A0000C94871B0C94871B0C94871B0C94871B48
:1000B0000C94871B00000000240027002A002D005C
:1000C00000000000250028002B002E00000000008A
:1000D0002300260029002C00040404040404040462
:1000E00002020202020203030303030305050505DE
:1000F00001020408102040800102040810200102BF
:100100000408102004080102090C0A08000201007A
:1001100000030407000000000000000000000000D1
:10012000461D11241FBECFEFD8E0DEBFCDBF15E0C6
:10013000A0E0B1E0EAEFF1E502C005900D92A23B2C
:10014000B107D9F727E0A2EBB5E001C01D92A535B4
:10015000B207E1F710E0C1E9D0E004C02197FE0149
:100160000E949627C039D107C9F70E94471F0C94F7
:10017000FB280C940000FC01538D448D252F30E0AA
:10018000842F90E0821B930B541710F0CF960895A4
:1001900001970895FC01918D828D981761F0A28DD1
:1001A000AE0FBF2FB11D5D968C91928D9F5F9F7397
:1001B000928F90E008958FEF9FEF0895FC01918D4D
:1001C000828D981731F0828DE80FF11D858D90E0BA
:1001D00008958FEF9FEF0895FC01918D228D892F57
:1001E00090E0805C9F4F821B91098F73992708953F
:1001F000FC01A48DA80FB92FB11DA35ABF4F2C919C
:10020000848D90E001968F739927848FA689B78992
:100210002C93A089B1898C91837080648C93938D89
:10022000848D981306C00288F389E02D80818F7D2C
:1002300080830895EF92FF920F931F93CF93DF93E4
:10024000EC0181E0888F9B8D8C8D98131AC0E88912
:10025000F989808185FF15C09FB7F894EE89FF89E1
:100260006083E889F98980818370806480839FBF7F
:1002700081E090E0DF91CF911F910F91FF90EF907F
:100280000895F62E0B8D10E00F5F1F4F0F7311278F
:10029000E02E8C8D8E110CC00FB607FCFACFE889CA
:1002A000F989808185FFF5CFCE010E94F800F1CF5A
:1002B000EB8DEC0FFD2FF11DE35AFF4FF0829FB73E
:1002C000F8940B8FEA89FB8980818062CFCFCF932E
:1002D000DF93EC01888D8823B9F0AA89BB89E8896E
:1002E000F9898C9185FD03C0808186FD0DC00FB614
:1002F00007FCF7CF8C9185FFF2CF808185FFEDCF92
:10030000CE010E94F800E9CFDF91CF9108958EE8E9
:1003100096E00E94EC0021E0892B09F420E0822F76
:10032000089580E090E0892B29F00E9487018111D7
:100330000E94000080E090E0892B49F080E090E08E
:10034000892B29F00E94000081110C94000008956F
:10035000AF92BF92CF92DF92EF92FF920F931F93D3
:10036000CF93DF936C017B018B01040F151FEB0111
:100370005E01AE18BF08C017D10759F06991D601C8
:10038000ED91FC910190F081E02DC6010995892B3A
:1003900079F7C501DF91CF911F910F91FF90EF90F9
:1003A000DF90CF90BF90AF90089581508D3008F0CE
:1003B0003DC0E82FF0E0E152FE4F0C949627F60185
:1003C000FA01EC01F20116021602FD010302070216
:1003D0000D02160211021702809180008F77809320
:1003E00080000895809180008F7DF9CF84B58F774C
:1003F00084BD089584B58F7DFBCF8091B0008F7749
:100400008093B00008958091B0008F7DF9CF8091E6
:1004100090008F77809390000895809190008F7D59
:10042000F9CF8091A0008F778093A00008958091EC
:10043000A0008F7DF9CFCF93DF93282F30E0F90113
:10044000E85FFE4F8491F901E051FF4FD491F9012B
:10045000E852FF4FC491CC23A1F081110E94D50135
:10046000EC2FF0E0EE0FFF1FE453FF4FA591B49186
:10047000EC91ED2381E090E009F480E0DF91CF91F1
:10048000089580E090E0FACF1F93CF93DF93282F59
:1004900030E0F901E85FFE4F8491F901E051FF4F30
:1004A000D491F901E852FF4FC491CC23A9F0162F43
:1004B00081110E94D501EC2FF0E0EE0FFF1FE054F8
:1004C000FF4FA591B4918FB7F894EC91111108C02A
:1004D000D095DE23DC938FBFDF91CF911F910895DC
:1004E000DE2BF8CF60E081E00E94440260E082E011
:1004F0000E94440260E080E00E94440260E084E0E8
:100500000E94440260E086E10E94440260E085E0CF
:100510000E94440260E086E00C944402CF93DF9393
:1005200090E0FC01E051FF4F249188529F4FFC0165
:1005300084918823C9F090E0880F991FFC01EC5446
:10054000FF4FA591B491FC01E054FF4FC591D491A8
:1005500061110DC09FB7F8948C91209582238C93E4
:100560008881282328839FBFDF91CF91089562302F
:1005700051F49FB7F8943C91822F809583238C93FC
:10058000E8812E2BEFCF8FB7F894EC912E2B2C9384
:100590008FBFEACF8E50806480937C0080917A0078
:1005A000806480937A0080917A0086FDFCCF8091F0
:1005B00078009091790008953FB7F8948091FF05F5
:1005C00090910006A0910106B091020626B5A89B65
:1005D00005C02F3F19F00196A11DB11D3FBFBA2FD5
:1005E000A92F982F8827BC01CD01620F711D811D95
:1005F000911D43E0660F771F881F991F4A95D1F719
:100600000895FC017996CB010596DB012D91BD0182
:100610002193A817B907C9F708959C0197FF02C055
:10062000215F3F4F44E0359527954A95E1F74AE031
:10063000429FF001439FF00D112460E170E00E94A1
:1006400041278E0F9F1F08956AE070E00E944127A6
:1006500024E0660F771F2A95E1F7860F971F08950C
:100660001F93CF93DF93C1E0C093BA05882399F11C
:10067000D091B8001091BA008091BC008A7B809321
:10068000BC0060E082E10E94440260E083E10E94DD
:10069000440210925806C09357061092320661E049
:1006A00082E10E94440261E083E10E944402809161
:1006B000B9008E7F8093B9008091B9008D7F8093BF
:1006C000B90080E28093B80085E48093BC00109369
:1006D000BA00D093B800DF91CF911F910895CF92C7
:1006E000DF92EF92FF920F931F93CF93DF93D091FE
:1006F000810681E0D13208F09CC0C09180060E9442
:10070000DC026B017C018091580681116CC082E093
:100710008093580681E0809357068FEF80935606AA
:1007200010925506D0935406A0E6B6E0E4E3F6E056
:1007300080E0D8138DC01092330680913306CC0F21
:10074000C82BC093330680913206813009F084C0F3
:10075000109232060E94DC026B017C01809133060C
:100760008093BB0080915A0690915B06A0915C0635
:10077000B0915D06892B8A2B8B2BA1F00E94DC02A5
:1007800000915A0610915B0620915C0630915D063F
:100790006C197D098E099F09061717072807390765
:1007A00008F442C08091BC0083FDD8CF85EC8093D3
:1007B000BC000E94DC026B017C01809158068230F3
:1007C00009F44CC0809156068F3F09F469C08091AE
:1007D0005606803209F466C080915606803309F4CB
:1007E00063C084E026C080915A0690915B06A09178
:1007F0005C06B0915D06892B8A2B8B2B09F483CF85
:100800000E94DC0200915A0610915B0620915C0662
:1008100030915D066C197D098E099F09061717072F
:100820002807390708F06FCF809159060E943003DE
:1008300085E010925F061092810610925E06DF91AD
:10084000CF911F910F91FF90EF90DF90CF9008957F
:100850009D9191938F5F6DCF85EEA9CF80915A06C0
:1008600090915B06A0915C06B0915D06892B8A2B66
:100870008B2B09F4A2CF0E94DC0200915A06109142
:100880005B0620915C0630915D066C197D098E092E
:100890009F09061717072807390708F08ECFC4CF1E
:1008A00080E0C7CF82E0C5CF83E0C3CFCF92DF9295
:1008B000EF92FF920F931F93CF93DF93D82FC62F02
:1008C000613208F098C00E94DC026B017C018091CB
:1008D000580681116BC081E08093580680935706BB
:1008E0009FEF90935606109255069C0F90935406D6
:1008F0008093330680913306DD0FD82BD0933306D7
:1009000080913206813009F078C0109232060E9440
:10091000DC026B017C01809133068093BB008091E7
:100920005A0690915B06A0915C06B0915D06892BFA
:100930008A2B8B2BA1F00E94DC0200915A061091A9
:100940005B0620915C0630915D066C197D098E096D
:100950009F09061717072807390708F448C0809130
:10096000BC0083FDD8CF85EC8093BC000E94DC02E4
:100970006B017C0180915806813009F440C0809160
:1009800055068C1710F4C0915506E4E3F6E0A2E199
:10099000B6E080E08C1355C08C2FDF91CF911F9172
:1009A0000F91FF90EF90DF90CF90089580915A06BD
:1009B00090915B06A0915C06B0915D06892B8A2B15
:1009C0008B2B09F484CF0E94DC0200915A0610910F
:1009D0005B0620915C0630915D066C197D098E09DD
:1009E0009F09061717072807390708F070CF80916D
:1009F00059060E943003C0E0CFCF85EEB5CF80917D
:100A00005A0690915B06A0915C06B0915D06892B19
:100A10008A2B8B2B09F4AECF0E94DC0200915A0680
:100A200010915B0620915C0630915D066C197D0982
:100A30008E099F09061717072807390708F09ACF6C
:100A4000D6CF91919D938F5FA5CF2091DB05260F87
:100A50003327331F21323105ECF420915806FC0175
:100A600090E080E0243069F082E00895A091DB05F9
:100A70002191AC0145545A4FA40FB52FB11D2C93B1
:100A80000196861798F38091DB05680F6093DB056C
:100A900080E0089581E008950895E0911106809125
:100AA0001006E81730F4F0E0EE5EF94F808190E038
:100AB00008958FEF9FEF0895909111068091100691
:100AC0002FEF3FEF981748F4E92FF0E0EE5EF94F73
:100AD000208130E09F5F90931106C90108958091B5
:100AE000100690911106891B990B0895CF92DF9201
:100AF000EF92FF920F931F93CF93DF937C01CB0173
:100B00008A0120915E06222389F0EB016B01C40E5D
:100B1000D51ECC15DD0569F06991D701ED91FC91E9
:100B20000190F081E02DC7010995F3CF642F0E9459
:100B30002505C801DF91CF911F910F91FF90EF9094
:100B4000DF90CF900895CF93DF931F92CDB7DEB79C
:100B5000698320915E062223F9F0209181062032DC
:100B600058F021E030E0FC013383228390E080E004
:100B70000F90DF91CF91089580915F06E82FF0E00C
:100B8000E05AF94F998190838F5F80935F0680933D
:100B9000810681E090E0ECCF61E0CE0101960E94F9
:100BA0002505F7CF682F82E896E00C94A305CF9334
:100BB000DF93EB0121E020935E0628E62093800678
:100BC00010925F06109281060E94D205CE010E940B
:100BD000D205DF91CF910C946F03CF92EF92FF92E9
:100BE0000F931F93CF93DF93F82E162FD42FC22F7E
:100BF00081E080935E0688E68093800610925F060F
:100C00001092810690E080E00E94D2058F2D90E046
:100C10000E9424030E94D205812F90E00E942403A9
:100C20000E94D2058D2F90E00E9424030E94D205DD
:100C30008C2F90E00E9424030E94D205802F90E028
:100C40000E9424030E94D2058E2D90E00E9424036E
:100C50000E94D2058C2D90E00E9424030E94D205B0
:100C6000DF91CF911F910F91FF90EF90CF900C9457
:100C70006F0390E080E00895FC012481358180813C
:100C800091811216130654F4181619062CF482E0FA
:100C9000818717821682089581E0FACF1816190607
:100CA000DCF3232BC1F7892BB1F71186F2CFCF9359
:100CB000DF93EC0160E08FE00E94440260E08EE090
:100CC0000E94440260E088E00E94440260E087E005
:100CD0000E9444021882DF91CF910895CF93DF9351
:100CE000EC0161E08FE00E94440261E08EE00E942E
:100CF000440261E088E00E94440261E087E00E94D3
:100D0000440281E08883DF91CF910895089508958A
:100D100008950895DC01ED91FC910680F781E02DA6
:100D20000994CF93DF93EC018A819B81FC01EB5204
:100D3000FF4F8B549F4FEC0188819981AA81BB8121
:100D400080839183A283B383DF91CF910895DC01E7
:100D50001296ED91FC91ED52FF4F208131812F5F72
:100D60003F4F318320830C9491060F931F93FC0116
:100D700082819381FC01EB54FF4F8B529F4F408146
:100D8000518162817381FC0180819181A281B38153
:100D90008A019B01081B190B2A0B3B0BC901B801E7
:100DA0001F910F910895CF92DF92EF92FF920F93D0
:100DB0001F93CF93DF93FC0102811381F801ED5261
:100DC000FF4F0190F081E02DE830F10508F05EC0A2
:100DD000EC01E351F94F0C949627F50604075B07E5
:100DE000A20703085A08B80803096AE874E0C801B2
:100DF0008B599F4FDF91CF911F910F91FF90EF90F3
:100E0000DF90CF900C9401038E859F8580369242AF
:100E10000CF045C0CE010E94B50623E030E040E072
:100E200050E00E947727285F3F4D3F872E870E8531
:100E30001F85EA81FB81EB59FF4F083620E112073D
:100E4000B4F1C80168EE73E00E944127CB012AE0AB
:100E500030E0B9010E944127818FC80164E670E04B
:100E60000E944127CB01B9010E944127828F81E373
:100E7000838FC801B9010E944127CB01B9010E94AB
:100E80004127848F80E2858F81E0808FDF91CF9131
:100E90001F910F91FF90EF90DF90CF90089580E623
:100EA00092E29F878E87CE010E94A706C0CF60E99D
:100EB00074E0CF019FCFF801EB59FF4F88E0818F9D
:100EC000828F81E3838F148E80E2858F81E0808F13
:100ED000CE010E94B506653FE1E07E0781059105E0
:100EE000BCF06C3BF2E07F07810591054CF0695E38
:100EF000734081099109673C71058105910540F4B2
:100F00008A819B8160E974E08B599F4F0E940103A5
:100F1000CE010E94B506613D7740810591050CF434
:100F2000B5CFCE010E94A706EA81FB81ED52FF4FAB
:100F300085E090E091838083EA81FB81E358FF4F55
:100F40001082A4CF0E94B5062C8D3D8D37FF02C0C4
:100F50002D5F3F4F3595279535952795032E000C2E
:100F6000440B550B0E947727CA01B90124E030E0F9
:100F700040E050E00E94772761307105C1F134F5FF
:100F8000672B69F1CE010E94B5062C8D3D8D89013C
:100F9000330F220B330B06171707280739070CF0FE
:100FA00075CF8E899F8928893989281739072CF1AF
:100FB00001969F8B8E8BCE01DF91CF911F910F9168
:100FC000FF90EF90DF90CF900C9491066230710506
:100FD00089F063307105B1F668EA74E002C066E931
:100FE00074E0C8018B599F4F0E940103CBCF6CE97D
:100FF00074E0F7CF62EA74E0F4CFCE010E94A70656
:101000001F8A1E8A43CF0E94B5062E8D3F8D37FF63
:1010100002C02D5F3F4F3595279535952795032EB7
:10102000000C440B550B0E947727CA01B90124E03C
:1010300030E040E050E00E9477276130710571F1A7
:10104000E4F4672B19F1CE010E94B5062E8D3F8D79
:101050008901330F220B330B0617170728073907AF
:101060000CF014CF888D998D2A893B892817390770
:10107000DCF00196998F888F9ECF6230710589F0E0
:101080006330710501F760EC74E002C06EEA74E051
:10109000C8018B599F4F0E940103D5CF64EB74E0C8
:1010A000F7CF6AEB74E0F4CFCE010E94A706198E49
:1010B000188EECCE0E94B5066B017C0188A199A127
:1010C00065E070E00E9441279B01770F440B550BB0
:1010D000C701B6010E947727CA01B90125E030E0B7
:1010E00040E050E00E94772762307105A9F104F5D5
:1010F0006115710531F16130710559F1CE010E9420
:10110000B50628A139A18901330F220B330B06172D
:101110001707280739070CF0B9CE8A8D9B8D2C89CB
:101120003D8928173907F4F001969B8F8A8F43CFAA
:1011300063307105A1F06430710501F76CEC74E067
:1011400002C061E974E0C8018B599F4F0E940103FE
:10115000D5CF66E974E0F7CF64EB74E0F4CF66ECCA
:1011600074E0F1CFCE010E94A7061B8E1A8E8ECEA0
:101170006CEC74E0C8018B599F4F0E9401038A8177
:101180009B818C010F561F4F8B549F4FFC01608138
:1011900071818281938128EE33E040E050E00E942B
:1011A00055272DE730E040E050E00E945527F80138
:1011B00020816E33710581059105F8F4211103C07A
:1011C000C8010E946E06CE010E94B506613D7740BF
:1011D000810591050CF45ACECE010E94A7068A81A2
:1011E0009B818F569F4FDF91CF911F910F91FF9061
:1011F000EF90DF90CF900C945706222321F3C80183
:101200000E945706E0CF62ED74E0C8018B599F4FF2
:101210000E940103CE010E94B50628853985890107
:10122000330F220B330B06171707280739070CF06B
:101230002DCECE01DF91CF911F910F91FF90EF90B6
:10124000DF90CF900C94A70608950895089508950F
:1012500008950895089508950895089508950895A6
:101260000895089508950895089508950895089596
:101270000895089508950895089508950895089586
:1012800008957F928F929F92AF92BF92CF92DF92FA
:10129000EF92FF920F931F93CF93DF93FC01C281D4
:1012A000D381FE01E85AFF4FE080F180B7010F2C97
:1012B000000C880B990B0E9411264B015C0120E069
:1012C00030E040E251E40E9467250E94D9250AE0FF
:1012D00010E0CB01B8010E944127D82E20E030E079
:1012E00048EC52E4C501B4010E9467250E94D9254B
:1012F000CB01B8010E944127C82E20E030E04AE728
:1013000054E4C501B4010E9467250E94D925CB0190
:10131000B8010E944127782E20E030E44CE156E4E9
:10132000C501B4010E94C126CB59DF4F181614F530
:1013300020E030E44CE156E4C501B4010E94672589
:101340000E94D925CB01B8010E944127898F7A8E4E
:1013500081E38B8FCC8EDD8EDF91CF911F910F912A
:10136000FF90EF90DF90CF90BF90AF909F908F90C5
:101370007F900895798ECA8E80E28B8FDC8EC701B4
:10138000B8010E9441278D8FE7CFFC0182819381B4
:1013900068ED74E08B599F4F0C940103CF93DF935A
:1013A000FC01A281B3818FB7F8944091030650915C
:1013B000040660910506709106068FBFA553BF4FC6
:1013C0004D935D936D937C931397A281B381AA5A39
:1013D000BF4F8D919C91119701968D939C93A28103
:1013E000B381AA5ABF4F8D919C9111970A9714F01F
:1013F0001D921C92A281B381ED01CA5ADF4F8881F0
:101400009981A653BF4F892BB1F41C92828193819D
:10141000FC01E153FF4F8A5A9F4FDC018D919C9153
:10142000092E000CAA0BBB0B80839183A283B3838C
:10143000DF91CF91089581E08C93E8CFFC01828108
:1014400093816EED74E08B599F4F0C940103DC0186
:101450001296ED91FC91DF01AA53BF4F64E070E05A
:101460008D919C919B01281B390BC9010E9441273A
:10147000EB59FF4F92E7918F95E4928F90E2938F13
:101480009AE2948F858F0895DC011296ED91FC917C
:10149000DF01A755BF4F9C91EB59FF4F80E2818F31
:1014A000828F838F8AE2848F958F0895FC018281D9
:1014B000938164EE74E08B599F4F0C940103AF92BB
:1014C000BF92CF92EF920F93CF93DF93DC011296EE
:1014D000ED91FC911397EA5AFF4F8081918101961B
:1014E000918380831296ED91FC911397EA5AFF4FF6
:1014F000808191818536910514F0118210821296B7
:101500008D919C91BC016A5A7F4FAC0148575F4F47
:101510009C0129573F4FEC01CA57DF4FDC01AB5705
:10152000BF4F5C01E4E8AE0EB11C8D579F4FFB012D
:10153000C080FA01E080F901008128814C91F50119
:101540006081FC0180810E94ED05DF91CF910F91B8
:10155000EF90CF90BF90AF900895DC011296ED917F
:10156000FC91DF01AA5ABF4F8D919C91EB59FF4F1F
:101570008436910529F46AE874E0CF010C940103E4
:1015800022E3218F20E3228F20E2238F6AE070E0A4
:101590000E944127648F858F0895FC018281938189
:1015A0006AEE74E08B599F4F0C940103AF92BF9287
:1015B000CF92EF920F93CF93DF93DC011296ED91D0
:1015C000FC911397EA5AFF4F808191810196918394
:1015D00080831296ED91FC911397EA5AFF4F808118
:1015E0009181089721F481E090E0918380831296A5
:1015F0008D919C91BC0167577F4FAC0148575F4F5D
:101600009C0129573F4FEC01CA5ADF4FDC01AB5711
:10161000BF4F5C01E4E8AE0EB11C8D579F4FFB013C
:10162000C080FA01E080F901008128814C91F50128
:101630006081FC0180810E94ED05DF91CF910F91C7
:10164000EF90CF90BF90AF900895FC01828193817D
:10165000FC01EA5AFF4F0190F081E02DFF27EE0FC9
:10166000FF1FE80FF91F608171818B599F4F0C9408
:101670000103FC018281938160EF74E08B599F4FDD
:101680000C940103AF92BF92CF92EF920F93CF933E
:10169000DF93DC011296ED91FC911397EA5AFF4F0C
:1016A0008081918101969183808312964D915C9106
:1016B0001397FA01E757FF4F80818370EA01C857FB
:1016C000DF4FF397811107C08881823021F4808138
:1016D00091814D97B1F02881022E000C330B265FCB
:1016E0003F4F220F331F240F351FE9012881398115
:1016F000808191812817390724F481E090E091835B
:10170000808312968D919C91BC0167577F4FAC01ED
:1017100048575F4F9C012A5A3F4FEC01CA57DF4F91
:10172000DC01AB57BF4F5C01E4E8AE0EB11C8D5736
:101730009F4FFB01C080FA01E080F9010081288100
:101740004C91E5016881FC0180810E94ED05DF91EB
:10175000CF910F91EF90CF90BF90AF900895DC01A3
:101760001296ED91FC91DF01AA5ABF4F2D913C9149
:10177000C9016AE070E00E944127611101C060E286
:10178000EB59FF4F80E2818F828F838F648FC90175
:101790006AE070E00E944127858F0895AF92BF9262
:1017A000CF92EF920F93CF93DF93DC011296ED91DE
:1017B000FC911397EA5AFF4F8081918101969183A2
:1017C00080831296ED91FC911397EA5AFF4F808126
:1017D00091810D9721F481E090E0918380831296AE
:1017E0008D919C91BC0167577F4FAC014A5A5F4F66
:1017F0009C0129573F4FEC01CA57DF4FDC01AB5723
:10180000BF4F5C01E4E8AE0EB11C8D579F4FFB014A
:10181000C080FA01E080F901008128814C91F50136
:101820006081FC0180810E94ED05DF91CF910F91D5
:10183000EF90CF90BF90AF900895DC011296ED919C
:10184000FC91DF01AA5ABF4F2D913C91C9016AE07A
:1018500070E00E944127611101C060E2EB59FF4F27
:10186000618FC9016AE070E00E944127828F80E2A7
:10187000838F848F858F0895FC018281938166EF29
:1018800074E08B599F4F0C940103AF92BF92CF929B
:10189000EF920F93CF93DF93FC012085211136C087
:1018A000EC0182819381BC0167577F4FAC0148579F
:1018B0005F4F9C0129573F4FDC01AA57BF4F5C0186
:1018C000F5E8AF0EB11C8A5A9F4FFB01C080FA01A8
:1018D000E080F90100812C91F5014081FC016081DB
:1018E00080E00E94ED05EA81FB81E154FF4F108208
:1018F00081E08887EA81FB81EB54FF4F80819181F1
:10190000A281B3818C839D83AE83BF83DF91CF910E
:101910000F91EF90CF90BF90AF900895DC01ED91C3
:10192000FC910084F185E02D0994DC011296ED9183
:10193000FC911397EA5AFF4F208131812F5F3F4F6F
:10194000318320831296ED91FC91EA5AFF4F8081FA
:101950009181CC9711F4118210820895DC011296C6
:10196000ED91FC91DF01AA5ABF4F2D913C91EB59AB
:10197000FF4F90E2918F928F938FC9016AE070E0E0
:101980000E944127648F858F0895DC011296ED91A6
:10199000FC911397EA5AFF4F208131812F5F3F4F0F
:1019A000318320831296ED91FC91EA5AFF4F80819A
:1019B0009181489711F4118210820895DC011296EA
:1019C000ED91FC91DF01AA5ABF4F2D913C91C901C5
:1019D0006AE070E00E944127611101C060E2EB59AA
:1019E000FF4F618FC9016AE070E00E944127828F3A
:1019F00080E2838F848F858F0895FC01828193819B
:101A00006CEF74E08B599F4F0C940103DC0112962C
:101A1000ED91FC91DF01AA5ABF4F2D913C91C90174
:101A20006AE070E00E944127611101C060E2EB5959
:101A3000FF4F80E2818F828F838F648FC9016AE0BC
:101A400070E00E944127858F0895DC011296ED9188
:101A5000FC91DF01AA5ABF4F2D913C91C9016AE068
:101A600070E00E944127611101C060E2EB59FF4F15
:101A7000618FC9016AE070E00E944127828F80E295
:101A8000838F848F858F0895DC011296ED91FC91F0
:101A90001397EA5AFF4F208131812F5F3F4F3183E7
:101AA00020831296ED91FC91EA5AFF4F808191813B
:101AB000039711F4118210820895FC0182819381B1
:101AC000FC01EA5AFF4F2081318162E075E0211567
:101AD000310551F068E075E02130310529F0223000
:101AE000310531F46EE075E08B599F4F0C94010382
:101AF0000895FC018281938164E175E08B599F4FC9
:101B00000C940103FC01828193816AE175E08B5999
:101B10009F4F0C9401038F929F92AF92BF92CF92EE
:101B2000DF92EF92FF920F931F93CF93DF93FC010D
:101B3000C281D381FE01EB54FF4F4081518162810C
:101B400073818E010B551F4FF801C580D680E78049
:101B5000F0844A015B018C189D08AE08BF088081A3
:101B60009181B0E0A0E088159905AA05BB0520F099
:101B7000CD28CE28CF2859F5F801458356836783B1
:101B8000708784E10E94CA02BC01990F880B990BEF
:101B90000E94112623E333E343E550E40E94C62666
:101BA00020E030E040E85AE30E94C62620E030E022
:101BB00040E05FE30E94F5242AE037ED43E25CE376
:101BC0000E946725F8016387748785879687F801E7
:101BD000C384D484E584F684FE01E755FF4FB080CA
:101BE0008E010B591F4FF6E4BF124FC020E030E0CA
:101BF00040E151E4C701B6010E94C62620E030E072
:101C000040EA50E40E94672520E030E040E052E4E2
:101C10000E94F6246B017C0120E030E048EC52E4A5
:101C20000E9467250E94D925F801618F20E030E0ED
:101C300040E251E4C701B6010E9467250E94D92500
:101C40008AE0882E912CCB01B4010E944127F80133
:101C5000828F80E2838FC701B6010E94D925CB0114
:101C6000B4010E944127F801848FCE57DF4FB8821C
:101C7000DF91CF911F910F91FF90EF90DF90CF9068
:101C8000BF90AF909F908F90089581E0FE01E35840
:101C9000FF4F808320E030E040E251E4C701B6010D
:101CA0000E9467250E94D925F801618FC701B601FE
:101CB0000E94D925CB016AE070E00E944127F8011B
:101CC000828F80E2838F8AE2CFCFFC018281938171
:101CD000FC01EA57FF4FE081F0E0EE0FFF1FE80F35
:101CE000F91F608171818B599F4F0C940103DC01B6
:101CF0001296ED91FC91DF01A358BF4F91E09C93A8
:101D000016968C91EB59FF4F20E2218F228F938FF3
:101D10006AE00E943327848F958F0895DC01129624
:101D2000ED91FC91DF01A857BF4F5C91852F6AE0D0
:101D30000E943327382F811101C030E2DF01A957FB
:101D4000BF4F4C91842F6AE00E943327282F8111C6
:101D500001C020E2EB59FF4F318F3AE0852F632F0E
:101D60000E943327928F80E2838F248F842F632FEA
:101D70000E943327958F0895CF92DF92EF92FF92C2
:101D80001F93CF93DF93EC01FC01E956FF4FC7800F
:101D9000D084E184F284C701B6012CE330E040E056
:101DA00050E00E945527122FFE01EC55FF4F2436BC
:101DB0002CF08081811102C081E0808380818823A2
:101DC00031F013E68BE3C82ED12CE12CF12CC701A6
:101DD000B6012CE330E040E050E00E945527362F5A
:101DE000CB59DF4F2AE0812F622F0E943327898F42
:101DF0009A8F81E08B8F832F622F0E9433278C8FE5
:101E00009D8FDF91CF911F91FF90EF90DF90CF904A
:101E10000895CF93DF93EC018A819B810E94BC0ED1
:101E20008A819B8160E275E08B599F4F0E9401037C
:101E3000EA81FB81E358FF4F81E08083DF91CF91FE
:101E40000895CF93DF93EC018A819B810E94BC0EA1
:101E5000EA81FB81E358FF4F81E08083DF91CF91DE
:101E60000895CF93DF93EC018A819B810E94BC0E81
:101E70008A819B81FC01E956FF4FDC01AC57BF4FC3
:101E80004C91042E000C550B54962C91421B510979
:101E900027FD53956CE3649FD001659FB00D11241D
:101EA000EC01CD57DF4F2881022E000C330B40810F
:101EB000241B310947FD33952A0F3B1FDC01AB572B
:101EC000BF4F4C91042E000C550B54967C91471B30
:101ED000510977FD5395C0E1DEE04C9FD0014D9F45
:101EE000B00D5C9FB00D11242A0F3B1FDC01A957D8
:101EF000BF4F4C91042E000C550B85569F4FDC01B3
:101F00008C91DA01A81BB10987FDB395CD01A0EA38
:101F1000B5E08A9FA0018B9F500D9A9F500D112410
:101F2000649FC001659F900D1124820F931F092E9D
:101F3000000CAA0BBB0B87839087A187B287DF9128
:101F4000CF910895FC01DC01AB57BF4F3C91832F2B
:101F50006AE00E943327811101C080E2DF01AC57A3
:101F6000BF4F4C91EB59FF4F818F2AE0832F622F97
:101F70000E943327928F138E842F622F0E94332763
:101F8000848F958F08950F931F93CF93DF93EC0168
:101F90008B0188819981009739F0DC01ED91FC91EA
:101FA0000280F381E02D099519830883F801D3831A
:101FB000C283DF91CF911F910F9108950F931F93CB
:101FC000CF93DF93EC010A811B81F801ED52FF4FA3
:101FD000808191810097F1F4CE010E94A7068A8149
:101FE0009B81FC01EB52FF4F8B549F4FDC014D91C5
:101FF0005D916D917C914083518362837383EA810B
:10200000FB81E358FF4F81E08083DF91CF911F91E7
:102010000F9108950797CCF384E090E00E94D627B3
:102020002EE734E0FC0131832083BC01C801DF913D
:10203000CF911F910F910C94C30FCF93DF93FC01AD
:10204000C281D381FE01EC57FF4F50813196408110
:102050003196308131962081319690813196808100
:102060003E96DE01AD57BF4F6C9160835183428332
:10207000338324839583868381E090E094878387EC
:1020800084E090E00E94D62724E333E0FC01318312
:102090002083BC01CE01DF91CF910C94C30FCF936D
:1020A000DF93FC01C281D38184E090E00E94D627B7
:1020B0002EE734E0FC0131832083BC01CE01DF91A7
:1020C000CF910C94C30FCF93DF93DC011296ED9167
:1020D000FC911397EC55FF4F10821296CD91DC9135
:1020E000FE01E956FF4F1486138684E090E00E94BB
:1020F000D62724E433E0FC0131832083BC01CE01E8
:10210000DF91CF910C94C30FCF93DF93FC01C28179
:10211000D38184E090E00E94D6272EE734E0FC01D2
:1021200031832083BC01CE01DF91CF910C94C30F8A
:10213000CF93DF93FC01C281D381FE01E956FF4FAB
:1021400082E090E09487838784E090E00E94D62725
:1021500024E233E0FC0131832083BC01CE01DF9116
:10216000CF910C94C30FCF93DF93FC01C281D38135
:1021700084E090E00E94D6272EE734E0FC01318312
:102180002083BC01CE01DF91CF910C94C30FCF937C
:10219000DF93FC01C281D38184E090E00E94D627C6
:1021A0002EE734E0FC0131832083BC01CE01DF91B6
:1021B000CF910C94C30FCF93DF93FC01C281D381E5
:1021C00084E090E00E94D62724EC32E0FC013183C9
:1021D0002083BC01CE01DF91CF910C94C30FCF932C
:1021E000DF93FC01C281D38184E090E00E94D62776
:1021F00024E631E0FC0131832083BC01CE01DF9174
:10220000CF910C94C30FCF93DF93FC01C281D38194
:1022100084E090E00E94D6272EE734E0FC01318371
:102220002083BC01CE01DF91CF910C94C30FBF92EC
:10223000CF92DF92EF92FF920F931F93CF93DF9392
:102240008C01FC0182819381FC01E153FF4F4081AD
:10225000518162817381EC01CB59DF4F49305105C7
:1022600061057105C9F566E275E0CE010E940103C2
:102270002FB7F8948091030690910406A09105066B
:10228000B09106062FBFF801C281D381FE01E5534C
:10229000FF4F4081518162817381841B950BA60B96
:1022A000B70B89389341A105B105E8F184E090E0CE
:1022B0000E94D6272EE734E0FC0131832083BC0145
:1022C000CE01DF91CF911F910F91FF90EF90DF90A2
:1022D000CF90BF900C94C30FFC01EA5AFF4F2081AE
:1022E0003181220F331F220F331F820F931FFC01F6
:1022F00066A577A580A991A920E2298F2A8F2B8F27
:102300005AE0C52ED12CE12CF12CA70196010E9498
:102310005527B62ECA01B901A70196010E9455277B
:102320006C8FBD8EA5CFDF91CF911F910F91FF9044
:10233000EF90DF90CF90BF9008950F931F93CF93AE
:10234000DF93EC010A811B8184E090E00E94D62794
:1023500024E831E0DC012D933C93BC01C8010E94CC
:10236000C30FEA81FB81EA5AFF4F11821082EA8192
:10237000FB81E153FF4F1082118212821382EA81A6
:10238000FB812FB7F8948091030690910406A091E9
:102390000506B09106062FBFE553FF4F808391835A
:1023A000A283B383EA81FB81DF01AA5ABF4F8D91DB
:1023B0009C91E653FF4F892BC1F410828A819B8147
:1023C000FC01E153FF4F8A5A9F4FDC018D919C9194
:1023D000092E000CAA0BBB0B80839183A283B383CD
:1023E000DF91CF911F910F91089581E08083E6CF17
:1023F000CF93DF93FC01C281D38184E090E00E94FF
:10240000D6272EE734E0FC0131832083BC01CE01C6
:10241000DF91CF910C94C30FCF93DF93FC01C28166
:10242000D38184E090E00E94D6272EE734E0FC01BF
:1024300031832083BC01CE01DF91CF910C94C30F77
:10244000CF93DF93FC01C281D38184E090E00E94AE
:10245000D62724E731E0FC0131832083BC01CE0183
:10246000DF91CF910C94C30FCF93DF93FC01C28116
:10247000D38184E090E00E94D62724EC31E0FC0177
:1024800031832083BC01CE01DF91CF910C94C30F27
:10249000CF93DF93FC01C281D38184E090E00E945E
:1024A000D6272EE734E0FC0131832083BC01CE0126
:1024B000DF91CF910C94C30FCF93DF93FC01C281C6
:1024C000D38184E090E00E94D62724ED31E0FC0126
:1024D00031832083BC01CE01DF91CF910C94C30FD7
:1024E000CF93DF93DC0112962D913C91F901EA5ACA
:1024F000FF4F27573F4FD9012C91022E000C330B71
:1025000031832083FC01C281D38184E090E00E946A
:10251000D62724EE31E0DC012D933C93BC01CE01A3
:10252000DF91CF910C94C30FCF93DF93FC01C28155
:10253000D38184E090E00E94D6272EE734E0FC01AE
:1025400031832083BC01CE01DF91CF910C94C30F66
:10255000CF93DF93FC01C281D38184E090E00E949D
:10256000D62724EF31E0FC0131832083BC01CE016A
:10257000DF91CF910C94C30FCF93DF93DC011296C0
:102580002D913C91F901EA5AFF4F2A573F4FD9014B
:102590002C91022E000C330B31832083FC01C2816D
:1025A000D38184E090E00E94D62724E032E0DC0171
:1025B0002D933C93BC01CE01DF91CF910C94C30FBE
:1025C000CF93DF93FC01C281D38184E090E00E942D
:1025D000D6272EE734E0FC0131832083BC01CE01F5
:1025E000DF91CF910C94C30FCF93DF93FC01228135
:1025F0003381D901AA5ABF4F29573F4FE90188813A
:10260000082E000C990B8D939C9342815381DA0123
:10261000A757BF4F8C918370EA01C857DF4FD397FC
:10262000811108C08881823029F48D919C91119785
:102630004D97A9F02881022E000C330B265F3F4FE7
:10264000220F331F240F351FE901888199812D91B5
:102650003C9111978217930714F48D939C93C28138
:10266000D38184E090E00E94D62724E232E0FC018E
:1026700031832083BC01CE01DF91CF910C94C30F35
:10268000CF93DF93FC01C281D38184E090E00E946C
:10269000D62724E132E0FC0131832083BC01CE0146
:1026A000DF91CF910C94C30FCF93DF93DC0112968F
:1026B0002D913C91F901EA5AFF4F28573F4FD9011C
:1026C0002C91022E000C330B31832083FC01C2813C
:1026D000D38184E090E00E94D62724E332E0DC013D
:1026E0002D933C93BC01CE01DF91CF910C94C30F8D
:1026F0000F931F93CF93DF93EC012A813B81888551
:10270000F901EB59FF4F882369F16CE275E0CF01C5
:102710000E9401030A811B81F801EB54FF4F808165
:102720009181A281B3814C815D816E817F81841B07
:10273000950BA60BB70B853F9140A105B10520F184
:10274000188684E090E00E94D6272EE734E0DC0172
:102750002D933C93BC01C801DF91CF911F910F9144
:102760000C94C30FD901A358BF4F91E09C932D57F0
:102770003F4FD9018C9120E2218F228F938F6AE005
:102780000E943327848F958FDF91CF911F910F91F6
:102790000895AF92BF92CF92EF920F93CF93DF93B2
:1027A000EC018A819B81BC0167577F4FAC01485780
:1027B0005F4F9C0129573F4FDC01AA57BF4F5C0177
:1027C000E5E8AE0EB11C8A5A9F4FFB01C080FA01AA
:1027D000E080F90100812C91F5014081FC016081CC
:1027E00080E00E94ED05EA81FB81E154FF4F81E02A
:1027F00080830A80DB81C02D89E090E00E94D6278B
:10280000FC0184E592E09183808314821582168214
:1028100017821086BF01CE01DF91CF910F91EF900B
:10282000CF90BF90AF900C94C30FAF92BF92CF9256
:10283000EF920F93CF93DF93EC018A819B81BC01D0
:1028400067577F4FAC0148575F4F9C0129573F4F57
:10285000DC01AA57BF4F5C01E6E5AE0EB11C8C57F8
:102860009F4FFB01C080FA01E080F90100812C91AB
:10287000D5014C91FC01608180E00E94ED058A81C8
:102880009B81FC01EA5AFF4F8C579F4FDC018C91D2
:10289000082E000C990B918380830A80DB81C02D68
:1028A00084E090E00E94D62724E632E0FC013183E8
:1028B0002083BC01CE01DF91CF910F91EF90CF909B
:1028C000BF90AF900C94C30FCF93DF93FC01C281F4
:1028D000D38184E090E00E94D62724E432E0FC011A
:1028E00031832083BC01CE01DF91CF910C94C30FC3
:1028F000CF93DF93DC0112962D913C91F901EA5AB6
:10290000FF4F2B573F4FD9012C91022E000C330B58
:1029100031832083FC01C281D38184E090E00E9456
:10292000D62724E732E0DC012D933C93BC01CE0195
:10293000DF91CF910C94C30FCF93DF93EC01EA8129
:10294000FB81EA5AFF4F808191810E942403BC01E0
:102950008BE090E00E94D70560E870E08DE090E0A9
:102960000E94D7050A80DB81C02D84E090E00E94A0
:10297000D6272EE734E0FC0131832083BC01CE0151
:10298000DF91CF910C94C30FCF93DF93FC01C281F1
:10299000D38184E090E00E94D62724E832E0FC0155
:1029A00031832083BC01CE01DF91CF910C94C30F02
:1029B000CF93DF93DC011296ED91FC911397EA5AC5
:1029C000FF4F118210821296CD91DC9184E090E04D
:1029D0000E94D62724EB32E0FC0131832083BC0126
:1029E000CE01DF91CF910C94C30FCF93DF93FC0105
:1029F000C281D38184E090E00E94D62724EC32E0AB
:102A0000FC0131832083BC01CE01DF91CF910C9476
:102A1000C30FCF93DF93FC01C281D38184E090E0A8
:102A20000E94D6272EE734E0FC0131832083BC01CD
:102A3000CE01DF91CF910C94C30FCF93DF93FC01B4
:102A4000C281D38184E090E00E94D62724EE32E058
:102A5000FC0131832083BC01CE01DF91CF910C9426
:102A6000C30FCF93DF93FC01C281D38184E090E058
:102A70000E94D6272EE734E0FC0131832083BC017D
:102A8000CE01DF91CF910C94C30FCF93DF93FC0164
:102A9000C281D38184E090E00E94D62724ED32E009
:102AA000FC0131832083BC01CE01DF91CF910C94D6
:102AB000C30FCF93DF93FC01C281D38184E090E008
:102AC0000E94D6272EE734E0FC0131832083BC012D
:102AD000CE01DF91CF910C94C30FCF93DF93FC0114
:102AE000C281D38184E090E00E94D62724EE32E0B8
:102AF000FC0131832083BC01CE01DF91CF910C9486
:102B0000C30FCF93DF93FC01C281D38184E090E0B7
:102B10000E94D6272EE734E0FC0131832083BC01DC
:102B2000CE01DF91CF910C94C30FCF93DF93FC01C3
:102B3000C281D38184E090E00E94D62724EE32E067
:102B4000FC0131832083BC01CE01DF91CF910C9435
:102B5000C30FCF93DF93FC01C281D38184E090E067
:102B60000E94D62724EF32E0FC0131832083BC0190
:102B7000CE01DF91CF910C94C30FCF93DF93FC0173
:102B8000C281D38184E090E00E94D62724EE32E017
:102B9000FC0131832083BC01CE01DF91CF910C94E5
:102BA000C30FCF93DF93FC01C281D38184E090E017
:102BB0000E94D62724E033E0FC0131832083BC014E
:102BC000CE01DF91CF910C94C30F21E020935E06DC
:102BD00028E62093800610925F06109281060E94DC
:102BE000D2050E946F0361E088E60E9456041092AD
:102BF00011068093100682E896E00C945C05CF9352
:102C0000DF938FE090E00E94E515EC0181E0809376
:102C10005E0688E68093800610925F061092810619
:102C20008FE090E00E94D205CE018C7F99270E9410
:102C3000D205DF91CF910C946F03CF93DF93EC011A
:102C40008C549F4F0E94FF15FE01E853FF4F1082E6
:102C500060E083E00E948E02FE01EE56FF4F10827C
:102C6000CE018F569F4FDF91CF910C945706FF9264
:102C70000F931F93CF93DF93F82EC0912D07D09120
:102C80002E078E010F561F4FC8010E9457060E9443
:102C90007202CE010E941D16C154DF4F1882C80176
:102CA0000E94570661E084E10E948E0260E084E1A8
:102CB0000E9444021092B0001092B1001092B30032
:102CC0001092B40061E084E10E948E0260E084E131
:102CD0000E9444020E94720260E085E10E94440268
:102CE00081E080930B0610924D0710924E071092D0
:102CF0004F07109250071092470710924807109202
:102D0000490710924A07FF2009F4AFC0809168007C
:102D100081608093680080916B00866080936B0077
:102D20008091680082608093680080916C00886068
:102D300080936C0080917A008093B90510927A009C
:102D400085B7982F90668F7D80648093B80595BF76
:102D50008091B80585BF10926F0083B7816083BFF3
:102D6000889580910B06882309F484C0C0912D07B3
:102D7000D0912E07CE018F569F4F0E94570660E0DC
:102D800084E10E948E0283E68093B0008DE0809300
:102D9000B10082E18093B30089E08093B40060E0E9
:102DA00083E00E948E02CE56DF4F188219821A826B
:102DB0001B821C8261E086E10E94440280912D0703
:102DC00090912E07FC01E653FF4F10823D9721E0C2
:102DD000208384589F4FFC01208310920B06809122
:102DE000390790913A0790934C0780934B0783B72C
:102DF0008E7F83BF8091B90580937A0080910C0605
:102E000090910D06A0910E06B0910F0680930706D3
:102E100090930806A0930906B0930A061092430700
:102E200010924407109245071092460780916F0058
:102E3000826080936F0061E085E10E944402C0914E
:102E40002D07D0912E0784E090E00E94D6272EE730
:102E500034E0FC0131832083BC01CE01DF91CF91AE
:102E60001F910F91FF900C94C30F10926800109265
:102E70006B0056CFDF91CF911F910F91FF90089576
:102E8000EF92FF920F931F93CF93DF938C01FC017E
:102E9000828193810E941D16F80182819381FC0139
:102EA000EA53FF4F20813181243031050CF058C0A6
:102EB000E254F1092081022E000C330B7901FFEF5F
:102EC000EF1AFF0A8B579F4FFC01C0810C2E000C9C
:102ED000DD0BFCE3EF16F1045CF079014BE3E41A3F
:102EE000F108CE0101966797883191050CF4EC0149
:102EF00061E070E087E090E00E94D705CE010E947B
:102F00002403BC0189E090E00E94D705C7010E941C
:102F10002403BC0188E090E00E94D70560E870E0DF
:102F20008AE090E00E94D70565E070E08EE090E0D6
:102F30000E94D705F801C281D38184E090E00E940D
:102F4000D62724EA31E0FC0131832083BC01CE0185
:102F5000DF91CF911F910F91FF90EF900C94C30FD1
:102F600011821082E7CFCF93DF93EC018A819B819E
:102F70009C0120543F4FDC01AB54BF4F8C539F4FFB
:102F8000FC0140815181052E000C660B770B8D9161
:102F90009D910D90BC91A02D841B950BA60BB70B9A
:102FA000F90180839183A283B383EA81FB81EA5391
:102FB000FF4F118210828A819B810E941D160A8018
:102FC000DB81C02D84E090E00E94D6272EE734E01C
:102FD000FC0131832083BC01CE01DF91CF910C94A1
:102FE000C30F2F923F924F925F926F927F928F9278
:102FF0009F92AF92BF92CF92DF92EF92FF920F9388
:103000001F93CF93DF9300D01F92CDB7DEB78C0113
:10301000FC010280F381E02DFB83EA83EB54FF4F38
:10302000608171818281938128EE33E040E050E03D
:103030000E945527653F71408105910508F4B0C095
:103040008A819B810E94A20FF8010280F381E02D0A
:10305000FB83EA83E853FF4F8081882309F4BBC0D8
:103060002A803B80F5EB2F0E311CF101C080D1800E
:10307000E280F380EA81FB81E054FF4F8080918001
:10308000A280B380EA81FB81E753FF4F80818823D0
:1030900079F1C701B60128EE33E040E050E00E942C
:1030A00077272B013C010A811B810E561F4FF80127
:1030B000F081F9832DE730E040E050E00E9477276F
:1030C0006E337105810591050CF073C024EF421633
:1030D00021E05206610471040CF06BC089818111FA
:1030E00007C061E083E00E948E0281E0F8018083E6
:1030F0000A811B810F561F4FF1016081718182810E
:10310000938128EE33E040E050E00E9455272B01E8
:103110003C01F80130802DE730E040E050E00E94B3
:1031200055276E3371058105910508F04DC0F4EF08
:103130004F16F1E05F066104710408F045C03110DC
:1031400003C0C8010E946E06C818D908EA08FB0827
:10315000EA81FB81EC53FF4F80819181092E000CA5
:10316000AA0BBB0B8C159D05AE05BF05A4F58A8186
:103170009B810F900F900F90DF91CF911F910F9136
:10318000FF90EF90DF90CF90BF90AF909F908F9087
:103190007F906F905F904F903F902F900C941D16F2
:1031A00064E175E08A819B818B599F4F0E940103E6
:1031B0004BCFF981FF2309F49BCF60E083E00E94AD
:1031C0008E02F801108294CF332009F4BDCFC801DC
:1031D0000E945706B9CF0F900F900F90DF91CF91BB
:1031E0001F910F91FF90EF90DF90CF90BF90AF9025
:1031F0009F908F907F906F905F904F903F902F9017
:103200000895CF93DF93EC018A819B810E941D1664
:103210008A819B81FC01EA5AFF4F81539F4FDC0159
:103220008D919C91918380830A80DB81C02D84E005
:1032300090E00E94D62724E931E0FC01318320830D
:10324000BC01CE01DF91CF910C94C30F0F931F935C
:10325000CF93DF93EC01EA81FB81EA5AFF4F808133
:1032600091810E942403BC018CE090E00E94D7056C
:103270008BE090E00E94E5150A811B810E940D03FE
:10328000F801EA5AFF4F918380830A80DB81C02DC9
:1032900084E090E00E94D62724E932E0FC013183EB
:1032A0002083BC01CE01DF91CF911F910F910C942F
:1032B000C30F0F931F93CF93DF93EC018A819B8100
:1032C000FC01EA5AFF4F208131812230310501F59E
:1032D00064E070E08EE090E00E94D7050A811B81D7
:1032E00084E090E00E94D6272EE734E0FC01318391
:1032F0002083BC01C8010E94C30FEA81FB81EC540A
:10330000FF4F81E08083DF91CF911F910F9108954E
:103310008C549F4FFC0110828A819B81FC01EA5AE8
:10332000FF4F20813181232B29F487539F4F21E0C8
:10333000FC0120838A819B81FC01EA5AFF4F208196
:1033400031812130310521F487539F4FFC011082D8
:1033500066E070E08EE090E00E94D7058A819B8154
:103360008C549F4F0E94FF158CE090E00E94E51561
:103370000A811B810E940D03F801EA5AFF4F9183D5
:1033800080830A80DB81C02D84E090E00E94D627F4
:1033900024EA32E0FC0131832083BC01CE01DF91BD
:1033A000CF911F910F910C94C30F0F931F93CF9345
:1033B000DF93EC018A819B810E94A20F8CE090E058
:1033C0000E94E5150E940D038C018BE090E00E94A5
:1033D000E5150A80DB81C02DFE01EB57FF4F808190
:1033E000082E000C990B80179107D1F4319780813A
:1033F0008823B1F0EC5BFF4F8081882389F084E063
:1034000090E00E94D62724EB31E0FC013183208339
:10341000BC01CE01DF91CF911F910F910C94C30F8E
:10342000DF91CF911F910F910895CF93DF93FC010E
:1034300001900020E9F73197AF01481B590BBC01FF
:103440008EE896E00E94A801EC0142E050E062E3C1
:1034500075E08EE896E00E94A8018C0F9D1FDF9119
:10346000CF91089585ED8093BC0080915A0690918C
:103470005B06A0915C06B0915D060796A11DB11D8B
:1034800023E0B695A795979587952A95D1F7209132
:10349000BC0024FD03C010925806089540915A06BE
:1034A00050915B0660915C0670915D06452B462B42
:1034B000472B69F30097A105B10541F02AE12A9550
:1034C000F1F700C00197A109B109E1CF8091590638
:1034D0000C9430030C9472280C9472280C9472286B
:1034E0000C9472280C9472280C9472280C947228F4
:1034F0000C9472280C9472280C9472280C947228E4
:103500000C9472280C9472280C9472280C947228D3
:103510000C9472280C9472280C9472280C947228C3
:103520000C9472280C9472280C9472280C947228B3
:103530000C9472280C9472280C9472280C947228A3
:103540000C9472280C9472280C9472280C94722893
:103550000C9472280C947228DC011296ED91FC9167
:10356000E755FF4F2081233419F526E42083DC0141
:103570001296ED91FC91EB55FF4F6481828193810E
:103580002091B6053091B7052F5F3F4F3093B705B7
:103590002093B60540912B0750912C0741155105FA
:1035A00019F04217530734F485E395E00C94151A8B
:1035B00023E4DCCF9C012F5F3F4F213032401CF0D1
:1035C00087E595E0F3CF0C94E7241F920F920FB696
:1035D0000F9211242F933F934F935F936F937F9399
:1035E0008F939F93AF93BF93EF93FF938EE896E0F3
:1035F0000E94F800FF91EF91BF91AF919F918F9141
:103600007F916F915F914F913F912F910F900FBEDE
:103610000F901F9018951F920F920FB60F921124C2
:103620002F938F939F93EF93FF93E0919E06F091DA
:103630009F068081E091A406F091A50682FD1BC043
:1036400090818091A7068F5F8F732091A8068217C3
:1036500041F0E091A706F0E0E257F94F958F809393
:10366000A706FF91EF919F918F912F910F900FBE21
:103670000F901F9018958081F4CF1F920F920FB674
:103680000F9211242F933F938F939F93AF93BF93E8
:103690008091030690910406A0910506B09106065C
:1036A0003091FE0526E0230F2D3758F50296A11D17
:1036B000B11D2093FE058093030690930406A0930A
:1036C0000506B09306068091FF0590910006A09133
:1036D0000106B09102060196A11DB11D8093FF0560
:1036E00090930006A0930106B0930206BF91AF919C
:1036F0009F918F913F912F910F900FBE0F901F9030
:10370000189529E8230F0396A11DB11DD2CF0C9463
:10371000B9001F920F920FB60F9211242F933F936F
:103720004F935F936F937F938F939F93AF93BF93C9
:10373000EF93FF938091B900887F803609F44AC0E7
:10374000F0F5883209F4A5C018F5803109F499C064
:10375000B8F4882309F4F5C0883009F492C0FF91C9
:10376000EF91BF91AF919F918F917F916F915F91F9
:103770004F913F912F910F900FBE0F901F90189572
:10378000883109F486C0803251F78093560614C000
:10379000803409F49BC040F48033B9F38833F9F6E0
:1037A0008093560685ECAEC0803509F483C0883519
:1037B00009F494C0883499F60E94321AD0CF88391F
:1037C00009F48AC038F5883729F050F4883611F0AA
:1037D000803729F683E0809358061092FD0555C086
:1037E000883809F479C0803919F0803809F0B7CFEA
:1037F0008091FD05803208F06FC0E091FD0581E009
:103800008E0F8093FD058091BB00F0E0E352FA4FEC
:1038100080833BC0803B39F0D0F4803A09F477C014
:10382000883A09F09CCF84E0809358061092DC051A
:103830001092DB05F0E0E0E009958091DB05811155
:103840000FC081E08093DB051092BB0509C0803C6E
:1038500009F4A8CF883C09F4A5CF883B09F07FCFB5
:10386000E091DC0581E08E0F8093DC05F0E0E5540B
:10387000FA4F80818093BB009091DC058091DB053D
:1038800029C0809133068093BB0085EC8093BC00F7
:1038900066CF9091550680915406981758F5E0919F
:1038A000550681E08E0F80935506F0E0EC5CF94FF1
:1038B0008081E9CFE091550681E08E0F8093550617
:1038C0008091BB00F0E0EC5CF94F8083909155064D
:1038D000809154069817C8F285E8D8CFE091550634
:1038E00081E08E0F809355068091BB00F0E0EC5C88
:1038F000F94F80838091570681115ECF81E08093DC
:10390000320684EA8093BC001092580628CF85ECDA
:103910008093BC00109258068091FD05803230F4EF
:10392000E091FD05F0E0E352FA4F10826091FD0551
:1039300070E08DED95E0F0E0E0E009951092FD0576
:103940000ECF1092560638CF1F920F920FB60F92DD
:1039500011242F934F935F936F937F938F939F9334
:10396000AF93BF93CF93DF93EF93FF9380912D0796
:1039700090912E07FC01E853FF4F2081211117C0C1
:10398000DC01A054BF4FEC01CB54DF4F488159817B
:103990006A817B814D935D936D937C93139721E0B6
:1039A0002083329780819181019691838083FF915A
:1039B000EF91DF91CF91BF91AF919F918F917F91C7
:1039C0006F915F914F912F910F900FBE0F901F90AD
:1039D00018951F920F920FB60F9211242F933F93B9
:1039E0004F935F936F937F938F939F93AF93BF9307
:1039F000CF93DF93EF93FF93C0912D07D0912E07C4
:103A0000CB59DF4F8D899E899C0125503109253086
:103A1000310518F08F3091051CF160E085E00E94BF
:103A2000440260E086E00E9444028D899E890196EE
:103A300084319105F1F09E8B8D8BFF91EF91DF9199
:103A4000CF91BF91AF919F918F917F916F915F9136
:103A50004F913F912F910F900FBE0F901F9018958F
:103A60008530910514F461E0D9CF0A970597E8F6FF
:103A7000FACF1E8A1D8AE1CF1F920F920FB60F92C6
:103A800011240F900FBE0F901F901895CF92DF92C8
:103A9000EF92FF920F931F93CF93DF9310929106B3
:103AA0001092900688EE93E0A0E0B0E0809392063A
:103AB00090939306A0939406B09395062AE534E07C
:103AC00030938F0620938E0625EC30E030939B06D2
:103AD00020939A0624EC30E030939D0620939C06B8
:103AE00020EC30E030939F0620939E0621EC30E0DE
:103AF0003093A1062093A00622EC30E03093A30679
:103B00002093A20626EC30E03093A5062093A4066D
:103B10001092A7061092A8061092A9061092AA0663
:103B200024E6C22ED12CD0922C07C0922B071092E3
:103B30008506109284068093860690938706A0934C
:103B40008806B09389068CE694E090938306809370
:103B500082068AE090E09093300780932F078FE0F1
:103B600090E090933207809331078AE091E0909340
:103B700034078093330784E091E090933607809375
:103B8000350780E091E0909338078093370784E011
:103B900090E090933A078093390783E090E0909308
:103BA0003C0780933B0782E090E090933E07809330
:103BB0003D0781E090E09093400780933F0710928B
:103BC00042071092410760E080E10E948E0210924D
:103BD000430710924407109245071092460710922F
:103BE0004707109248071092490710924A0710920F
:103BF0004C0710924B0710924D0710924E071092EF
:103C00004F071092500784E090E00E94D6277C0175
:103C10008EE794E0F7019183808389ED90E00E9424
:103C2000D627EC01DC011D921D928EE0E6E0F1E06A
:103C300001900D928A95E1F780ED97E0998B888B42
:103C400086E990E09B8B8A8B8AE1E4E1F1E0DE017A
:103C5000549601900D928A95E1F788E2EEE2F1E048
:103C6000DE019E9601900D928A95E1F7FE01EA5AD7
:103C7000FF4F118210823296118210828E01055AF6
:103C80001F4F88EE93E0F8019383828362E089E01E
:103C90000E948E0262E08AE00E948E02F801158284
:103CA0001482118210821782168210861186065F96
:103CB0001F4F8AE0E6E5F1E0D80101900D928A9568
:103CC000E1F784EF91E0F80193878287D48AC38A71
:103CD00061E085E00E948E0261E086E00E948E0233
:103CE00061E080E00E948E0261E081E00E948E022D
:103CF00061E082E00E948E0261E084E00E948E0218
:103D000061E086E10E948E0260E086E10E9444024A
:103D100061E085E00E94440260E086E00E94440287
:103D2000F8941092800010928100109285001092F9
:103D300084008EE190E090938900809388008091C8
:103D400081008860809381008091810083608093EE
:103D5000810080916F00826080936F007894F801F9
:103D60001486118A128A158616861786108A108E76
:103D7000168A158A178A7E96108211821282138201
:103D80001482158216823796108211821282138253
:103D900014821582168261E08FE00E948E0261E03B
:103DA0008EE00E948E0261E088E00E948E0261E057
:103DB00087E00E948E02CE018F569F4F0E945706C9
:103DC00083E68093B0008DE08093B10082E1809320
:103DD000B30089E08093B40060E083E00E948E022B
:103DE000FE01EE56FF4F108211821282138214825E
:103DF00035961082118212821382148215821682E5
:103E00001782108611861286148613861586005C2A
:103E10001F4F88E893E1F8019183808380E190E06F
:103E20009383828360E084E10E948E02F8018281A4
:103E3000938101968130924024F087E595E00E94BD
:103E4000151AF801158216821782108683E484837E
:103E50001386148615861686FE01EC54FF4F81E00A
:103E60008083709680E395E791838083B701CE01CC
:103E70000E94C30FD0932E07C0932D07DF91CF91DF
:103E80001F910F91FF90EF90DF90CF90089578945D
:103E900084B5826084BD84B5816084BD85B582604F
:103EA00085BD85B5816085BD80916E008160809300
:103EB0006E00109281008091810082608093810069
:103EC0008091810081608093810080918000816079
:103ED000809380008091B10084608093B1008091D4
:103EE000B00081608093B0008091910082608093E7
:103EF0009100809191008160809391008091900069
:103F00008160809390008091A10082608093A100E5
:103F10008091A10081608093A1008091A0008160C8
:103F20008093A00080917A00846080937A008091D1
:103F30007A00826080937A0080917A008E7F8093ED
:103F40007A0080917A00806880937A001092C10094
:103F500061E085E10E948E0260E085E10E944402FA
:103F600083B7817F846083BF81E00E943716E09130
:103F70002D07F0912E07E85AFF4F89EC90E09183CE
:103F8000808385E0282E312C8FB7F894809003062B
:103F900090900406A0900506B09006068FBF809210
:103FA0000C0690920D06A0920E06B0920F0600919C
:103FB0002D0710912E07F801EB54FF4F808291825C
:103FC000A282B38280914B0790914C0720913907D0
:103FD00030913A078217930709F0D8C04091430700
:103FE00050914407609145077091460795018401FF
:103FF000041B150B260B370B80912F079091300770
:10400000B0E0A0E080179107A207B30728F0452B86
:10401000462B472B09F067C08092430790924407D4
:10402000A0924507B092460780E10E94CA02EC01C7
:1040300040904707509048076090490770904A07A2
:10404000609131077091320790E080E00E940F2666
:104050004B015C01AC019B01C301B2010E946225CE
:1040600087FF44C0BE0190E080E00E940F262091AF
:104070004D0730914E0740914F07509150070E94D5
:10408000F6246B017C01C0924D07D0924E07E0925E
:104090004F07F092500720E030E040E85FE3C301B3
:1040A000B2010E94F6242B013C0140924707509236
:1040B00048076092490770924A07AC019B01C5010D
:1040C000B4010E94622581110EC0A3019201C701B3
:1040D000B6010E94672560934D0770934E07809349
:1040E0004F07909350070E9491014ECF80904D074B
:1040F00090904E07A0904F07B09050076091330703
:104100007091340790E080E00E940F269B01AC0183
:10411000C501B4010E94C12618164CF480914107D4
:104120009091420790934C0780934B07DCCF6091AE
:1041300035077091360790E080E00E940F269B01C2
:10414000AC01C501B4010E94C12618162CF480915F
:104150003F0790914007E6CF60913707709138078D
:1041600090E080E00E940F269B01AC01C501B401E4
:104170000E94C12618162CF480913D0790913E07AD
:10418000D1CF80913B0790913C07CCCF20913B074A
:1041900030913C078217930721F480E00E94371684
:1041A000A2CF80910B06811136C0E801C458DF4FC1
:1041B0008881882381F161E086E10E944402209198
:1041C0004B0730914C0780913D0790913E0728178F
:1041D000390721F061E082E00E9444021882F80170
:1041E000E754FF4F80829182A282B38280920706B9
:1041F00090920806A0920906B0920A0620914B07F9
:1042000030914C0780913D0790913E072817390760
:1042100071F40E94720220914B0730914C078091FB
:104220003D0790913E072817390709F4AEC18AE08F
:104230000E941B02E801C55ADF4F892B39F48C819B
:104240009D8101969D838C83F12C09C08C819D8179
:1042500018161906CCF71D821C82FF24F39489E0FE
:104260000E941B02892B39F48881998101969983D8
:10427000888360E008C08881998118161906CCF7F8
:104280001982188261E04C815D812A813B8188819D
:104290009981241735070CF08BC3281739070CF0C8
:1042A0001DC23F822E8282E0898781E080935E0674
:1042B00088E68093800610925F061092810690E057
:1042C00080E00E94D2050E946F0367E088E60E94AA
:1042D0005604109211068093100682E896E00E9420
:1042E0005C058F7799270E940D03F801ED57FF4F6A
:1042F000808382E896E00E945C050E940D03F8012D
:10430000EC57FF4F808382E896E00E945C058F7334
:1043100099270E940D03F801EB57FF4F808382E835
:1043200096E00E945C050E940D03F801EA57FF4FDA
:10433000808382E896E00E945C050E940D03F801EC
:10434000E957FF4F808382E896E00E945C050E9457
:104350000D03F801E857FF4F808382E896E00E9442
:104360005C050E940D03F801E757FF4F8083D801D9
:104370008D919C91DC01ED91FC910480F581E02D03
:1043800009957801BDEBEB0EF11CF70180818823C4
:1043900081F05801FEEBAF0EB11CD5018C91882342
:1043A00009F4B5C1CE010E943C06E5011882F7016F
:1043B0001082F801EF59FF4F808191818330910580
:1043C00009F4CFC108F0A7C18130910509F4B4C147
:1043D000029709F4BCC1E0912D07F0912E0780905F
:1043E0000C0690900D06A0900E06B0900F0620913E
:1043F0004B0730914C0780913F0790914007EF01A8
:10440000CB59DF4F28173907F1F4DF01A754BF4F0D
:104410008D919D910D90BC91A02DB501A401481BDB
:10442000590B6A0B7B0B80899189092E000CAA0B12
:10443000BB0B481759076A077B0728F46BEA75E03E
:10444000CE010E9401038C85823011F483E08C87B9
:104450008A8981111A8A8D859E85AF85B889B501B3
:10446000A401481B590B6A0B7B0B8A859B85092E7F
:10447000000CAA0BBB0B481759076A077B0718F0FB
:10448000488D442329F041E08B8D803209F440E0CF
:104490002C858C8D803209F015C2213009F015C2AF
:1044A000822F90E0FE01E80FF91FE18D211112C269
:1044B0002989222309F431C210E000E0EB3738F4F7
:1044C000F0E0EE0FFF1FE05AFC4F008111810478ED
:1044D000112721E02A8B198A880F991FFE01E80F06
:1044E000F91F80819181082B192B442321F08C81A5
:1044F0009D81082B192B61E084E00E944402F12C7D
:10450000E12CC8010E2C02C0969587950A94E2F71B
:1045100061E080FF60E080E00E9444025A985A9A6D
:10452000599A5998EFEFEE1AFE0AFCE0EF16F104E3
:1045300041F760E084E00E9444028C8599899923C8
:1045400019F0982F9B7F11F08F5F8C878D859E854A
:10455000AF85B889B501A401481B590B6A0B7B0BC9
:104560008A859B85880F991F092E000CAA0BBB0B0F
:1045700084179507A607B70720F48D869E86AF8619
:10458000B88A8C85853009F41C8680914B07909100
:104590004C0720913F07309140078217930739F06D
:1045A00020913D0730913E078217930751F5A09166
:1045B0002D07B0912E07ED01CB54DF4FFD01E754DD
:1045C000FF4F8881998120813181821B930B509606
:1045D0002D913C915197821793079CF45296ED913F
:1045E000FC9153979D012F563F4FBF01660F771FD8
:1045F0000E9441278E179F070CF0AAC1C9010E9493
:104600006E06E0912D07F0912E0740910C06509117
:104610000D0660910E0670910F06DF01AF59BF4F76
:104620008D919C911197892B41F0409307065093EF
:1046300008066093090670930A061D921C92DF011A
:10464000A358BF4F1C92A35BBF4F8C91882309F4E2
:1046500083C18091070690910806A0910906B09148
:104660000A064A015B01881A990AAA0ABB0ADF01F5
:10467000A153BF4F0D90BC91A02DAA0FBB1FAA0F35
:10468000BB1FAE0FBF1F9E962D913D914D915C912A
:10469000D197A0E6BAEE0E949C27681579058A0595
:1046A0009B0508F020CD80910B0681111CCDE853AD
:1046B000FF4F8081811117CD81E070CD1416150652
:1046C0000CF47AC18985823019F43F822E82EDCDB7
:1046D00024E030E03F832E8381E0E6CD18161906F2
:1046E0000CF46AC18985823081F383E090E09F8376
:1046F0008E83F2CFFF2009F4D8CD8985811103C0C4
:1047000081E090E061C11F821E821986CECDCE016C
:104710000E943C064CCE8430910509F4BDC005973B
:1047200009F059CED8018D919C91EC01E881F98175
:104730000284F385E02D09C0D8018D919C91EC0194
:10474000E881F9810680F781E02D099544CEF801D2
:1047500080819181DC01ED91FC910084F185E02D57
:10476000F4CFF801C081D1810A811B81F801E7579C
:10477000FF4F8081843609F056C082E290E00E94AB
:10478000D627FC0124E133E03183208388EE93E0D7
:1047900095838483A0EDB7E0B783A68328EB3BE045
:1047A0003187208780EA9FE093878287A8E8B3E17A
:1047B000B587A48724E030E13787268784E090E03E
:1047C000918B808BA2E0B0E0B38BA28BB58BA48BD6
:1047D000178A168A118E108E138E128E8AEF90E031
:1047E000958F848F978F868F87E791E091A380A321
:1047F000BF01C8010E94C30FEA81FB81ED52FF4F48
:10480000118210828A819B81FC01EB52FF4F8B54F5
:104810009F4FEC0188819981AA81BB81808391831C
:10482000A283B383D8CDC8010E941D160A80DB8104
:10483000C02DFE01E956FF4F838594858130910597
:1048400079F082309105D1F0892BF9F484E090E081
:104850000E94D62724E433E0FC013183208309C081
:1048600084E090E00E94D627E4E3F3E0DC01ED93DE
:10487000FC93BC01CE010E94C30FADCD84E090E05B
:104880000E94D627E4E2F3E0F1CF84E090E00E94BA
:10489000D627E4E4F3E0EACFD801CD91DC918A8118
:1048A0009B810E941D160A80DB81C02DFE01E95606
:1048B000FF4F1486138684E090E00E94D62724E5FB
:1048C00033E0CACF233009F4EBCD253008F035CEE4
:1048D00040E0E6CD243079F529892223F1F010E07B
:1048E00000E0EB3738F4F0E0EE0FFF1FE05AFC4F2A
:1048F000008111810870127051E05A8B198A2B893E
:104900003C891216130634F0598B2F5F3F4F3C8BB6
:104910002B8BE2CD1C8A1B8ADFCD10E000E0EB3749
:1049200038F4F0E0EE0FFF1FE05AFC4F00811181D8
:1049300021E0298BD1CD10E000E0EB3708F0CCCDA1
:10494000F0E0EE0FFF1FE05AFC4F00811181C4CD53
:10495000C9010E94570655CEDF01A154BF4F8C916B
:10496000882399F08091070690910806A091090686
:10497000B0910A06481B590B6A0B7B0B413C544D06
:104980006140710508F08FCEAECB80910706909103
:104990000806A0910906B0910A06481B590B6A0B3C
:1049A0007B0B413E5E426105710508F07CCE9BCBDE
:1049B000281739070CF482CE662309F49BCE89852B
:1049C0008111A1CE82E090E09F838E836ECC262F52
:1049D000F999FECF1FBA92BD81BD20BD0FB6F894E4
:1049E000FA9AF99A0FBE019608955058BB27AA2744
:1049F0000E940D250C9487260E94792638F00E948B
:104A0000802620F039F49F3F19F426F40C94762682
:104A10000EF4E095E7FB0C947026E92F0E9498268F
:104A200058F3BA17620773078407950720F079F4E3
:104A3000A6F50C94BA260EF4E0950B2EBA2FA02DF5
:104A40000B01B90190010C01CA01A0011124FF273B
:104A5000591B99F0593F50F4503E68F11A16F04036
:104A6000A22F232F342F4427585FF3CF4695379535
:104A70002795A795F0405395C9F77EF41F16BA0BFA
:104A8000620B730B840BBAF09150A1F0FF0FBB1FA8
:104A9000661F771F881FC2F70EC0BA0F621F731FF1
:104AA000841F48F4879577956795B795F7959E3F4E
:104AB00008F0B0CF9395880F08F09927EE0F9795DF
:104AC000879508950E944C2608F481E008950E947D
:104AD0007B250C9487260E94802658F00E94792618
:104AE00040F029F45F3F29F00C94702651110C948A
:104AF000BB260C9476260E94982668F39923B1F37E
:104B0000552391F3951B550BBB27AA2762177307F3
:104B1000840738F09F5F5F4F220F331F441FAA1F87
:104B2000A9F335D00E2E3AF0E0E832D09150504043
:104B3000E695001CCAF72BD0FE2F29D0660F771FF1
:104B4000881FBB1F261737074807AB07B0E809F0D7
:104B5000BB0B802DBF01FF2793585F4F3AF09E3F5C
:104B6000510578F00C9470260C94BB265F3FE4F35B
:104B7000983ED4F3869577956795B795F7959F5F9F
:104B8000C9F7880F911D9695879597F90895E1E0EB
:104B9000660F771F881FBB1F621773078407BA074A
:104BA00020F0621B730B840BBA0BEE1F88F7E095A5
:104BB00008950E94E0256894B1110C94BB260895D5
:104BC0000E94A02688F09F5798F0B92F9927B751D7
:104BD000B0F0E1F0660F771F881F991F1AF0BA95A1
:104BE000C9F714C0B13091F00E94BA26B1E008951F
:104BF0000C94BA26672F782F8827B85F39F0B93F11
:104C0000CCF3869577956795B395D9F73EF4909553
:104C10008095709561957F4F8F4F9F4F0895E894D1
:104C200009C097FB3EF490958095709561957F4FF4
:104C30008F4F9F4F9923A9F0F92F96E9BB279395A2
:104C4000F695879577956795B795F111F8CFFAF4B2
:104C5000BB0F11F460FF1BC06F5F7F4F8F4F9F4FE3
:104C600016C0882311F096E911C0772321F09EE841
:104C7000872F762F05C0662371F096E8862F70E0A7
:104C800060E02AF09A95660F771F881FDAF7880F81
:104C90009695879597F90895990F0008550FAA0BD7
:104CA000E0E8FEEF16161706E807F907C0F012163F
:104CB0001306E407F50798F0621B730B840B950B42
:104CC00039F40A2661F0232B242B252B21F4089597
:104CD0000A2609F4A140A6958FEF811D811D089534
:104CE00097F99F6780E870E060E008959FEF80EC9F
:104CF000089500240A941616170618060906089542
:104D000000240A9412161306140605060895092EA7
:104D10000394000C11F4882352F0BB0F40F4BF2B16
:104D200011F460FF04C06F5F7F4F8F4F9F4F089556
:104D300057FD9058440F551F59F05F3F71F047954C
:104D4000880F97FB991F61F09F3F79F08795089531
:104D5000121613061406551FF2CF4695F1DF08C050
:104D6000161617061806991FF1CF8695710561056D
:104D700008940895E894BB2766277727CB0197F915
:104D800008950E944C2608F48FEF08950E94D926BA
:104D90000C9487260E94792638F00E94802620F005
:104DA000952311F00C9470260C94762611240C9403
:104DB000BB260E94982670F3959FC1F3950F50E093
:104DC000551F629FF001729FBB27F00DB11D639FBD
:104DD000AA27F00DB11DAA1F649F6627B00DA11D63
:104DE000661F829F2227B00DA11D621F739FB00D09
:104DF000A11D621F839FA00D611D221F749F332779
:104E0000A00D611D231F849F600D211D822F762F11
:104E10006A2F11249F5750409AF0F1F088234AF0EE
:104E2000EE0FFF1FBB1F661F771F881F915050405A
:104E3000A9F79E3F510580F00C9470260C94BB2678
:104E40005F3FE4F3983ED4F3869577956795B795E1
:104E5000F795E7959F5FC1F7FE2B880F911D9695FB
:104E6000879597F9089587FB082E062687FD81957B
:104E700067FD61950E94A7270EF4919507FC819527
:104E8000089597FB072E16F4009407D077FD09D0FC
:104E90000E94B32707FC05D03EF4909581959F4F63
:104EA0000895709561957F4F0895A1E21A2EAA1B6F
:104EB000BB1BFD010DC0AA1FBB1FEE1FFF1FA217CA
:104EC000B307E407F50720F0A21BB30BE40BF50BC7
:104ED000661F771F881F991F1A9469F76095709550
:104EE000809590959B01AC01BD01CF010895052EE1
:104EF00097FB1EF400940E948E2757FD07D00E9456
:104F0000552707FC03D04EF40C948E2750954095FE
:104F1000309521953F4F4F4F5F4F08959095809565
:104F2000709561957F4F8F4F9F4F0895EE0FFF1F34
:104F30000590F491E02D09940E94C727A59F900D3C
:104F4000B49F900DA49F800D911D11240895991B6D
:104F500079E004C0991F961708F0961B881F7A9570
:104F6000C9F780950895AA1BBB1B51E107C0AA1F72
:104F7000BB1FA617B70710F0A61BB70B881F991FFA
:104F80005A95A9F780959095BC01CD010895A29FEF
:104F9000B001B39FC001A39F700D811D1124911D0D
:104FA000B29F700D811D1124911D08950F931F93C1
:104FB000CF93DF938230910510F482E090E0E0918E
:104FC0005307F091540730E020E0B0E0A0E03097C4
:104FD00099F42115310509F44AC0281B390B2430F6
:104FE0003105D8F58A819B816115710589F1FB0135
:104FF00093838283FE0111C040815181028113811C
:1050000048175907E0F04817590799F4109761F0CD
:1050100012960C93129713961C933296CF01DF9140
:10502000CF911F910F910895009353071093540748
:10503000F4CF2115310551F04217530738F0A9017B
:10504000DB019A01BD01DF01F801C1CFEF01F9CF0A
:105050009093540780935307CDCFFE01E20FF31FC7
:10506000819391932250310939832883D7CF20919E
:10507000510730915207232B41F4209102013091C6
:105080000301309352072093510720910001309182
:1050900001012115310541F42DB73EB740910401BE
:1050A00050910501241B350BE0915107F0915207F7
:1050B000E217F307A0F42E1B3F0B2817390778F0EF
:1050C000AC014E5F5F4F2417350748F04E0F5F1F4E
:1050D0005093520740935107819391939FCFF0E0F3
:1050E000E0E09CCFCF93DF930097E9F0FC0132978B
:1050F00013821282A0915307B0915407ED0130E062
:1051000020E01097A1F420813181820F931F20911C
:105110005107309152072817390709F061C0F09301
:105120005207E0935107DF91CF910895EA01CE171E
:10513000DF07E8F54A815B819E0141155105B1F712
:10514000E901FB83EA8349915991C40FD51FEC17FC
:10515000FD0761F4808191810296840F951FE9011A
:1051600099838883828193819B838A83F0E0E0E046
:1051700012968D919C9113970097B9F52D913C91C2
:105180001197CD010296820F931F20915107309104
:1051900052072817390739F6309751F510925407FE
:1051A00010925307B0935207A0935107BCCFD383FB
:1051B000C28340815181840F951FC817D90761F4BC
:1051C0004E5F5F4F88819981480F591F51834083FB
:1051D0008A819B81938382832115310509F0B0CFA9
:1051E000F0935407E09353079ECFFD01DC01C0CF3D
:1051F00013821282D7CFF894FFCF000055078000AA
:10520000810587058D05930599059F05A505000076
:105210001F001C001F001E001F001E001F001F009B
:105220001E001F001E001F00000000000100000003
:1052300003000000050000000A0000000F0000004D
:105240001E0000002D0000003C0000000F270000A1
:10525000200002004000000100080000000040099A
:10526000AA1A4109C710C7100119000000003F0920
:10527000A81AC509EF10DB100119000000003E0953
:10528000A61A17110311CE090119000000003D09EB
:10529000A41A1E0A9D119D110119000000003C096D
:1052A000A21A270AF811F8110119000000003B09A1
:1052B000A01AF117B31740170119000000003A09AE
:1052C0009E1A440A0C12AC1A011900000000390998
:1052D0009C1A560A341220120119000000003809E5
:1052E0009A1AAD0A48125F0A011900000000370936
:1052F000981ACD0A70125C120119000000003609DC
:10530000961A250B9412D60A0119000000003509DF
:10531000941A390BBC12A8120119000000003409BC
:10532000921AAF0BE012420B011900000000330982
:10533000901A1D0CF412CE0B011900000000320966
:105340006A1A3C0C54134013011900000000310983
:105350008E1A78138E0C450C0119000000003009DC
:105360008C1AAE0CC913950C0119000000002F090E
:105370008A1ADE0C1514C50C0119000000002E0954
:10538000881AFD0C781464140119000000002D091E
:10539000861A060D9C14950C0119000000002C09BA
:1053A000841A250D2619C50C0119000000002B09CF
:1053B000821A5D0D5919440D0119000000002A09D7
:1053C000801A790DD814C4140119000000002809AE
:1053D0007C1A8B0D31151D150119000000002709DD
:1053E0007A1A650E591545150119000000002609A5
:1053F000781A770E81156D15011900000000250936
:10540000761A8E0EA915951501190000000089065F
:10541000721AD306DE0F8A06011900000000870603
:105420006E1A210F84106310011900000000860617
:105430006C1A310FB3109810011900000000880693
:10544000701A090F4F101D100119000000002909E2
:105450007E1A820D0915F51401199D020802150620
:105460001906880699049D0409029D069906000004
:10547000000000000000000000000000000000002C
:10548000000000000000000000000000000000001C
:10549000000000000000000000000000000000000C
:1054A0000000000000000000000000000000810675
:1054B000000000000000000084009D0208021506A4
:1054C0001906880699049D0409029D0699060000A4
:1054D0000000000011000000000000008D069D0685
:1054E00095009D02950485049D048C06080219020E
:1054F0000000940009028D029D02850600008D06C1
:10550000990494049C029C0218028C0688061506D5
:105510000000000000000000000000008D069C0458
:1055200014041C06950685049D048C0404001902CD
:105530000000940008040C041C0485060000040408
:10554000990494041C001C0018008C06980615068B
:10555000000000001A01A801BB006701EC00CA00AE
:10556000DE0000000000A305760539064C056F0536
:105570005C054D05000000002409741AD519D115E9
:10558000BD15011931392038350020202020200098
:105590003D2020202000203D202020002020203DF4
:1055A0002000202020203D003D2020203D003D3DCA
:1055B00020202000203D203D20002020203D3D00D7
:1055C0003D3D203D20003D3D203D3D003139203511
:1055D0003500534520724E005041207459007445E7
:1055E000206E6E00594520417200646F20555500B1
:1055F0004441207445007469206E6E004F6E202077
:1056000020005369204C45004F4620462000414C65
:10561000204172005345207420003030313030007A
:105620003939203939002020313030000D0A004549
:1056300078636565646564206D6178696D756D205A
:105640006E756D626572206F66207772697465731E
:1056500000417474656D707420746F207772697482
:1056600065206F757473696465206F6620454550C9
:10567000524F4D206D656D6F7279004E4E206F6EEA
:10568000007475204520005555204564007468203D
:105690007520004672206920005341207420005379
:0C56A00075206E20004241204C6F00007D
:107E0000112484B714BE81FFF1D085E080938100F6
:107E1000589A82E08093C00088E18093C10086E098
:107E20008093C20080E18093C4008EE0C9D0259A7F
:107E300086E028E13EEF91E03093850020938400B6
:107E400096BBB09BFECF1D9AA8958150A9F7CC2474
:107E5000DD2488248394B5E0AB2EA1E19A2EF3E0D3
:107E6000BF2EA2D0813461F49FD0082FAFD002384A
:107E700011F0013811F484E001C083E08DD089C095
:107E8000823411F484E103C0853419F485E0A6D06E
:107E900080C0853579F488D0E82EFF2485D0082F5E
:107EA00010E0102F00270E291F29000F111F8ED060
:107EB00068016FC0863521F484E090D080E0DECF89
:107EC000843609F040C070D06FD0082F6DD080E0AC
:107ED000C81680E7D80618F4F601B7BEE895C0E0EA
:107EE000D1E062D089930C17E1F7F0E0CF16F0E70C
:107EF000DF0618F0F601B7BEE89568D007B600FCBB
:107F0000FDCFA601A0E0B1E02C9130E011968C915C
:107F1000119790E0982F8827822B932B1296FA01C5
:107F20000C0187BEE89511244E5F5F4FF1E0A03849
:107F3000BF0751F7F601A7BEE89507B600FCFDCFD5
:107F400097BEE89526C08437B1F42ED02DD0F82EF8
:107F50002BD03CD0F601EF2C8F010F5F1F4F849187
:107F60001BD0EA94F801C1F70894C11CD11CFA9403
:107F7000CF0CD11C0EC0853739F428D08EE10CD03F
:107F800085E90AD086E17ACF813511F488E018D0EE
:107F90001DD080E101D065CF982F8091C00085FF72
:107FA000FCCF9093C60008958091C00087FFFCCF5E
:107FB0008091C00084FD01C0A8958091C6000895FD
:107FC000E0E6F0E098E1908380830895EDDF803271
:107FD00019F088E0F5DFFFCF84E1DECF1F93182F83
:107FE000E3DF1150E9F7F2DF1F91089580E0E8DF49
:067FF000EE27FF270994B3
:027FFE00040479
:00000001FF
