:100000000C9491000C94B9000C94B9000C945E17F8
:100010000C94C6160C94B9000C94B9000C94B90059
:100020000C94B9000C94B9000C94B9000C940B1703
:100030000C94B9000C94B9000C94B9000C94B9005C
:100040000C945F150C94B9000C942D150C940715A5
:100050000C94B9000C94B9000C94B9000C94B9003C
:100060000C94AB150C94B9000C94A9150C94A9151B
:100070000C94A9150C94A9150C94A9150C94A91508
:100080000C94A9150C94A9150C94A9150C94A915F8
:100090000C94A9150C94A9150C94A9150C94A915E8
:1000A0000C94A9150C94A9150C94A9150C94A915D8
:1000B0000C94A91500000000240027002A002D0040
:1000C00000000000250028002B002E00000000008A
:1000D0002300260029002C00040404040404040462
:1000E00002020202020203030303030305050505DE
:1000F00001020408102040800102040810200102BF
:100100000408102004080102090C0A08000201007A
:1001100000030407000000000000000000000000D1
:10012000681711241FBECFEFD8E0DEBFCDBF14E0AB
:10013000A0E0B1E0E0E1F5E402C005900D92AC3B37
:10014000B107D9F726E0ACEBB4E001C01D92AF35A2
:10015000B207E1F710E0C1E9D0E004C02197FE0149
:100160000E942121C039D107C9F70E944B190C9474
:1001700086220C940000FC01538D448D252F30E025
:10018000842F90E0821B930B541710F0CF960895A4
:1001900001970895FC01918D828D981761F0A28DD1
:1001A000AE0FBF2FB11D5D968C91928D9F5F9F7397
:1001B000928F90E008958FEF9FEF0895FC01918D4D
:1001C000828D981731F0828DE80FF11D858D90E0BA
:1001D00008958FEF9FEF0895FC01918D228D892F57
:1001E00090E0805C9F4F821B91098F73992708953F
:1001F000FC01A48DA80FB92FB11DA35ABF4F2C919C
:10020000848D90E001968F739927848FA689B78992
:100210002C93A089B1898C91837080648C93938D89
:10022000848D981306C00288F389E02D80818F7D2C
:1002300080830895EF92FF920F931F93CF93DF93E4
:10024000EC0181E0888F9B8D8C8D98131AC0E88912
:10025000F989808185FF15C09FB7F894EE89FF89E1
:100260006083E889F98980818370806480839FBF7F
:1002700081E090E0DF91CF911F910F91FF90EF907F
:100280000895F62E0B8D10E00F5F1F4F0F7311278F
:10029000E02E8C8D8E110CC00FB607FCFACFE889CA
:1002A000F989808185FFF5CFCE010E94F800F1CF5A
:1002B000EB8DEC0FFD2FF11DE35AFF4FF0829FB73E
:1002C000F8940B8FEA89FB8980818062CFCFCF932E
:1002D000DF93EC01888D8823B9F0AA89BB89E8896E
:1002E000F9898C9185FD03C0808186FD0DC00FB614
:1002F00007FCF7CF8C9185FFF2CF808185FFEDCF92
:10030000CE010E94F800E9CFDF91CF91089588E9EE
:1003100095E00E94EC0021E0892B09F420E0822F77
:10032000089580E090E0892B29F00E9487018111D7
:100330000E94000080E090E0892B49F080E090E08E
:10034000892B29F00E94000081110C94000008956F
:100350000895AF92BF92CF92DF92EF92FF920F93E8
:100360001F93CF93DF936C017B018B01040F151F4B
:10037000EB015E01AE18BF08C017D10759F06991B3
:10038000D601ED91FC910190F081E02DC601099517
:10039000892B79F7C501DF91CF911F910F91FF90C4
:1003A000EF90DF90CF90BF90AF90089581508D3047
:1003B00008F03DC0E82FF0E0E052FE4F0C94212100
:1003C000F701FB01ED01F30117021702FE01040220
:1003D00008020E02170212021802809180008F7725
:1003E000809380000895809180008F7DF9CF84B53F
:1003F0008F7784BD089584B58F7DFBCF8091B00049
:100400008F778093B00008958091B0008F7DF9CFF1
:10041000809190008F778093900008958091900054
:100420008F7DF9CF8091A0008F778093A0000895F1
:100430008091A0008F7DF9CFCF93DF93282F30E0FC
:10044000F901E85FFE4F8491F901E051FF4FD4912B
:10045000F901E852FF4FC491CC23A1F081110E9411
:10046000D601EC2FF0E0EE0FFF1FE453FF4FA591F4
:10047000B491EC91ED2381E090E009F480E0DF910C
:10048000CF91089580E090E0FACF1F93CF93DF9350
:10049000282F30E0F901E85FFE4F8491F901E05127
:1004A000FF4FD491F901E852FF4FC491CC23A9F03A
:1004B000162F81110E94D601EC2FF0E0EE0FFF1FE6
:1004C000E054FF4FA591B4918FB7F894EC911111BE
:1004D00008C0D095DE23DC938FBFDF91CF911F91B1
:1004E0000895DE2BF8CF60E08FE00E94450260E0C7
:1004F0008EE00E94450260E088E00E94450260E0D4
:1005000087E00C944502CF93DF9390E0FC01E0512B
:10051000FF4F249188529F4FFC0184918823C9F09A
:1005200090E0880F991FFC01EC54FF4FA591B49106
:10053000FC01E054FF4FC591D49161110DC09FB7EC
:10054000F8948C91209582238C938881282328838A
:100550009FBFDF91CF910895623051F49FB7F89417
:100560003C91822F809583238C93E8812E2BEFCFB3
:100570008FB7F894EC912E2B2C938FBFEACF8E502F
:10058000806480937C0080917A00806480937A00FC
:1005900080917A0086FDFCCF80917800909179005F
:1005A00008953FB7F8948091090590910A05A091AC
:1005B0000B05B0910C0526B5A89B05C02F3F19F07F
:1005C0000196A11DB11D3FBFBA2FA92F982F8827D3
:1005D000BC01CD01620F711D811D911D43E0660FAD
:1005E000771F881F991F4A95D1F70895FC017996C6
:1005F000CB010596DB012D91BD012193A817B90709
:10060000C9F708959C0197FF02C0215F3F4F44E066
:10061000359527954A95E1F74AE0429FF001439FBF
:10062000F00D112460E170E00E94CC208E0F9F1F1E
:1006300008956AE070E00E94CC2024E0660F771FE6
:100640002A95E1F7860F971F08951F93CF93DF93A5
:10065000C1E0C093C404882399F1D091B8001091EF
:10066000BA008091BC008A7B8093BC0060E082E18C
:100670000E94450260E083E10E94450210926205FB
:10068000C093610510923C0561E082E10E94450241
:1006900061E083E10E9445028091B9008E7F8093E2
:1006A000B9008091B9008D7F8093B90080E280937A
:1006B000B80085E48093BC001093BA00D093B800D2
:1006C000DF91CF911F910895CF92DF92EF92FF9229
:1006D0000F931F93CF93DF93D0918B0581E0D1329D
:1006E00008F09CC0C0918A050E94D1026B017C0178
:1006F0008091620581116CC082E08093620581E087
:10070000809361058FEF8093600510925F05D09311
:100710005E05AAE6B5E0EEE3F5E080E0D8138DC013
:1007200010923D0580913D05CC0FC82BC0933D052F
:1007300080913C05813009F084C010923C050E94F4
:10074000D1026B017C0180913D058093BB008091BB
:10075000640590916505A0916605B0916705892BA8
:100760008A2B8B2BA1F00E94D1020091640510917D
:10077000650520916605309167056C197D098E0924
:100780009F09061717072807390708F442C0809108
:10079000BC0083FDD8CF85EC8093BC000E94D102C1
:1007A0006B017C0180916205823009F44CC080911C
:1007B00060058F3F09F469C080916005803209F4BB
:1007C00066C080916005803309F463C084E026C070
:1007D0008091640590916505A0916605B0916705CB
:1007E000892B8A2B8B2B09F483CF0E94D102009195
:1007F00064051091650520916605309167056C19B7
:100800007D098E099F09061717072807390708F081
:100810006FCF809163050E94250385E010926905E2
:1008200010928B0510926805DF91CF911F910F9167
:10083000FF90EF90DF90CF9008959D9191938F5FFF
:100840006DCF85EEA9CF8091640590916505A0914B
:100850006605B0916705892B8A2B8B2B09F4A2CFF3
:100860000E94D102009164051091650520916605F2
:10087000309167056C197D098E099F0906171707C6
:100880002807390708F08ECFC4CF80E0C7CF82E0B9
:10089000C5CF83E0C3CFCF92DF92EF92FF920F9349
:1008A0001F93CF93DF93D82FC62F613208F098C0E3
:1008B0000E94D1026B017C018091620581116BC0A5
:1008C00081E080936205809361059FEF90936005BE
:1008D00010925F059C0F90935E0580933D0580917B
:1008E0003D05DD0FD82BD0933D0580913C0581302F
:1008F00009F078C010923C050E94D1026B017C0186
:1009000080913D058093BB008091640590916505C1
:10091000A0916605B0916705892B8A2B8B2BA1F0DE
:100920000E94D10200916405109165052091660531
:10093000309167056C197D098E099F090617170705
:100940002807390708F448C08091BC0083FDD8CF40
:1009500085EC8093BC000E94D1026B017C018091E8
:100960006205813009F440C080915F058C1710F456
:10097000C0915F05EEE3F5E0ACE1B5E080E08C13FB
:1009800055C08C2FDF91CF911F910F91FF90EF9069
:10099000DF90CF9008958091640590916505A091B6
:1009A0006605B0916705892B8A2B8B2B09F484CFC0
:1009B0000E94D102009164051091650520916605A1
:1009C000309167056C197D098E099F090617170775
:1009D0002807390708F070CF809163050E9425032E
:1009E000C0E0CFCF85EEB5CF8091640590916505CD
:1009F000A0916605B0916705892B8A2B8B2B09F492
:100A0000AECF0E94D102009164051091650520913E
:100A10006605309167056C197D098E099F090617D7
:100A200017072807390708F09ACFD6CF91919D93E1
:100A30008F5FA5CF2091E504260F3327331F213286
:100A40003105ECF420916205FC0190E080E0243057
:100A500069F082E00895A091E5042191AC014B5327
:100A60005B4FA40FB52FB11D2C930196861798F3F9
:100A70008091E504680F6093E50480E0089581E0CB
:100A80000895E0911B0580911A05E81730F4F0E015
:100A9000E45EFA4F808190E008958FEF9FEF089514
:100AA00090911B0580911A052FEF3FEF981748F49E
:100AB000E92FF0E0E45EFA4F208130E09F5F9093F1
:100AC0001B05C901089580911A0590911B05891B8A
:100AD000990B0895CF92DF92EF92FF920F931F939D
:100AE000CF93DF937C01CB018A01209168052223FB
:100AF00089F0EB016B01C40ED51ECC15DD0569F044
:100B00006991D701ED91FC910190F081E02DC70131
:100B10000995F3CF642F0E941A05C801DF91CF9188
:100B20001F910F91FF90EF90DF90CF900895CF939A
:100B3000DF931F92CDB7DEB769832091680522232A
:100B4000F9F020918B05203258F021E030E0FC01D3
:100B50003383228390E080E00F90DF91CF9108955E
:100B600080916905E82FF0E0E659FA4F998190836A
:100B70008F5F8093690580938B0581E090E0ECCFD7
:100B800061E0CE0101960E941A05F7CF682F8CE82C
:100B900095E00C949705CF93DF93EB0121E0209330
:100BA000680528E620938A051092690510928B0546
:100BB0000E94C605CE010E94C605DF91CF910C941C
:100BC0006403CF92EF92FF920F931F93CF93DF9323
:100BD000F82E162FD42FC22F81E08093680588E667
:100BE00080938A051092690510928B0590E080E051
:100BF0000E94C6058F2D90E00E9419030E94C60531
:100C0000812F90E00E9419030E94C6058D2F90E06D
:100C10000E9419030E94C6058C2F90E00E941903C0
:100C20000E94C605802F90E00E9419030E94C6050D
:100C30008E2D90E00E9419030E94C6058C2D90E035
:100C40000E9419030E94C605DF91CF911F910F9159
:100C5000FF90EF90CF900C94640390E080E00895B3
:100C6000CF93DF93EC0160E083E00E94830218825F
:100C7000DF91CF91089508950895089508950895F6
:100C8000089508950895089508950895089508957C
:100C9000089508950895089508950895089508956C
:100CA000089508950895089508950895CF93DF93C2
:100CB000FC01A281B3818FB7F89440910D0550914A
:100CC0000E0560910F05709110058FBFAA54BF4F9C
:100CD0004D935D936D937C931397A281B381AA5A30
:100CE000BF4F8D919C91119701968D939C93A281FA
:100CF000B381AA5ABF4F8D919C9111970A9714F016
:100D00001D921C92A281B381ED01CA5ADF4F8881E6
:100D10009981AB54BF4F892BB1F41C92828193818E
:100D2000FC01E654FF4F8A5A9F4FDC018D919C9144
:100D3000092E000CAA0BBB0B80839183A283B38383
:100D4000DF91CF91089581E08C93E8CFFC018281FF
:100D5000938164EF73E08D599F4F0C94F602DC0190
:100D60001296ED91FC91DF01AF54BF4F8D919C9194
:100D7000039664E070E00E94CC2093E0981B892FDA
:100D8000ED59FF4F92E7918F95E4928F90E2938F08
:100D90009AE2948F858F0895DC011296ED91FC9173
:100DA000DF01AB56BF4F9C91ED59FF4F80E2818F21
:100DB000828F838F8AE2848F958F0895FC018281D0
:100DC00093816AEF73E08D599F4F0C94F602AF92B6
:100DD000BF92CF92EF920F93CF93DF93DC011296E5
:100DE000ED91FC911397EA5AFF4F80819181019612
:100DF000918380831296ED91FC911397EA5AFF4FED
:100E0000808191818436910521F484E190E0918381
:100E1000808312968D919C91BC016A5A7F4FAC01E0
:100E20004A575F4F9C012B573F4FEC01CC57DF4F88
:100E3000DC01AD57BF4F5C01E2E8AE0EB11C8F572D
:100E40009F4FFB01C080FA01E080F90100812881F9
:100E50004C91F5016081FC0180810E94E105DF91E8
:100E6000CF910F91EF90CF90BF90AF900895DC019C
:100E70001296ED91FC91DF01AA5ABF4F8D919C9182
:100E8000ED59FF4F22E3218F20E3228F20E2238FB1
:100E90006AE070E00E94CC20648F858F0895FC0189
:100EA0008281938160E074E08D599F4F0C94F6022B
:100EB000AF92BF92CF92EF920F93CF93DF93DC016B
:100EC0001296ED91FC911397EA5AFF4F8081918120
:100ED0000196918380831296ED91FC911397EA5AC3
:100EE000FF4F80819181089721F481E090E0918308
:100EF000808312968D919C91BC0169577F4FAC0104
:100F00004A575F4F9C012B573F4FEC01CA5ADF4FA6
:100F1000DC01AD57BF4F5C01E2E8AE0EB11C8F574C
:100F20009F4FFB01C080FA01E080F9010081288118
:100F30004C91F5016081FC0180810E94E105DF9107
:100F4000CF910F91EF90CF90BF90AF900895FC019B
:100F500082819381FC01EA5AFF4F0190F081E02DDC
:100F6000FF27EE0FFF1FE80FF91F608171818D5978
:100F70009F4F0C94F602FC018281938166E074E03D
:100F80008D599F4F0C94F602AF92BF92CF92EF9281
:100F90000F93CF93DF93DC011296ED91FC911397A1
:100FA000EA5AFF4F80819181019691838083129646
:100FB0004D915C911397FA01E957FF4F808183703F
:100FC000EA01CA57DF4FF197811107C0888182304B
:100FD00021F4808191814D97B1F02881022E000C7F
:100FE000330B265F3F4F220F331F240F351FE901BC
:100FF00028813981808191812817390724F481E083
:1010000090E09183808312968D919C91BC016957E9
:101010007F4FAC014A575F4F9C012A5A3F4FEC016A
:10102000CC57DF4FDC01AD57BF4F5C01E2E8AE0E9D
:10103000B11C8F579F4FFB01C080FA01E080F9017E
:10104000008128814C91E5016881FC0180810E942A
:10105000E105DF91CF910F91EF90CF90BF90AF90CE
:101060000895DC011296ED91FC91DF01AA5ABF4F61
:101070002D913C91C9016AE070E00E94CC20611181
:1010800001C060E2ED59FF4F80E2818F828F838F34
:10109000648FC9016AE070E00E94CC20858F0895BA
:1010A000AF92BF92CF92EF920F93CF93DF93DC0179
:1010B0001296ED91FC911397EA5AFF4F808191812E
:1010C0000196918380831296ED91FC911397EA5AD1
:1010D000FF4F808191810D9721F481E090E0918311
:1010E000808312968D919C91BC0169577F4FAC0112
:1010F0004A5A5F4F9C012B573F4FEC01CC57DF4FB3
:10110000DC01AD57BF4F5C01E2E8AE0EB11C8F575A
:101110009F4FFB01C080FA01E080F9010081288126
:101120004C91F5016081FC0180810E94E105DF9115
:10113000CF910F91EF90CF90BF90AF900895DC01C9
:101140001296ED91FC91DF01AA5ABF4F2D913C916F
:10115000C9016AE070E00E94CC20611101C060E228
:10116000ED59FF4F618FC9016AE070E00E94CC2009
:10117000828F80E2838F848F858F0895FC01828126
:1011800093816CE074E08D599F4F0C94F602CF92DE
:10119000EF920F93CF93DF93DC011296ED91FC91C8
:1011A0001397EA5AFF4F8081918101969183808342
:1011B0001296ED91FC911397EA5AFF4F808191812D
:1011C000CC9711F41182108212968D919C91AC01F2
:1011D00049575F4F9C012A573F4FEC01CB57DF4FD8
:1011E000DC01AC57BF4FBC016D577F4F8A5A9F4FF0
:1011F000FA01C080F901E08008812C91FB01408157
:10120000FC01608180E00E94E105DF91CF910F91A8
:10121000EF90CF900895DC011296ED91FC91DF01E3
:10122000AA5ABF4F2D913C91ED59FF4F90E2918FFB
:10123000928F938FC9016AE070E00E94CC20648F86
:10124000858F0895CF92EF920F93CF93DF93DC01B8
:101250001296ED91FC911397EA5AFF4F808191818C
:101260000196918380831296ED91FC911397EA5A2F
:10127000FF4F80819181489711F41182108212965C
:101280008D919C91AC0149575F4F9C012A573F4F6C
:10129000EC01CB57DF4FDC01AC57BF4FBC016A5AA2
:1012A0007F4F8E579F4FFA01C080F901E08008817F
:1012B0002C91FB014081FC01608180E00E94E105EE
:1012C000DF91CF910F91EF90CF900895DC011296AE
:1012D000ED91FC91DF01AA5ABF4F2D913C91C901BC
:1012E0006AE070E00E94CC20611101C060E2ED591B
:1012F000FF4F618FC9016AE070E00E94CC20828FAD
:1013000080E2838F848F858F0895FC018281938191
:1013100062E174E08D599F4F0C94F602DC01129645
:10132000ED91FC911397EA5AFF4F208131812F5F95
:101330003F4F318320831296ED91FC91EA5AFF4F83
:1013400080819181CC9711F4118210820895DC0183
:101350001296ED91FC91DF01AA5ABF4F2D913C915D
:10136000C9016AE070E00E94CC20611101C060E216
:10137000ED59FF4F80E2818F828F838F648FC90187
:101380006AE070E00E94CC20858F0895DC011296FF
:10139000ED91FC911397EA5AFF4F208131812F5F25
:1013A0003F4F318320831296ED91FC91EA5AFF4F13
:1013B00080819181489711F4118210820895DC0197
:1013C0001296ED91FC91DF01AA5ABF4F2D913C91ED
:1013D000C9016AE070E00E94CC20611101C060E2A6
:1013E000ED59FF4F618FC9016AE070E00E94CC2087
:1013F000828F80E2838F848F858F0895DC0112961F
:10140000ED91FC911397EA5AFF4F208131812F5FB4
:101410003F4F318320831296ED91FC91EA5AFF4FA2
:1014200080819181039711F4118210820895FC014B
:1014300082819381FC01EA5AFF4F2081318168E16A
:1014400074E02115310551F06EE174E02130310571
:1014500029F02230310531F464E274E08D599F4F58
:101460000C94F6020895FC01828193816AE274E093
:101470008D599F4F0C94F602FC018281938160E3A9
:1014800074E08D599F4F0C94F602CF93DF93DC01EB
:1014900012968D919C911397AC01485A5F4FEA01C7
:1014A00028812223D9F1188212968D919C9113974D
:1014B000FC01E457FF4F8B579F4FEC0188819081CF
:1014C000891B808312968D919C911397FC01E6579E
:1014D000FF4F8D579F4FEC0188819081891B80833E
:1014E00012968D919C911397FC01E757FF4F8E57F1
:1014F0009F4FEC0188819081891B808312968D918A
:101500009C91FC01E857FF4F8F579F4FDC018C9156
:101510009081891B8083DF91CF910895FC01E8576A
:10152000FF4F208121112EC09C0127573F4FE90119
:101530002881211127C086579F4FEC018881811196
:1015400021C081E0FA01808312968D919C91FC016B
:10155000EE57FF4F70813196608131965081319600
:101560004081319630813196208131968F579F4F3F
:10157000DC018C9180837183628353834483358340
:101580002683C9CF1082118212821382148215829F
:101590001682C1CF1F93DC0112962D913C91F90167
:1015A000E857FF4F60813196708131961081F29734
:1015B00080813B96D901882309F453C0AD57BF4FB2
:1015C0004C91042E000C550B411B510917FD5395EE
:1015D000A0E1BEE04A9FC0014B9F900D5A9F900D25
:1015E0001124D901AE57BF4F4C91042E000C550B5E
:1015F000471B510977FD53957CE3749FD001759F7C
:10160000B00D11248A0F9B1F2F573F4FD9012C91EA
:10161000022E000C330B261B310967FD3395280F72
:10162000391FC9016CE370E00E94CC20462F64365C
:101630000CF043E6C9016CE370E00E94CC20382F27
:101640002AE0842F622F0E94BE20818F928F81E03A
:10165000838F832F622F0E94BE20848F958F1F91CE
:101660000895A558BF4F611104C0711102C0112324
:1016700099F081E08C9340E15EE014039001159FA6
:10168000300D1124BCE37B02200D311D1124260FE7
:10169000311D67FD3A95C5CF81E08C93118E128E76
:1016A000838F148E158EDBCF8F929F92AF92BF9255
:1016B000CF92DF92EF92FF920F931F93CF93DF931E
:1016C000FC01C281D381FE01EF55FF4F4081518162
:1016D000628173818E010F561F4FF801C580D6803D
:1016E000E780F0844A015B018C189D08AE08BF08B2
:1016F00080819181B0E0A0E088159905AA05BB051D
:1017000020F0CD28CE28CF2859F5F80145835683FF
:101710006783708784E10E94BF02BC01990F880B28
:10172000990B0E949C1F23E333E343E550E40E949E
:10173000512020E030E040E85AE30E94512020E0B0
:1017400030E040E05FE30E94801E2AE037ED43E294
:101750005CE30E94F21EF801638774878587968791
:10176000F801C384D484E584F684FE01EB56FF4F70
:10177000B0808E010D591F4FF6E4BF124FC020E01C
:1017800030E040E151E4C701B6010E94512020E061
:1017900030E040EA50E40E94F21E20E030E040E0F9
:1017A00052E40E94811E6B017C0120E030E048EC95
:1017B00052E40E94F21E0E94641FF801618F20E033
:1017C00030E040E251E4C701B6010E94F21E0E94DF
:1017D000641F8AE0882E912CCB01B4010E94CC209A
:1017E000F801828F80E2838FC701B6010E94641FD7
:1017F000CB01B4010E94CC20F801848FC058DF4F88
:10180000B882DF91CF911F910F91FF90EF90DF9001
:10181000CF90BF90AF909F908F90089581E0FE0190
:10182000E558FF4F808320E030E040E251E4C701FB
:10183000B6010E94F21E0E94641FF801618FC70169
:10184000B6010E94641FCB016AE070E00E94CC20C8
:10185000F801828F80E2838F8AE2CFCFFC01828100
:101860009381FC01EC57FF4FE081F0E0EE0FFF1F8A
:10187000E80FF91F608171818D599F4F0C94F6021A
:10188000DC011296ED91FC91DF01A558BF4F91E06C
:101890009C9316968C91ED59FF4F20E2218F228F59
:1018A000938F6AE00E94BE20848F958F0895DC019B
:1018B0001296ED91FC91DF01AA57BF4F5C91852FE5
:1018C0006AE00E94BE20382F811101C030E2DF01A2
:1018D000AB57BF4F4C91842F6AE00E94BE20282F47
:1018E000811101C020E2ED59FF4F318F3AE0852F81
:1018F000632F0E94BE20928F80E2838F248F842FDB
:10190000632F0E94BE20958F0895FC01DC01AD5726
:10191000BF4F3C91832F6AE00E94BE20811101C01D
:1019200080E2DF01AE57BF4F4C91ED59FF4F818FE1
:101930002AE0832F622F0E94BE20928F138E842F65
:10194000622F0E94BE20848F958F08950F931F935E
:10195000CF93DF93EC018B0188819981009739F057
:10196000DC01ED91FC910280F381E02D0995198352
:101970000883F801D383C283DF91CF911F910F9128
:101980000895CF93DF93C82F0E94730260E081E037
:101990000E94450260E082E00E94450260E080E033
:1019A0000E94450260E084E00E94450260E086E11A
:1019B0000E94450260E085E00E94450260E086E00A
:1019C0000E94450260E085E10E94450281E080932B
:1019D000150510925706109258061092590610924B
:1019E0005A06109251061092520610925306109207
:1019F0005406CC2309F484C08091680081608093F0
:101A0000680080916B00846080936B008091680017
:101A100082608093680080916C00886080936C0085
:101A200080917A008093C30410927A0085B7982F32
:101A300090668F7D80648093C20495BF8091C204BC
:101A400085BF10926F0083B7816083BF88958091B6
:101A50001505882309F459C08091370690913806FE
:101A6000FC01EB54FF4F10823C9721E02083865805
:101A70009F4FFC01208310921505809143069091A1
:101A80004406909356068093550683B78E7F83BF96
:101A90008091C30480937A00809116059091170578
:101AA000A0911805B0911905809311059093120526
:101AB000A0931305B093140510924D0610924E0694
:101AC00010924F061092500680916F0082608093B2
:101AD0006F0061E085E10E944502C0913706D09118
:101AE000380684E090E00E9461212AEE33E0FC0198
:101AF00031832083BC01CE01DF91CF910C94A60CE1
:101B00001092680010926B0081CFDF91CF91089501
:101B1000CF93DF93FC01C281D38184E090E00E94E7
:101B200061212AEE33E0FC0131832083BC01CE0128
:101B3000DF91CF910C94A60C0F931F93CF93DF935B
:101B40008C01FC0182819381FC01E654FF4F4081AE
:101B5000518162817381EC01CD59DF4F49305105CC
:101B600061057105A1F566E374E0CE010E94F602FD
:101B70002FB7F89480910D0590910E05A0910F0557
:101B8000B09110052FBFF801C281D381FE01EA5444
:101B9000FF4F4081518162817381841B950BA60B9D
:101BA000B70B89389341A105B10570F184E090E04D
:101BB0000E9461212AEE33E0FC0131832083BC01C5
:101BC000CE01DF91CF911F910F910C94A60CFC01D7
:101BD000EA5AFF4F20813181220F331F220F331F1A
:101BE000820F931FFC0166A577A580A991A92AE021
:101BF00030E040E050E00E94E02080E2898F8A8F50
:101C00008B8F1C8E6D8FB4CFDF91CF911F910F9171
:101C100008950F931F93CF93DF93EC010A811B81EB
:101C200084E090E00E94612124E631E0DC012D9304
:101C30003C93BC01C8010E94A60CEA81FB81EA5AD0
:101C4000FF4F11821082EA81FB81E654FF4F108220
:101C5000118212821382EA81FB812FB7F89480915E
:101C60000D0590910E05A0910F05B09110052FBFA5
:101C7000EA54FF4F80839183A283B383EA81FB817F
:101C8000DF01AA5ABF4F8D919C91EB54FF4F892BD6
:101C9000C1F410828A819B81FC01E654FF4F8A5A6D
:101CA0009F4FDC018D919C91092E000CAA0BBB0B60
:101CB00080839183A283B383DF91CF911F910F9192
:101CC000089581E08083E6CFCF93DF93FC01C2814A
:101CD000D38184E090E00E9461212AEE33E0FC0190
:101CE00031832083BC01CE01DF91CF910C94A60CEF
:101CF000CF93DF93FC01C281D38184E090E00E9406
:101D000061212AEE33E0FC0131832083BC01CE0146
:101D1000DF91CF910C94A60CCF93DF93FC01C2818D
:101D2000D38184E090E00E94612120E632E0FC0152
:101D300031832083BC01CE01DF91CF910C94A60C9E
:101D4000CF93DF93FC01C281D38184E090E00E94B5
:101D500061212EE831E0FC0131832083BC01CE01FA
:101D6000DF91CF910C94A60CCF93DF93FC01C2813D
:101D7000D38184E090E00E9461212AEE33E0FC01EF
:101D800031832083BC01CE01DF91CF910C94A60C4E
:101D9000CF93DF93FC01C281D38184E090E00E9465
:101DA00061212CE931E0FC0131832083BC01CE01AB
:101DB000DF91CF910C94A60CCF93DF93DC011296A8
:101DC0002D913C91F901EA5AFF4F29573F4FD90114
:101DD0002C91022E000C330B31832083FC01C28135
:101DE000D38184E090E00E9461212AEA31E0DC01A5
:101DF0002D933C93BC01CE01DF91CF910C94A60CA6
:101E0000CF93DF93FC01C281D38184E090E00E94F4
:101E100061212AEE33E0FC0131832083BC01CE0135
:101E2000DF91CF910C94A60CCF93DF93FC01C2817C
:101E3000D38184E090E00E94612128EB31E0FC0135
:101E400031832083BC01CE01DF91CF910C94A60C8D
:101E5000CF93DF93DC0112962D913C91F901EA5A60
:101E6000FF4F2C573F4FD9012C91022E000C330B02
:101E700031832083FC01C281D38184E090E00E9401
:101E8000612126EC31E0DC012D933C93BC01CE01B5
:101E9000DF91CF910C94A60CCF93DF93FC01C2810C
:101EA000D38184E090E00E9461212AEE33E0FC01BE
:101EB00031832083BC01CE01DF91CF910C94A60C1D
:101EC000CF93DF93FC0122813381D901AA5ABF4FFE
:101ED0002B573F4FE9018881082E000C990B8D93F9
:101EE0009C9342815381DA01A957BF4F8C91837033
:101EF000EA01CA57DF4FD197811108C0888182302B
:101F000029F48D919C9111974D97A9F02881022E6B
:101F1000000C330B265F3F4F220F331F240F351F5A
:101F2000E901888199812D913C911197821793073E
:101F300014F48D939C93C281D38184E090E00E943D
:101F4000612122EE31E0FC0131832083BC01CE010E
:101F5000DF91CF910C94A60CCF93DF93FC01C2814B
:101F6000D38184E090E00E94612124ED31E0FC0106
:101F700031832083BC01CE01DF91CF910C94A60C5C
:101F8000CF93DF93DC0112962D913C91F901EA5A2F
:101F9000FF4F2A573F4FD9012C91022E000C330BD3
:101FA00031832083FC01C281D38184E090E00E94D0
:101FB000612120EF31E0DC012D933C93BC01CE0187
:101FC000DF91CF910C94A60CCF93DF93FC01C281DB
:101FD000D38184E090E00E9461212AEE33E0FC018D
:101FE00031832083BC01CE01DF91CF910C94A60CEC
:101FF000CF93DF93DC0112962D913C91F901EA5ABF
:10200000FF4F2E573F4FD9012C91022E000C330B5E
:1020100031832083FC01C281D38184E090E00E945F
:1020200061212CE032E0DC012D933C93BC01CE0118
:10203000DF91CF910C94A60CCF93DF93FC01C2816A
:10204000D38184E090E00E9461212EEF31E0FC0119
:1020500031832083BC01CE01DF91CF910C94A60C7B
:10206000CF93DF93DC0112962D913C91F901EA5A4E
:10207000FF4F2D573F4FD9012C91022E000C330BEF
:1020800031832083FC01C281D38184E090E00E94EF
:1020900061212AE132E0DC012D933C93BC01CE01A9
:1020A000DF91CF910C94A60CCF93DF93EC01EA81E2
:1020B000FB81EA5AFF4F808191810E941903BC0184
:1020C0008BE090E00E94CB0560E870E08DE090E04E
:1020D0000E94CB050A80DB81C02D84E090E00E9445
:1020E00061212AEE33E0FC0131832083BC01CE0163
:1020F000DF91CF910C94A60CCF93DF93FC01C281AA
:10210000D38184E090E00E94612128E232E0FC016A
:1021100031832083BC01CE01DF91CF910C94A60CBA
:10212000CF93DF93DC011296ED91FC911397EA5A5D
:10213000FF4F118210821296CD91DC9184E090E0E5
:102140000E94612122E532E0FC0131832083BC0141
:10215000CE01DF91CF910C94A60CCF93DF93FC01BD
:10216000C281D38184E090E00E94612120E632E0C8
:10217000FC0131832083BC01CE01DF91CF910C940F
:10218000A60CCF93DF93FC01C281D38184E090E061
:102190000E9461212AEE33E0FC0131832083BC01DF
:1021A000CE01DF91CF910C94A60CCF93DF93FC016D
:1021B000C281D38184E090E00E9461212AEE33E065
:1021C000FC0131832083BC01CE01DF91CF910C94BF
:1021D000A60CCF93DF93FC01C281D38184E090E011
:1021E0000E9461212AEE33E0FC0131832083BC018F
:1021F000CE01DF91CF910C94A60CCF93DF93FC011D
:10220000C281D38184E090E00E9461212EE632E019
:10221000FC0131832083BC01CE01DF91CF910C946E
:10222000A60CCF93DF93FC01C281D38184E090E0C0
:102230000E9461212AEE33E0FC0131832083BC013E
:10224000CE01DF91CF910C94A60CCF93DF93FC01CC
:10225000C281D38184E090E00E9461212CE732E0CA
:10226000FC0131832083BC01CE01DF91CF910C941E
:10227000A60CCF93DF93FC01C281D38184E090E070
:102280000E9461212AEE33E0FC0131832083BC01EE
:10229000CE01DF91CF910C94A60CCF93DF93FC017C
:1022A000C281D38184E090E00E9461212CE732E07A
:1022B000FC0131832083BC01CE01DF91CF910C94CE
:1022C000A60CCF93DF93FC01C281D38184E090E020
:1022D0000E9461212AE832E0FC0131832083BC01A5
:1022E000CE01DF91CF910C94A60CCF93DF93FC012C
:1022F000C281D38184E090E00E9461212CE732E02A
:10230000FC0131832083BC01CE01DF91CF910C947D
:10231000A60CCF93DF93FC01C281D38184E090E0CF
:102320000E94612128E932E0FC0131832083BC0155
:10233000CE01DF91CF910C94A60CCF93DF93EC01EB
:102340008A819B810E94850C0A80DB81C02DFE0161
:10235000ED54FF4F8081882379F084E090E00E9463
:10236000612120E831E0FC0131832083BC01CE01F2
:10237000DF91CF910C94A60CDF91CF91089521E0CD
:102380002093680528E620938A051092690510922B
:102390008B050E94C6050E94640361E088E60E94E6
:1023A0004B0410921B0580931A058CE895E00C9461
:1023B0005005CF93DF938FE090E00E94BF11EC01B6
:1023C00081E08093680588E680938A05109269050C
:1023D00010928B058FE090E00E94C605CE018C7FA5
:1023E00099270E94C605DF91CF910C946403EF9268
:1023F000FF920F931F93CF93DF938C01DC01129612
:102400008D919C9180569F4F0E94D911F801C281F5
:10241000D381FE01EF54FF4F8081918104970CF02E
:102420006BC061E08FE00E944502FE01EE57FF4F56
:102430008081082E000C990B7C01FFEFEF1AFF0A38
:10244000CD57DF4FC8810C2E000CDD0B2CE3E216BC
:10245000F1045CF07C01ABE3EA1AF108CE010196CD
:102460006797883191050CF4EC0161E070E087E03A
:1024700090E00E94CB05CE010E941903BC0189E0C7
:1024800090E00E94CB05C7010E941903BC0188E0BF
:1024900090E00E94CB0560E870E08AE090E00E9446
:1024A000CB0565E070E08EE090E00E94CB05D8019E
:1024B0001296ED91FC911397ED54FF4F10821296F6
:1024C0008D919C9180579F4F0E943006F801C281E8
:1024D000D38184E090E00E94612122E731E0DC01B9
:1024E0002D933C93BC01CE01DF91CF911F910F91B1
:1024F000FF90EF900C94A60C11821082D8CFCF934E
:10250000DF93EC018A819B819C0125553F4FDC01C3
:10251000AF55BF4F81559F4FFC0140815181052E22
:10252000000C660B770B8D919D910D90BC91A02DA9
:10253000841B950BA60BB70BF90180839183A283B3
:10254000B3838A819B8180569F4F0E94D911EA8173
:10255000FB81EF54FF4F11821082EA81FB81ED5421
:10256000FF4F10828A819B8180579F4F0E943006C7
:102570000A80DB81C02D84E090E00E9461212AEE78
:1025800033E0FC0131832083BC01CE01DF91CF9188
:102590000C94A60C2F923F924F925F926F927F9273
:1025A0008F929F92AF92BF92CF92DF92EF92FF9263
:1025B0000F931F93CF93DF9300D01F92CDB7DEB759
:1025C0008C01FC010280F381E02DFB83EA83EF554F
:1025D000FF4F608171818281938128EE33E040E07A
:1025E00050E00E94E020653F71408105910508F4AC
:1025F0008FC08A819B810E94850CF8010280F38143
:10260000E02DFB83EA831F01F3EB2F0E311CF10158
:102610008081882309F48DC0EA81FB81EF55FF4F4B
:10262000C080D180E280F380EA81FB81E555FF4FD5
:1026300080809180A280B380EA81FB81EC54FF4FBF
:102640008081882379F1C701B60128EE33E040E0AC
:1026500050E00E9402212B013C010A811B8100579E
:102660001F4FF801F081F9832DE730E040E050E0A2
:102670000E9402216E337105810591050CF051C055
:1026800024EF421621E05206610471040CF049C0A7
:102690008981811107C061E083E00E94830281E0AB
:1026A000F8018083C818D908EA08FB08EA81FB8191
:1026B000E155FF4F80819181092E000CAA0BBB0BC5
:1026C0008C159D05AE05BF05A4F5F10110828A8128
:1026D0009B8180569F4F0E94D9118A819B81805790
:1026E0009F4F0F900F900F90DF91CF911F910F91FF
:1026F000FF90EF90DF90CF90BF90AF909F908F9022
:102700007F906F905F904F903F902F900C94300689
:102710006AE274E08A819B818D599F4F0E94F60284
:102720006CCFF981FF2309F4BDCFC8010E943006A8
:10273000B9CF0F900F900F90DF91CF911F910F9114
:10274000FF90EF90DF90CF90BF90AF909F908F90D1
:102750007F906F905F904F903F902F9008950F93D0
:102760001F93CF93DF93EC01EA81FB81EA5AFF4F7D
:10277000808191810E941903BC018CE090E00E944D
:10278000CB058BE090E00E94BF110A811B810E9463
:102790000203F801EA5AFF4F918380830A80DB81AC
:1027A000C02D84E090E00E94612126E332E0FC012C
:1027B00031832083BC01CE01DF91CF911F910F9116
:1027C0000C94A60C0F931F93CF93DF93EC018A8197
:1027D0009B81FC01EA5AFF4F208131812230310573
:1027E000D1F464E070E08EE090E00E94CB050A80B6
:1027F000DB81C02D84E090E00E9461212AEE33E06D
:10280000FC0131832083BC01CE01DF91CF911F9168
:102810000F910C94A60C232B29F48C549F4F21E08C
:10282000FC0120838A819B81FC01EA5AFF4F2081B1
:1028300031812130310521F48C549F4FFC011082ED
:1028400066E070E08EE090E00E94CB058A819B817B
:1028500080569F4F0E94D9118CE090E00E94BF11DA
:102860000A811B810E940203F801EA5AFF4F9183FB
:1028700080830A80DB81C02D84E090E00E9461218A
:1028800024E432E0BDCFCF93DF93FC010190002020
:10289000E9F73197AF01481B590BBC0188E995E076
:1028A0000E94A901EC0142E050E06CE374E088E989
:1028B00095E00E94A9018C0F9D1FDF91CF91089593
:1028C00085ED8093BC008091640590916505A09191
:1028D0006605B09167050796A11DB11D23E0B69569
:1028E000A795979587952A95D1F72091BC0024FD4F
:1028F00003C01092620508954091640550916505EA
:102900006091660570916705452B462B472B69F34F
:102910000097A105B10541F02AE12A95F1F700C021
:102920000197A109B109E1CF809163050C942503BA
:102930000C94FD210C94FD210C94FD210C94FD219F
:102940000C94FD210C94FD210C94FD210C94FD218F
:102950000C94FD210C94FD210C94FD210C94FD217F
:102960000C94FD210C94FD210C94FD210C94FD216F
:102970000C94FD210C94FD210C94FD210C94FD215F
:102980000C94FD210C94FD210C94FD210C94FD214F
:102990000C94FD210C94FD210C94FD21DC01129678
:1029A000ED91FC91EB56FF4F2081233419F526E47D
:1029B0002083DC011296ED91FC91EF56FF4F64816C
:1029C000828193812091C0043091C1042F5F3F4FD9
:1029D0003093C1042093C0044091350650913606CF
:1029E0004115510519F04217530734F48FE394E071
:1029F0000C94431423E4DCCF9C012F5F3F4F213024
:102A000032401CF081E694E0F3CF0C94721E1F92CA
:102A10000F920FB60F9211242F933F934F935F9312
:102A20006F937F938F939F93AF93BF93EF93FF9396
:102A300088E995E00E94F800FF91EF91BF91AF9176
:102A40009F918F917F916F915F914F913F912F91C6
:102A50000F900FBE0F901F9018951F920F920FB6F8
:102A60000F9211242F938F939F93EF93FF93E091F5
:102A7000A805F091A9058081E091AE05F091AF0520
:102A800082FD1BC090818091B1058F5F8F73209173
:102A9000B205821741F0E091B105F0E0E856FA4F37
:102AA000958F8093B105FF91EF919F918F912F9119
:102AB0000F900FBE0F901F9018958081F4CF1F923A
:102AC0000F920FB60F9211242F933F938F939F93E2
:102AD000AF93BF9380910D0590910E05A0910F05C6
:102AE000B09110053091080526E0230F2D3758F5D9
:102AF0000296A11DB11D2093080580930D059093AA
:102B00000E05A0930F05B0931005809109059091D3
:102B10000A05A0910B05B0910C050196A11DB11DF0
:102B20008093090590930A05A0930B05B0930C05BB
:102B3000BF91AF919F918F913F912F910F900FBEB9
:102B40000F901F90189529E8230F0396A11DB11D22
:102B5000D2CF0C94B9001F920F920FB60F9211248E
:102B60002F933F934F935F936F937F938F939F9395
:102B7000AF93BF93EF93FF938091B900887F803626
:102B800009F44AC0F0F5883209F4A5C018F580317F
:102B900009F499C0B8F4882309F4F5C0883009F421
:102BA00092C0FF91EF91BF91AF919F918F917F91D3
:102BB0006F915F914F913F912F910F900FBE0F90AA
:102BC0001F901895883109F486C0803251F78093A0
:102BD000600514C0803409F49BC040F48033B9F31D
:102BE0008833F9F68093600585ECAEC0803509F432
:102BF00083C0883509F494C0883499F60E94601423
:102C0000D0CF883909F48AC038F5883729F050F4D4
:102C1000883611F0803729F683E0809362051092A0
:102C2000070555C0883809F479C0803919F0803813
:102C300009F0B7CF80910705803208F06FC0E091AE
:102C4000070581E08E0F809307058091BB00F0E0BF
:102C5000E951FB4F80833BC0803B39F0D0F4803A90
:102C600009F477C0883A09F09CCF84E0809362052C
:102C70001092E6041092E504F0E0E0E009958091FE
:102C8000E50481110FC081E08093E5041092C50432
:102C900009C0803C09F4A8CF883C09F4A5CF883B43
:102CA00009F07FCFE091E60481E08E0F8093E60487
:102CB000F0E0EB53FB4F80818093BB009091E604E2
:102CC0008091E50429C080913D058093BB0085EC8F
:102CD0008093BC0066CF90915F0580915E05981748
:102CE00058F5E0915F0581E08E0F80935F05F0E07D
:102CF000E25CFA4F8081E9CFE0915F0581E08E0FC1
:102D000080935F058091BB00F0E0E25CFA4F808326
:102D100090915F0580915E059817C8F285E8D8CF3D
:102D2000E0915F0581E08E0F80935F058091BB008D
:102D3000F0E0E25CFA4F80838091610581115ECF03
:102D400081E080933C0584EA8093BC001092620588
:102D500028CF85EC8093BC00109262058091070516
:102D6000803230F4E0910705F0E0E951FB4F10822A
:102D70006091070570E087EE94E0F0E0E0E00995EF
:102D8000109207050ECF1092600538CF1F920F9258
:102D90000FB60F9211242F934F935F936F937F93EE
:102DA0008F939F93AF93BF93CF93DF93EF93FF9353
:102DB0008091370690913806FC01ED54FF4F208139
:102DC000211117C0DC01A555BF4FEC01CF55DF4FD6
:102DD000488159816A817B814D935D936D937C938A
:102DE000139721E02083329780819181019691830E
:102DF0008083FF91EF91DF91CF91BF91AF919F9130
:102E00008F917F916F915F914F912F910F900FBE96
:102E10000F901F9018951F920F920FB60F921124CA
:102E20002F933F934F935F936F937F938F939F93D2
:102E3000AF93BF93CF93DF93EF93FF93C091370688
:102E4000D0913806CD59DF4F8D899E899C01255040
:102E500031092530310518F08F3091051CF160E003
:102E600085E00E94450260E086E00E9445028D896F
:102E70009E89019684319105F1F09E8B8D8BFF9197
:102E8000EF91DF91CF91BF91AF919F918F917F9102
:102E90006F915F914F913F912F910F900FBE0F90C7
:102EA0001F9018958530910514F461E0D9CF0A97E9
:102EB0000597E8F6FACF1E8A1D8AE1CF1F920F927E
:102EC0000FB60F9211240F900FBE0F901F90189500
:102ED000CF92DF92EF92FF920F931F93CF93DF93E6
:102EE00010929B0510929A0588EE93E0A0E0B0E066
:102EF00080939C0590939D05A0939E05B0939F059C
:102F000026EC33E0309399052093980525EC30E0CA
:102F10003093A5052093A40524EC30E03093A70559
:102F20002093A60520EC30E03093A9052093A80556
:102F300021EC30E03093AB052093AA0522EC30E081
:102F40003093AD052093AC0526EC30E03093AF050F
:102F50002093AE051092B1051092B2051092B30500
:102F60001092B40524E6C22ED12CD0923606C0921F
:102F7000350610928F0510928E05809390059093E0
:102F80009105A0939205B093930588ED93E09093FB
:102F90008D0580938C058AE090E090933A068093AB
:102FA00039068FE090E090933C0680933B068EE0DC
:102FB00091E090933E0680933D068FEF90E09093D2
:102FC000400680933F0680EF90E090934206809306
:102FD000410684E090E0909344068093430683E0AA
:102FE00090E0909346068093450682E090E09093AF
:102FF00048068093470681E090E090934A068093CC
:10300000490610924C0610924B0660E080E10E9447
:10301000830210924D0610924E0610924F061092A7
:1030200050061092510610925206109253061092BA
:10303000540610925606109255061092570610929A
:1030400058061092590610925A0684E090E00E94A9
:1030500061217C018AEE93E0F701918380838EEBFE
:1030600090E00E946121EC01DC011D921D928EE036
:10307000E6E0F1E001900D928A95E1F780ED97E0AE
:10308000998B888B86E990E09B8B8A8B8AE1E4E1BF
:10309000F1E0DE01549601900D928A95E1F788E205
:1030A000EEE2F1E0DE019E9601900D928A95E1F745
:1030B000FE01EA5AFF4F118210828E01075A1F4FFC
:1030C00088EE93E0F8019383828362E089E00E94B6
:1030D000830262E08AE00E948302F8011582148272
:1030E000118210821782168210861186065F1F4F8A
:1030F0008AE0E6E5F1E0D80101900D928A95E1F7CA
:1031000084EF91E0F80193878287D48AC38A61E0D3
:1031100085E00E94830261E086E00E94830261E014
:1031200080E00E94830261E081E00E94830261E00E
:1031300082E00E94830261E084E00E94830261E0F9
:1031400086E10E94830260E086E10E94450261E020
:1031500085E00E94450260E086E00E944502F89406
:1031600010928000109281001092850010928400CD
:103170008EE190E090938900809388008091810097
:1031800088608093810080918100836080938100BA
:1031900080916F00826080936F007894F8011486AC
:1031A000118A128A158616861786108A108E168A3C
:1031B000158A178A7E9610821182128213821482D7
:1031C000158216823796108211821282138214821F
:1031D0001582168261E08FE00E94830261E08EE03A
:1031E0000E94830261E088E00E94830261E087E040
:1031F0000E94830283E68093B0008DE08093B1004B
:1032000082E18093B30089E08093B40060E083E0C2
:103210000E948302FE01E057FF4F1082025D1F4FA4
:1032200088E893E1F8019183808380E190E09383C3
:10323000828360E084E10E948302F80182819381AD
:1032400001968130924024F081E694E00E9443147C
:10325000F801158216821782108683E48483138610
:10326000148615861686FE01E155FF4F88E893E126
:1032700091838083B701CE010E94A60CD0933806BB
:10328000C0933706DF91CF911F910F91FF90EF9080
:10329000DF90CF900895789484B5826084BD84B522
:1032A000816084BD85B5826085BD85B5816085BD41
:1032B00080916E00816080936E00109281008091F9
:1032C0008100826080938100809181008160809381
:1032D0008100809180008160809380008091B100A6
:1032E00084608093B1008091B00081608093B000D1
:1032F0008091910082608093910080919100816023
:1033000080939100809190008160809390008091E3
:10331000A10082608093A1008091A10081608093D0
:10332000A1008091A00081608093A00080917A002C
:10333000846080937A0080917A00826080937A0022
:1033400080917A008E7F80937A0080917A008068E5
:1033500080937A001092C10061E085E10E948302AF
:1033600060E085E10E94450283B7817F846083BF6E
:1033700081E00E94C10C83E0682E92E0792E8FB725
:10338000F89480900D0590900E05A0900F05B090D8
:1033900010058FBF8092160590921705A092180510
:1033A000B0921905C0913706D0913806FE01EF554D
:1033B000FF4F80829182A282B382809155069091C4
:1033C000560620914306309144068217930709F070
:1033D000D8C040914D0650914E0660914F067091B5
:1033E000500695018401041B150B260B370B8091A9
:1033F000390690913A06B0E0A0E080179107A20745
:10340000B30728F0452B462B472B09F067C0809265
:103410004D0690924E06A0924F06B092500680E163
:103420000E94BF02EC01209051063090520640905D
:1034300053065090540660913B0670913C0690E014
:1034400080E00E949A1F4B015C01AC019B01C2010C
:10345000B1010E94ED1E87FF44C0BE0190E080E0F4
:103460000E949A1F209157063091580640915906A4
:1034700050915A060E94811E6B017C01C092570632
:10348000D0925806E0925906F0925A0620E030E0B9
:1034900040E85FE3C201B1010E94811E1B012C01C3
:1034A0002092510630925206409253065092540692
:1034B000AC019B01C501B4010E94ED1E81110EC03B
:1034C000A2019101C701B6010E94F21E6093570646
:1034D000709358068093590690935A060E94910162
:1034E0004ECF8090570690905806A0905906B09005
:1034F0005A0660913D0670913E0690E080E00E9481
:103500009A1F9B01AC01C501B4010E944C20181602
:103510004CF480914B0690914C0690935606809304
:103520005506DCCF60913F067091400690E080E048
:103530000E949A1F9B01AC01C501B4010E944C205E
:1035400018162CF48091490690914A06E6CF6091B6
:1035500041067091420690E080E00E949A1F9B0114
:10356000AC01C501B4010E944C2018162CF48091C6
:10357000470690914806D1CF809145069091460626
:10358000CCCF20914506309146068217930721F44F
:1035900080E00E94C10CA2CF8091150581112BC043
:1035A0008E0106581F4FD8018C91882321F161E0CC
:1035B00086E10E9445022091550630915606809181
:1035C0004706909148062817390721F061E082E00C
:1035D0000E944502F8011082FE01EB55FF4F8082E8
:1035E0009182A282B3828092110590921205A092DC
:1035F0001305B0921405209155063091560680911E
:103600004706909148062817390709F4B7C18AE0A0
:103610000E941C028E01075A1F4F892B61F4D801AA
:1036200014968D919C911597019615969C938E9367
:103630001497F12C0AC0F801848195811816190697
:10364000C4F715821482FF24F39489E00E941C02BF
:10365000892B49F4D8018D919C91119701968D93F6
:103660009C9360E009C0F8018081918118161906C9
:10367000C4F71182108261E0D80114964D915C91DB
:10368000159712962D913C9113978D919C911197BE
:10369000241735070CF016C3281739070CF015C28C
:1036A000E5E0F0E01796FC93EE93169719967C925E
:1036B000FF24F394F0926805B8E6B0938A0510925F
:1036C000690510928B0590E080E00E94C6050E947B
:1036D000640367E088E60E944B0410921B05809308
:1036E0001A058CE895E00E9450058F7799270E9473
:1036F0000203FE01EF57FF4F80838CE895E00E94A4
:1037000050050E940203FE01EE57FF4F80838CE8B4
:1037100095E00E9450058F7399270E940203FE01D5
:10372000ED57FF4F80838CE895E00E9450050E9482
:103730000203FE01EC57FF4F80838CE895E00E9466
:1037400050050E940203FE01EB57FF4F80838CE877
:1037500095E00E9450050E940203FE01EA57FF4FC8
:1037600080838CE895E00E9450050E940203FE01D0
:10377000E957FF4F808388819981DC01ED91FC91AD
:103780000480F581E02D0995FE01E755FF4F80810A
:10379000882349F0DE01A655BF4F8C91882309F498
:1037A000BCC11C921082FE01E15AFF4F80819181C1
:1037B0008330910509F408C208F0D6C18130910523
:1037C00009F4EFC1029709F4F6C1E0913706F091D0
:1037D00038068090160590901705A0901805B090B7
:1037E0001905209155063091560680914906909111
:1037F0004A06EF01CD59DF4F28173907F1F4DF01F1
:10380000AB55BF4F8D919D910D90BC91A02DB501F1
:10381000A401481B590B6A0B7B0B80899189092EE7
:10382000000CAA0BBB0B481759076A077B0728F443
:1038300065EB74E0CE010E94F6028C85823009F4BB
:103840006C868A8981111A8A8D859E85AF85B88993
:10385000B501A401481B590B6A0B7B0B8A859B851C
:10386000092E000CAA0BBB0B481759076A077B07E8
:1038700018F0488D442329F041E08B8D803209F403
:1038800040E02C858C8D803209F0BEC1213009F0DA
:10389000BEC1822F90E0FE01E80FF91FE18D2111DA
:1038A000BBC12989222309F4DAC110E000E0EB371B
:1038B00038F4F0E0EE0FFF1FE453FD4F008111815B
:1038C0000478112721E02A8B198A880F991FFE019D
:1038D000E80FF91F80819181082B192B442321F0D7
:1038E0008C819D81082B192B61E084E00E944502A8
:1038F000F12CE12CC8010E2C02C0969587950A94F4
:10390000E2F761E080FF60E080E00E9445025A98A3
:103910005A9A599A59983FEFE31AF30A8CE0E8163D
:10392000F10441F760E084E00E9445028C859989AA
:10393000992319F0982F9B7F11F08F5F8C878D85CD
:103940009E85AF85B889B501A401481B590B6A0B48
:103950007B0B8A859B85880F991F092E000CAA0B6B
:10396000BB0B84179507A607B70720F48D869E86A4
:10397000AF86B88A8C85853009F41C8680915506FF
:10398000909156062091490630914A068217930776
:1039900039F020914706309148068217930781F548
:1039A000E0913706F0913806EF01CF55DF4FDF0188
:1039B000AB55BF4F888199812D913C91821B930B10
:1039C0002089318982179307DCF422893389B90170
:1039D000660F771F0E94CC20821793070CF05AC104
:1039E00061E08FE00E94450261E08EE00E944502A6
:1039F00061E088E00E94450261E087E00E944502A4
:103A000080913706909138068090160590901705A2
:103A1000A0901805B0901905FC01E15AFF4F2081D4
:103A20003181232B41F08092110590921205A092D2
:103A30001305B092140511821082FC01E558FF4F66
:103A40001082FA962081222309F427C140911105A2
:103A5000509112056091130570911405841A950A0E
:103A6000A60AB70A359620813181220F331F220F13
:103A7000331F820F931FDC019E962D913D914D9136
:103A80005C91D197A0E6BAEE0E94272168157905CE
:103A90008A059B0508F022CD8091150581111ECD68
:103AA00081E077CD141615060CF410C1D8011996D3
:103AB0008C911997E4E0F0E0823091F4E5E0F0E0D9
:103AC0001796FC93EE931697F3CD181619060CF47F
:103AD000FDC019968C911997E3E0F0E0823071F304
:103AE000D8011796FC93EE93169781E019968C9364
:103AF000DFCDFF2009F4DCCDF8018185811105C0FF
:103B000021E030E037832683D3CDD80117961C926D
:103B10001E92169719961C92CBCDD80114968D91B2
:103B20009C9115971816190694F48D919C911197F4
:103B30001816190644F419967C92199717961C9238
:103B40001E9216972FCE1996FC921997F7CF892BB4
:103B500009F028CE8D919C911197892B09F022CEE6
:103B600019961C921997EACF84309105D9F10597DF
:103B700009F02BCEE881F98182819381DC01AA5A78
:103B8000BF4F86549F4FEC01888199818D939C9300
:103B9000C281D38184E090E00E94612122EC32E076
:103BA0001DC088819981EC01E881F9810680F78147
:103BB000E02D09950ACE88819981DC01ED91FC9177
:103BC0000084F185E02DF5CFE881F981C281D381B0
:103BD00084E090E00E94612126EA32E0FC0131831A
:103BE00020830DC0E881F981C281D38184E090E017
:103BF0000E946121E4EBF2E0DC01ED93FC93BC0157
:103C0000CE010E94A60CE1CD233009F442CE25302E
:103C100008F08CCE40E03DCE243079F5298922236E
:103C2000F1F010E000E0EB3738F4F0E0EE0FFF1FAA
:103C3000E453FD4F008111810870127051E05A8BDE
:103C4000198A2B893C891216130634F0598B2F5F81
:103C50003F4F3C8B2B8B39CE1C8A1B8A36CE10E013
:103C600000E0EB3738F4F0E0EE0FFF1FE453FD4FB8
:103C70000081118121E0298B28CE10E000E0EB3794
:103C800008F023CEF0E0EE0FFF1FE453FD4F00815C
:103C900011811BCE0E947302B3CE809111059091C9
:103CA0001205A0911305B0911405881A990AAA0A61
:103CB000BB0AB1EE8B16BEE29B06A104B10408F06C
:103CC000EBCE0CCC281739070CF4ECCE662309F4A4
:103CD00010CFD80119968C911997811116CFE2E077
:103CE000F0E0EECE262FF999FECF1FBA92BD81BD2E
:103CF00020BD0FB6F894FA9AF99A0FBE019608956E
:103D00005058BB27AA270E94981E0C9412200E948C
:103D1000042038F00E940B2020F039F49F3F19F462
:103D200026F40C9401200EF4E095E7FB0C94FB1FA5
:103D3000E92F0E94232058F3BA17620773078407FC
:103D4000950720F079F4A6F50C9445200EF4E09543
:103D50000B2EBA2FA02D0B01B90190010C01CA0145
:103D6000A0011124FF27591B99F0593F50F4503EF0
:103D700068F11A16F040A22F232F342F4427585FE2
:103D8000F3CF469537952795A795F0405395C9F7FA
:103D90007EF41F16BA0B620B730B840BBAF09150B2
:103DA000A1F0FF0FBB1F661F771F881FC2F70EC051
:103DB000BA0F621F731F841F48F487957795679524
:103DC000B795F7959E3F08F0B0CF9395880F08F010
:103DD0009927EE0F9795879508950E94D71F08F4AD
:103DE00081E008950E94061F0C9412200E940B206F
:103DF00058F00E94042040F029F45F3F29F00C9411
:103E0000FB1F51110C9446200C9401200E9423208A
:103E100068F39923B1F3552391F3951B550BBB27F9
:103E2000AA2762177307840738F09F5F5F4F220F3E
:103E3000331F441FAA1FA9F335D00E2E3AF0E0E835
:103E400032D091505040E695001CCAF72BD0FE2F7F
:103E500029D0660F771F881FBB1F26173707480713
:103E6000AB07B0E809F0BB0B802DBF01FF279358CB
:103E70005F4F3AF09E3F510578F00C94FB1F0C9475
:103E800046205F3FE4F3983ED4F386957795679597
:103E9000B795F7959F5FC9F7880F911D9695879500
:103EA00097F90895E1E0660F771F881FBB1F62171F
:103EB00073078407BA0720F0621B730B840BBA0BDD
:103EC000EE1F88F7E09508950E946B1F6894B1116A
:103ED0000C94462008950E942B2088F09F5798F05C
:103EE000B92F9927B751B0F0E1F0660F771F881FFF
:103EF000991F1AF0BA95C9F714C0B13091F00E9419
:103F00004520B1E008950C944520672F782F88272D
:103F1000B85F39F0B93FCCF3869577956795B3953F
:103F2000D9F73EF490958095709561957F4F8F4FAE
:103F30009F4F0895E89409C097FB3EF490958095B3
:103F4000709561957F4F8F4F9F4F9923A9F0F92F5F
:103F500096E9BB279395F695879577956795B795DD
:103F6000F111F8CFFAF4BB0F11F460FF1BC06F5FC3
:103F70007F4F8F4F9F4F16C0882311F096E911C0D5
:103F8000772321F09EE8872F762F05C0662371F0F6
:103F900096E8862F70E060E02AF09A95660F771F0A
:103FA000881FDAF7880F9695879597F90895990FE6
:103FB0000008550FAA0BE0E8FEEF16161706E807F3
:103FC000F907C0F012161306E407F50798F0621B14
:103FD000730B840B950B39F40A2661F0232B242BE9
:103FE000252B21F408950A2609F4A140A6958FEF08
:103FF000811D811D089597F99F6780E870E060E05A
:1040000008959FEF80EC089500240A941616170671
:1040100018060906089500240A94121613061406B9
:1040200005060895092E0394000C11F4882352F01C
:10403000BB0F40F4BF2B11F460FF04C06F5F7F4FD4
:104040008F4F9F4F089557FD9058440F551F59F0BB
:104050005F3F71F04795880F97FB991F61F09F3F75
:1040600079F087950895121613061406551FF2CF9E
:104070004695F1DF08C0161617061806991FF1CFEE
:1040800086957105610508940895E894BB27662715
:104090007727CB0197F908950E94D71F08F48FEF77
:1040A00008950E9464200C9412200E94042038F08D
:1040B0000E940B2020F0952311F00C94FB1F0C9410
:1040C000012011240C9446200E94232070F3959F18
:1040D000C1F3950F50E0551F629FF001729FBB27FF
:1040E000F00DB11D639FAA27F00DB11DAA1F649F9B
:1040F0006627B00DA11D661F829F2227B00DA11D4E
:10410000621F739FB00DA11D621F839FA00D611DD3
:10411000221F749F3327A00D611D231F849F600DF4
:10412000211D822F762F6A2F11249F5750409AF01D
:10413000F1F088234AF0EE0FFF1FBB1F661F771FA9
:10414000881F91505040A9F79E3F510580F00C9474
:10415000FB1F0C9446205F3FE4F3983ED4F3869512
:1041600077956795B795F795E7959F5FC1F7FE2B14
:10417000880F911D9695879597F9089587FB082ECE
:10418000062687FD819567FD61950E9432210EF418
:10419000919507FC8195089597FB072E16F40094DE
:1041A00007D077FD09D00E943E2107FC05D03EF4E0
:1041B000909581959F4F0895709561957F4F0895D3
:1041C000A1E21A2EAA1BBB1BFD010DC0AA1FBB1F1B
:1041D000EE1FFF1FA217B307E407F50720F0A21B8D
:1041E000B30BE40BF50B661F771F881F991F1A94FA
:1041F00069F760957095809590959B01AC01BD0124
:10420000CF010895052E97FB1EF400940E941921FA
:1042100057FD07D00E94E02007FC03D04EF40C9419
:10422000192150954095309521953F4F4F4F5F4F45
:10423000089590958095709561957F4F8F4F9F4F12
:104240000895EE0FFF1F0590F491E02D09940E9450
:104250005221A59F900DB49F900DA49F800D911D9C
:1042600011240895991B79E004C0991F961708F04E
:10427000961B881F7A95C9F780950895AA1BBB1BCA
:1042800051E107C0AA1FBB1FA617B70710F0A61B56
:10429000B70B881F991F5A95A9F780959095BC0177
:1042A000CD010895A29FB001B39FC001A39F700DDF
:1042B000811D1124911DB29F700D811D1124911D2E
:1042C00008950F931F93CF93DF938230910510F4DD
:1042D00082E090E0E0915D06F0915E0630E020E043
:1042E000B0E0A0E0309799F42115310509F44AC0F7
:1042F000281B390B24303105D8F58A819B81611543
:10430000710589F1FB0193838283FE0111C0408115
:1043100051810281138148175907E0F04817590766
:1043200099F4109761F012960C93129713961C93C0
:104330003296CF01DF91CF911F910F910895009395
:104340005D0610935E06F4CF2115310551F042173A
:10435000530738F0A901DB019A01BD01DF01F80123
:10436000C1CFEF01F9CF90935E0680935D06CDCF6C
:10437000FE01E20FF31F819391932250310939839B
:104380002883D7CF20915B0630915C06232B41F424
:10439000209102013091030130935C0620935B066B
:1043A00020910001309101012115310541F42DB713
:1043B0003EB74091040150910501241B350BE0915B
:1043C0005B06F0915C06E217F307A0F42E1B3F0B8F
:1043D0002817390778F0AC014E5F5F4F2417350777
:1043E00048F04E0F5F1F50935C0640935B0681932D
:1043F00091939FCFF0E0E0E09CCFCF93DF930097C5
:10440000E9F0FC01329713821282A0915D06B0910F
:104410005E06ED0130E020E01097A1F420813181AB
:10442000820F931F20915B0630915C062817390795
:1044300009F061C0F0935C06E0935B06DF91CF91D9
:104440000895EA01CE17DF07E8F54A815B819E01F6
:1044500041155105B1F7E901FB83EA83499159916F
:10446000C40FD51FEC17FD0761F48081918102967E
:10447000840F951FE90199838883828193819B83AF
:104480008A83F0E0E0E012968D919C91139700975B
:10449000B9F52D913C911197CD010296820F931F92
:1044A00020915B0630915C062817390739F6309762
:1044B00051F510925E0610925D06B0935C06A093D3
:1044C0005B06BCCFD383C28340815181840F951F8B
:1044D000C817D90761F44E5F5F4F88819981480FF3
:1044E000591F518340838A819B8193838283211545
:1044F000310509F0B0CFF0935E06E0935D069ECFE4
:10450000FD01DC01C0CF13821282D7CFF894FFCF18
:1045100000005F0680008B04910497049D04A304AF
:10452000A904AF0400001F001C001F001E001F0094
:104530001E001F001F001E001F001E001F000000A5
:1045400000000100000003000000050000000A0058
:1045500000000F0000001E0000002D0000003C00C5
:1045600000000F27000020000200400000010008AA
:10457000000000005506CC149C0D880D5606000066
:10458000000053069814AF06640E640E000000008D
:104590005206C814CA127F12F7110000000051061B
:1045A000C614CC06780ECE14000000005006C414C9
:1045B000DE06A00E8C0E000000004F06C214370766
:1045C000B40EE706000000004E06C0144F07DC0ED4
:1045D000C80E000000004D06BE14A707000F5807C4
:1045E000000000004C06BC14BB07280F140F00008D
:1045F00000004B06BA1431084C0FC407000000003D
:104600004A06B8149F08600F5008000000004906D1
:10461000B614BE08C00FAC0F000000004806B4146A
:104620000B09E40FC708000000004706B214660932
:10463000F80F2209000000004606B014850930106A
:104640001C10000000004506AE14A70954108E0986
:10465000000000004406AC14DF09AF13C6090000D7
:1046600000004306AA14170AE213FE090000000026
:104670004206A814330A90107C10000000003F0688
:10468000A214540BE910E910000000003E06A0142B
:104690002E0C1111FD10000000003D069E14400C70
:1046A00039112511000000003C069C14570C6111C3
:1046B0004D11000000004006A414CA0AD510450A96
:1046C000000000004106A6143C0AC110AD10000015
:1046D00000005406CA14A606090E090E9D0208021F
:1046E00015061906880699049D0409029D06990677
:1046F00000000000000000000000000000000000BA
:1047000000000000000000000000000000000000A9
:104710000000000000000000000000000000000099
:104720000000000000000000000000000000000089
:104730008106000000000000000084009D020802C5
:1047400015061906880699049D0409029D06990616
:1047500000000000000000000000000000008D06C6
:104760009D0695009D02950485049D048C06080213
:1047700019020000940009028D029D0285060000C6
:104780008D06990494049C029C0218028C068806EB
:1047900015060000000000000000000000008D066B
:1047A0009C0414041C06950685049D048C040400D6
:1047B00019020000940008040C041C048506000083
:1047C0000404990494041C001C0018008C0698062C
:1047D0001506000000001A01A901BB006701EC00EA
:1047E000CA00DE000000000097056A052D06A8013A
:1047F000630550054105000000003B069A149D1119
:10480000891175115041207459007445206E6E0055
:10481000594520417200646F205555004441207471
:1048200045007469206E6E004F6E20202000536991
:10483000204C45004F4620462000414C204172004C
:104840005345207420003939203939000D0A0045BC
:1048500078636565646564206D6178696D756D2048
:104860006E756D626572206F66207772697465730C
:1048700000417474656D707420746F207772697470
:1048800065206F757473696465206F6620454550B7
:10489000524F4D206D656D6F7279004E4E206F6ED8
:1048A000007475204520005555204564007468202B
:1048B0007520004672206920005341207420005367
:0C48C00075206E20004241204C6F00006B
:00000001FF
