:100000000C9491000C94B9000C94B9000C949F15B9
:100010000C94F6140C94B9000C94B9000C94B9002B
:100020000C94B9000C94B9000C94B9000C944C15C4
:100030000C94B9000C94B9000C94B9000C94B9005C
:100040000C948F130C94B9000C945D130C9437131B
:100050000C94B9000C94B9000C94B9000C94B9003C
:100060000C94DB130C94B9000C94D9130C94D91391
:100070000C94D9130C94D9130C94D9130C94D91350
:100080000C94D9130C94D9130C94D9130C94D91340
:100090000C94D9130C94D9130C94D9130C94D91330
:1000A0000C94D9130C94D9130C94D9130C94D91320
:1000B0000C94D91300000000240027002A002D0012
:1000C00000000000250028002B002E00000000008A
:1000D0002300260029002C00040404040404040462
:1000E00002020202020203030303030305050505DE
:1000F00001020408102040800102040810200102BF
:100100000408102004080102090C0A08000201007A
:1001100000030407000000000000000000000000D1
:10012000A91511241FBECFEFD8E0DEBFCDBF14E06C
:10013000A0E0B1E0EEE9FEE302C005900D92AC381C
:10014000B107D9F726E0ACE8B4E001C01D92AF32A8
:10015000B207E1F710E0C1E9D0E004C02197FE0149
:100160000E940E1EC039D107C9F70E946C170C946B
:100170004D1F0C940000FC01538D448D252F30E061
:10018000842F90E0821B930B541710F0CF960895A4
:1001900001970895FC01918D828D981761F0A28DD1
:1001A000AE0FBF2FB11D5D968C91928D9F5F9F7397
:1001B000928F90E008958FEF9FEF0895FC01918D4D
:1001C000828D981731F0828DE80FF11D858D90E0BA
:1001D00008958FEF9FEF0895FC01918D228D892F57
:1001E00090E0805C9F4F821B91098F73992708953F
:1001F000FC01A48DA80FB92FB11DA35ABF4F2C919C
:10020000848D90E001968F739927848FA689B78992
:100210002C93A089B1898C91837080648C93938D89
:10022000848D981306C00288F389E02D80818F7D2C
:1002300080830895EF92FF920F931F93CF93DF93E4
:10024000EC0181E0888F9B8D8C8D98131AC0E88912
:10025000F989808185FF15C09FB7F894EE89FF89E1
:100260006083E889F98980818370806480839FBF7F
:1002700081E090E0DF91CF911F910F91FF90EF907F
:100280000895F62E0B8D10E00F5F1F4F0F7311278F
:10029000E02E8C8D8E110CC00FB607FCFACFE889CA
:1002A000F989808185FFF5CFCE010E94F800F1CF5A
:1002B000EB8DEC0FFD2FF11DE35AFF4FF0829FB73E
:1002C000F8940B8FEA89FB8980818062CFCFCF932E
:1002D000DF93EC01888D8823B9F0AA89BB89E8896E
:1002E000F9898C9185FD03C0808186FD0DC00FB614
:1002F00007FCF7CF8C9185FFF2CF808185FFEDCF92
:10030000CE010E94F800E9CFDF91CF91089588E6F1
:1003100095E00E94EC0021E0892B09F420E0822F77
:10032000089580E090E0892B29F00E9487018111D7
:100330000E94000080E090E0892B49F080E090E08E
:10034000892B29F00E94000081110C94000008956F
:10035000AF92BF92CF92DF92EF92FF920F931F93D3
:10036000CF93DF936C017B018B01040F151FEB0111
:100370005E01AE18BF08C017D10759F06991D601C8
:10038000ED91FC910190F081E02DC6010995892B3A
:1003900079F7C501DF91CF911F910F91FF90EF90F9
:1003A000DF90CF90BF90AF90089581508D3008F0CE
:1003B0003DC0E82FF0E0E152FE4F0C940E1EF60116
:1003C000FA01EC01F20116021602FD010302070216
:1003D0000D02160211021702809180008F77809320
:1003E00080000895809180008F7DF9CF84B58F774C
:1003F00084BD089584B58F7DFBCF8091B0008F7749
:100400008093B00008958091B0008F7DF9CF8091E6
:1004100090008F77809390000895809190008F7D59
:10042000F9CF8091A0008F778093A00008958091EC
:10043000A0008F7DF9CFCF93DF93282F30E0F90113
:10044000E85FFE4F8491F901E051FF4FD491F9012B
:10045000E852FF4FC491CC23A1F081110E94D50135
:10046000EC2FF0E0EE0FFF1FE453FF4FA591B49186
:10047000EC91ED2381E090E009F480E0DF91CF91F1
:10048000089580E090E0FACF1F93CF93DF93282F59
:1004900030E0F901E85FFE4F8491F901E051FF4F30
:1004A000D491F901E852FF4FC491CC23A9F0162F43
:1004B00081110E94D501EC2FF0E0EE0FFF1FE054F8
:1004C000FF4FA591B4918FB7F894EC91111108C02A
:1004D000D095DE23DC938FBFDF91CF911F910895DC
:1004E000DE2BF8CF60E08FE00E94440260E08EE0F7
:1004F0000E94440260E088E00E94440260E087E0DD
:100500000C944402CF93DF9390E0FC01E051FF4F45
:10051000249188529F4FFC0184918823C9F090E078
:10052000880F991FFC01EC54FF4FA591B491FC0179
:10053000E054FF4FC591D49161110DC09FB7F8945D
:100540008C91209582238C938881282328839FBFB8
:10055000DF91CF910895623051F49FB7F8943C91A8
:10056000822F809583238C93E8812E2BEFCF8FB73A
:10057000F894EC912E2B2C938FBFEACF8E50806491
:1005800080937C0080917A00806480937A008091CF
:100590007A0086FDFCCF80917800909179000895D3
:1005A0003FB7F8948091D9049091DA04A091DB04CC
:1005B000B091DC0426B5A89B05C02F3F19F0019629
:1005C000A11DB11D3FBFBA2FA92F982F8827BC01AD
:1005D000CD01620F711D811D911D43E0660F771FD4
:1005E000881F991F4A95D1F70895FC017996CB0190
:1005F0000596DB012D91BD012193A817B907C9F715
:1006000008959C0197FF02C0215F3F4F44E035955C
:1006100027954A95E1F74AE0429FF001439FF00D8C
:10062000112460E170E00E94FA1D8E0F9F1F089553
:100630006AE070E00E94FA1D24E0660F771F2A9599
:10064000E1F7860F971F08951F93CF93DF93C1E0C3
:10065000C0939404882399F1D091B8001091BA0006
:100660008091BC008A7B8093BC0060E082E10E94A4
:10067000440260E083E10E94440210925605C09358
:1006800035051092300561E082E10E94440261E08C
:1006900083E10E9444028091B9008E7F8093B9006B
:1006A0008091B9008D7F8093B90080E28093B8007B
:1006B00085E48093BC001093BA00D093B800DF911A
:1006C000CF911F910895CF92DF92EF92FF920F93F7
:1006D0001F93CF93DF93D82FC62F613208F098C0B5
:1006E0000E94D0026B017C018091560581116BC084
:1006F00081E080935605809335059FEF90933405F4
:10070000109233059C0F90933205809331058091B0
:100710003105DD0FD82BD093310580913005813024
:1007200009F078C0109230050E94D0026B017C0164
:10073000809131058093BB008091580590915905B7
:10074000A0915A05B0915B05892B8A2B8B2BA1F0C8
:100750000E94D002009158051091590520915A0528
:1007600030915B056C197D098E099F0906171707E3
:100770002807390708F448C08091BC0083FDD8CF12
:1007800085EC8093BC000E94D0026B017C018091BB
:100790005605813009F440C0809133058C1710F460
:1007A000C0913305E0E1F5E0A6E3B5E080E08C130D
:1007B00055C08C2FDF91CF911F910F91FF90EF903B
:1007C000DF90CF9008958091580590915905A091A0
:1007D0005A05B0915B05892B8A2B8B2B09F484CFAA
:1007E0000E94D002009158051091590520915A0598
:1007F00030915B056C197D098E099F090617170753
:100800002807390708F070CF809157050E9424030C
:10081000C0E0CFCF85EEB5CF8091580590915905B6
:10082000A0915A05B0915B05892B8A2B8B2B09F47B
:10083000AECF0E94D0020091580510915905209129
:100840005A0530915B056C197D098E099F090617C1
:1008500017072807390708F09ACFD6CF91919D93B3
:100860008F5FA5CFCF92DF92EF92FF920F931F93EE
:10087000CF93DF93D0910F0581E0D13208F09CC077
:10088000C0910E050E94D0026B017C01809156053B
:1008900081116CC082E08093560581E0809335051C
:1008A0008FEF8093340510923305D0933205AEEE6E
:1008B000B4E0E0E1F5E080E0D8138DC0109231059E
:1008C00080913105CC0FC82BC09331058091300544
:1008D000813009F084C0109230050E94D0026B0173
:1008E0007C01809131058093BB00809158059091E7
:1008F0005905A0915A05B0915B05892B8A2B8B2B4A
:10090000A1F00E94D0020091580510915905209144
:100910005A0530915B056C197D098E099F090617F0
:1009200017072807390708F442C08091BC0083FDEF
:10093000D8CF85EC8093BC000E94D0026B017C0173
:1009400080915605823009F44CC0809134058F3F68
:1009500009F469C080913405803209F466C0809141
:100960003405803309F463C084E026C080915805C3
:1009700090915905A0915A05B0915B05892B8A2B5E
:100980008B2B09F483CF0E94D0020091580510915F
:10099000590520915A0530915B056C197D098E0926
:1009A0009F09061717072807390708F06FCF8091AE
:1009B00057050E94240385E01092ED0410920F0564
:1009C0001092EC04DF91CF911F910F91FF90EF9067
:1009D000DF90CF9008959D9191938F5F6DCF85EEBD
:1009E000A9CF8091580590915905A0915A05B091D1
:1009F0005B05892B8A2B8B2B09F4A2CF0E94D00296
:100A0000009158051091590520915A0530915B05C8
:100A10006C197D098E099F090617170728073907E2
:100A200008F08ECFC4CF80E0C7CF82E0C5CF83E08F
:100A3000C3CF2091B504260F3327331F2132310550
:100A4000ECF420915605FC0190E080E0243069F040
:100A500082E00895A091B5042191AC014B565B4F03
:100A6000A40FB52FB11D2C930196861798F3809192
:100A7000B504680F6093B50480E0089581E008959F
:100A80000895E091EB048091EA04E81730F4F0E077
:100A9000EA5CFA4F808190E008958FEF9FEF089510
:100AA0009091EB048091EA042FEF3FEF981748F400
:100AB000E92FF0E0EA5CFA4F208130E09F5F9093ED
:100AC000EB04C90108958091EA049091EB04891B1D
:100AD000990B0895CF92DF92EF92FF920F931F939D
:100AE000CF93DF937C01CB018A012091EC04222378
:100AF00089F0EB016B01C40ED51ECC15DD0569F044
:100B00006991D701ED91FC910190F081E02DC70131
:100B10000995F3CF642F0E941905C801DF91CF9189
:100B20001F910F91FF90EF90DF90CF900895CF939A
:100B3000DF931F92CDB7DEB769832091EC042223A7
:100B4000F9F020910F05203258F021E030E0FC014F
:100B50003383228390E080E00F90DF91CF9108955E
:100B60008091ED04E82FF0E0E251FB4F99819083F2
:100B70008F5F8093ED0480930F0581E090E0ECCFD0
:100B800061E0CE0101960E941905F7CF682F8CE530
:100B900095E00C949705CF93DF93EB0121E0209330
:100BA000EC0428E620930E051092ED0410920F0538
:100BB0000E94C605CE010E94C605DF91CF910C941C
:100BC0003204CF92EF92FF920F931F93CF93DF9354
:100BD000F82E162FD42FC22F81E08093EC0488E6E4
:100BE00080930E051092ED0410920F0590E080E0C6
:100BF0000E94C6058F2D90E00E9418030E94C60532
:100C0000812F90E00E9418030E94C6058D2F90E06E
:100C10000E9418030E94C6058C2F90E00E941803C2
:100C20000E94C605802F90E00E9418030E94C6050E
:100C30008E2D90E00E9418030E94C6058C2D90E036
:100C40000E9418030E94C605DF91CF911F910F915A
:100C5000FF90EF90CF900C94320490E080E00895E4
:100C6000089508950895089508950895089508959C
:100C7000089508950895089508950895089508958C
:100C8000089508950895089508950895089508957C
:100C9000089508950895DC011296ED91FC91139743
:100CA00026A537A52F5F3F4F37A726A71296ED91B0
:100CB000FC9186A597A5CC9711F417A616A60895C2
:100CC000CF93DF93DC011296ED91FC9126A537A519
:100CD000DF01AD5ABF4F90E29C9311969C93119601
:100CE0009C93EF01CA5ADF4FC9016AE070E00E948D
:100CF000FA1D6883E95AFF4F8083DF91CF910895F1
:100D0000DC011296ED91FC91139726A537A52F5F74
:100D10003F4F37A726A71296ED91FC9186A597A580
:100D2000489711F417A616A60895CF93DF93DC0118
:100D30001296ED91FC9186A597A5EF01CD5ADF4F54
:100D40006AE070E00E94FA1D6883DF01AC5ABF4F71
:100D50008C93119680E28C9311968C93E95AFF4FF5
:100D60008083DF91CF910895DC011296ED91FC9183
:100D7000139726A537A52F5F3F4F37A726A71296B3
:100D8000ED91FC9186A597A5039711F417A616A6D9
:100D90000895FC0182819381FC0126A537A56AECA8
:100DA00073E02115310551F060ED73E0213031051C
:100DB00029F02230310529F466ED73E0CA960C94CF
:100DC000F5020895FC01828193816CED73E0CA966F
:100DD0000C94F502FC0122813381F901EB57FF4F9E
:100DE00080819181039664E070E00E94FA1D93E097
:100DF000981B892FF29792E79083319695E4908320
:100E0000319690E2908331969AE29083295A3F4F2F
:100E1000F90180830895FC0182819381FC01E559E9
:100E2000FF4F3081789720E22083319620833196DE
:100E3000208331962AE22083895A9F4FFC01308318
:100E40000895FC018281938162EE73E0CA960C944E
:100E5000F502CF92EF920F93CF93DF93FC01A28123
:100E6000B3819E968D919C919F9701969F969C939E
:100E70008E939E97A281B3819E968D919C919F9710
:100E80008436910531F484E190E09F969C938E9393
:100E90009E970280F381E02DBF01635A7F4FAF011F
:100EA000445A5F4F9F01255A3F4FCF01865A9F4FAB
:100EB000EF01C75ADF4FDF01A85ABF4FC6A4FB019D
:100EC000E080FA010081F9012081FC014081688104
:100ED0008C910E94E105DF91CF910F91EF90CF901F
:100EE0000895CF93DF93DC011296ED91FC9186A5D6
:100EF00097A5DF01AD5ABF4F22E32C93119620E353
:100F00002C93119620E22C93EF01CA5ADF4F6AE02E
:100F100070E00E94FA1D6883E95AFF4F8083DF91D9
:100F2000CF910895FC018281938168EE73E0CA96A7
:100F30000C94F502AF92BF92CF92EF920F93CF93A2
:100F4000DF93FC01A281B3819E968D919C919F9726
:100F500001969F969C938E939E97A281B3819E96B5
:100F60008D919C919F970D9731F481E090E09F9631
:100F70009C938E939E970280F381E02DBF01625A6D
:100F80007F4FAF01445A5F4F9F01255A3F4FCF011A
:100F9000865A9F4FEF01C75ADF4F5F01A8E5AA0E9F
:100FA000B11CDB01CC90E6A4FA010081D9012C919F
:100FB000FC0140816881D5018C910E94E105DF919F
:100FC000CF910F91EF90CF90BF90AF900895CF93B6
:100FD000DF93DC011296ED91FC9186A597A5EF01B8
:100FE000CD5ADF4F6AE070E00E94FA1D6883DF018E
:100FF000AC5ABF4F8C93119680E28C9311968C93D0
:10100000E95AFF4F8083DF91CF910895FC018281DF
:1010100093816EEE73E0CA960C94F502AF92BF9284
:10102000CF92EF920F93CF93DF93DC011296ED9165
:10103000FC91139786A597A5019697A786A7129668
:10104000CD91DC911397FE01E35AFF4FE081F0E070
:101050003A96EE0FFF1FEC0FFD1F808191810196E4
:101060002EA53FA52817390721F481E090E09FA71E
:101070008EA71296ED91FC911397EF01C25ADF4FA4
:101080008881837061F421978881823041F486A53C
:1010900097A54D9721F481E090E097A786A7129637
:1010A000ED91FC91BF01625A7F4FAF01435A5F4FF0
:1010B0009F01255A3F4FCF01865A9F4FEF01C75AD4
:1010C000DF4F5F01A8E5AA0EB11CDB01CC90DA016D
:1010D000EC9006A5F9012081DC014C916881F501B5
:1010E00080810E94E105DF91CF910F91EF90CF9029
:1010F000BF90AF900895CF93DF93DC011296ED91EE
:10110000FC9126A537A5DF01AD5ABF4F90E29C9315
:1011100011969C9311969C93EF01CA5ADF4FC90117
:101120006AE070E00E94FA1D6883E95AFF4F8083ED
:10113000DF91CF910895FC018281938164EF73E088
:10114000CA960C94F502AF92BF92CF92EF920F9392
:10115000CF93DF93FC01A281B3819E968D919C91E8
:101160009F9701969F969C938E939E97A281B381A1
:101170009E968D919C919F97089731F481E090E025
:101180009F969C938E939E970280F381E02DBF01E2
:10119000625A7F4FAF01435A5F4F9F01245A3F4F1E
:1011A000CF01865A9F4FEF01C75ADF4F5F01A8E575
:1011B000AA0EB11CDB01CC90DA01EC90D9010C91A4
:1011C00026A5FC0140816881D5018C910E94E10532
:1011D000DF91CF910F91EF90CF90BF90AF90089596
:1011E000DC0112968D919C91DC019E96ED91FC9113
:1011F000FF27EE0FFF1FE80FF91F60817181CA966C
:101200000C94F502FC01828193816AEF73E0CA9627
:101210000C94F502CF92EF920F93CF93DF93FC01E2
:10122000A281B3819E968D919C919F9701969F96E6
:101230009C938E939E97A281B3819E968D919C9153
:101240009F97CC9721F49F961C921E929E970280A6
:10125000F381E02DAF01425A5F4F9F01235A3F4F68
:10126000CF01845A9F4FEF01C55ADF4FBF01665A25
:101270007F4FDA01CC90D901EC90DC010C912881F0
:10128000DB014C9166A580E00E94E105DF91CF91E2
:101290000F91EF90CF900895CF93DF93DC011296DA
:1012A000ED91FC9126A537A5DF01AD5ABF4F90E225
:1012B0009C9311969C9311969C93EF01CA5ADF4F11
:1012C000C9016AE070E00E94FA1D6883E95AFF4F85
:1012D0008083DF91CF910895FC018281938160E04A
:1012E00074E0CA960C94F502CF92EF920F93CF93CD
:1012F000DF93FC01A281B3819E968D919C919F9773
:1013000001969F969C938E939E97A281B3819E9601
:101310008D919C919F97489721F49F961C921E92C5
:101320009E970280F381E02DAF01425A5F4F9F01EB
:10133000235A3F4FCF01845A9F4FEF01C55ADF4FC9
:10134000BF01675A7F4FDA01CC90D901EC90DC01E4
:101350000C91288146A5FB01608180E00E94E10597
:10136000DF91CF910F91EF90CF900895CF93DF93BE
:10137000DC011296ED91FC9186A597A5EF01CD5A5F
:10138000DF4F6AE070E00E94FA1D6883DF01AC5A0B
:10139000BF4F8C93119680E28C9311968C93E95AEF
:1013A000FF4F8083DF91CF910895FC01828193816B
:1013B00066E074E0CA960C94F502FC018281938188
:1013C0006CE074E0CA960C94F502CF93DF93FC01B5
:1013D000A281B381D0968C91D0978823A9F1D09621
:1013E0001C9282819381DC01AD59BF4F845A9F4F7B
:1013F000EC0188819C91891B8C9382819381DC0113
:10140000AF59BF4F865A9F4FEC0188819C91891B31
:101410008C9382819381DC01A05ABF4F875A9F4FE2
:10142000EC0188819C91891B8C9382819381FC01C2
:10143000E15AFF4F885A9F4FDC018C919081891BA4
:101440008083DF91CF9108959D01215A3F4FE9019B
:101450008881811139C0CD01805A9F4FEC0188816C
:10146000811132C0CD018F599F4FEC0188818111CC
:101470002BC081E0D0968C9382819381DC01A15AAC
:10148000BF4F885A9F4FEC0188818C938281938152
:10149000DC01A05ABF4F875A9F4FEC0188818C9383
:1014A00082819381DC01AF59BF4F865A9F4FEC0177
:1014B00088818C9382819381FC01ED59FF4F845A7E
:1014C0009F4FDC018C91BCCFE9011882A281B381CE
:1014D000A05ABF4F1C92A281B381AF59BF4F1C923B
:1014E0000280F381E02DED59FF4F1082AACFAF9219
:1014F000BF92CF92DF92EF92FF920F931F93CF9301
:10150000DF93DC011296ED91FC91DF01A15ABF4FF0
:101510002C9111963C9111964C9180A9BF016D5A66
:101520007F4F5B011D976D016E5F7F4F7B018F01C8
:101530000A5A1F4FEF01C95ADF4F882309F452C0DE
:1015400016968C91A82FA41BBB0B60E17EE0A69F92
:10155000C001A79F900DB69F900D1124DF01A75ADF
:10156000BF4F4C91431B550B3CE3349FB001359F5B
:10157000700D1124860F971FE85AFF4F3081E32F1B
:10158000E21BFF0B9F01280F391FC9016CE370E0BC
:101590000E94FA1D462F64360CF043E6C9016CE345
:1015A00070E00E94FA1D382F2AE0842F622F0E94DB
:1015B000EC1DD5018C93F601908381E0D7018C93CB
:1015C000832F622F0E94EC1DF80180839883DF91A6
:1015D000CF911F910F91FF90EF90DF90CF90BF9030
:1015E000AF900895EE5AFF4F211104C0311102C08F
:1015F000442391F081E0808360E17EE0469FC0015A
:10160000479F900D1124FCE33F9F800D911D1124F5
:10161000280F392F311DB9CF81E08083D5011C926D
:10162000F6011082DB018C93F80110821882CFCF73
:101630005F926F927F928F929F92AF92BF92CF9262
:10164000DF92EF92FF920F931F93CF93DF93FC01F2
:10165000C281D381FE01E958FF4F408151816281EF
:1016600073818E0109591F4FF801C580D680E7802C
:10167000F0844A015B018C189D08AE08BF08808188
:101680009181B0E0A0E088159905AA05BB0520F07E
:10169000CD28CE28CF2859F5F80145835683678396
:1016A000708784E10E94BE02BC01990F880B990BE0
:1016B0000E94BE1C23E333E343E550E40E94731D04
:1016C00020E030E040E85AE30E94731D20E030E063
:1016D00040E05FE30E94A21B2AE037ED43E25CE3B7
:1016E0000E94141CF8016387748785879687F80128
:1016F00083849484A584B684FE01E559FF4F50800D
:10170000CE018D5A9F4F6C0177977F018E010B5A46
:101710001F4F03963C0196E4591253C020E030E07D
:1017200040E151E4C501B4010E94731D20E030E0A6
:1017300040EA50E40E94141C20E030E040E052E413
:101740000E94A31B4B015C0120E030E048EC52E416
:101750000E94141C0E94861CF601608320E030E089
:1017600040E251E4C501B4010E94141C0E94861C91
:101770008AE0C82ED12CCB01B6010E94FA1DF701D8
:10178000808380E2F8018083C501B4010E94861C39
:10179000CB01B6010E94FA1DF3018083C95ADF4FC5
:1017A0005882DF91CF911F910F91FF90EF90DF90C2
:1017B000CF90BF90AF909F908F907F906F905F90F1
:1017C000089581E0FE01EE5AFF4F808320E030E073
:1017D00040E251E4C501B4010E94141C0E94861C21
:1017E000F6016083C501B4010E94861CCB016AE04A
:1017F00070E00E94FA1DF701808380E2F801808387
:101800008AE2CACFFC0182819381FC01E55AFF4F35
:10181000E081F0E0EE0FFF1FE80FF91F608171819A
:10182000CA960C94F502FC0122813381F901E85A31
:10183000FF4F8081359790E2908331969083319667
:10184000908331966AE00E94E01D8083295A3F4FC1
:10185000F90190830895FC0122813381F901EE5A48
:10186000FF4F51E050833A96A081319680813A979C
:101870004AE0642F0E94E01D808331969083319668
:10188000508331968A2F0E94E01D8083295A3F4F52
:10189000F901908308950F931F93CF93DF93EC0189
:1018A0008B0188819981009739F0DC01ED91FC91E1
:1018B0000280F381E02D099519830883F801D38311
:1018C000C283DF91CF911F910F910895CF93DF9342
:1018D000C82F0E94720260E081E00E94440260E032
:1018E00082E00E94440260E080E00E94440260E0E6
:1018F00084E00E94440260E086E10E94440260E0CD
:1019000085E00E94440260E086E00E94440260E0BC
:1019100085E10E94440281E08093E504109227064D
:10192000109228061092290610922A06109221067B
:10193000109222061092230610922406CC2309F45A
:101940007DC08091680081608093680080916B0009
:10195000846080936B00809168008260809368004F
:1019600080916C00886080936C0080917A008093F5
:10197000930410927A0085B7982F90668F7D8064CB
:101980008093920495BF8091920485BF10926F005E
:1019900083B7816083BF88958091E504882309F42B
:1019A00052C0E0910706F0910806EF5AFF4F81E020
:1019B00080831092E5048091130690911406909311
:1019C00026068093250683B78E7F83BF809193047C
:1019D00080937A008091E6049091E704A091E80456
:1019E000B091E9048093E1049093E204A093E304AE
:1019F000B093E40410921D0610921E0610921F066A
:101A00001092200680916F00826080936F0061E0E9
:101A100085E10E944402C0910706D091080684E047
:101A200090E00E94281E20EC33E0FC0131832083EB
:101A3000BC01CE01DF91CF910C944B0C1092680049
:101A400010926B0088CFDF91CF910895CF93DF93F1
:101A5000EC01EA81FB8186A597A50E941803BC01D1
:101A60008BE090E00E94CB0560E870E08DE090E0B4
:101A70000E94CB050A80DB81C02D84E090E00E94AB
:101A8000281E20EC33E0FC0131832083BC01CE0111
:101A9000DF91CF910C944B0CCF93DF93FC01C2816B
:101AA000D38184E090E00E94281E28E332E0FC010C
:101AB00031832083BC01CE01DF91CF910C944B0C7C
:101AC000CF93DF93DC011296ED91FC91139717A64B
:101AD00016A61296CD91DC9184E090E00E94281E1B
:101AE00028E531E0FC0131832083BC01CE01DF9188
:101AF000CF910C944B0CCF93DF93FC01C281D38127
:101B000084E090E00E94281E20EC33E0FC01318349
:101B10002083BC01CE01DF91CF910C944B0CCF936D
:101B2000DF93FC01C281D38184E090E00E94281EF3
:101B300028E332E0FC0131832083BC01CE01DF9138
:101B4000CF910C944B0CCF93DF93FC01C281D381D6
:101B500084E090E00E94281E28E332E0FC013183FB
:101B60002083BC01CE01DF91CF910C944B0CCF931D
:101B7000DF93FC01C281D38184E090E00E94281EA3
:101B800022E831E0FC0131832083BC01CE01DF91EA
:101B9000CF910C944B0CCF93DF93FC01C281D38186
:101BA00084E090E00E94281E20E931E0FC013183AE
:101BB0002083BC01CE01DF91CF910C944B0CCF93CD
:101BC000DF93FC01C281D38184E090E00E94281E53
:101BD00020E931E0FC0131832083BC01CE01DF919B
:101BE000CF910C944B0CCF93DF93DC011296ED91C7
:101BF000FC91DF01A25ABF4F2C9130E037A726A7F6
:101C0000FC01C281D38184E090E00E94281E2EE96D
:101C100031E0DC012D933C93BC01CE01DF91CF91EB
:101C20000C944B0CCF93DF93FC01C281D38184E0F1
:101C300090E00E94281E2CEA31E0FC0131832083D1
:101C4000BC01CE01DF91CF910C944B0CCF93DF936D
:101C5000FC01C281D38184E090E00E94281E2CEA1E
:101C600031E0FC0131832083BC01CE01DF91CF91B3
:101C70000C944B0CCF93DF93DC011296ED91FC9109
:101C8000DF01A35ABF4F2C9130E037A726A7FC01F4
:101C9000C281D38184E090E00E94281E2AEB31E0CB
:101CA000DC012D933C93BC01CE01DF91CF910C94CC
:101CB0004B0CCF93DF93FC01C281D38184E090E091
:101CC0000E94281E28EC31E0FC0131832083BC01F6
:101CD000CE01DF91CF910C944B0CCF93DF93FC019D
:101CE000C281D38184E090E00E94281E28EC31E07C
:101CF000FC0131832083BC01CE01DF91CF910C9494
:101D00004B0CCF93DF93DC011296ED91FC91DF0138
:101D1000A45ABF4F2C9130E037A726A7FC01C281FF
:101D2000D38184E090E00E94281E26ED31E0DC01A2
:101D30002D933C93BC01CE01DF91CF910C944B0CC1
:101D4000CF93DF93FC01C281D38184E090E00E94B5
:101D5000281E24EE31E0FC0131832083BC01CE013A
:101D6000DF91CF910C944B0CCF93DF93FC01C28198
:101D7000D38184E090E00E94281E24EE31E0FC0133
:101D800031832083BC01CE01DF91CF910C944B0CA9
:101D9000CF93DF93DC011296ED91FC91DF01A55A00
:101DA000BF4F2C9130E037A726A7FC01C281D38119
:101DB00084E090E00E94281E22EF31E0DC012D93A8
:101DC0003C93BC01CE01DF91CF910C944B0CCF938F
:101DD000DF93FC01C281D38184E090E00E94281E41
:101DE00020E032E0FC0131832083BC01CE01DF9191
:101DF000CF910C944B0CCF93DF93DC011296ED91B5
:101E0000FC911397EA5AFF4F2FE620831296CD914B
:101E1000DC9184E090E00E94281E20E032E0FC018A
:101E200031832083BC01CE01DF91CF910C944B0C08
:101E30000F931F93CF93DF93EC010A811B8184E002
:101E400090E00E94281E2EE032E0FC0131832083C6
:101E5000BC01C8010E944B0CEA81FB81DF01A75A3B
:101E6000BF4F8C9190E097A786A7DF91CF911F91EC
:101E70000F910895CF93DF93FC01C281D38184E059
:101E800090E00E94281E2CE132E0FC013183208387
:101E9000BC01CE01DF91CF910C944B0CCF93DF931B
:101EA000FC01C281D38184E090E00E94281E2CE1D5
:101EB00032E0FC0131832083BC01CE01DF91CF9160
:101EC0000C944B0CCF93DF93DC011296ED91FC91B7
:101ED000DF01A65ABF4F2C9130E037A726A7FC019F
:101EE000C281D38184E090E00E94281E2AE232E081
:101EF000DC012D933C93BC01CE01DF91CF910C947A
:101F00004B0CCF93DF93FC01C281D38184E090E03E
:101F10000E94281E26E631E0FC0131832083BC01AB
:101F2000CE01DF91CF910C944B0CCF93DF93FC014A
:101F3000C281D38184E090E00E94281E20EC33E02F
:101F4000FC0131832083BC01CE01DF91CF910C9441
:101F50004B0CCF93DF93FC01C281D38184E090E0EE
:101F60000E94281E20EC33E0FC0131832083BC0159
:101F7000CE01DF91CF910C944B0CCF93DF93FC01FA
:101F8000C281D38184E090E00E94281E20EC33E0DF
:101F9000FC0131832083BC01CE01DF91CF910C94F1
:101FA0004B0CCF93DF93FC01C281D38184E090E09E
:101FB0000E94281E26E432E0FC0131832083BC010C
:101FC000CE01DF91CF910C944B0CCF93DF93FC01AA
:101FD000C281D38184E090E00E94281E20EC33E08F
:101FE000FC0131832083BC01CE01DF91CF910C94A1
:101FF0004B0CCF93DF93FC01C281D38184E090E04E
:102000000E94281E24E532E0FC0131832083BC01BC
:10201000CE01DF91CF910C944B0CCF93DF93FC0159
:10202000C281D38184E090E00E94281E20EC33E03E
:10203000FC0131832083BC01CE01DF91CF910C9450
:102040004B0CCF93DF93FC01C281D38184E090E0FD
:102050000E94281E24E532E0FC0131832083BC016C
:10206000CE01DF91CF910C944B0CCF93DF93FC0109
:10207000C281D38184E090E00E94281E22E632E0F3
:10208000FC0131832083BC01CE01DF91CF910C9400
:102090004B0CCF93DF93FC01C281D38184E090E0AD
:1020A0000E94281E24E532E0FC0131832083BC011C
:1020B000CE01DF91CF910C944B0CCF93DF93FC01B9
:1020C000C281D38184E090E00E94281E20E732E0A4
:1020D000FC0131832083BC01CE01DF91CF910C94B0
:1020E0004B0CCF93DF93FC0122813381D901A75A96
:1020F000BF4F5C9111968C9117974AE0642F0E9414
:10210000E01D8C9311969C9311961C921196852F2D
:102110000E94E01D8C93295A3F4FD9019C93C281A4
:10212000D381FE01E957FF4F8081882379F084E055
:1021300090E00E94281E2EE732E0FC0131832083CC
:10214000BC01CE01DF91CF910C944B0CDF91CF916C
:102150000895CF93DF93FC0101900020E9F73197B8
:10216000AF01481B590BBC0188E695E00E94A8010D
:10217000EC0142E050E062E174E088E695E00E9404
:10218000A8018C0F9D1FDF91CF91089521E020932E
:10219000EC0428E620930E051092ED0410920F0532
:1021A0000E94C6050E94320461E088E60E94630333
:1021B0001092EB048093EA048CE595E00C945005B2
:1021C000CF93DF938FE090E00E94C610EC0181E096
:1021D0008093EC0488E680930E051092ED04109233
:1021E0000F058FE090E00E94C605CE018C7F9927F5
:1021F0000E94C605DF91CF910C943204EF92FF92BA
:102200000F931F93CF93DF937C01DC0112968D9186
:102210009C918A589F4F0E94E010F7010281138120
:10222000F801EB57FF4F8081918104970CF05DC05E
:1022300061E08FE00E944402F801E75AFF4F2081DD
:10224000C22FD0E03196808190E02B3308F042C05D
:1022500021968C0161E070E087E090E00E94CB0560
:10226000C8010E941803BC0189E090E00E94CB05E0
:10227000CE010E941803BC0188E090E00E94CB05CB
:1022800060E870E08AE090E00E94CB0565E070E0D5
:102290008EE090E00E94CB05D7011296ED91FC9163
:1022A0001397E957FF4F10821296CD91DC9184E08D
:1022B00090E00E94281E24E731E0FC013183208356
:1022C000BC01CE01DF91CF911F910F91FF90EF9054
:1022D0000C944B0CEB978C010F5F1F4F08311105CD
:1022E0000CF4B8CF08511109B5CF11821082D4CFA8
:1022F000CF93DF93EC018A819B819C0121583F4F52
:10230000DC01A958BF4F8D579F4FFC01408151817F
:10231000052E000C660B770B8D919D910D90BC9155
:10232000A02D841B950BA60BB70BF901808391831D
:10233000A283B3838A819B818A589F4F0E94E010B9
:10234000EA81FB81EB57FF4F11821082EA81FB810A
:10235000E957FF4F10820A80DB81C02D84E090E0B6
:102360000E94281E20EC33E0FC0131832083BC0155
:10237000CE01DF91CF910C944B0C0F931F93FC0176
:1023800022813381D901A75ABF4F5C9111968C915C
:1023900017974AE0642F0E94E01D8C9311969C933E
:1023A00011961C921196852F0E94E01D8C93295A3C
:1023B0003F4FD9019C9382819381FC01E957FF4FE4
:1023C0002081222329F1DC01A958BF4F0D911D91D5
:1023D0002D913C91139718964D915D916D917C9143
:1023E0001397041B150B260B370B14964D915C911C
:1023F000052E000C660B770B401751076207730719
:102400003CF410828A589F4F1F910F910C94E0105A
:102410001F910F9108950F931F93CF93DF93EC01BA
:10242000EA81FB8186A597A50E941803BC018CE078
:1024300090E00E94CB058BE090E00E94C6100A81DC
:102440001B810E940103F80197A786A70A80DB8100
:10245000C02D84E090E00E94281E2CE331E0FC01B6
:1024600031832083BC01CE01DF91CF911F910F9169
:102470000C944B0C0F931F93CF93DF93EC01EA81E5
:10248000FB8186A597A582309105D1F464E070E0C8
:102490008EE090E00E94CB050A80DB81C02D84E0B5
:1024A00090E00E94281E20EC33E0FC013183208361
:1024B000BC01CE01DF91CF911F910F910C944B0C79
:1024C000892B21F4E857FF4F81E08083EA81FB816B
:1024D00086A597A5019719F4E857FF4F108266E08B
:1024E00070E08EE090E00E94CB058A819B818A5843
:1024F0009F4F0E94E0108CE090E00E94C6100A817D
:102500001B810E940103F80197A786A70A80DB813F
:10251000C02D84E090E00E94281E2AE431E0C5CF5F
:1025200085ED8093BC008091580590915905A0914C
:102530005A05B0915B050796A11DB11D23E0B69524
:10254000A795979587952A95D1F72091BC0024FDF2
:1025500003C01092560508954091580550915905B1
:1025600060915A0570915B05452B462B472B69F30B
:102570000097A105B10541F02AE12A95F1F700C0C5
:102580000197A109B109E1CF809157050C9424036B
:102590000C94C41E0C94C41E0C94C41E0C94C41E33
:1025A0000C94C41E0C94C41E0C94C41E0C94C41E23
:1025B0000C94C41E0C94C41E0C94C41E0C94C41E13
:1025C0000C94C41E0C94C41E0C94C41E0C94C41E03
:1025D0000C94C41E0C94C41E0C94C41E0C94C41EF3
:1025E0000C94C41E0C94C41E0C94C41E0C94C41EE3
:1025F0000C94C41E0C94C41E0C94C41EDC011296D0
:10260000ED91FC91E559FF4F2081233419F526E423
:102610002083DC011296ED91FC91E959FF4F648112
:102620008281938120919004309191042F5F3F4FDC
:102630003093910420939004409105065091060632
:102640004115510519F04217530734F485E194E020
:102650000C94A91023E4DCCF9C012F5F3F4F213065
:1026600032401CF087E394E0F3CF0C94941B1F924C
:102670000F920FB60F9211242F933F934F935F93B6
:102680006F937F938F939F93AF93BF93EF93FF933A
:1026900088E695E00E94F800FF91EF91BF91AF911D
:1026A0009F918F917F916F915F914F913F912F916A
:1026B0000F900FBE0F901F9018951F920F920FB69C
:1026C0000F9211242F938F939F93EF93FF93E09199
:1026D0007805F09179058081E0917E05F0917F0584
:1026E00082FD1BC09081809181058F5F8F73209147
:1026F0008205821741F0E0918105F0E0E859FA4F38
:10270000958F80938105FF91EF919F918F912F91EC
:102710000F900FBE0F901F9018958081F4CF1F92DD
:102720000F920FB60F9211242F933F938F939F9385
:10273000AF93BF938091DD049091DE04A091DF04FC
:10274000B091E0043091D80426E0230F2D3758F5DE
:102750000296A11DB11D2093D8048093DD049093AF
:10276000DE04A093DF04B093E0048091D90490913B
:10277000DA04A091DB04B091DC040196A11DB11D27
:102780008093D9049093DA04A093DB04B093DC0423
:10279000BF91AF919F918F913F912F910F900FBE5D
:1027A0000F901F90189529E8230F0396A11DB11DC6
:1027B000D2CF0C94B9001F920F920FB60F92112432
:1027C0002F933F934F935F936F937F938F939F9339
:1027D000AF93BF93EF93FF938091B900887F8036CA
:1027E00009F44AC0F0F5883209F4A5C018F5803123
:1027F00009F499C0B8F4882309F4F5C0883009F4C5
:1028000092C0FF91EF91BF91AF919F918F917F9176
:102810006F915F914F913F912F910F900FBE0F904D
:102820001F901895883109F486C0803251F7809343
:10283000340514C0803409F49BC040F48033B9F3EC
:102840008833F9F68093340585ECAEC0803509F401
:1028500083C0883509F494C0883499F60E94901298
:10286000D0CF883909F48AC038F5883729F050F478
:10287000883611F0803729F683E080935605109250
:10288000D70455C0883809F479C0803919F08038E8
:1028900009F0B7CF8091D704803208F06FC0E09183
:1028A000D70481E08E0F8093D7048091BB00F0E0C5
:1028B000E954FB4F80833BC0803B39F0D0F4803A31
:1028C00009F477C0883A09F09CCF84E080935605DC
:1028D0001092B6041092B504F0E0E0E00995809102
:1028E000B50481110FC081E08093B5041092950466
:1028F00009C0803C09F4A8CF883C09F4A5CF883BE7
:1029000009F07FCFE091B60481E08E0F8093B6048A
:10291000F0E0EB56FB4F80818093BB009091B604B2
:102920008091B50429C0809131058093BB0085EC6E
:102930008093BC0066CF9091330580913205981743
:1029400058F5E091330581E08E0F80933305F0E078
:10295000E05FFA4F8081E9CFE091330581E08E0F8F
:10296000809333058091BB00F0E0E05FFA4F8083F5
:1029700090913305809132059817C8F285E8D8CF39
:10298000E091330581E08E0F809333058091BB0089
:10299000F0E0E05FFA4F80838091350581115ECFD2
:1029A00081E08093300584EA8093BC001092560544
:1029B00028CF85EC8093BC00109256058091D704F7
:1029C000803230F4E091D704F0E0E954FB4F1082FC
:1029D0006091D70470E087EB94E0F0E0E0E00995C7
:1029E0001092D7040ECF1092340538CF1F920F9259
:1029F0000FB60F9211242F933F934F935F936F93D2
:102A00007F938F939F93AF93BF93CF93DF93EF9376
:102A1000FF93C0910706D0910806FE01E957FF4FCA
:102A20008081811126C09E0121583F4FCE018958D7
:102A30009F4FDC014D915D916D917C91D9014D933A
:102A40005D936D937C93139781E0808332978081AF
:102A5000918101969183808384E090E00E94281EFA
:102A60002EE732E0FC0131832083BC01CE010E94BD
:102A70004B0CFF91EF91DF91CF91BF91AF919F915F
:102A80008F917F916F915F914F913F912F910F9017
:102A90000FBE0F901F9018951F920F920FB60F92B6
:102AA00011242F933F934F935F936F937F938F9353
:102AB0009F93AF93BF93CF93DF93EF93FF93C09117
:102AC0000706D0910806C15BDF4F888199819C0180
:102AD000275031092330310518F0813191051CF15F
:102AE00060E085E00E94440260E086E00E944402CB
:102AF00088819981019684319105F1F099838883C9
:102B0000FF91EF91DF91CF91BF91AF919F918F9105
:102B10007F916F915F914F913F912F910F900FBED9
:102B20000F901F9018958730910514F461E0D9CF6C
:102B30000A970797E8F6FACF19821882E1CF1F9219
:102B40000F920FB60F9211240F900FBE0F901F908F
:102B50001895EF92FF920F931F93CF93DF931092EC
:102B60006B0510926A0588EE93E0A0E0B0E08093D8
:102B70006C0590936D05A0936E05B0936F052CE9DD
:102B800033E0309369052093680525EC30E03093FD
:102B900075052093740524EC30E03093770520937D
:102BA000760520EC30E0309379052093780521EC10
:102BB00030E030937B0520937A0522EC30E03093AF
:102BC0007D0520937C0526EC30E030937F05209333
:102BD0007E05109281051092820510928305109255
:102BE000840504E610E01093060600930506109293
:102BF0005F0510925E058093600590936105A09338
:102C00006205B09363058EEA93E090935D0580932F
:102C10005C058AE090E090930A06809309068FE0B5
:102C200090E090930C0680930B068EE091E09093D9
:102C30000E0680930D0684E091E090931006809339
:102C40000F0680EF90E0909312068093110684E0C7
:102C500090E0909314068093130683E090E09093A5
:102C600016068093150682E090E0909318068093F4
:102C7000170681E090E090931A068093190610924F
:102C80001C0610921B0660E080E10E9482021092F6
:102C90001D0610921E0610921F061092200610921A
:102CA00021061092220610922306109224061092FA
:102CB00026061092250610922706109228061092DA
:102CC000290610922A0684E090E00E94281E7C01CA
:102CD00080EC93E0F7019183808389E890E00E9483
:102CE000281EEC01DC011D921D928EE0E6E0F1E071
:102CF00001900D928A95E1F780ED97E0998B888B92
:102D000086E990E09B8B8A8B8AE1E4E1F1E0DE01C9
:102D1000549601900D928A95E1F71FA61EA688EEA3
:102D200093E09EAB8DAB62E089E00E94820262E09C
:102D30008AE00E9482021AAA19AA1CAA1BAA18AE2B
:102D40001FAA19AE8AE0EEE2F1E0DE01DA96019008
:102D50000D928A95E1F7FE01EC5BFF4F84EF91E065
:102D60009183808339961183008361E085E00E941E
:102D7000820261E086E00E94820261E080E00E94BF
:102D8000820261E081E00E94820261E082E00E94B2
:102D9000820261E084E00E94820261E086E10E949A
:102DA000820260E086E10E94440261E085E00E94C8
:102DB000440260E086E00E944402F8941092800091
:102DC0001092810010928500109284008EE190E0B4
:102DD000909389008093880080918100886080931F
:102DE00081008091810083608093810080916F00D9
:102DF000826080936F007894FE01EA5BFF4F10823F
:102E00003596108231961082359710821182128287
:102E100013823B9610823397118210823296108271
:102E200037961082118212821382148215821682C2
:102E300037961082118212821382148215821682B2
:102E400061E08FE00E94820261E08EE00E948202D7
:102E500061E088E00E94820261E087E00E948202D5
:102E60008E0109591F4F88E893E1F801918380830F
:102E700080E190E09383828360E084E10E9482029B
:102E8000F8018281938101968130924024F087E39A
:102E900094E00E94A910F80115821682178210860C
:102EA00083E484831386148615861686FE01ED5707
:102EB000FF4F88E893E191838083B701CE010E94A0
:102EC0004B0CD0930806C0930706DF91CF911F915A
:102ED0000F91FF90EF900895789484B5826084BD3F
:102EE00084B5816084BD85B5826085BD85B581600E
:102EF00085BD80916E00816080936E00109281008C
:102F00008091810082608093810080918100816046
:102F10008093810080918000816080938000809107
:102F2000B10084608093B1008091B0008160809393
:102F3000B000809191008260809391008091910017
:102F400081608093910080919000816080939000D7
:102F50008091A10082608093A1008091A100816096
:102F60008093A1008091A00081608093A000809157
:102F70007A00846080937A0080917A0082608093E6
:102F80007A0080917A008E7F80937A0080917A0017
:102F9000806880937A001092C10061E085E10E9410
:102FA000820260E085E10E94440283B7817F8460F1
:102FB00083BF81E00E94660C45E0242E312C8FB740
:102FC000F894C090DD04D090DE04E090DF04F0902F
:102FD000E0048FBFC092E604D092E704E092E804D8
:102FE000F092E904C0910706D0910806FE01E95865
:102FF000FF4FC082D182E282F382809125069091B8
:10300000260620911306309114068217930709F0C3
:10301000D8C040911D0650911E0660911F06709108
:10302000200697018601041B150B260B370B809198
:10303000090690910A06B0E0A0E080179107A20768
:10304000B30728F0452B462B472B09F067C0C092E9
:103050001D06D0921E06E0921F06F092200680E127
:103060000E94BE02EC018090210690902206A09062
:103070002306B090240660910B0670910C0690E038
:1030800080E00E94BC1C6B017C01AC019B01C5016E
:10309000B4010E940F1C87FF44C0BE0190E080E095
:1030A0000E94BC1C209127063091280640912906D9
:1030B00050912A060E94A31B2B013C014092270637
:1030C000509228066092290670922A0620E030E08D
:1030D00040E85FE3C501B4010E94A31B4B015C0102
:1030E0008092210690922206A0922306B092240696
:1030F000AC019B01C701B6010E940F1C81110EC0DB
:10310000A5019401C301B2010E94141C609327061B
:10311000709328068093290690932A060E949101B5
:103120004ECFC0902706D0902806E0902906F09058
:103130002A0660910D0670910E0690E080E00E94D4
:10314000BC1C9B01AC01C701B6010E946E1D181684
:103150004CF480911B0690911C0690932606809358
:103160002506DCCF60910F067091100690E080E09C
:103170000E94BC1C9B01AC01C701B6010E946E1DE0
:1031800018162CF48091190690911A06E6CF6091DA
:1031900011067091120690E080E00E94BC1C9B0119
:1031A000AC01C701B6010E946E1D18162CF4809167
:1031B000170690911806D1CF8091150690911606AA
:1031C000CCCF20911506309116068217930721F473
:1031D00080E00E94660CA2CF8091E50481112BC093
:1031E0008E010F5A1F4FD8018C91882321F161E085
:1031F00086E10E94440220912506309126068091A6
:103200001706909118062817390721F061E082E02F
:103210000E944402F8011082FE01E558FF4FC0826F
:10322000D182E282F382C092E104D092E204E09281
:10323000E304F092E4042091250630912606809163
:103240001706909118062817390709F48AC18AE0F1
:103250000E941B0229A93AA9892B31F42F5F3F4F05
:103260003AAB29AB10E006C012161306DCF71AAA17
:1032700019AA11E089E00E941B022BA93CA9892B05
:1032800031F42F5F3F4F3CAB2BAB60E006C0121612
:103290001306DCF71CAA1BAA61E08DA99EA92BA925
:1032A0003CA949A95AA9841795070CF02EC2821788
:1032B00093070CF0D2C138AE2FAA81E089AF81E02C
:1032C0008093EC04F8E6F0930E051092ED04109252
:1032D0000F0590E080E00E94C6050E94320467E07E
:1032E00088E60E9463031092EB048093EA048CE565
:1032F00095E00E9450058F7799270E940103FE01F7
:10330000E85AFF4F80838CE595E00E9450050E94AB
:103310000103FE01E75AFF4F80838CE595E00E9490
:1033200050058F7399270E940103FE01E65AFF4F53
:1033300080838CE595E00E9450050E940103FE0108
:10334000E55AFF4F80838CE595E00E9450050E946E
:103350000103FE01E45AFF4F80838CE595E00E9453
:1033600050050E940103FE01E35AFF4F80838CE564
:1033700095E00E9450050E940103FE01E25AFF4FB2
:10338000808388819981DC01ED91FC910480F58135
:10339000E02D09958FA998AD8230910509F48FC170
:1033A00008F06FC1019709F480C1C0910706D09160
:1033B00008068090E6049090E704A090E804B0909E
:1033C000E9042091250630912606809119069091F6
:1033D0001A0628173907F1F4FE01E558FF4F8081DE
:1033E0009181A281B381B501A401481B590B6A0BDD
:1033F0007B0B88899989092E000CAA0BBB0B4817F7
:1034000059076A077B0730F465E874E0CE01CA9675
:103410000E94F5028E010A5B1F4FD8018C91823009
:1034200011F4E3E0EC936E01F7E4CF0ED11CF6014A
:1034300080819181A281B381B501A401481B590B00
:103440006A0B7B0B3E01F4E46F0E711CD3018D916E
:103450009C91092E000CAA0BBB0B481759076A0751
:103460007B0730F0FE01EE5AFF4F2081222341F00E
:1034700021E0FE01EB5AFF4F8081803209F420E009
:10348000F8018081FE01EA5AFF4F9081903209F0E5
:1034900031C1813009F031C190E0FE01E80FF91F20
:1034A000ED5AFF4FE081F12CE12CEA3738F4F0E0DF
:1034B000EE0FFF1FEC55FD4FE080F180880F991F44
:1034C000FE01E80FF91F82AD93ADE82AF92A222305
:1034D00021F08EAD9FADE82AF92A61E084E00E94D8
:1034E0004402D0E0C0E0C7010C2E02C0969587953B
:1034F0000A94E2F761E080FF60E080E00E9444020D
:103500005A985A9A599A59982196CC30D10559F718
:1035100060E084E00E944402D8012C912F5F2C933C
:10352000F60180819181A281B381B501A401481B7C
:10353000590B6A0B7B0BD3018D919C91880F991FBE
:10354000092E000CAA0BBB0B84179507A607B7071B
:1035500020F480829182A282B382253011F4D801B6
:103560001C92809125069091260620911906309193
:103570001A068217930739F0209117063091180622
:103580008217930781F5E0910706F0910806EF0195
:10359000C958DF4FDF01A558BF4F888199812D9110
:1035A0003C91821B930B2089318982179307DCF4AD
:1035B00022893389B901660F771F0E94FA1D82178D
:1035C00093070CF09FC061E08FE00E94440261E02D
:1035D0008EE00E94440261E088E00E94440261E0C3
:1035E00087E00E944402E0910706F09108064091AE
:1035F000E6045091E7046091E8047091E90487A91A
:1036000090AD892B41F04093E1045093E204609324
:10361000E3047093E40410AE17AAEE5AFF4F108231
:103620008091E1049091E204A091E304B091E4045C
:10363000481B590B6A0B7B0B413E5E4261057105CD
:1036400008F46CCD8091E504811168CD81E0C1CD95
:1036500024E030E038AF2FAB30CE83E090E098AF7D
:103660008FAB2BCE112309F42ACE89AD811105C071
:10367000E1E0F0E0F8AFEFAB22CE18AE1FAA19AE32
:103680001ECE8330910521F1049709F08ECEE8819A
:10369000F981C281D38184E090E00E94281EEAE98A
:1036A000F2E0DC01ED93FC9320C088819981DC017C
:1036B000ED91FC910680F781E02D099576CE888109
:1036C0009981DC01ED91FC910084F185E02DF5CF2D
:1036D000E881F981C281D38184E090E00E94281EB4
:1036E0002CE832E0FC0131832083BC01CE010E9432
:1036F0004B0C5BCE833009F4CFCE853008F00CCF75
:1037000020E0CACE0E9472026ECF821793070CF49B
:103710009FCF662309F4A6CF89AD8111AECFA2E079
:10372000B0E0B8AFAFABCBCD262FF999FECF1FBA23
:1037300092BD81BD20BD0FB6F894FA9AF99A0FBEDA
:10374000019608955058BB27AA270E94BA1B0C94D3
:10375000341D0E94261D38F00E942D1D20F039F4E2
:103760009F3F19F426F40C94231D0EF4E095E7FB1B
:103770000C941D1DE92F0E94451D58F3BA176207CE
:1037800073078407950720F079F4A6F50C94671D5C
:103790000EF4E0950B2EBA2FA02D0B01B90190016C
:1037A0000C01CA01A0011124FF27591B99F0593FB0
:1037B00050F4503E68F11A16F040A22F232F342FF8
:1037C0004427585FF3CF469537952795A795F04046
:1037D0005395C9F77EF41F16BA0B620B730B840B5B
:1037E000BAF09150A1F0FF0FBB1F661F771F881F13
:1037F000C2F70EC0BA0F621F731F841F48F487956B
:1038000077956795B795F7959E3F08F0B0CF93955C
:10381000880F08F09927EE0F9795879508950E94D5
:10382000F91C08F481E008950E94281C0C94341DB2
:103830000E942D1D58F00E94261D40F029F45F3F84
:1038400029F00C941D1D51110C94681D0C94231D1E
:103850000E94451D68F39923B1F3552391F3951BFD
:10386000550BBB27AA2762177307840738F09F5FA1
:103870005F4F220F331F441FAA1FA9F335D00E2E0E
:103880003AF0E0E832D091505040E695001CCAF77B
:103890002BD0FE2F29D0660F771F881FBB1F26173E
:1038A00037074807AB07B0E809F0BB0B802DBF0115
:1038B000FF2793585F4F3AF09E3F510578F00C94E4
:1038C0001D1D0C94681D5F3FE4F3983ED4F386956C
:1038D00077956795B795F7959F5FC9F7880F911D05
:1038E0009695879597F90895E1E0660F771F881FF1
:1038F000BB1F621773078407BA0720F0621B730BA4
:10390000840BBA0BEE1F88F7E09508950E948D1C7A
:103910006894B1110C94681D08950E944D1D88F0A3
:103920009F5798F0B92F9927B751B0F0E1F0660F83
:10393000771F881F991F1AF0BA95C9F714C0B130C4
:1039400091F00E94671DB1E008950C94671D672FE8
:10395000782F8827B85F39F0B93FCCF386957795F3
:103960006795B395D9F73EF49095809570956195DC
:103970007F4F8F4F9F4F0895E89409C097FB3EF407
:1039800090958095709561957F4F8F4F9F4F9923AC
:10399000A9F0F92F96E9BB279395F695879577952A
:1039A0006795B795F111F8CFFAF4BB0F11F460FFEA
:1039B0001BC06F5F7F4F8F4F9F4F16C0882311F042
:1039C00096E911C0772321F09EE8872F762F05C056
:1039D000662371F096E8862F70E060E02AF09A95F1
:1039E000660F771F881FDAF7880F9695879597F9E6
:1039F0000895990F0008550FAA0BE0E8FEEF161680
:103A00001706E807F907C0F012161306E407F507D2
:103A100098F0621B730B840B950B39F40A2661F046
:103A2000232B242B252B21F408950A2609F4A140E9
:103A3000A6958FEF811D811D089597F99F6780E8F6
:103A400070E060E008959FEF80EC089500240A94F0
:103A50001616170618060906089500240A94121669
:103A60001306140605060895092E0394000C11F49C
:103A7000882352F0BB0F40F4BF2B11F460FF04C049
:103A80006F5F7F4F8F4F9F4F089557FD9058440FA2
:103A9000551F59F05F3F71F04795880F97FB991FAD
:103AA00061F09F3F79F0879508951216130614066A
:103AB000551FF2CF4695F1DF08C0161617061806F7
:103AC000991FF1CF86957105610508940895E894D2
:103AD000BB2766277727CB0197F908950E94F91C29
:103AE00008F48FEF08950E94861D0C94341D0E94E7
:103AF000261D38F00E942D1D20F0952311F00C9406
:103B00001D1D0C94231D11240C94681D0E94451D3D
:103B100070F3959FC1F3950F50E0551F629FF00120
:103B2000729FBB27F00DB11D639FAA27F00DB11D39
:103B3000AA1F649F6627B00DA11D661F829F2227C2
:103B4000B00DA11D621F739FB00DA11D621F839F49
:103B5000A00D611D221F749F3327A00D611D231F1F
:103B6000849F600D211D822F762F6A2F11249F576D
:103B700050409AF0F1F088234AF0EE0FFF1FBB1F70
:103B8000661F771F881F91505040A9F79E3F51052F
:103B900080F00C941D1D0C94681D5F3FE4F3983E6B
:103BA000D4F3869577956795B795F795E7959F5FD9
:103BB000C1F7FE2B880F911D9695879597F908956B
:103BC000991B79E004C0991F961708F0961B881F6F
:103BD0007A95C9F78095089587FB082E062687FDFC
:103BE000819567FD61950E94E01D0EF4919507FC9B
:103BF0008195089597FB072E16F4009407D077FD62
:103C000009D00E94141E07FC05D03EF490958195C2
:103C10009F4F0895709561957F4F0895EE0FFF1F98
:103C20000590F491E02D0994AA1BBB1B51E107C03C
:103C3000AA1FBB1FA617B70710F0A61BB70B881F3C
:103C4000991F5A95A9F780959095BC01CD010895CB
:103C50000F931F93CF93DF938230910510F482E08E
:103C600090E0E0912D06F0912E0630E020E0B0E0EB
:103C7000A0E0309799F42115310509F44AC0281BBA
:103C8000390B24303105D8F58A819B816115710586
:103C900089F1FB0193838283FE0111C04081518130
:103CA0000281138148175907E0F04817590799F422
:103CB000109761F012960C93129713961C933296FC
:103CC000CF01DF91CF911F910F91089500932D06A1
:103CD00010932E06F4CF2115310551F042175307EA
:103CE00038F0A901DB019A01BD01DF01F801C1CF64
:103CF000EF01F9CF90932E0680932D06CDCFFE01D4
:103D0000E20FF31F81939193225031093983288365
:103D1000D7CF20912B0630912C06232B41F42091F4
:103D200002013091030130932C0620932B06209141
:103D30000001309101012115310541F42DB73EB745
:103D40004091040150910501241B350BE0912B0695
:103D5000F0912C06E217F307A0F42E1B3F0B281757
:103D6000390778F0AC014E5F5F4F2417350748F0F4
:103D70004E0F5F1F50932C0640932B068193919317
:103D80009FCFF0E0E0E09CCFCF93DF930097E9F086
:103D9000FC01329713821282A0912D06B0912E065B
:103DA000ED0130E020E01097A1F420813181820FF5
:103DB000931F20912B0630912C062817390709F004
:103DC00061C0F0932C06E0932B06DF91CF9108950C
:103DD000EA01CE17DF07E8F54A815B819E014115B4
:103DE0005105B1F7E901FB83EA8349915991C40F69
:103DF000D51FEC17FD0761F4808191810296840F35
:103E0000951FE90199838883828193819B838A83AB
:103E1000F0E0E0E012968D919C9113970097B9F530
:103E20002D913C911197CD010296820F931F209105
:103E30002B0630912C062817390739F6309751F5A3
:103E400010922E0610922D06B0932C06A0932B06EE
:103E5000BCCFD383C28340815181840F951FC81783
:103E6000D90761F44E5F5F4F88819981480F591FD0
:103E7000518340838A819B819383828321153105FD
:103E800009F0B0CFF0932E06E0932D069ECFFD01F2
:0E3E9000DC01C0CF13821282D7CFF894FFCF8F
:103E9E0000002F068000EE03610467046D047304B6
:103EAE0079047F0400001F001D001F001E001F006C
:103EBE001E001F001F001E001F001E001F002000FE
:103ECE000200400000010008000000004A06FC123B
:103EDE006006260D4B06000000004906FA129506F4
:103EEE000B128006000000004806F812C9063A12AE
:103EFE00B406000000004706F612E206600D4C0DF7
:103F0E00000000004606F412EA067B0D7B0D000051
:103F1E0000004406F0120B078F0DFE120000000089
:103F2E004306C8122107B70DA30D0000000042067C
:103F3E00EE127107CB0D2907000000004106EC12AE
:103F4E009207F30DDF0D000000004006EA12E707AE
:103F5E00120E9A07000000003F06E81206083A0EFD
:103F6E00260E000000003E06E6127B08590E0E08D3
:103F7E00000000003D06E4129B08810E6D0E00004D
:103F8E0000003C06E212F008A00EA308000000009C
:103F9E003B06E0120209C80EB40E000000003A06FD
:103FAE00DE124C09E70E0A09000000003906DC1289
:103FBE006C09180FFB0E000000003806DA12B60965
:103FCE003A0F7409000000003706D812D509620FA7
:103FDE004E0F000000003406D212180BBD0FBD0F9D
:103FEE00000000003306D012020CE50FD10F0000C6
:103FFE0000003206CE12130C0D10F90F0000000057
:10400E003106CC122B0C3510211000000000450695
:10401E00F212BD117811FE10000000003506D41208
:10402E00770AA90FE509000000003606D612DD0951
:10403E00950F810F9D020802150619068806990430
:10404E009D0409029D069906000000000000000074
:10405E000000000000000000000000000000000052
:10406E000000000000000000000000000000000042
:10407E000000000000000000000000000000000032
:10408E00000000000000000081060000000000009B
:10409E00000084009D020802150619068806990480
:1040AE009D0409029D069906000000000000000014
:1040BE000000000000008D069D069500000095048E
:1040CE00850400008C06080200000000940009021E
:1040DE008D029D02850600000000990400009C02DE
:1040EE00000018020000880600000000000000001A
:1040FE0000000000000000009C0414041C0695063D
:10410E00850400008C040400000000000000080478
:10411E000C041C04000000000404990494041C0008
:10412E000000180000009806000000001A01A80107
:10413E00BB006701EC00CA00DE000000000097051E
:10414E006A052D0640056305500541050000000077
:10415E003006CA1271105D1049104F6E20202000DB
:10416E005369204C45004F4620462000414C2041CB
:10417E0072007445206E6E005945204172004E4EFD
:10418E00206F6E00646F204E4E00646F20555500F8
:10419E004E4E20696E00486F207572005345207494
:1041AE0020000D0A004578636565646564206D61C5
:1041BE0078696D756D206E756D626572206F662003
:1041CE0077726974657300417474656D70742074D0
:1041DE006F207772697465206F75747369646520DA
:1041EE006F6620454550524F4D206D656D6F72794B
:1041FE0000747520452000555520456400746820D4
:10420E00752000467220692000534120742000530F
:0C421E0075206E20004241204C6F000013
:00000001FF
