:100000000C9491000C94B9000C94B9000C942C162B
:100010000C9494150C94B9000C94B9000C94B9008C
:100020000C94B9000C94B9000C94B9000C94D91537
:100030000C94B9000C94B9000C94B9000C94B9005C
:100040000C942D140C94B9000C94FB130C94D51340
:100050000C94B9000C94B9000C94B9000C94B9003C
:100060000C9479140C94B9000C9477140C947714B4
:100070000C9477140C9477140C9477140C947714D4
:100080000C9477140C9477140C9477140C947714C4
:100090000C9477140C9477140C9477140C947714B4
:1000A0000C9477140C9477140C9477140C947714A4
:1000B0000C94771400000000240027002A002D0073
:1000C00000000000250028002B002E00000000008A
:1000D0002300260029002C00040404040404040462
:1000E00002020202020203030303030305050505DE
:1000F00001020408102040800102040810200102BF
:100100000408102004080102090C0A08000201007A
:1001100000030407000000000000000000000000D1
:10012000361611241FBECFEFD8E0DEBFCDBF14E0DE
:10013000A0E0B1E0E6E8F0E402C005900D92A43B37
:10014000B107D9F726E0A4EBB4E001C01D92A735B2
:10015000B207E1F710E0C1E9D0E004C02197FE0149
:100160000E94E81EC039D107C9F70E94FA170C9403
:1001700041200C940000FC01538D448D252F30E06C
:10018000842F90E0821B930B541710F0CF960895A4
:1001900001970895FC01918D828D981761F0A28DD1
:1001A000AE0FBF2FB11D5D968C91928D9F5F9F7397
:1001B000928F90E008958FEF9FEF0895FC01918D4D
:1001C000828D981731F0828DE80FF11D858D90E0BA
:1001D00008958FEF9FEF0895FC01918D228D892F57
:1001E00090E0805C9F4F821B91098F73992708953F
:1001F000FC01A48DA80FB92FB11DA35ABF4F2C919C
:10020000848D90E001968F739927848FA689B78992
:100210002C93A089B1898C91837080648C93938D89
:10022000848D981306C00288F389E02D80818F7D2C
:1002300080830895EF92FF920F931F93CF93DF93E4
:10024000EC0181E0888F9B8D8C8D98131AC0E88912
:10025000F989808185FF15C09FB7F894EE89FF89E1
:100260006083E889F98980818370806480839FBF7F
:1002700081E090E0DF91CF911F910F91FF90EF907F
:100280000895F62E0B8D10E00F5F1F4F0F7311278F
:10029000E02E8C8D8E110CC00FB607FCFACFE889CA
:1002A000F989808185FFF5CFCE010E94F800F1CF5A
:1002B000EB8DEC0FFD2FF11DE35AFF4FF0829FB73E
:1002C000F8940B8FEA89FB8980818062CFCFCF932E
:1002D000DF93EC01888D8823B9F0AA89BB89E8896E
:1002E000F9898C9185FD03C0808186FD0DC00FB614
:1002F00007FCF7CF8C9185FFF2CF808185FFEDCF92
:10030000CE010E94F800E9CFDF91CF91089580E9F6
:1003100095E00E94EC0021E0892B09F420E0822F77
:10032000089580E090E0892B29F00E9487018111D7
:100330000E94000080E090E0892B49F080E090E08E
:10034000892B29F00E94000081110C94000008956F
:10035000AF92BF92CF92DF92EF92FF920F931F93D3
:10036000CF93DF936C017B018B01040F151FEB0111
:100370005E01AE18BF08C017D10759F06991D601C8
:10038000ED91FC910190F081E02DC6010995892B3A
:1003900079F7C501DF91CF911F910F91FF90EF90F9
:1003A000DF90CF90BF90AF90089581508D3008F0CE
:1003B0003DC0E82FF0E0E152FE4F0C94E81EF6013C
:1003C000FA01EC01F20116021602FD010302070216
:1003D0000D02160211021702809180008F77809320
:1003E00080000895809180008F7DF9CF84B58F774C
:1003F00084BD089584B58F7DFBCF8091B0008F7749
:100400008093B00008958091B0008F7DF9CF8091E6
:1004100090008F77809390000895809190008F7D59
:10042000F9CF8091A0008F778093A00008958091EC
:10043000A0008F7DF9CFCF93DF93282F30E0F90113
:10044000E85FFE4F8491F901E051FF4FD491F9012B
:10045000E852FF4FC491CC23A1F081110E94D50135
:10046000EC2FF0E0EE0FFF1FE453FF4FA591B49186
:10047000EC91ED2381E090E009F480E0DF91CF91F1
:10048000089580E090E0FACF1F93CF93DF93282F59
:1004900030E0F901E85FFE4F8491F901E051FF4F30
:1004A000D491F901E852FF4FC491CC23A9F0162F43
:1004B00081110E94D501EC2FF0E0EE0FFF1FE054F8
:1004C000FF4FA591B4918FB7F894EC91111108C02A
:1004D000D095DE23DC938FBFDF91CF911F910895DC
:1004E000DE2BF8CF60E08FE00E94440260E08EE0F7
:1004F0000E94440260E088E00E94440260E087E0DD
:100500000C944402CF93DF9390E0FC01E051FF4F45
:10051000249188529F4FFC0184918823C9F090E078
:10052000880F991FFC01EC54FF4FA591B491FC0179
:10053000E054FF4FC591D49161110DC09FB7F8945D
:100540008C91209582238C938881282328839FBFB8
:10055000DF91CF910895623051F49FB7F8943C91A8
:10056000822F809583238C93E8812E2BEFCF8FB73A
:10057000F894EC912E2B2C938FBFEACF8E50806491
:1005800080937C0080917A00806480937A008091CF
:100590007A0086FDFCCF80917800909179000895D3
:1005A0003FB7F8948091010590910205A091030551
:1005B000B091040526B5A89B05C02F3F19F0019600
:1005C000A11DB11D3FBFBA2FA92F982F8827BC01AD
:1005D000CD01620F711D811D911D43E0660F771FD4
:1005E000881F991F4A95D1F70895FC017996CB0190
:1005F0000596DB012D91BD012193A817B907C9F715
:1006000008959C0197FF02C0215F3F4F44E035955C
:1006100027954A95E1F74AE0429FF001439FF00D8C
:10062000112460E170E00E94D41E8E0F9F1F089578
:100630006AE070E00E94D41E24E0660F771F2A95BE
:10064000E1F7860F971F08951F93CF93DF93C1E0C3
:10065000C093BC04882399F1D091B8001091BA00DE
:100660008091BC008A7B8093BC0060E082E10E94A4
:10067000440260E083E10E94440210927E05C09330
:100680005D051092580561E082E10E94440261E03C
:1006900083E10E9444028091B9008E7F8093B9006B
:1006A0008091B9008D7F8093B90080E28093B8007B
:1006B00085E48093BC001093BA00D093B800DF911A
:1006C000CF911F910895CF92DF92EF92FF920F93F7
:1006D0001F93CF93DF93D82FC62F613208F098C0B5
:1006E0000E94D0026B017C0180917E0581116BC05C
:1006F00081E080937E0580935D059FEF90935C057C
:1007000010925B059C0F90935A0580935905809138
:100710005905DD0FD82BD0935905809158058130AC
:1007200009F078C0109258050E94D0026B017C013C
:10073000809159058093BB0080918005909181053F
:10074000A0918205B0918305892B8A2B8B2BA1F078
:100750000E94D002009180051091810520918205B0
:10076000309183056C197D098E099F0906171707BB
:100770002807390708F448C08091BC0083FDD8CF12
:1007800085EC8093BC000E94D0026B017C018091BB
:100790007E05813009F440C080915B058C1710F410
:1007A000C0915B05E8E3F5E0AEE5B5E080E08C13D1
:1007B00055C08C2FDF91CF911F910F91FF90EF903B
:1007C000DF90CF9008958091800590918105A09150
:1007D0008205B0918305892B8A2B8B2B09F484CF5A
:1007E0000E94D00200918005109181052091820520
:1007F000309183056C197D098E099F09061717072B
:100800002807390708F070CF80917F050E942403E4
:10081000C0E0CFCF85EEB5CF809180059091810566
:10082000A0918205B0918305892B8A2B8B2B09F42B
:10083000AECF0E94D00200918005109181052091D9
:100840008205309183056C197D098E099F09061771
:1008500017072807390708F09ACFD6CF91919D93B3
:100860008F5FA5CFCF92DF92EF92FF920F931F93EE
:10087000CF93DF93D091370581E0D13208F09CC04F
:10088000C09136050E94D0026B017C0180917E05EB
:1008900081116CC082E080937E0581E080935D05CC
:1008A0008FEF80935C0510925B05D0935A05A6E10B
:1008B000B5E0E8E3F5E080E0D8138DC0109259056B
:1008C00080915905CC0FC82BC093590580915805CC
:1008D000813009F084C0109258050E94D0026B014B
:1008E0007C01809159058093BB0080918005909197
:1008F0008105A0918205B0918305892B8A2B8B2BD2
:10090000A1F00E94D00200918005109181052091F4
:100910008205309183056C197D098E099F090617A0
:1009200017072807390708F442C08091BC0083FDEF
:10093000D8CF85EC8093BC000E94D0026B017C0173
:1009400080917E05823009F44CC080915C058F3F18
:1009500009F469C080915C05803209F466C0809119
:100960005C05803309F463C084E026C08091800573
:1009700090918105A0918205B0918305892B8A2BE6
:100980008B2B09F483CF0E94D00200918005109137
:10099000810520918205309183056C197D098E09AE
:1009A0009F09061717072807390708F06FCF8091AE
:1009B0007F050E94240385E01092150510923705EB
:1009C00010921405DF91CF911F910F91FF90EF903E
:1009D000DF90CF9008959D9191938F5F6DCF85EEBD
:1009E000A9CF8091800590918105A0918205B09159
:1009F0008305892B8A2B8B2B09F4A2CF0E94D0026E
:100A00000091800510918105209182053091830528
:100A10006C197D098E099F090617170728073907E2
:100A200008F08ECFC4CF80E0C7CF82E0C5CF83E08F
:100A3000C3CF2091DD04260F3327331F2132310528
:100A4000ECF420917E05FC0190E080E0243069F018
:100A500082E00895A091DD042191AC0143545B4FE5
:100A6000A40FB52FB11D2C930196861798F3809192
:100A7000DD04680F6093DD0480E0089581E008954F
:100A80000895E091130580911205E81730F4F0E025
:100A9000E25AFA4F808190E008958FEF9FEF08951A
:100AA00090911305809112052FEF3FEF981748F4AE
:100AB000E92FF0E0E25AFA4F208130E09F5F9093F7
:100AC0001305C90108958091120590911305891BA2
:100AD000990B0895CF92DF92EF92FF920F931F939D
:100AE000CF93DF937C01CB018A012091140522234F
:100AF00089F0EB016B01C40ED51ECC15DD0569F044
:100B00006991D701ED91FC910190F081E02DC70131
:100B10000995F3CF642F0E941905C801DF91CF9189
:100B20001F910F91FF90EF90DF90CF900895CF939A
:100B3000DF931F92CDB7DEB769832091140522237E
:100B4000F9F020913705203258F021E030E0FC0127
:100B50003383228390E080E00F90DF91CF9108955E
:100B600080911505E82FF0E0EA5EFA4F99819083B5
:100B70008F5F809315058093370581E090E0ECCF7F
:100B800061E0CE0101960E941905F7CF682F84E835
:100B900095E00C949705CF93DF93EB0121E0209330
:100BA000140528E620933605109215051092370596
:100BB0000E94C605CE010E94C605DF91CF910C941C
:100BC0003204CF92EF92FF920F931F93CF93DF9354
:100BD000F82E162FD42FC22F81E08093140588E6BB
:100BE00080933605109215051092370590E080E04D
:100BF0000E94C6058F2D90E00E9418030E94C60532
:100C0000812F90E00E9418030E94C6058D2F90E06E
:100C10000E9418030E94C6058C2F90E00E941803C2
:100C20000E94C605802F90E00E9418030E94C6050E
:100C30008E2D90E00E9418030E94C6058C2D90E036
:100C40000E9418030E94C605DF91CF911F910F915A
:100C5000FF90EF90CF900C94320490E080E00895E4
:100C6000089508950895089508950895089508959C
:100C7000089508950895089508950895089508958C
:100C8000089508950895089508950895089508957C
:100C900008950895089508950895DC011296ED9140
:100CA000FC91139726A537A52B5F3F4F37A726A7A3
:100CB0001296ED91FC9186A597A58234910514F0CA
:100CC00017A616A60895CF93DF93DC011296ED9137
:100CD000FC9126A537A52134310541F466EE73E079
:100CE000CF01CB96DF91CF910C94F502DF01AC5A86
:100CF000BF4F90E29C9311969C9311969C93EF01A9
:100D0000C95ADF4FC9016AE070E00E94D41E6883AF
:100D1000E85AFF4F8083DF91CF910895FC018281D3
:100D200093816CEE73E0CB960C94F502DC01129685
:100D3000ED91FC91139726A537A52F5F3F4F37A75D
:100D400026A71296ED91FC9186A597A5CC9711F454
:100D500017A616A60895CF93DF93DC011296ED91A6
:100D6000FC9126A537A5DF01AC5ABF4F90E29C93BA
:100D700011969C9311969C93EF01C95ADF4FC901BC
:100D80006AE070E00E94D41E6883E85AFF4F8083B7
:100D9000DF91CF910895DC011296ED91FC911397AC
:100DA00026A537A52F5F3F4F37A726A71296ED91AF
:100DB000FC9186A597A5489711F417A616A6089545
:100DC000CF93DF93DC011296ED91FC9186A597A558
:100DD000EF01CC5ADF4F6AE070E00E94D41E6883B6
:100DE000DF01AB5ABF4F8C93119680E28C93119622
:100DF0008C93E85AFF4F8083DF91CF910895DC01F7
:100E00001296ED91FC91139726A537A52F5F3F4FC2
:100E100037A726A71296ED91FC9186A597A5039773
:100E200011F417A616A60895FC0182819381FC0196
:100E300026A537A562EF73E02115310551F068EF63
:100E400073E02130310529F02230310529F46EEFAD
:100E500073E0CB960C94F5020895FC018281938196
:100E600064E074E0CB960C94F502FC01228133819E
:100E7000F901E657FF4F80819181039664E070E0AD
:100E80000E94D41E93E0981B892FF69792E79083D7
:100E9000319695E49083319690E2908331969AE270
:100EA0009083285A3F4FF90180830895FC01828185
:100EB0009381FC01E459FF4F3081789720E2208331
:100EC000319620833196208331962AE22083885AF6
:100ED0009F4FFC0130830895FC01828193816AE079
:100EE00074E0CB960C94F502CF92EF920F93CF93D0
:100EF000DF93FC01A281B3819E968D919C919F9777
:100F000001969F969C938E939E97A281B3819E9605
:100F10008D919C919F978436910531F484E190E006
:100F20009F969C938E939E970280F381E02DBF0144
:100F3000625A7F4FAF01435A5F4F9F01245A3F4F80
:100F4000CF01855A9F4FEF01C65ADF4FDF01A75AE5
:100F5000BF4FC6A4FB01E080FA010081F9012081A6
:100F6000FC01408168818C910E94E105DF91CF9165
:100F70000F91EF90CF900895CF93DF93DC011296FD
:100F8000ED91FC9186A597A5DF01AC5ABF4F22E3F6
:100F90002C93119620E32C93119620E22C93EF01D1
:100FA000C95ADF4F6AE070E00E94D41E6883E85A95
:100FB000FF4F8083DF91CF910895FC01828193815F
:100FC00060E174E0CB960C94F502AF92BF92CF92A1
:100FD000EF920F93CF93DF93FC01A281B3819E9692
:100FE0008D919C919F9701969F969C938E939E972F
:100FF000A281B3819E968D919C919F970D9731F41C
:1010000081E090E09F969C938E939E970280F3815F
:10101000E02DBF01615A7F4FAF01435A5F4F9F01DF
:10102000245A3F4FCF01855A9F4FEF01C65ADF4FD9
:101030005F01A9E5AA0EB11CDB01CC90E6A4FA0180
:101040000081D9012C91FC0140816881D5018C91EE
:101050000E94E105DF91CF910F91EF90CF90BF906B
:10106000AF900895CF93DF93DC011296ED91FC9140
:1010700086A597A5EF01CC5ADF4F6AE070E00E9489
:10108000D41E6883DF01AB5ABF4F8C93119680E268
:101090008C9311968C93E85AFF4F8083DF91CF9108
:1010A0000895FC018281938166E174E0CB960C94F3
:1010B000F502AF92BF92CF92EF920F93CF93DF934F
:1010C000DC011296ED91FC91139786A597A50196E8
:1010D00097A786A71296CD91DC911397FE01E25A4D
:1010E000FF4FE081F0E03A96EE0FFF1FEC0FFD1F7F
:1010F0008081918101962EA53FA52817390721F4FB
:1011000081E090E09FA78EA71296ED91FC91139736
:10111000EF01C15ADF4F8881837061F42197888184
:10112000823041F486A597A54D9721F481E090E0A7
:1011300097A786A71296ED91FC91BF01615A7F4F48
:10114000AF01425A5F4F9F01245A3F4FCF01855A4A
:101150009F4FEF01C65ADF4F5F01A9E5AA0EB11CF0
:10116000DB01CC90DA01EC9006A5F9012081DC01CD
:101170004C916881F50180810E94E105DF91CF915A
:101180000F91EF90CF90BF90AF900895CF93DF93E2
:10119000DC011296ED91FC9126A537A5DF01AC5A32
:1011A000BF4F90E29C9311969C9311969C93EF01F4
:1011B000C95ADF4FC9016AE070E00E94D41E6883FB
:1011C000E85AFF4F8083DF91CF910895FC0182811F
:1011D00093816CE174E0CB960C94F502AF92BF92D0
:1011E000CF92EF920F93CF93DF93FC01A281B38153
:1011F0009E968D919C919F9701969F969C938E931E
:101200009E97A281B3819E968D919C919F970897FE
:1012100031F481E090E09F969C938E939E9702809C
:10122000F381E02DBF01615A7F4FAF01425A5F4FFA
:101230009F01235A3F4FCF01855A9F4FEF01C65A56
:10124000DF4F5F01A9E5AA0EB11CDB01CC90DA01EA
:10125000EC90D9010C9126A5FC0140816881D50153
:101260008C910E94E105DF91CF910F91EF90CF908B
:10127000BF90AF900895DC0112968D919C91DC0196
:101280009E96ED91FC91FF27EE0FFF1FE80FF91FCF
:1012900060817181CB960C94F502FC01828193816F
:1012A00062E274E0CB960C94F502CF92EF920F932A
:1012B000CF93DF93FC01A281B3819E968D919C9187
:1012C0009F9701969F969C938E939E97A281B38140
:1012D0009E968D919C919F97CC9721F49F961C92FE
:1012E0001E929E970280F381E02DAF01415A5F4F1D
:1012F0009F01225A3F4FCF01835A9F4FEF01C45A9B
:10130000DF4FBF01655A7F4FDA01CC90D901EC90D5
:10131000DC010C912881DB014C9166A580E00E94E4
:10132000E105DF91CF910F91EF90CF900895CF938A
:10133000DF93DC011296ED91FC9126A537A5DF0124
:10134000AC5ABF4F90E29C9311969C9311969C933C
:10135000EF01C95ADF4FC9016AE070E00E94D41E54
:101360006883E85AFF4F8083DF91CF910895FC0195
:101370008281938168E274E0CB960C94F502CF925F
:10138000EF920F93CF93DF93FC01A281B3819E96DE
:101390008D919C919F9701969F969C938E939E977B
:1013A000A281B3819E968D919C919F97489721F43D
:1013B0009F961C921E929E970280F381E02DAF01B2
:1013C000415A5F4F9F01225A3F4FCF01835A9F4F8F
:1013D000EF01C45ADF4FBF01665A7F4FDA01CC904C
:1013E000D901EC90DC010C91288146A5FB016081BC
:1013F00080E00E94E105DF91CF910F91EF90CF90B7
:101400000895CF93DF93DC011296ED91FC9186A5B0
:1014100097A5EF01CC5ADF4F6AE070E00E94D41E1E
:101420006883DF01AB5ABF4F8C93119680E28C9397
:1014300011968C93E85AFF4F8083DF91CF910895E6
:10144000FC01828193816EE274E0CB960C94F502EC
:10145000FC018281938164E374E0CB960C94F502E5
:10146000CF93DF93FC01A281B381D0968C91D0976A
:101470008823A9F1D0961C9282819381DC01AC591A
:10148000BF4F835A9F4FEC0188819C91891B8C939D
:1014900082819381DC01AE59BF4F855A9F4FEC0189
:1014A00088819C91891B8C9382819381DC01AF5947
:1014B000BF4F865A9F4FEC0188819C91891B8C936A
:1014C00082819381FC01E05AFF4F875A9F4FDC01D4
:1014D0008C919081891B8083DF91CF9108959D012C
:1014E000205A3F4FE9018881811139C0CD018F59C0
:1014F0009F4FEC018881811132C0CD018E599F4FE1
:10150000EC01888181112BC081E0D0968C9382817F
:101510009381DC01A05ABF4F875A9F4FEC0188810D
:101520008C9382819381DC01AF59BF4F865A9F4FC4
:10153000EC0188818C9382819381DC01AE59BF4F8D
:10154000855A9F4FEC0188818C9382819381FC01A5
:10155000EC59FF4F835A9F4FDC018C91BCCFE901BE
:101560001882A281B381AF59BF4F1C92A281B3816F
:10157000AE59BF4F1C920280F381E02DEC59FF4F12
:101580001082AACFAF92BF92CF92DF92EF92FF92DA
:101590000F931F93CF93DF93DC011296ED91FC9193
:1015A000DF01A05ABF4F2C9111963C9111964C919E
:1015B00080A9BF016C5A7F4F5B011D976D016E5F63
:1015C0007F4F7B018F01095A1F4FEF01C85ADF4F30
:1015D000882309F452C016968C91A82FA41BBB0B2C
:1015E00060E17EE0A69FC001A79F900DB69F900D81
:1015F0001124DF01A65ABF4F4C91431B550B3CE30E
:10160000349FB001359F700D1124860F971FE75A44
:10161000FF4F3081E32FE21BFF0B9F01280F391F83
:10162000C9016CE370E00E94D41E462F64360CF0B2
:1016300043E6C9016CE370E00E94D41E382F2AE013
:10164000842F622F0E94C61ED5018C93F6019083D1
:1016500081E0D7018C93832F622F0E94C61EF80170
:1016600080839883DF91CF911F910F91FF90EF902E
:10167000DF90CF90BF90AF900895ED5AFF4F2111AA
:1016800004C0311102C0442391F081E0808360E105
:101690007EE0469FC001479F900D1124FCE33F9FD1
:1016A000800D911D1124280F392F311DB9CF81E0F4
:1016B0008083D5011C92F6011082DB018C93F80126
:1016C00010821882CFCF5F926F927F928F929F92FB
:1016D000AF92BF92CF92DF92EF92FF920F931F9340
:1016E000CF93DF93FC01C281D381FE01E858FF4F05
:1016F00040815181628173818E0108591F4FF80129
:10170000C580D680E780F0844A015B018C189D0873
:10171000AE08BF0880819181B0E0A0E088159905EE
:10172000AA05BB0520F0CD28CE28CF2859F5F80111
:10173000458356836783708784E10E94BE02BC01A3
:10174000990F880B990B0E94981D23E333E343E51F
:1017500050E40E944D1E20E030E040E85AE30E9431
:101760004D1E20E030E040E05FE30E947C1C2AE058
:1017700037ED43E25CE30E94EE1CF8016387748757
:1017800085879687F80183849484A584B684FE01B6
:10179000E459FF4F5080CE018C5A9F4F6C017797D0
:1017A0007F018E010A5A1F4F03963C0196E459129D
:1017B00053C020E030E040E151E4C501B4010E9493
:1017C0004D1E20E030E040EA50E40E94EE1C20E094
:1017D00030E040E052E40E947D1C4B015C0120E0BF
:1017E00030E048EC52E40E94EE1C0E94601DF601BD
:1017F000608320E030E040E251E4C501B4010E9482
:10180000EE1C0E94601D8AE0C82ED12CCB01B601CF
:101810000E94D41EF701808380E2F8018083C50115
:10182000B4010E94601DCB01B6010E94D41EF301D9
:101830008083C85ADF4F5882DF91CF911F910F915B
:10184000FF90EF90DF90CF90BF90AF909F908F90E0
:101850007F906F905F90089581E0FE01ED5AFF4FF9
:10186000808320E030E040E251E4C501B4010E94F1
:10187000EE1C0E94601DF6016083C501B4010E9448
:10188000601DCB016AE070E00E94D41EF7018083E6
:1018900080E2F80180838AE2CACFFC0182819381D1
:1018A000FC01E45AFF4FE081F0E0EE0FFF1FE80F6C
:1018B000F91F60817181CB960C94F502FC012281A5
:1018C0003381F901E75AFF4F8081359790E2908389
:1018D000319690833196908331966AE00E94BA1EC9
:1018E0008083285A3F4FF90190830895FC0122819B
:1018F0003381F901ED5AFF4F51E050833A96A081B0
:10190000319680813A974AE0642F0E94BA1E808304
:10191000319690833196508331968A2F0E94BA1E59
:101920008083285A3F4FF901908308950F931F93A6
:10193000CF93DF93EC018B0188819981009739F077
:10194000DC01ED91FC910280F381E02D0995198372
:101950000883F801D383C283DF91CF911F910F9148
:101960000895CF93DF93C82F0E94720260E081E058
:101970000E94440260E082E00E94440260E080E055
:101980000E94440260E084E00E94440260E086E13C
:101990000E94440260E085E00E94440260E086E02C
:1019A0000E94440260E085E10E94440281E080934D
:1019B0000D0510924F06109250061092510610928B
:1019C00052061092490610924A0610924B06109247
:1019D0004C06CC2309F47EC080916800816080931E
:1019E000680080916B00846080936B008091680038
:1019F00082608093680080916C00886080936C00A6
:101A000080917A008093BB0410927A0085B7982F5A
:101A100090668F7D80648093BA0495BF8091BA04EC
:101A200085BF10926F0083B7816083BF88958091D6
:101A30000D05882309F453C0E0912F06F09130067C
:101A400081E081AFEE5AFF4F808310920D058091A7
:101A50003B0690913C0690934E0680934D0683B7CB
:101A60008E7F83BF8091BB0480937A0080910E05A6
:101A700090910F05A0911005B09111058093090573
:101A800090930A05A0930B05B0930C0510924506A0
:101A900010924606109247061092480680916F00F9
:101AA000826080936F0061E085E10E944402C091F2
:101AB0002F06D091300684E090E00E941C1F2CED90
:101AC00033E0FC0131832083BC01CE01DF91CF9153
:101AD0000C94960C1092680010926B0087CFDF91E7
:101AE000CF910895CF93DF93DC011296ED91FC9195
:101AF00046A557A5E058FF4F41345105D1F44FE0BA
:101B000057E260E070E04083518362837383FC019D
:101B1000C281D38184E090E00E941C1F2CED33E051
:101B2000DC012D933C93BC01CE01DF91CF910C944D
:101B3000960C052E000C660B770BE5CF0F931F93C9
:101B4000CF93DF93EC010A811B8184E090E00E9437
:101B50001C1F2CE331E0FC0131832083BC01C80150
:101B60000E94960CEA81FB81DF01A058BF4F8D9146
:101B70009C9197A786A7DF91CF911F910F91089510
:101B8000CF93DF93EC01EA81FB8186A597A50E94A4
:101B90001803BC018BE090E00E94CB0560E870E088
:101BA0008DE090E00E94CB050A80DB81C02D84E0AF
:101BB00090E00E941C1F24E532E0FC013183208369
:101BC000BC01CE01DF91CF910C94960CCF93DF93A3
:101BD000FC01C281D38184E090E00E941C1F24E5B7
:101BE00032E0FC0131832083BC01CE01DF91CF9133
:101BF0000C94960CCF93DF93DC011296ED91FC913F
:101C0000139717A616A61296CD91DC9184E090E06A
:101C10000E941C1F26E631E0FC0131832083BC01B9
:101C2000CE01DF91CF910C94960CCF93DF93FC0102
:101C3000C281D38184E090E00E941C1F2CED33E030
:101C4000FC0131832083BC01CE01DF91CF910C9444
:101C5000960CCF93DF93FC01C281D38184E090E0A6
:101C60000E941C1F24E731E0FC0131832083BC016A
:101C7000CE01DF91CF910C94960CCF93DF93FC01B2
:101C8000C281D38184E090E00E941C1F24E731E0F0
:101C9000FC0131832083BC01CE01DF91CF910C94F4
:101CA000960CCF93DF93FC01C281D38184E090E056
:101CB0000E941C1F2EE931E0FC0131832083BC010E
:101CC000CE01DF91CF910C94960CCF93DF93FC0162
:101CD000C281D38184E090E00E941C1F2CEA31E095
:101CE000FC0131832083BC01CE01DF91CF910C94A4
:101CF000960CCF93DF93FC01C281D38184E090E006
:101D00000E941C1F2CEA31E0FC0131832083BC01BE
:101D1000CE01DF91CF910C94960CCF93DF93DC0131
:101D20001296ED91FC91DF01A15ABF4F2C9130E04A
:101D300037A726A7FC01C281D38184E090E00E94EE
:101D40001C1F2AEB31E0DC012D933C93BC01CE013A
:101D5000DF91CF910C94960CCF93DF93FC01C2815D
:101D6000D38184E090E00E941C1F28EC31E0FC014C
:101D700031832083BC01CE01DF91CF910C94960C6E
:101D8000CF93DF93FC01C281D38184E090E00E9475
:101D90001C1F28EC31E0FC0131832083BC01CE0103
:101DA000DF91CF910C94960CCF93DF93DC011296C8
:101DB000ED91FC91DF01A25ABF4F2C9130E037A783
:101DC00026A7FC01C281D38184E090E00E941C1F01
:101DD00026ED31E0DC012D933C93BC01CE01DF9177
:101DE000CF910C94960CCF93DF93FC01C281D381E9
:101DF00084E090E00E941C1F24EE31E0FC0131835E
:101E00002083BC01CE01DF91CF910C94960CCF932F
:101E1000DF93FC01C281D38184E090E00E941C1F0B
:101E200024EE31E0FC0131832083BC01CE01DF913F
:101E3000CF910C94960CCF93DF93DC011296ED9129
:101E4000FC91DF01A35ABF4F2C9130E037A726A7A2
:101E5000FC01C281D38184E090E00E941C1F22EF2C
:101E600031E0DC012D933C93BC01CE01DF91CF9199
:101E70000C94960CCF93DF93FC01C281D38184E054
:101E800090E00E941C1F20E032E0FC01318320839F
:101E9000BC01CE01DF91CF910C94960CCF93DF93D0
:101EA000FC01C281D38184E090E00E941C1F20E0ED
:101EB00032E0FC0131832083BC01CE01DF91CF9160
:101EC0000C94960CCF93DF93DC011296ED91FC916C
:101ED000DF01A45ABF4F2C9130E037A726A7FC01A1
:101EE000C281D38184E090E00E941C1F2EE032E08A
:101EF000DC012D933C93BC01CE01DF91CF910C947A
:101F0000960CCF93DF93FC01C281D38184E090E0F3
:101F10000E941C1F2CE132E0FC0131832083BC01B4
:101F2000CE01DF91CF910C94960CCF93DF93DC011F
:101F30001296ED91FC911397E95AFF4F2FE62083FB
:101F40001296CD91DC9184E090E00E941C1F2CE160
:101F500032E0FC0131832083BC01CE01DF91CF91BF
:101F60000C94960C0F931F93CF93DF93EC010A818F
:101F70001B8184E090E00E941C1F2AE232E0FC01F9
:101F800031832083BC01C8010E94960CEA81FB8149
:101F9000DF01A65ABF4F8C9190E097A786A7DF91EB
:101FA000CF911F910F910895CF93DF93FC01C281D0
:101FB000D38184E090E00E941C1F28E332E0FC0102
:101FC00031832083BC01CE01DF91CF910C94960C1C
:101FD000CF93DF93FC01C281D38184E090E00E9423
:101FE0001C1F28E332E0FC0131832083BC01CE01B9
:101FF000DF91CF910C94960CCF93DF93DC01129676
:10200000ED91FC91DF01A55ABF4F2C9130E037A72D
:1020100026A7FC01C281D38184E090E00E941C1FAE
:1020200026E432E0DC012D933C93BC01CE01DF912C
:10203000CF910C94960CCF93DF93FC01C281D38196
:1020400084E090E00E941C1F24E731E0FC01318312
:102050002083BC01CE01DF91CF910C94960CCF93DD
:10206000DF93FC01C281D38184E090E00E941C1FB9
:102070002CED33E0FC0131832083BC01CE01DF91E4
:10208000CF910C94960CCF93DF93FC01C281D38146
:1020900084E090E00E941C1F2CED33E0FC013183B2
:1020A0002083BC01CE01DF91CF910C94960CCF938D
:1020B000DF93FC01C281D38184E090E00E941C1F69
:1020C0002CED33E0FC0131832083BC01CE01DF9194
:1020D000CF910C94960CCF93DF93FC01C281D381F6
:1020E00084E090E00E941C1F22E632E0FC01318374
:1020F0002083BC01CE01DF91CF910C94960CCF933D
:10210000DF93FC01C281D38184E090E00E941C1F18
:102110002CED33E0FC0131832083BC01CE01DF9143
:10212000CF910C94960CCF93DF93FC01C281D381A5
:1021300084E090E00E941C1F20E732E0FC01318324
:102140002083BC01CE01DF91CF910C94960CCF93EC
:10215000DF93FC01C281D38184E090E00E941C1FC8
:102160002CED33E0FC0131832083BC01CE01DF91F3
:10217000CF910C94960CCF93DF93FC01C281D38155
:1021800084E090E00E941C1F20E732E0FC013183D4
:102190002083BC01CE01DF91CF910C94960CCF939C
:1021A000DF93FC01C281D38184E090E00E941C1F78
:1021B0002EE732E0FC0131832083BC01CE01DF91A8
:1021C000CF910C94960CCF93DF93FC01C281D38105
:1021D00084E090E00E941C1F20E732E0FC01318384
:1021E0002083BC01CE01DF91CF910C94960CCF934C
:1021F000DF93FC01C281D38184E090E00E941C1F28
:102200002CE832E0FC0131832083BC01CE01DF9158
:10221000CF910C94960CCF93DF93FC0122813381F4
:10222000D901A65ABF4F5C9111968C9117974AE03D
:10223000642F0E94BA1E8C9311969C9311961C9247
:102240001196852F0E94BA1E8C93285A3F4FD901B0
:102250009C93C281D381FE01E457FF4F8081882384
:1022600079F084E090E00E941C1F20E931E0FC013D
:1022700031832083BC01CE01DF91CF910C94960C69
:10228000DF91CF910895CF93DF93FC01019000205F
:10229000E9F73197AF01481B590BBC0180E995E084
:1022A0000E94A801EC0142E050E06AE374E080E99A
:1022B00095E00E94A8018C0F9D1FDF91CF9108959A
:1022C00021E02093140528E6209336051092150589
:1022D000109237050E94C6050E94320461E088E62C
:1022E0000E946303109213058093120584E895E021
:1022F0000C945005CF93DF938FE090E00E94601123
:10230000EC0181E08093140588E6809336051092F5
:102310001505109237058FE090E00E94C605CE01AA
:102320008C7F99270E94C605DF91CF910C943204CF
:10233000EF92FF920F931F93CF93DF937C01DC0109
:1023400012968D919C9189589F4F0E947A11F701A6
:1023500002811381F801E657FF4F80819181049734
:102360000CF05DC061E08FE00E944402F801E65A83
:10237000FF4F2081C22FD0E03196808190E02B3337
:1023800008F042C021968C0161E070E087E090E0A7
:102390000E94CB05C8010E941803BC0189E090E0AF
:1023A0000E94CB05CE010E941803BC0188E090E09A
:1023B0000E94CB0560E870E08AE090E00E94CB05C7
:1023C00065E070E08EE090E00E94CB05D7011296A8
:1023D000ED91FC911397E457FF4F10821296CD9127
:1023E000DC9184E090E00E941C1F22E831E0FC01B7
:1023F00031832083BC01CE01DF91CF911F910F91DA
:10240000FF90EF900C94960CEB978C010F5F1F4F91
:10241000083111050CF4B8CF08511109B5CF11825C
:102420001082D4CFCF93DF93EC018A819B819C01F2
:102430002C573F4FDC01A858BF4F88579F4FFC01D6
:1024400040815181052E000C660B770B8D919D917B
:102450000D90BC91A02D841B950BA60BB70BF90119
:1024600080839183A283B3838A819B8189589F4F04
:102470000E947A11EA81FB81E657FF4F1182108298
:10248000EA81FB81E457FF4F10820A80DB81C02D77
:1024900084E090E00E941C1F2CED33E0FC013183AE
:1024A0002083BC01CE01DF91CF910C94960C0F9349
:1024B0001F93FC0122813381D901A65ABF4F5C9141
:1024C00011968C9117974AE0642F0E94BA1E8C9344
:1024D00011969C9311961C921196852F0E94BA1EFC
:1024E0008C93285A3F4FD9019C9382819381FC01A0
:1024F000E457FF4F2081222329F1DC01A858BF4F68
:102500000D911D912D913C9113971C964D915D91CC
:102510006D917C911397041B150B260B370B1496AA
:102520004D915C91052E000C660B770B40175107FF
:10253000620773073CF4108289589F4F1F910F91D7
:102540000C947A111F910F9108950F931F93CF93BD
:10255000DF93EC01EA81FB8186A597A50E94180311
:10256000BC018CE090E00E94CB058BE090E00E94E3
:1025700060110A811B810E940103F80197A786A7B9
:102580000A80DB81C02D84E090E00E941C1F2AE4B9
:1025900031E0FC0131832083BC01CE01DF91CF917A
:1025A0001F910F910C94960C0F931F93CF93DF9371
:1025B000EC01EA81FB8186A597A582309105D1F4D3
:1025C00064E070E08EE090E00E94CB050A80DB8141
:1025D000C02D84E090E00E941C1F2CED33E0FC0134
:1025E00031832083BC01CE01DF91CF911F910F91E8
:1025F0000C94960C892B21F4E357FF4F81E08083E4
:10260000EA81FB8186A597A5019719F4E357FF4F4F
:10261000108266E070E08EE090E00E94CB058A8137
:102620009B8189589F4F0E947A118CE090E00E9414
:1026300060110A811B810E940103F80197A786A7F8
:102640000A80DB81C02D84E090E00E941C1F28E5F9
:1026500031E0C5CF85ED8093BC00809180059091DD
:102660008105A0918205B09183050796A11DB11D3A
:1026700023E0B695A795979587952A95D1F7209150
:10268000BC0024FD03C010927E0508954091800592
:10269000509181056091820570918305452B462BF1
:1026A000472B69F30097A105B10541F02AE12A956E
:1026B000F1F700C00197A109B109E1CF80917F0531
:1026C0000C9424030C94B81F0C94B81F0C94B81FDE
:1026D0000C94B81F0C94B81F0C94B81F0C94B81F1E
:1026E0000C94B81F0C94B81F0C94B81F0C94B81F0E
:1026F0000C94B81F0C94B81F0C94B81F0C94B81FFE
:102700000C94B81F0C94B81F0C94B81F0C94B81FED
:102710000C94B81F0C94B81F0C94B81F0C94B81FDD
:102720000C94B81F0C94B81F0C94B81F0C94B81FCD
:102730000C94B81F0C94B81FDC011296ED91FC911B
:10274000E459FF4F2081233419F526E42083DC016E
:102750001296ED91FC91E859FF4F6481828193813B
:102760002091B8043091B9042F5F3F4F3093B904E2
:102770002093B80440912D0650912E064115510525
:1027800019F04217530734F48DE394E00C9443118D
:1027900023E4DCCF9C012F5F3F4F213032401CF0FF
:1027A0008FE594E0F3CF0C946E1C1F920F920FB63E
:1027B0000F9211242F933F934F935F936F937F93C7
:1027C0008F939F93AF93BF93EF93FF9380E995E02F
:1027D0000E94F800FF91EF91BF91AF919F918F916F
:1027E0007F916F915F914F913F912F910F900FBE0D
:1027F0000F901F9018951F920F920FB60F921124F1
:102800002F938F939F93EF93FF93E091A005F09107
:10281000A1058081E091A605F091A70582FD1BC06E
:1028200090818091A9058F5F8F732091AA058217EF
:1028300041F0E091A905F0E0E057FA4F958F8093C1
:10284000A905FF91EF919F918F912F910F900FBE4E
:102850000F901F9018958081F4CF1F920F920FB6A2
:102860000F9211242F933F938F939F93AF93BF9316
:102870008091050590910605A0910705B091080586
:102880003091000526E0230F2D3758F50296A11D43
:10289000B11D209300058093050590930605A09334
:1028A0000705B09308058091010590910205A0915C
:1028B0000305B09104050196A11DB11D809301058A
:1028C00090930205A0930305B0930405BF91AF91C7
:1028D0009F918F913F912F910F900FBE0F901F905E
:1028E000189529E8230F0396A11DB11DD2CF0C9492
:1028F000B9001F920F920FB60F9211242F933F939E
:102900004F935F936F937F938F939F93AF93BF93F7
:10291000EF93FF938091B900887F803609F44AC015
:10292000F0F5883209F4A5C018F5803109F499C092
:10293000B8F4882309F4F5C0883009F492C0FF91F7
:10294000EF91BF91AF919F918F917F916F915F9127
:102950004F913F912F910F900FBE0F901F901895A0
:10296000883109F486C0803251F780935C0514C029
:10297000803409F49BC040F48033B9F38833F9F60E
:1029800080935C0585ECAEC0803509F483C0883542
:1029900009F494C0883499F60E942A13D0CF88395C
:1029A00009F48AC038F5883729F050F4883611F0D8
:1029B000803729F683E080937E051092FF0455C08E
:1029C000883809F479C0803919F0803809F0B7CF18
:1029D0008091FF04803208F06FC0E091FF0481E035
:1029E0008E0F8093FF048091BB00F0E0E152FB4F1B
:1029F00080833BC0803B39F0D0F4803A09F477C043
:102A0000883A09F09CCF84E080937E051092DE0422
:102A10001092DD04F0E0E0E009958091DD04811181
:102A20000FC081E08093DD041092BD0409C0803C9A
:102A300009F4A8CF883C09F4A5CF883B09F07FCFE3
:102A4000E091DE0481E08E0F8093DE04F0E0E35439
:102A5000FB4F80818093BB009091DE048091DD0468
:102A600029C0809159058093BB0085EC8093BC0000
:102A700066CF90915B0580915A05981758F5E091C3
:102A80005B0581E08E0F80935B05F0E0E85CFA4F18
:102A90008081E9CFE0915B0581E08E0F80935B053B
:102AA0008091BB00F0E0E85CFA4F808390915B0579
:102AB00080915A059817C8F285E8D8CFE0915B0558
:102AC00081E08E0F80935B058091BB00F0E0E85CB5
:102AD000FA4F808380915D0581115ECF81E0809304
:102AE000580584EA8093BC0010927E0528CF85ECBF
:102AF0008093BC0010927E058091FF04803230F4F8
:102B0000E091FF04F0E0E152FB4F10826091FF047E
:102B100070E08FED94E0F0E0E0E009951092FF04A2
:102B20000ECF10925C0538CF1F920F920FB60F9206
:102B300011242F934F935F936F937F938F939F9362
:102B4000AF93BF93CF93DF93EF93FF9380912F06C3
:102B500090913006FC01E457FF4F2081211117C0EE
:102B6000DC01AC57BF4FEC01C858DF4F4881598199
:102B70006A817B814D935D936D937C93139721E0E4
:102B80002083329780819181019691838083FF9188
:102B9000EF91DF91CF91BF91AF919F918F917F91F5
:102BA0006F915F914F912F910F900FBE0F901F90DB
:102BB00018951F920F920FB60F9211242F933F93E7
:102BC0004F935F936F937F938F939F93AF93BF9335
:102BD000CF93DF93EF93FF93C0912F06D0913006F0
:102BE000C05BDF4F888199819C01255031092530D8
:102BF000310518F08F3091051CF160E085E00E94EE
:102C0000440260E086E00E94440288819981019636
:102C100084319105F1F099838883FF91EF91DF91E1
:102C2000CF91BF91AF919F918F917F916F915F9164
:102C30004F913F912F910F900FBE0F901F901895BD
:102C40008530910514F461E0D9CF0A970597E8F62D
:102C5000FACF19821882E1CF1F920F920FB60F920E
:102C600011240F900FBE0F901F901895EF92FF92B6
:102C70000F931F93CF93DF931092930510929205B9
:102C800088EE93E0A0E0B0E08093940590939505E2
:102C9000A0939605B093970528EB33E03093910508
:102CA0002093900525EC30E030939D0520939C0502
:102CB00024EC30E030939F0520939E0520EC30E01B
:102CC0003093A1052093A00521EC30E03093A305BB
:102CD0002093A20522EC30E03093A5052093A405B3
:102CE00026EC30E03093A7052093A6051092A905A5
:102CF0001092AA051092AB051092AC0504E610E004
:102D000010932E0600932D061092870510928605CB
:102D10008093880590938905A0938A05B0938B05CD
:102D20008AEC93E090938505809384058AE090E097
:102D300090933206809331068FE090E090933406B2
:102D4000809333068EE091E09093360680933506AB
:102D50008FEF90E0909338068093370680EF90E0F5
:102D600090933A068093390684E090E090933C0675
:102D700080933B0683E090E090933E0680933D066F
:102D800082E090E09093400680933F0681E090E0DF
:102D90009093420680934106109244061092430697
:102DA00060E080E10E948202109245061092460681
:102DB00010924706109248061092490610924A0651
:102DC00010924B0610924C0610924E0610924D0631
:102DD00010924F0610925006109251061092520611
:102DE00084E090E00E941C1F7C018CED93E0F701D1
:102DF000918380838EE890E00E941C1FEC01DC012F
:102E00001D921D928EE0E6E0F1E001900D928A9510
:102E1000E1F780ED97E0998B888B86E990E09B8BBA
:102E20008A8B8AE1E4E1F1E0DE01549601900D9293
:102E30008A95E1F71FA61EA688EE93E09EAB8DABA8
:102E400062E089E00E94820262E08AE00E948202DF
:102E50001AAA19AA1CAA1BAA18AE1FAA19AE1AAE42
:102E60008AE0EEE2F1E0DE01DB9601900D928A95B8
:102E7000E1F7FE01EB5BFF4F84EF91E091838083EC
:102E800039961183008361E085E00E94820261E04F
:102E900086E00E94820261E080E00E94820261E09E
:102EA00081E00E94820261E082E00E94820261E091
:102EB00084E00E94820261E086E10E94820260E07A
:102EC00086E10E94440261E085E00E94440260E0E5
:102ED00086E00E944402F8941092800010928100D3
:102EE00010928500109284008EE190E0909389000A
:102EF0008093880080918100886080938100809118
:102F0000810083608093810080916F008260809354
:102F10006F007894FE01E95BFF4F108235961082B6
:102F200031961082359710821182128213823B965D
:102F30001082339711821082329610823796108257
:102F400011821282138214821582168237961082A1
:102F500011821282138214821582168261E08FE040
:102F60000E94820261E08EE00E94820261E088E0BD
:102F70000E94820261E087E00E9482028E0108596D
:102F80001F4F88E893E1F8019183808380E190E00E
:102F90009383828360E084E10E948202F80182814F
:102FA000938101968130924024F08FE594E00E9455
:102FB0004311F801158216821782108683E48483F8
:102FC0001386148615861686FE01E857FF4F88E89B
:102FD00093E191838083B701CE010E94960CD09338
:102FE0003006C0932F06DF91CF911F910F91FF9074
:102FF000EF900895789484B5826084BD84B5816033
:1030000084BD85B5826085BD85B5816085BD8091B3
:103010006E00816080936E0010928100809181002B
:103020008260809381008091810081608093810023
:10303000809180008160809380008091B1008460E5
:103040008093B1008091B00081608093B000809146
:1030500091008260809391008091910081608093C3
:103060009100809190008160809390008091A100F8
:1030700082608093A1008091A10081608093A10073
:103080008091A00081608093A00080917A0084608C
:1030900080937A0080917A00826080937A00809198
:1030A0007A008E7F80937A0080917A008068809386
:1030B0007A001092C10061E085E10E94820260E026
:1030C00085E10E94440283B7817F846083BF81E0F1
:1030D0000E94B10C44E0242E312C8FB7F894C0909C
:1030E0000505D0900605E0900705F09008058FBF14
:1030F000C0920E05D0920F05E0921005F0921105D6
:10310000C0912F06D0913006FE01E858FF4FC082D3
:10311000D182E282F38280914D0690914E062091F9
:103120003B0630913C068217930709F0D8C04091C6
:1031300045065091460660914706709148069701F2
:103140008601041B150B260B370B809131069091DD
:103150003206B0E0A0E080179107A207B30728F07D
:10316000452B462B472B09F067C0C0924506D092ED
:103170004606E0924706F092480680E10E94BE02B1
:10318000EC018090490690904A06A0904B06B090C2
:103190004C06609133067091340690E080E00E9406
:1031A000961D6B017C01AC019B01C501B4010E941D
:1031B000E91C87FF44C0BE0190E080E00E94961D9C
:1031C00020914F0630915006409151065091520681
:1031D0000E947D1C2B013C0140924F0650925006EC
:1031E000609251067092520620E030E040E85FE3C2
:1031F000C501B4010E947D1C4B015C01809249060F
:1032000090924A06A0924B06B0924C06AC019B01EC
:10321000C701B6010E94E91C81110EC0A5019401ED
:10322000C301B2010E94EE1C60934F0670935006DA
:1032300080935106909352060E9491014ECFC09008
:103240004F06D0905006E0905106F09052066091E3
:1032500035067091360690E080E00E94961D9B0135
:10326000AC01C701B6010E94481E18164CF48091AB
:1032700043069091440690934E0680934D06DCCF12
:10328000609137067091380690E080E00E94961DAC
:103290009B01AC01C701B6010E94481E18162CF410
:1032A0008091410690914206E6CF60913906709177
:1032B0003A0690E080E00E94961D9B01AC01C70198
:1032C000B6010E94481E18162CF480913F0690917A
:1032D0004006D1CF80913D0690913E06CCCF209103
:1032E0003D0630913E068217930721F480E00E944C
:1032F000B10CA2CF80910D0581112BC08E010E5A09
:103300001F4FD8018C91882321F161E086E10E9452
:10331000440220914D0630914E0680913F069091D7
:1033200040062817390721F061E082E00E9444023C
:10333000F8011082FE01E458FF4FC082D182E28280
:10334000F382C0920905D0920A05E0920B05F09233
:103350000C0520914D0630914E0680913F069091CC
:1033600040062817390709F491C18AE00E941B0220
:1033700029A93AA9892B31F42F5F3F4F3AAB29ABEA
:1033800010E006C012161306DCF71AAA19AA11E0FB
:1033900089E00E941B022BA93CA9892B31F42F5FE5
:1033A0003F4F3CAB2BAB60E006C012161306DCF7B8
:1033B0001CAA1BAA61E049A95AA98DA99EA92BA9FB
:1033C0003CA9841795070CF07AC2821793070CF07A
:1033D000F4C125E030E038AF2FAB32E03AAF81E006
:1033E0008093140598E69093360510921505109277
:1033F000370590E080E00E94C6050E94320467E035
:1034000088E60E946303109213058093120584E8F6
:1034100095E00E9450058F7799270E940103FE01D5
:10342000E75AFF4F808384E895E00E9450050E9490
:103430000103FE01E65AFF4F808384E895E00E9475
:1034400050058F7399270E940103FE01E55AFF4F33
:10345000808384E895E00E9450050E940103FE01EC
:10346000E45AFF4F808384E895E00E9450050E9453
:103470000103FE01E35AFF4F808384E895E00E9438
:1034800050050E940103FE01E25AFF4F808384E849
:1034900095E00E9450050E940103FE01E15AFF4F92
:1034A000808388819981DC01ED91FC910480F58114
:1034B000E02D09958FA998AD8330910509F4D4C109
:1034C00008F099C18130910509F4BBC1029709F454
:1034D000C2C1C0912F06D091300680900E05909009
:1034E0000F05A0901005B090110520914D06309168
:1034F0004E06809141069091420628173907F1F453
:10350000FE01E458FF4F80819181A281B381B50112
:10351000A401481B590B6A0B7B0B88899989092EDA
:10352000000CAA0BBB0B481759076A077B0730F43E
:103530006DEA74E0CE01CB960E94F5028E01095B24
:103540001F4FF8018081823011F423E020836E0147
:1035500038E4C30ED11CF60180819181A281B38130
:10356000B501A401481B590B6A0B7B0B3E01F5E426
:103570006F0E711CD3018D919C91092E000CAA0B2A
:10358000BB0B481759076A077B0730F0FE01ED5A5D
:10359000FF4F2081222341F021E0FE01EA5AFF4F34
:1035A0008081803209F420E0F8018081FE01E95A2F
:1035B000FF4F9081903209F077C1813009F077C1D7
:1035C00090E0FE01E80FF91FEC5AFF4FE081F12C6B
:1035D000E12CEA3738F4F0E0EE0FFF1FE054FD4F26
:1035E000E080F180880F991FFE01E80FF91F83AD7D
:1035F00094ADE82AF92A222329F0EF96888199814F
:10360000E82AF92A61E084E00E944402D0E0C0E0A8
:10361000C7010C2E02C0969587950A94E2F761E0E7
:1036200080FF60E080E00E9444025A985A9A599ABA
:1036300059982196CC30D10559F760E084E00E947A
:103640004402D8012C912F5F2C93F6018081918147
:10365000A281B381B501A401481B590B6A0B7B0BF6
:10366000D3018D919C91880F991F092E000CAA0BF4
:10367000BB0B84179507A607B70720F480829182B9
:10368000A282B382253011F4D8011C9280914D069C
:1036900090914E0620914106309142068217930781
:1036A00039F020913F06309140068217930781F54B
:1036B000E0912F06F0913006EF01C858DF4FDF018F
:1036C000A458BF4F888199812D913C91821B930B07
:1036D0002089318982179307DCF422893389B90163
:1036E000660F771F0E94D41E821793070CF0E4C068
:1036F00061E08FE00E94440261E08EE00E9444029B
:1037000061E088E00E94440261E087E00E94440298
:10371000E0912F06F0913006C0900E05D0900F0575
:10372000E0901005F090110587A990AD892B41F02C
:10373000C0920905D0920A05E0920B05F0920C05A3
:1037400010AE17AADF01AD5ABF4F1C928091090538
:1037500090910A05A0910B05B0910C05C81AD90AE1
:10376000EA0AFB0AE058FF4F2081318142815381F0
:10377000A0E6BAEE0E94EE1E6052714D8F4F9F4F31
:103780006C157D058E059F0508F056CD80910D05C1
:10379000811152CD81E0ABCD141615060CF493C007
:1037A0008AAD823029F485E090E098AF8FAB17CED8
:1037B00038AE2FAA81E08AAF12CE121613060CF48F
:1037C00082C08AAD823029F4A5E0B0E0B8AFAFABDB
:1037D00006CEE3E0F0E0F8AFEFABECCF112309F455
:1037E000FECD8AAD811103C081E090E0DECF18AE3E
:1037F0001FAA1AAEF4CD8430910509F447C005978D
:1038000009F067CE08811981D8011296CD91DC911B
:1038100084E090E00E941C1F26EB32E0FC01318323
:103820002083BC01CE010E94960CD8011296ED9126
:10383000FC91DF01A058BF4F8D919C9197A786A75F
:1038400048CE88819981DC01ED91FC910680F78159
:10385000E02D09953ECE88819981DC01ED91FC91A6
:103860000084F185E02DF5CFE881F981C281D38113
:1038700084E090E00E941C1F2AE932E0FC013183C1
:103880002083BC01CE010E94960C23CEE881F981F1
:10389000C281D38184E090E00E941C1FE8EAF2E03C
:1038A000DC01ED93FC93EDCF833009F489CE8530B4
:1038B00008F0C7CE20E084CE0E94720229CF821782
:1038C00093070CF469CF662309F488CF8AAD811180
:1038D0008ECF22E030E038AF2FAB81CD262FF99983
:1038E000FECF1FBA92BD81BD20BD0FB6F894FA9AE3
:1038F000F99A0FBE019608955058BB27AA270E9437
:10390000941C0C940E1E0E94001E38F00E94071E8C
:1039100020F039F49F3F19F426F40C94FD1D0EF4A9
:10392000E095E7FB0C94F71DE92F0E941F1E58F34A
:10393000BA17620773078407950720F079F4A6F594
:103940000C94411E0EF4E0950B2EBA2FA02D0B0106
:10395000B90190010C01CA01A0011124FF27591BD4
:1039600099F0593F50F4503E68F11A16F040A22FDA
:10397000232F342F4427585FF3CF4695379527954B
:10398000A795F0405395C9F77EF41F16BA0B620B4A
:10399000730B840BBAF09150A1F0FF0FBB1F661F91
:1039A000771F881FC2F70EC0BA0F621F731F841FD4
:1039B00048F4879577956795B795F7959E3F08F0FA
:1039C000B0CF9395880F08F09927EE0F97958795BC
:1039D00008950E94D31D08F481E008950E94021DFD
:1039E0000C940E1E0E94071E58F00E94001E40F00C
:1039F00029F45F3F29F00C94F71D51110C94421EDD
:103A00000C94FD1D0E941F1E68F39923B1F35523EA
:103A100091F3951B550BBB27AA27621773078407E1
:103A200038F09F5F5F4F220F331F441FAA1FA9F377
:103A300035D00E2E3AF0E0E832D091505040E69565
:103A4000001CCAF72BD0FE2F29D0660F771F881FC6
:103A5000BB1F261737074807AB07B0E809F0BB0BB9
:103A6000802DBF01FF2793585F4F3AF09E3F5105CD
:103A700078F00C94F71D0C94421E5F3FE4F3983EDF
:103A8000D4F3869577956795B795F7959F5FC9F7B6
:103A9000880F911D9695879597F90895E1E0660F37
:103AA000771F881FBB1F621773078407BA0720F0B0
:103AB000621B730B840BBA0BEE1F88F7E095089519
:103AC0000E94671D6894B1110C94421E08950E94D3
:103AD000271E88F09F5798F0B92F9927B751B0F05B
:103AE000E1F0660F771F881F991F1AF0BA95C9F782
:103AF00014C0B13091F00E94411EB1E008950C94C1
:103B0000411E672F782F8827B85F39F0B93FCCF373
:103B1000869577956795B395D9F73EF490958095FE
:103B2000709561957F4F8F4F9F4F0895E89409C01E
:103B300097FB3EF490958095709561957F4F8F4FE0
:103B40009F4F9923A9F0F92F96E9BB279395F695F6
:103B5000879577956795B795F111F8CFFAF4BB0F74
:103B600011F460FF1BC06F5F7F4F8F4F9F4F16C0D8
:103B7000882311F096E911C0772321F09EE8872F62
:103B8000762F05C0662371F096E8862F70E060E01E
:103B90002AF09A95660F771F881FDAF7880F969597
:103BA000879597F90895990F0008550FAA0BE0E83B
:103BB000FEEF16161706E807F907C0F012161306EF
:103BC000E407F50798F0621B730B840B950B39F42F
:103BD0000A2661F0232B242B252B21F408950A2695
:103BE00009F4A140A6958FEF811D811D089597F9D5
:103BF0009F6780E870E060E008959FEF80EC089593
:103C000000240A94161617061806090608950024BB
:103C10000A9412161306140605060895092E039435
:103C2000000C11F4882352F0BB0F40F4BF2B11F4A9
:103C300060FF04C06F5F7F4F8F4F9F4F089557FD08
:103C40009058440F551F59F05F3F71F04795880F0A
:103C500097FB991F61F09F3F79F0879508951216A1
:103C600013061406551FF2CF4695F1DF08C016164D
:103C700017061806991FF1CF8695710561050894FE
:103C80000895E894BB2766277727CB0197F9089515
:103C90000E94D31D08F48FEF08950E94601E0C94BB
:103CA0000E1E0E94001E38F00E94071E20F0952371
:103CB00011F00C94F71D0C94FD1D11240C94421E60
:103CC0000E941F1E70F3959FC1F3950F50E0551F82
:103CD000629FF001729FBB27F00DB11D639FAA2761
:103CE000F00DB11DAA1F649F6627B00DA11D661FB0
:103CF000829F2227B00DA11D621F739FB00DA11DD1
:103D0000621F839FA00D611D221F749F3327A00D8A
:103D1000611D231F849F600D211D822F762F6A2F26
:103D200011249F5750409AF0F1F088234AF0EE0F8B
:103D3000FF1FBB1F661F771F881F91505040A9F7B8
:103D40009E3F510580F00C94F71D0C94421E5F3F7E
:103D5000E4F3983ED4F3869577956795B795F795F4
:103D6000E7959F5FC1F7FE2B880F911D969587956C
:103D700097F90895991B79E004C0991F961708F0E8
:103D8000961B881F7A95C9F78095089587FB082EA2
:103D9000062687FD819567FD61950E94BA1E0EF487
:103DA000919507FC8195089597FB072E16F40094D2
:103DB00007D077FD09D00E94F91E07FC05D03EF41C
:103DC000909581959F4F0895709561957F4F0895C7
:103DD000EE0FFF1F0590F491E02D09940E940D1F36
:103DE000A59F900DB49F900DA49F800D911D11244F
:103DF0000895AA1BBB1B51E107C0AA1FBB1FA61732
:103E0000B70710F0A61BB70B881F991F5A95A9F783
:103E100080959095BC01CD010895A29FB001B39FFC
:103E2000C001A39F700D811D1124911DB29F700DC3
:103E3000811D1124911D08950F931F93CF93DF933C
:103E40008230910510F482E090E0E0915506F09107
:103E5000560630E020E0B0E0A0E0309799F421155C
:103E6000310509F44AC0281B390B24303105D8F537
:103E70008A819B816115710589F1FB01938382839E
:103E8000FE0111C0408151810281138148175907F9
:103E9000E0F04817590799F4109761F012960C93C7
:103EA000129713961C933296CF01DF91CF911F91F9
:103EB0000F9108950093550610935606F4CF2115DF
:103EC000310551F04217530738F0A901DB019A017F
:103ED000BD01DF01F801C1CFEF01F9CF9093560684
:103EE00080935506CDCFFE01E20FF31F819391938E
:103EF0002250310939832883D7CF2091530630913E
:103F00005406232B41F42091020130910301309398
:103F10005406209353062091000130910101211590
:103F2000310541F42DB73EB7409104015091050190
:103F3000241B350BE0915306F0915406E217F3076A
:103F4000A0F42E1B3F0B2817390778F0AC014E5F09
:103F50005F4F2417350748F04E0F5F1F50935406EC
:103F600040935306819391939FCFF0E0E0E09CCF84
:103F7000CF93DF930097E9F0FC013297138212820E
:103F8000A0915506B0915606ED0130E020E0109763
:103F9000A1F420813181820F931F2091530630912B
:103FA00054062817390709F061C0F0935406E093CE
:103FB0005306DF91CF910895EA01CE17DF07E8F5A8
:103FC0004A815B819E0141155105B1F7E901FB83EF
:103FD000EA8349915991C40FD51FEC17FD0761F48D
:103FE000808191810296840F951FE90199838883CE
:103FF000828193819B838A83F0E0E0E012968D9129
:104000009C9113970097B9F52D913C911197CD0193
:104010000296820F931F2091530630915406281761
:10402000390739F6309751F5109256061092550619
:10403000B0935406A0935306BCCFD383C283408170
:104040005181840F951FC817D90761F44E5F5F4FE8
:1040500088819981480F591F518340838A819B81B0
:10406000938382832115310509F0B0CFF093560672
:10407000E09355069ECFFD01DC01C0CF1382128272
:06408000D7CFF894FFCF3A
:10408600000057068000160489048F0495049B04DB
:10409600A104A70400001F001D001F001E001F0032
:1040A6001E001F001F001E001F001E001F00200014
:1040B6000200400000010008000000004C069A13B0
:1040C6006306720D4D06000000004A069613AB0605
:1040D600C00D96060000000049069413E006A512DE
:1040E600CB0600000000480692131407D412FF0600
:1040F60000000000470690132D07FA0DE60D00009C
:10410600000046068E133507150E150E000000003A
:1041160045068C135712121298110000000044062F
:104126008A135607290E9C130000000043068813C5
:104136006C07510E3D0E0000000042068613BC07B8
:10414600650E74070000000041068413DD078D0E1E
:10415600790E00000000400682133208AC0EE50717
:10416600000000003F0680135108D40EC00E000068
:1041760000003E067E13C608F30E59080000000034
:104186003D066213E6081B0F070F000000003C0601
:104196007C133B093A0FEE08000000003B067A1339
:1041A6004D09620F4E0F000000003A06781397097A
:1041B600810F55090000000039067613B709B20FC2
:1041C600950F0000000038067413010AD40FBF09CA
:1041D6000000000037067213200AFC0FE80F0000EB
:1041E600000034066C13630B5710571000000000D4
:1041F60033066A134D0C7F106B1000000000320668
:1042060068135E0CA71093100000000031066613B9
:10421600760CCF10BB100000000035066E13C20AE4
:104226004310300A0000000036067013280A2F10CB
:104236001B10000000004B0698138E069E0D9E0D67
:104246009D02080215061906880699049D040902AE
:104256009D06990600000000000000000000000016
:104266000000000000000000000000000000000048
:104276000000000000000000000000000000000038
:104286000000000000000000000000000000000028
:10429600000000008106000000000000000084000D
:1042A6009D02080215061906880699049D0409024E
:1042B6009D069906000000000000000000000000B6
:1042C60000008D069D0695000000950485040000FB
:1042D6008C06080200000000940009028D029D026F
:1042E600850600000000990400009C0200001802E8
:1042F600000088060000000000000000000000002A
:10430600000000009C0414041C06950685040000A9
:104316008C04040000000000000008040C041C04C7
:10432600000000000404990494041C000000180016
:1043360000009806000000001A01A801BB006701F2
:10434600EC00CA00DE000000000097056A052D0695
:104356004005630550054105000000003006641362
:104366000B11F710E3103939203939005041207408
:1043760059004F6E202020005369204C45004F46BF
:1043860020462000414C204172007445206E6E008C
:104396005945204172004E4E206F6E00646F204ECC
:1043A6004E00646F205555004E4E20696E00486FD2
:1043B600207572005345207420000D0A004578636D
:1043C6006565646564206D6178696D756D206E75CF
:1043D6006D626572206F662077726974657300413D
:1043E6007474656D707420746F20777269746520BB
:1043F6006F757473696465206F6620454550524F2A
:104406004D206D656D6F72790074752045200055DD
:104416005520456400746820752000467220692086
:10442600005341207420005375206E200042412025
:044436004C6F0000C7
:00000001FF
