:020000040000FA
:100000000C9491000C94B9000C94B9000C94BC08A9
:100010000C94B9000C94B9000C94B9000C94B9007C
:100020000C94B9000C94B9000C94B9000C946008BD
:100030000C94B9000C94B9000C94B9000C94B9005C
:100040000C94F9060C94B9000C94C7060C94A10604
:100050000C94B9000C94B9000C94B9000C94B9003C
:100060000C9445070C94B9000C9443070C94430777
:100070000C9443070C9443070C9443070C944307D8
:100080000C9443070C9443070C9443070C944307C8
:100090000C9443070C9443070C9443070C944307B8
:1000A0000C9443070C9443070C9443070C944307A8
:1000B0000C94430700000000240027002A002D00B4
:1000C00000000000250028002B002E00000000008A
:1000D0002300260029002C00040404040404040462
:1000E00002020202020203030303030305050505DE
:1000F00001020408102040800102040810200102BF
:100100000408102004080102090C0A08000201007A
:1001100000030407000000000000000000000000D1
:100120001D0911241FBECFEFD8E0DEBFCDBF12E006
:10013000A0E0B1E0EAECFDE202C005900D92AA3C1D
:10014000B107D9F724E0AAECB2E001C01D92A73AAA
:10015000B207E1F710E0C1E9D0E004C02197FE0149
:100160000E94DD16C039D107C9F70E941C0A0C9401
:10017000E3160C940000E2EAF4E09C012B5F3F4F91
:10018000DC014D91CD014193A217B307C9F7089542
:10019000FC01538D448D252F30E0842F90E0821B8D
:1001A000930B541710F0CF96089501970895FC0112
:1001B000918D828D981761F0A28DAE0FBF2FB11D6A
:1001C0005D968C91928D9F5F9F73928F90E00895C2
:1001D0008FEF9FEF0895FC01918D828D981731F07C
:1001E000828DE80FF11D858D90E008958FEF9FEFD0
:1001F0000895FC01918D228D892F90E0805C9F4FA6
:10020000821B91098F7399270895FC01A48DA80F73
:10021000B92FB11DA35ABF4F2C91848D90E0019648
:100220008F739927848FA689B7892C93A089B18968
:100230008C91837080648C93938D848D981306C009
:100240000288F389E02D80818F7D80830895EF926D
:10025000FF920F931F93CF93DF93EC0181E0888F80
:100260009B8D8C8D98131AC0E889F989808185FF50
:1002700015C09FB7F894EE89FF896083E889F989F2
:1002800080818370806480839FBF81E090E0DF91F4
:10029000CF911F910F91FF90EF900895F62E0B8D47
:1002A00010E00F5F1F4F0F731127E02E8C8D8E1102
:1002B0000CC00FB607FCFACFE889F989808185FF69
:1002C000F5CFCE010E940501F1CFEB8DEC0FFD2F94
:1002D000F11DE35AFF4FF0829FB7F8940B8FEA8924
:1002E000FB8980818062CFCFCF93DF93EC01888D33
:1002F0008823B9F0AA89BB89E889F9898C9185FDA1
:1003000003C0808186FD0DC00FB607FCF7CF8C912E
:1003100085FFF2CF808185FFEDCFCE010E940501E0
:10032000E9CFDF91CF9108958EEA93E00E94F90022
:1003300021E0892B09F420E0822F089580E090E0ED
:10034000892B29F00E94940181110E94000080E015
:1003500090E0892B49F080E090E0892B29F00E9401
:10036000000081110C9400000895AF92BF92CF92CB
:10037000DF92EF92FF920F931F93CF93DF936C0165
:100380007B018B01040F151FEB015E01AE18BF0846
:10039000C017D10759F06991D601ED91FC910190F8
:1003A000F081E02DC6010995892B79F7C501DF9110
:1003B000CF911F910F91FF90EF90DF90CF90BF9062
:1003C000AF90089581508D3008F03DC0E82FF0E0E7
:1003D000E451FE4F0C94DD1603020702F901FF0100
:1003E000230223020A02100214021A0223021E022E
:1003F0002402809180008F778093800008958091FF
:1004000080008F7DF9CF84B58F7784BD089584B542
:100410008F7DFBCF8091B0008F778093B0000895DF
:100420008091B0008F7DF9CF809190008F7780937D
:1004300090000895809190008F7DF9CF8091A00069
:100440008F778093A00008958091A0008F7DF9CFD1
:10045000CF93DF93282F30E0F901E85FFE4F8491BE
:10046000F901E051FF4FD491F901E852FF4FC491D7
:10047000CC23A1F081110E94E201EC2FF0E0EE0FFD
:10048000FF1FE453FF4FA591B491EC91ED2381E060
:1004900090E009F480E0DF91CF91089580E090E052
:1004A000FACF1F93CF93DF93282F30E0F901E85F55
:1004B000FE4F8491F901E051FF4FD491F901E852C8
:1004C000FF4FC491CC23A9F0162F81110E94E201A5
:1004D000EC2FF0E0EE0FFF1FE054FF4FA591B49119
:1004E0008FB7F894EC91111108C0D095DE23DC93FE
:1004F0008FBFDF91CF911F910895DE2BF8CF60E081
:100500008FE00E94510260E08EE00E94510260E0A4
:1005100088E00E94510260E087E00C945102CF9382
:10052000DF9390E0FC01E051FF4F249188529F4FF0
:10053000FC0184918823C9F090E0880F991FFC0189
:10054000EC54FF4FA591B491FC01E054FF4FC591CD
:10055000D49161110DC09FB7F8948C91209582239E
:100560008C938881282328839FBFDF91CF910895A2
:10057000623051F49FB7F8943C91822F8095832389
:100580008C93E8812E2BEFCF8FB7F894EC912E2B24
:100590002C938FBFEACF8E50806480937C00809133
:1005A0007A00806480937A0080917A0086FDFCCF87
:1005B000809178009091790008953FB7F8948091E8
:1005C000150390911603A0911703B091180326B557
:1005D000A89B05C02F3F19F00196A11DB11D3FBF7B
:1005E000BA2FA92F982F8827BC01CD01620F711D4A
:1005F000811D911D43E0660F771F881F991F4A9543
:10060000D1F708951F93CF93DF93C1E0C093D00239
:10061000882399F1D091B8001091BA008091BC0064
:100620008A7B8093BC0060E082E10E94510260E01E
:1006300083E10E94510210928403C09383031092BD
:100640005E0361E082E10E94510261E083E10E9469
:1006500051028091B9008E7F8093B9008091B900DA
:100660008D7F8093B90080E28093B80085E4809309
:10067000BC001093BA00D093B800DF91CF911F91C6
:100680000895CF92DF92EF92FF920F931F93CF9333
:10069000DF93D091AD0381E0D13208F09CC0C091CE
:1006A000AC030E94DD026B017C0180918403811107
:1006B0006CC082E08093840381E0809383038FEF9A
:1006C0008093820310928103D0938003ACE8B3E05F
:1006D000E0E6F3E080E0D8138DC010925F038091D4
:1006E0005F03CC0FC82BC0935F0380915E03813002
:1006F00009F084C010925E030E94DD026B017C0150
:1007000080915F038093BB00809186039091870363
:10071000A0918803B0918903892B8A2B8B2BA1F0A0
:100720000E94DD02009186031091870320918803C7
:10073000309189036C197D098E099F0906171707E7
:100740002807390708F442C08091BC0083FDD8CF48
:1007500085EC8093BC000E94DD026B017C018091DE
:100760008403823009F44CC0809182038F3F09F4E6
:1007700069C080918203803209F466C0809182034F
:10078000803309F463C084E026C080918603909191
:100790008703A0918803B0918903892B8A2B8B2B27
:1007A00009F483CF0E94DD02009186031091870334
:1007B00020918803309189036C197D098E099F0966
:1007C000061717072807390708F06FCF80918503B0
:1007D0000E94020385E010928B031092AD031092E9
:1007E0008A03DF91CF911F910F91FF90EF90DF90DF
:1007F000CF9008959D9191938F5F6DCF85EEA9CF96
:100800008091860390918703A0918803B09189031A
:10081000892B8A2B8B2B09F4A2CF0E94DD02009139
:1008200086031091870320918803309189036C1906
:100830007D098E099F09061717072807390708F051
:100840008ECFC4CF80E0C7CF82E0C5CF83E0C3CFD7
:100850002091F102260F3327331F21323105ECF4AA
:1008600020918403FC0190E080E0243069F082E074
:100870000895A091F1022191AC014F525D4FA40F58
:10088000B52FB11D2C930196861798F38091F10234
:10089000680F6093F10280E0089581E00895089563
:1008A000E091270380912603E81730F4F0E0E85D3B
:1008B000FC4F808190E008958FEF9FEF0895909115
:1008C0002703809126032FEF3FEF981748F4E92F75
:1008D000F0E0E85DFC4F208130E09F5F90932703BC
:1008E000C90108958091260390912703891B990BD4
:1008F0000895CF92DF92EF92FF920F931F93CF93C1
:10090000DF937C01CB018A0120918A03222389F0A5
:10091000EB016B01C40ED51ECC15DD0569F06991A4
:10092000D701ED91FC910190F081E02DC70109956F
:10093000F3CF642F0E942804C801DF91CF911F914B
:100940000F91FF90EF90DF90CF900895CF93DF93BA
:100950001F92CDB7DEB7698320918A032223F9F075
:100960002091AD03203258F021E030E0FC013383C8
:10097000228390E080E00F90DF91CF9108958091E5
:100980008B03E82FF0E0E457FC4F998190838F5F51
:1009900080938B038093AD0381E090E0ECCF61E026
:1009A000CE0101960E942804F7CF682F8BE494E0D3
:1009B0000C94A604CF92DF92EF92FF920F931F93B5
:1009C000CF93DF93C82FD62EF42E122F81E0809381
:1009D0008A0388E68093AC0310928B031092AD03D8
:1009E00090E080E00E94D5048C2F90E0CAE0D0E037
:1009F000BE010E94C91624E0660F771F2A95E1F711
:100A0000860F971F0E94D5048D2D90E0BE010E9495
:100A1000C91634E0660F771F3A95E1F7860F971FE6
:100A20000E94D5048F2D90E0BE010E94C91644E0BB
:100A3000660F771F4A95E1F7860F971F0E94D5042E
:100A4000812F90E0BE010E94C91654E0660F771F07
:100A50005A95E1F7860F971F0E94D504802F90E0EA
:100A6000BE010E94C916E4E0660F771FEA95E1F720
:100A7000860F971F0E94D5048E2D90E0BE010E9424
:100A8000C916F4E0660F771FFA95E1F7860F971FF6
:100A90000E94D5048C2D90E0BE010E94C916A4E0EE
:100AA000660F771FAA95E1F7860F971F0E94D5045E
:100AB000DF91CF911F910F91FF90EF90DF90CF903A
:100AC0000C94410390E080E00895CF93DF93FC0104
:100AD00001900020E9F73197AF01481B590BBC0189
:100AE0008EEA93E00E94B501EC0142E050E06BE435
:100AF00072E08EEA93E00E94B5018C0F9D1FDF919A
:100B0000CF91089520915C0330915D032F5F3F4F9B
:100B100030935D0320935C03409157045091580437
:100B20004115510519F04217530734F48EE492E051
:100B30000E94650580E00895682F80E190E00E94A2
:100B40004F1481E00895CF92EF920F93CF93C82F67
:100B5000E0912403F09125033797ED30F10500F57E
:100B6000EC54FA4F0C94DD16C105D0052E06D005C5
:100B70003B06D0054A06D0055306D0055A06D005D7
:100B80005F06C0906604E0906504009164042091C3
:100B90006304409121036091610480E00E94DA04C3
:100BA0000E947F0260E081E00E94510260E082E0EA
:100BB0000E94510260E080E00E94510260E084E007
:100BC0000E94510260E086E10E94510260E085E0EF
:100BD0000E94510260E086E00E94510260E085E1DF
:100BE0000E94510281E08093570310928504109275
:100BF0008604109287041092880410927F04109249
:100C000080041092810410928204CC2309F45CC009
:100C10008091680081608093680080916B0084609F
:100C200080936B0080917A008093CF0210927A00BB
:100C300085B7982F90668F7D80648093CE0295BF94
:100C40008091CE0285BF10926F0083B7816083BF11
:100C50008895CF910F91EF90CF900895C090660442
:100C6000E090650400916404209163044091620463
:100C70006091210392CFC0906604E09065040091DA
:100C80006404209121034091620460916104809189
:100C9000600484CFC0906604E09065040091210355
:100CA00020916304F0CFC0906604E090210300918E
:100CB0006404F6CFC0902103E0906504F8CF8091E2
:100CC00000010E9482056CCF1092680010926B00A8
:100CD000A9CF85ED8093BC00809186039091870316
:100CE000A0918803B09189030796A11DB11D23E04F
:100CF000B695A795979587952A95D1F72091BC0031
:100D000024FD03C0109284030895409186035091FE
:100D100087036091880370918903452B462B472BED
:100D200069F30097A105B10541F02AE12A95F1F791
:100D300000C00197A109B109E1CF809185030C940E
:100D400002031F920F920FB60F9211242F933F931D
:100D50004F935F936F937F938F939F93AF93BF93C3
:100D6000EF93FF938EEA93E00E940501FF91EF91CC
:100D7000BF91AF919F918F917F916F915F914F91B3
:100D80003F912F910F900FBE0F901F9018951F92BB
:100D90000F920FB60F9211242F938F939F93EF937F
:100DA000FF93E091BE03F091BF038081E091C40303
:100DB000F091C50382FD1BC090818091C7038F5FB6
:100DC0008F732091C803821741F0E091C703F0E0D0
:100DD000E255FC4F958F8093C703FF91EF919F9150
:100DE0008F912F910F900FBE0F901F9018958081BB
:100DF000F4CF1F920F920FB60F9211242F933F93AF
:100E00008F939F93AF93BF938091190390911A038F
:100E1000A0911B03B0911C033091140326E0230F13
:100E20002D3758F50296A11DB11D20931403809310
:100E3000190390931A03A0931B03B0931C03809192
:100E4000150390911603A0911703B0911803019612
:100E5000A11DB11D8093150390931603A093170352
:100E6000B0931803BF91AF919F918F913F912F91B4
:100E70000F900FBE0F901F90189529E8230F03962F
:100E8000A11DB11DD2CF0C94B9001F920F920FB6C5
:100E90000F9211242F933F934F935F936F937F9300
:100EA0008F939F93AF93BF93EF93FF938091B9007C
:100EB000887F803609F44AC0F0F5883209F4A5C06D
:100EC00018F5803109F499C0B8F4882309F4F5C005
:100ED000883009F492C0FF91EF91BF91AF919F913B
:100EE0008F917F916F915F914F913F912F910F90D3
:100EF0000FBE0F901F901895883109F486C080327C
:100F000051F78093820314C0803409F49BC040F4ED
:100F10008033B9F38833F9F68093820385ECAEC051
:100F2000803509F483C0883509F494C0883499F673
:100F30000E946906D0CF883909F48AC038F588370D
:100F400029F050F4883611F0803729F683E0809339
:100F500084031092130355C0883809F479C080398E
:100F600019F0803809F0B7CF80911303803208F070
:100F70006FC0E091130381E08E0F80931303809183
:100F8000BB00F0E0ED50FD4F80833BC0803B39F06B
:100F9000D0F4803A09F477C0883A09F09CCF84E015
:100FA000809384031092F2021092F102F0E0E0E0EC
:100FB00009958091F10281110FC081E08093F102C7
:100FC0001092D10209C0803C09F4A8CF883C09F4F2
:100FD000A5CF883B09F07FCFE091F20281E08E0F30
:100FE0008093F202F0E0EF52FD4F80818093BB00CE
:100FF0009091F2028091F10229C080915F03809369
:10100000BB0085EC8093BC0066CF909181038091FA
:101010008003981758F5E091810381E08E0F80934B
:101020008103F0E0E05AFC4F8081E9CFE091810339
:1010300081E08E0F809381038091BB00F0E0E05A45
:10104000FC4F808390918103809180039817C8F2B0
:1010500085E8D8CFE091810381E08E0F80938103F2
:101060008091BB00F0E0E05AFC4F808380918303C5
:1010700081115ECF81E080935E0384EA8093BC009F
:101080001092840328CF85EC8093BC0010928403D7
:1010900080911303803230F4E0911303F0E0ED50BF
:1010A000FD4F10826091130370E083EF92E0F0E057
:1010B000E0E00995109213030ECF1092820338CF0F
:1010C0001F920F920FB60F9211242F933F934F93BD
:1010D0005F936F937F938F939F93AF93BF93EF93A0
:1010E000FF938FB7F8944091190350911A036091C0
:1010F0001B0370911C038FBF80919E0490919F04ED
:101100009C01285031092230310518F082319105B7
:101110002CF160E085E00E94510260E086E00E94D0
:10112000510280919E0490919F0401968431910513
:10113000F1F090939F0480939E04FF91EF91BF91F3
:10114000AF919F918F917F916F915F914F913F915F
:101150002F910F900FBE0F901F901895883091051A
:1011600014F461E0D7CF0A970897D8F6FACF109217
:101170009F0410929E04E1CF1F920F920FB60F9220
:1011800011242F933F934F935F936F937F938F938C
:101190009F93AF93BF93EF93FF938091570388235F
:1011A000D9F181E0809348038093A0041092570303
:1011B00080917104909172049093840480938304CD
:1011C00083B78E7F83BF8091CF0280937A00109285
:1011D0002503109224038091580390915903A09104
:1011E0005A03B0915B0380934F0390935003A093F5
:1011F0005103B09352031092CA021092CB02109284
:10120000CC021092CD0280916F00826080936F00BB
:1012100061E085E10E945102FF91EF91BF91AF9192
:101220009F918F917F916F915F914F913F912F91FE
:101230000F900FBE0F901F901895CF93DF93EEEA9B
:10124000F3E01382128288EE93E0A0E0B0E08483A2
:101250009583A683B7832BE232E03183208325EC8C
:1012600030E03587248724EC30E03787268720EC70
:1012700030E0318B208B21EC30E0338B228B22EC61
:1012800030E0358B248B26EC30E0378B268B118EAB
:10129000128E138E148EEBE4F4E013821282848398
:1012A0009583A683B7838DE392E09183808384E660
:1012B00090E090935804809357042AE0E1E0F1E035
:1012C000A9E8B4E001900D922A95E1F7C9E8D4E0CD
:1012D0002AEF30E03B872A879C8B8B8B61E085E08F
:1012E0000E948F0261E086E00E948F0261E080E050
:1012F0000E948F0261E081E00E948F0261E082E043
:101300000E948F0261E084E00E948F0261E086E12A
:101310000E948F0260E086E10E94510261E085E058
:101320000E94510260E086E00E945102F8941092FF
:101330008000E1E8F0E010821092850010928400B5
:1013400086E090E090938900809388008081886097
:101350008083808183608083EFE6F0E0808182601B
:10136000808378941C86198A1A8A1D861E861F8699
:10137000188A188E1E8A1D8A1F8AC7E6D4E08AE062
:1013800090E0998388838FE090E09B838A838EE04E
:1013900091E09D838C8384E091E09F838E8380EF36
:1013A00090E09987888784E090E09B878A8783E034
:1013B00090E09D878C8782E090E09F878E8781E018
:1013C00090E0998B888B1B8A1A8A60E080E10E94EA
:1013D0008F021C8A1D8A1E8A1F8A188E198E1A8EE9
:1013E0001B8E1D8E1C8E1E8E1F8E18A219A261E0F0
:1013F0008FE00E948F0261E08EE00E948F0261E028
:1014000088E00E948F0261E087E00E948F02E0E6A0
:10141000F4E01082118212821382148215821682E5
:10142000E9E5F4E01082118212821382148215829F
:101430001682DF91CF910895CF93DF9300D000D033
:10144000CDB7DEB7789484B5826084BD84B5816001
:1014500084BD85B5826085BD85B5816085BD80917F
:101460006E00816080936E001092810080918100F7
:1014700082608093810080918100816080938100EF
:10148000809180008160809380008091B1008460B1
:101490008093B1008091B00081608093B000809112
:1014A000910082608093910080919100816080938F
:1014B0009100809190008160809390008091A100C4
:1014C00082608093A1008091A10081608093A1003F
:1014D0008091A00081608093A00080917A00846058
:1014E00080937A0080917A00826080937A00809164
:1014F0007A008E7F80937A0080917A008068809352
:101500007A001092C10060E084E10E948F0280E1C5
:1015100090E00E9447148093000162E089E00E94FD
:101520008F0262E08AE00E948F0261E085E10E9402
:101530008F0260E085E10E94510283B7817F846061
:1015400083BF81E00E94A30510E1212E312C8FB7CB
:10155000F894C0901903D0901A03E0901B03F09008
:101560001C038FBFC0925803D0925903E0925A03D4
:10157000F0925B0380918304909184042091710424
:10158000309172048217930709F0DCC040917B040C
:1015900050917C0460917D0470917E0497018601D6
:1015A000041B150B260B370B809167049091680480
:1015B000B0E0A0E080179107A207B30728F0452B01
:1015C000462B472B09F06BC0C0927B04D0927C0461
:1015D000E0927D04F0927E0480E10E94CB025C01E7
:1015E000C0907F04D0908004E0908104F090820449
:1015F0006091690470916A0490E080E00E94771520
:1016000069837A838B839C839B01AC01C701B601FC
:101610000E94CA1487FF46C0B50190E080E00E9496
:10162000771520918504309186044091870450916C
:1016300088040E945E144B015C01809285049092A4
:101640008604A0928704B092880420E030E040E84D
:101650005FE3C701B6010E945E146B017C01C0927A
:101660007F04D0928004E0928104F0928204AC0165
:101670009B0169817A818B819C810E94CA148111AE
:101680000EC0A7019601C501B4010E94CF1460935A
:1016900085047093860480938704909388040E9445
:1016A0009E0155CFC0908504D0908604E0908704B9
:1016B000F090880460916B0470916C0490E080E07D
:1016C0000E9477159B01AC01C701B6010E94291643
:1016D00018164CF48091790490917A0490938404C4
:1016E00080938304DCCF60916D0470916E0490E070
:1016F00080E00E9477159B01AC01C701B6010E94F2
:10170000291618162CF48091770490917804E6CF6E
:1017100060916F047091700490E080E00E947715F2
:101720009B01AC01C701B6010E94291618162CF4C2
:101730008091750490917604D1CF8091730490913B
:101740007404CCCF209173043091740482179307F2
:1017500021F480E00E94A305A2CF8091570381115C
:1017600029C08091A004882329F161E086E10E94CC
:1017700051022091830430918404809175049091EA
:1017800076042817390721F061E082E00E945102B7
:101790001092A004C0925303D0925403E0925503D8
:1017A000F0925603C0924F03D0925003E09251033F
:1017B000F092520320918304309184048091750447
:1017C000909176042817390709F43FC38AE00E94F4
:1017D00028022091490330914A03892B41F42F5F5D
:1017E0003F4F30934A032093490310E008C012167C
:1017F0001306DCF710924A031092490311E089E0C6
:101800000E94280220914B0330914C03892B41F414
:101810002F5F3F4F30934C0320934B0340E008C0B1
:1018200012161306DCF710924C0310924B0341E0A2
:1018300080914B0390914C032091490330914A03CE
:10184000293E334014F40C943414893E93400CF434
:101850008EC025E030E030934E0320934D0381E0AD
:101860008093480381E080938A0388E68093AC03E9
:1018700010928B031092AD0390E080E00E94D5049B
:101880000E9441030E94DD026B017C018091840370
:10189000811192C081E080938403809383039FEF42
:1018A000909382031092810396E09093800380933B
:1018B0005F0380915F03806D80935F0380915E037F
:1018C000813009F07EC110925E030E94DD026B013F
:1018D0007C0180915F038093BB008091860390918F
:1018E0008703A0918803B0918903892B8A2B8B2BC6
:1018F000A1F00E94DD0200918603109187032091E0
:101900008803309189036C197D098E099F09061798
:1019100017072807390708F470C08091BC0083FDC1
:10192000D8CF85EC8093BC000E94DD026B017C0166
:1019300080918403813009F446C18091810387300E
:1019400008F063C180918103E0E6F3E0A8E2B3E030
:1019500090E0981709F456C021912D939F5FF9CF1D
:1019600044E050E050934E0340934D0378CF83E022
:1019700090E090934E0380934D0371CF8091480384
:10198000811113C0112309F46DCF80914803811197
:1019900007C021E030E030934E0320934D0362CF27
:1019A00080914803882309F45DCF10924E03109272
:1019B0004D031092480356CF809186039091870380
:1019C000A0918803B0918903892B8A2B8B2B09F472
:1019D0005DCF0E94DD020091860310918703209164
:1019E0008803309189036C197D098E099F090617B8
:1019F00017072807390708F049CF809185030E940F
:101A0000020380E010922703809326038BE494E086
:101A10000E945F04AC01B4E055954795BA95E1F793
:101A2000477055276AE0649F9001659F300D11242F
:101A30008F709927820F931F809360048BE494E04A
:101A40000E945F04AC0197FF02C0415F5F4FF4E06A
:101A500055954795FA95E1F71AE0149F9001159F67
:101A6000300D1124B1010E94C916820F931F80937B
:101A700061048BE494E00E945F04AC01A4E05595FE
:101A80004795AA95E1F743705527149F9001159F3C
:101A9000300D11248F709927820F931F8093620459
:101AA0008BE494E00E945F04AC0197FF02C0415FA9
:101AB0005F4FE4E055954795EA95E1F76AE0649F4A
:101AC0009001659F300D1124B1010E94C916820F4B
:101AD000931F809363048BE494E00E945F04AC0145
:101AE00097FF02C0415F5F4F74E0559547957A9527
:101AF000E1F76AE0649F9001659F300D1124B10108
:101B00000E94C916820F931F809364048BE494E0B3
:101B10000E945F04AC0197FF02C0415F5F4F64E029
:101B2000559547956A95E1F76AE0649F9001659F36
:101B3000300D1124B1010E94C916820F931F8093AA
:101B400065048BE494E00E945F049C0197FF02C04F
:101B5000215F3F4F44E0359527954A95E1F74AE0EC
:101B6000429F6001439FD00C1124B1010E94C9160D
:101B7000C80ED91EC0926604E0912403F09125039B
:101B800080904D0390904E03E531F10508F05EC062
:101B9000E453F24F0C94DD16070E9D0FC60FE50FB0
:101BA000FD0F73118811A211D511F5112A124312DC
:101BB00078129112E912041340135D139913AC13B8
:101BC000B71085EEAFCE8091860390918703A091E8
:101BD0008803B0918903892B8A2B8B2B09F4A8CE1B
:101BE0000E94DD02009186031091870320918803F3
:101BF000309189036C197D098E099F090617170713
:101C00002807390708F094CEF8CE87E09DCE3091B2
:101C10006104809162042AE0622F0E949B168093E7
:101C2000A2049093A30481E08093A404832F0E94D4
:101C30009B168093A5049093A60431E0831691042B
:101C400009F073C1909225038092240380914D0383
:101C500090914E038430910509F0A6C545E050E00F
:101C60005093250340932403809058039090590388
:101C7000A0905A03B0905B032091830430918404B8
:101C8000809177049091780428173907C9F48091DE
:101C9000530390915403A0915503B0915603A501AD
:101CA0009401281B390B4A0B5B0BDA01C901803DFB
:101CB0009740A105B10520F480EA92E00E94BB00A4
:101CC00080919504823019F483E08093950480918B
:101CD0009B04811110929B0480919604909197042B
:101CE000A0919804B0919904B501A401481B590B27
:101CF0006A0B7B0B8091930490919404092E000C45
:101D0000AA0BBB0B481759076A077B0720F04091C5
:101D1000A104442331F041E08091A404803209F40D
:101D200040E0209195048091A504803209F046C5D9
:101D3000213009F046C5822F90E0FC01E757FB4FA8
:101D4000E18D211143C520919A04222309F46DC528
:101D5000F12CE12CEA3738F4F0E0EE0FFF1FE55FDD
:101D6000FE4FE080F18054E8E522FF2421E020933B
:101D70009B0410929A04880F991FFC01E757FB4FB0
:101D800080819181E82AF92A442331F080918D04E1
:101D900090918E04E82AF92A61E084E00E945102C1
:101DA000D12CC12CC7010C2C02C0969587950A94A2
:101DB000E2F761E080FF60E080E00E9451025A9803
:101DC0005A9A599A59982FEFC21AD20A3CE0C31670
:101DD000D10441F760E084E00E94510280919504B3
:101DE00090919A04992319F0982F9B7F19F08F5F97
:101DF000809395048091960490919704A091980403
:101E0000B0919904B501A401481B590B6A0B7B0BD7
:101E10008091930490919404880F991F092E000CCF
:101E2000AA0BBB0B84179507A607B70740F480924F
:101E3000960490929704A0929804B092990480918D
:101E40009504853011F4109295048091830490914B
:101E5000840420917704309178048217930739F035
:101E600020917504309176048217930751F54091C3
:101E70005303509154036091550370915603809120
:101E8000580390915903841B950B803D47E09407BC
:101E9000C0F46CE271E00E94B5168639910508F035
:101EA000E0C461E08FE00E94510261E08EE00E9498
:101EB000510261E088E00E94510261E087E00E94E7
:101EC0005102409158035091590360915A03709107
:101ED0005B0380914D0390914E03892B41F0409319
:101EE0004F03509350036093510370935203109229
:101EF0004E0310924D031092A10480914F039091D4
:101F00005003A0915103B0915203481B590B6A0B27
:101F10007B0B493A51466105710508F4C0CB8091AD
:101F200057038111BCCB81E015CC42E084169104AB
:101F300009F08CCE83E090E01EC031E03093A10424
:101F400040916404809165042AE0622F0E949B16F0
:101F50008093A2049093A3043093A404842F0E943E
:101F60009B168093A5049093A60451E085169104D6
:101F700039F482E090E0909325038093240366CEA9
:101F800092E08916910409F061CED4CF809160046B
:101F900090E29093A2049093A3049093A4046AE027
:101FA0000E949B168093A5049093A604E1E08E16F0
:101FB000910429F4109225031092240347CE22E0C5
:101FC0008216910409F042CEB5CFE0916304E1504E
:101FD000FF0BEE0FFF1FE150FE4F808191810E94A9
:101FE000BB0031E08316910429F384E090E042E0E5
:101FF0008416910409F02ACEBECF809158039091A7
:102000005903A0915A03B0915B0340911D03509175
:102010001E0360911F03709120038C019D01041B1E
:10202000150B260B370B093E13402105310520F413
:10203000452B462B472B59F580931D0390931E0388
:10204000A0931F03B093200384E10E94CB02BC0144
:10205000990F880B990B0E94791523E333E343E52D
:1020600050E40E942E1620E030E040E85AE30E943F
:102070002E1620E030E040E05FE30E945D142AE08D
:1020800037ED43E25CE30E94CF142B013C01109139
:102090000001163409F04CC020E030E040E151E48A
:1020A000C301B2010E942E1620E030E040EA50E465
:1020B0000E94CF1420E030E040E052E40E945E1421
:1020C0006B017C0120E030E048EC52E40E94CF1428
:1020D0000E9441156093A20420E030E040E251E408
:1020E000C701B6010E94CF140E944115CB016AE0DE
:1020F00070E00E94C9168093A30480E28093A40438
:10210000C701B6010E944115CB016AE070E00E9450
:10211000C9168093A5041093A60421E082169104A9
:1021200009F448CF32E08316910409F08FCD42CFF5
:1021300081E08093A10420E030E040E251E4C3015B
:10214000B2010E94CF140E9441156093A204C30102
:10215000B2010E944115CB016AE070E00E94C916ED
:102160008093A30480E28093A4048AE2D2CFF0910A
:10217000590440915B04E0915A0410912303112308
:1021800009F468C080916204841B990B60E17EE0D1
:10219000869F9001879F300D969F300D112480916E
:1021A00061048E1B990B5CE3589FB001599F700D21
:1021B0001124260F371F809160048F1B990B280F65
:1021C000391FC9016CE370E00E94C916062F6436FE
:1021D0000CF003E6C9016CE370E00E94C916382FC9
:1021E0002AE0802F622F0E94A7168093A20490936A
:1021F000A30481E08093A404832F622F0E94A7167A
:102200008093A5049093A60481E08816910409F4B4
:10221000D1CE92E08916910409F018CD112309F46A
:102220003FC0109223038091640490915D04891B48
:1022300080935D0480916204841B80935B04809191
:1022400061048E1B80935A04809160048F1B8093DD
:102250005904FCCCF11104C0E11102C0442391F0F7
:1022600081E08093A10480E19EE0489F9001499F16
:10227000300D11245CE3E59F200D311D11242F0F3B
:10228000311D9FCF81E08093A1041092A20410928F
:10229000A3048093A4041092A5041092A604B4CFC2
:1022A000F11118C0E11116C0411114C081E08093F2
:1022B000230380916004809359048091610480938A
:1022C0005A048091620480935B048091640480933B
:1022D0005D04BCCC1092590410925A0410925B0415
:1022E00010925D04B3CC80E792E00E94BB00E1E075
:1022F0008E16910409F45ECE46E050E022E082168C
:10230000910409F0A3CC50932503409324039ECC61
:1023100086E792E00E94BB0051E08516910451F4DB
:1023200087E090E0909325038093240380916204DA
:1023300090E039C182E08816910409F087CC88E0EA
:1023400090E019CEE0912103F0912203CF016AE0E1
:1023500070E00E94B5166093A2048093A30480E20B
:102360008093A4048093A5048093A60492E0891628
:10237000910451F43196E831F10509F453C0F0931A
:102380002203E093210362CC8A94892809F05ECC71
:10239000E090650400916404209163044E2F6091E5
:1023A000610480E00E94DA04CACF8CE792E00E94C8
:1023B000BB0031E08316910449F489E090E09093EA
:1023C00025038093240380916104B2CF42E08416F8
:1023D000910409F03BCC8AE090E090932503809330
:1023E00024038FE68093A50431CCE0912103F09182
:1023F000220380E28093A2048093A3048093A40428
:10240000CF016AE070E00E94B5166093A504809346
:10241000A60492E08916910451F43196EC33F1054B
:1024200009F0ADCF10922203109221030FCC8A94B1
:10243000892809F00BCCE090650400916404209198
:102440006304409162046E2F80E00E94DA044AE047
:1024500050E059CF82E892E00E94BB0051E085161F
:10246000910449F48BE090E090932503809324033A
:10247000809163045DCF82E08816910409F0E6CB79
:102480008CE090E078CDA0902103B09022032A2D1B
:102490002150330BF901EE0FFF1FE150FE4F8081F9
:1024A00091810E94BB0032E08316910469F44FEFE2
:1024B000A41AB40A58E0A516B10409F472C0B09287
:1024C0002203A0922103C2CB8A94892809F0BECBB3
:1024D000C0906604E0906504009164042A2D409148
:1024E000620460916104809160040E94DA04C8CFA4
:1024F00088E892E00E94BB00E1E08E16910449F466
:102500008DE090E0909325038093240380916404F0
:102510000FCF22E08216910409F098CB8EE090E074
:102520002ACD009121031091220380E28093A2041E
:102530008093A3048093A404C8016AE070E00E9421
:10254000B5166093A5048093A60432E08316910427
:1025500079F50F5F1F4F1093220300932103209101
:102560006504E22FF0E0EE0FFF1FE35FFD4F808177
:10257000918101960817190731F441E050E050931A
:102580002203409321038C2D837009F05FCB22300E
:1025900009F05CCB80912103909122034D9709F0C3
:1025A00055CB81E090E090932203809321034ECBA2
:1025B0008A94892809F04ACBE0906504209163044D
:1025C0004091620460916104809160040E94DA0489
:1025D000A5CF8EE892E00E94BB00E1E08E16910448
:1025E00049F42FE030E030932503209324038091B9
:1025F00065049ECE32E08316910409F027CB309219
:1026000025032092240322CBE0902103F0902203A3
:10261000C7016AE070E00E94B5166093A20480933F
:10262000A30480E28093A4048093A5048093A6046D
:1026300042E08416910499F45FEFE51AF50A8DE003
:10264000E816F10429F0F0922203E0922103FECA79
:1026500021E030E03093220320932103F7CA8A94CB
:10266000892809F0F3CA0091640420916304409121
:10267000620460916104809160040E94DA04BFCF1B
:1026800084E992E00E94BB0041E08416910449F481
:1026900081E190E090932503809324038091660468
:1026A00047CE92E08916910409F0D0CA22E130E0C9
:1026B0003093250320932403C9CAC0902103D090EE
:1026C000220382E38093A20480E38093A30480E248
:1026D0008093A404C6016AE070E00E94B51660937E
:1026E000A5048093A60432E08316910479F44FEF99
:1026F000C41AD40A54E6C516D10429F0D092220394
:10270000C0922103A3CA84E190E04DCF8A94892826
:1027100009F09CCAE0906504009164042091630470
:102720004091620460916104809160040E94DA0427
:10273000BDCF8AE992E00E94BB0031E0831691048C
:1027400019F443E150E0DFCD86E090E052E08516D9
:10275000910409F07BCA0FCC8091000190E2909324
:10276000A2049093A3049093A4049AE29093A504E6
:102770008093A60491E08916910449F426E030E0A4
:1027800030932503209324030E9482055FCA32E020
:102790008316910409F05ACA833421F486E48093A5
:1027A000000154CA83E4FBCF039709F05DCA84E1BA
:1027B00090E0909325038093240356CA233009F4B4
:1027C000BACA253008F00ACB40E0B5CA2430E1F59A
:1027D00020919A04222349F1F12CE12CEA3738F4B4
:1027E000F0E0EE0FFF1FE55FFE4FE080F180E8E0D4
:1027F000EE22E2E0FE2251E050939B0410929A04F4
:1028000020919C0430919D04121613064CF05093B5
:102810009A042F5F3F4F30939D0420939C04ABCAD2
:1028200010929D0410929C04A6CAF12CE12CEA3768
:1028300038F4F0E0EE0FFF1FE55FFE4FE080F1801F
:1028400021E020939A0497CAF12CE12CEA3708F092
:1028500092CAF0E0EE0FFF1FE55FFE4FE080F180CF
:102860008ACA0E947F022DCB893E93400CF078C823
:10287000442309F487C88091480381117FC882E00E
:1028800090E090934E0380934D030C94320CF99991
:10289000FECF92BD81BDF89A992780B50895262F65
:1028A000F999FECF1FBA92BD81BD20BD0FB6F89435
:1028B000FA9AF99A0FBE019608955058BB27AA2795
:1028C0000E9475140C94EF150E94E11538F00E94D7
:1028D000E81520F039F49F3F19F426F40C94DE1526
:1028E0000EF4E095E7FB0C94D815E92F0E94001632
:1028F00058F3BA17620773078407950720F079F435
:10290000A6F50C9422160EF4E0950B2EBA2FA02DEE
:102910000B01B90190010C01CA01A0011124FF278C
:10292000591B99F0593F50F4503E68F11A16F04087
:10293000A22F232F342F4427585FF3CF4695379586
:102940002795A795F0405395C9F77EF41F16BA0B4B
:10295000620B730B840BBAF09150A1F0FF0FBB1FF9
:10296000661F771F881FC2F70EC0BA0F621F731F42
:10297000841F48F4879577956795B795F7959E3F9F
:1029800008F0B0CF9395880F08F09927EE0F979530
:10299000879508950E94B41508F481E008950E9477
:1029A000E3140C94EF150E94E81558F00E94E1150D
:1029B00040F029F45F3F29F00C94D81551110C9484
:1029C00023160C94DE150E94001668F39923B1F3C8
:1029D000552391F3951B550BBB27AA276217730745
:1029E000840738F09F5F5F4F220F331F441FAA1FD9
:1029F000A9F335D00E2E3AF0E0E832D09150504095
:102A0000E695001CCAF72BD0FE2F29D0660F771F42
:102A1000881FBB1F261737074807AB07B0E809F028
:102A2000BB0B802DBF01FF2793585F4F3AF09E3FAD
:102A3000510578F00C94D8150C9423165F3FE4F3FD
:102A4000983ED4F3869577956795B795F7959F5FF0
:102A5000C9F7880F911D9695879597F90895E1E03C
:102A6000660F771F881FBB1F621773078407BA079B
:102A700020F0621B730B840BBA0BEE1F88F7E095F6
:102A800008950E9448156894B1110C942316089576
:102A90000E94081688F09F5798F0B92F9927B751D0
:102AA000B0F0E1F0660F771F881F991F1AF0BA95F2
:102AB000C9F714C0B13091F00E942216B1E0089518
:102AC0000C942216672F782F8827B85F39F0B93F0A
:102AD000CCF3869577956795B395D9F73EF49095A5
:102AE0008095709561957F4F8F4F9F4F0895E89423
:102AF00009C097FB3EF490958095709561957F4F46
:102B00008F4F9F4F9923A9F0F92F96E9BB279395F3
:102B1000F695879577956795B795F111F8CFFAF403
:102B2000BB0F11F460FF1BC06F5F7F4F8F4F9F4F34
:102B300016C0882311F096E911C0772321F09EE892
:102B4000872F762F05C0662371F096E8862F70E0F8
:102B500060E02AF09A95660F771F881FDAF7880FD2
:102B60009695879597F90895990F0008550FAA0B28
:102B7000E0E8FEEF16161706E807F907C0F0121690
:102B80001306E407F50798F0621B730B840B950B93
:102B900039F40A2661F0232B242B252B21F40895E8
:102BA0000A2609F4A140A6958FEF811D811D089585
:102BB00097F99F6780E870E060E008959FEF80ECF0
:102BC000089500240A941616170618060906089593
:102BD00000240A9412161306140605060895092EF9
:102BE0000394000C11F4882352F0BB0F40F4BF2B68
:102BF00011F460FF04C06F5F7F4F8F4F9F4F0895A8
:102C000057FD9058440F551F59F05F3F71F047959D
:102C1000880F97FB991F61F09F3F79F08795089582
:102C2000121613061406551FF2CF4695F1DF08C0A1
:102C3000161617061806991FF1CF869571056105BE
:102C400008940895E894BB2766277727CB0197F966
:102C500008950E94B41508F48FEF08950E9441165C
:102C60000C94EF150E94E11538F00E94E81520F051
:102C7000952311F00C94D8150C94DE1511240C94A6
:102C800023160E94001670F3959FC1F3950F50E034
:102C9000551F629FF001729FBB27F00DB11D639F0E
:102CA000AA27F00DB11DAA1F649F6627B00DA11DB4
:102CB000661F829F2227B00DA11D621F739FB00D5A
:102CC000A11D621F839FA00D611D221F749F3327CA
:102CD000A00D611D231F849F600D211D822F762F63
:102CE0006A2F11249F5750409AF0F1F088234AF040
:102CF000EE0FFF1FBB1F661F771F881F91505040AC
:102D0000A9F79E3F510580F00C94D8150C9423161A
:102D10005F3FE4F3983ED4F3869577956795B79532
:102D2000F795E7959F5FC1F7FE2B880F911D96954C
:102D3000879597F90895991B79E004C0991F961714
:102D400008F0961B881F7A95C9F78095089587FB30
:102D5000082E062687FD819567FD61950E949B16CA
:102D60000EF4919507FC81950895AA1BBB1B51E1B8
:102D700007C0AA1FBB1FA617B70710F0A61BB70BEB
:102D8000881F991F5A95A9F780959095BC01CD0190
:102D9000089597FB072E16F4009407D077FD09D00D
:102DA0000E94B51607FC05D03EF4909581959F4F83
:102DB0000895709561957F4F0895EE0FFF1F059060
:102DC000F491E02D0994F894FFCF202000020040F8
:102DD00000000100089D02080215061906880699E0
:102DE000049D0409029D06990600000000000000F1
:102DF00000000000000000000000000000000000D3
:102E000000000000000000000000000000000000C2
:102E100000000000000000000000000000000000B2
:102E2000000000000000000000810600000000001B
:102E300000000084009D0208021506190688069904
:102E4000049D0409029D0699060000000000000090
:102E5000000000000000008D069D06950000009512
:102E600004850400008C060802000000009400099C
:102E7000028D029D02850600000000990400009C5E
:102E80000200001802000088060000000000000098
:102E90000000000000000000009C0414041C0695C3
:102EA00006850400008C04040000000000000008F7
:102EB000040C041C04000000000404990494041C85
:102EC0000000001800000098068E02A602AC02B2B4
:102ED00002B802BE02C40200001F001D001F001E37
:102EE000001F001E001F001F001E001F001E001FED
:102EF00000000000002701B501C8007401F900D7E7
:102F000000EB0000000000A604790462054F047283
:102F1000045F0450040D0A004578636565646564C8
:102F2000206D6178696D756D206E756D62657220BA
:102F30006F662077726974657300534520742000B2
:102F4000486F207572004E4E20696E00646F2055E8
:102F50005500646F204E4E004E4E206F6E00594556
:102F6000204172007445206E6E004241204C6F007B
:102F700074752045200055552045640074682075FF
:102F800020004672206920005341207420005375B0
:042F9000206E20008F
:107E0000112484B714BE81FFF1D085E080938100F6
:107E1000589A82E08093C00088E18093C10086E098
:107E20008093C20080E18093C4008EE0C9D0259A7F
:107E300086E028E13EEF91E03093850020938400B6
:107E400096BBB09BFECF1D9AA8958150A9F7CC2474
:107E5000DD2488248394B5E0AB2EA1E19A2EF3E0D3
:107E6000BF2EA2D0813461F49FD0082FAFD002384A
:107E700011F0013811F484E001C083E08DD089C095
:107E8000823411F484E103C0853419F485E0A6D06E
:107E900080C0853579F488D0E82EFF2485D0082F5E
:107EA00010E0102F00270E291F29000F111F8ED060
:107EB00068016FC0863521F484E090D080E0DECF89
:107EC000843609F040C070D06FD0082F6DD080E0AC
:107ED000C81680E7D80618F4F601B7BEE895C0E0EA
:107EE000D1E062D089930C17E1F7F0E0CF16F0E70C
:107EF000DF0618F0F601B7BEE89568D007B600FCBB
:107F0000FDCFA601A0E0B1E02C9130E011968C915C
:107F1000119790E0982F8827822B932B1296FA01C5
:107F20000C0187BEE89511244E5F5F4FF1E0A03849
:107F3000BF0751F7F601A7BEE89507B600FCFDCFD5
:107F400097BEE89526C08437B1F42ED02DD0F82EF8
:107F50002BD03CD0F601EF2C8F010F5F1F4F849187
:107F60001BD0EA94F801C1F70894C11CD11CFA9403
:107F7000CF0CD11C0EC0853739F428D08EE10CD03F
:107F800085E90AD086E17ACF813511F488E018D0EE
:107F90001DD080E101D065CF982F8091C00085FF72
:107FA000FCCF9093C60008958091C00087FFFCCF5E
:107FB0008091C00084FD01C0A8958091C6000895FD
:107FC000E0E6F0E098E1908380830895EDDF803271
:107FD00019F088E0F5DFFFCF84E1DECF1F93182F83
:107FE000E3DF1150E9F7F2DF1F91089580E0E8DF49
:067FF000EE27FF270994B3
:027FFE00040479
:00000001FF
