:100000000C9491000C94B9000C94B9000C945618FF
:100010000C94BE170C94B9000C94B9000C94B90060
:100020000C94B9000C94B9000C94B9000C9403180A
:100030000C94B9000C94B9000C94B9000C94B9005C
:100040000C9457160C94B9000C9425160C94FF15BB
:100050000C94B9000C94B9000C94B9000C94B9003C
:100060000C94A3160C94B9000C94A1160C94A11630
:100070000C94A1160C94A1160C94A1160C94A11624
:100080000C94A1160C94A1160C94A1160C94A11614
:100090000C94A1160C94A1160C94A1160C94A11604
:1000A0000C94A1160C94A1160C94A1160C94A116F4
:1000B0000C94A11600000000240027002A002D0047
:1000C00000000000250028002B002E00000000008A
:1000D0002300260029002C00040404040404040462
:1000E00002020202020203030303030305050505DE
:1000F00001020408102040800102040810200102BF
:100100000408102004080102090C0A08000201007A
:1001100000030407000000000000000000000000D1
:10012000601811241FBECFEFD8E0DEBFCDBF14E0B2
:10013000A0E0B1E0EEE5F7E402C005900D92AE3D1F
:10014000B107D9F726E0AEEDB4E001C01D92A138A9
:10015000B207E1F710E0C1E9D0E004C02197FE0149
:100160000E944822C039D107C9F70E94541A0C9442
:10017000AD230C940000FC01538D448D252F30E0FD
:10018000842F90E0821B930B541710F0CF960895A4
:1001900001970895FC01918D828D981761F0A28DD1
:1001A000AE0FBF2FB11D5D968C91928D9F5F9F7397
:1001B000928F90E008958FEF9FEF0895FC01918D4D
:1001C000828D981731F0828DE80FF11D858D90E0BA
:1001D00008958FEF9FEF0895FC01918D228D892F57
:1001E00090E0805C9F4F821B91098F73992708953F
:1001F000FC01A48DA80FB92FB11DA35ABF4F2C919C
:10020000848D90E001968F739927848FA689B78992
:100210002C93A089B1898C91837080648C93938D89
:10022000848D981306C00288F389E02D80818F7D2C
:1002300080830895EF92FF920F931F93CF93DF93E4
:10024000EC0181E0888F9B8D8C8D98131AC0E88912
:10025000F989808185FF15C09FB7F894EE89FF89E1
:100260006083E889F98980818370806480839FBF7F
:1002700081E090E0DF91CF911F910F91FF90EF907F
:100280000895F62E0B8D10E00F5F1F4F0F7311278F
:10029000E02E8C8D8E110CC00FB607FCFACFE889CA
:1002A000F989808185FFF5CFCE010E94F800F1CF5A
:1002B000EB8DEC0FFD2FF11DE35AFF4FF0829FB73E
:1002C000F8940B8FEA89FB8980818062CFCFCF932E
:1002D000DF93EC01888D8823B9F0AA89BB89E8896E
:1002E000F9898C9185FD03C0808186FD0DC00FB614
:1002F00007FCF7CF8C9185FFF2CF808185FFEDCF92
:10030000CE010E94F800E9CFDF91CF9108958AEBEA
:1003100095E00E94EC0021E0892B09F420E0822F77
:10032000089580E090E0892B29F00E9487018111D7
:100330000E94000080E090E0892B49F080E090E08E
:10034000892B29F00E94000081110C94000008956F
:10035000AF92BF92CF92DF92EF92FF920F931F93D3
:10036000CF93DF936C017B018B01040F151FEB0111
:100370005E01AE18BF08C017D10759F06991D601C8
:10038000ED91FC910190F081E02DC6010995892B3A
:1003900079F7C501DF91CF911F910F91FF90EF90F9
:1003A000DF90CF90BF90AF90089581508D3008F0CE
:1003B0003DC0E82FF0E0E152FE4F0C944822F601D8
:1003C000FA01EC01F20116021602FD010302070216
:1003D0000D02160211021702809180008F77809320
:1003E00080000895809180008F7DF9CF84B58F774C
:1003F00084BD089584B58F7DFBCF8091B0008F7749
:100400008093B00008958091B0008F7DF9CF8091E6
:1004100090008F77809390000895809190008F7D59
:10042000F9CF8091A0008F778093A00008958091EC
:10043000A0008F7DF9CFCF93DF93282F30E0F90113
:10044000E85FFE4F8491F901E051FF4FD491F9012B
:10045000E852FF4FC491CC23A1F081110E94D50135
:10046000EC2FF0E0EE0FFF1FE453FF4FA591B49186
:10047000EC91ED2381E090E009F480E0DF91CF91F1
:10048000089580E090E0FACF1F93CF93DF93282F59
:1004900030E0F901E85FFE4F8491F901E051FF4F30
:1004A000D491F901E852FF4FC491CC23A9F0162F43
:1004B00081110E94D501EC2FF0E0EE0FFF1FE054F8
:1004C000FF4FA591B4918FB7F894EC91111108C02A
:1004D000D095DE23DC938FBFDF91CF911F910895DC
:1004E000DE2BF8CFCF93DF9390E0FC01E051FF4F7C
:1004F000249188529F4FFC0184918823C9F090E099
:10050000880F991FFC01EC54FF4FA591B491FC0199
:10051000E054FF4FC591D49161110DC09FB7F8947D
:100520008C91209582238C938881282328839FBFD8
:10053000DF91CF910895623051F49FB7F8943C91C8
:10054000822F809583238C93E8812E2BEFCF8FB75A
:10055000F894EC912E2B2C938FBFEACF8E508064B1
:1005600080937C0080917A00806480937A008091EF
:100570007A0086FDFCCF80917800909179000895F3
:100580003FB7F89480912B0590912C05A0912D05F3
:10059000B0912E0526B5A89B05C02F3F19F00196F6
:1005A000A11DB11D3FBFBA2FA92F982F8827BC01CD
:1005B000CD01620F711D811D911D43E0660F771FF4
:1005C000881F991F4A95D1F70895FC017996CB01B0
:1005D0000596DB012D91BD012193A817B907C9F735
:1005E00008959C0197FF02C0215F3F4F44E035957D
:1005F00027954A95E1F74AE0429FF001439FF00DAD
:10060000112460E170E00E94F3218E0F9F1F089576
:100610006AE070E00E94F32124E0660F771F2A95BC
:10062000E1F7860F971F08951F93CF93DF93C1E0E3
:10063000C093E604882399F1D091B8001091BA00D4
:100640008091BC008A7B8093BC0060E082E10E94C4
:10065000440260E083E10E94440210928405C0934A
:10066000830510925E0561E082E10E94440261E030
:1006700083E10E9444028091B9008E7F8093B9008B
:100680008091B9008D7F8093B90080E28093B8009B
:1006900085E48093BC001093BA00D093B800DF913A
:1006A000CF911F910895CF92DF92EF92FF920F9317
:1006B0001F93CF93DF93D091AD0581E0D13208F045
:1006C0009CC0C091AC050E94C0026B017C0180916E
:1006D000840581116CC082E08093840581E0809361
:1006E00083058FEF8093820510928105D09380055A
:1006F000ACE8B5E0E0E6F5E080E0D8138DC01092FC
:100700005F0580915F05CC0FC82BC0935F0580917A
:100710005E05813009F084C010925E050E94C0021F
:100720006B017C0180915F058093BB008091860501
:1007300090918705A0918805B0918905892B8A2B16
:100740008B2BA1F00E94C0020091860510918705B5
:1007500020918805309189056C197D098E099F09C2
:10076000061717072807390708F442C08091BC0014
:1007700083FDD8CF85EC8093BC000E94C0026B0142
:100780007C0180918405823009F44CC080918205FF
:100790008F3F09F469C080918205803209F466C0F8
:1007A00080918205803309F463C084E026C0809183
:1007B000860590918705A0918805B0918905892BC0
:1007C0008A2B8B2B09F483CF0E94C00200918605EF
:1007D0001091870520918805309189056C197D0954
:1007E0008E099F09061717072807390708F06FCFEA
:1007F000809185050E94140385E010928B0510926C
:10080000AD0510928A05DF91CF911F910F91FF9056
:10081000EF90DF90CF9008959D9191938F5F6DCF72
:1008200085EEA9CF8091860590918705A0918805D6
:10083000B0918905892B8A2B8B2B09F4A2CF0E94BA
:10084000C00200918605109187052091880530919E
:1008500089056C197D098E099F0906171707280756
:10086000390708F08ECFC4CF80E0C7CF82E0C5CF74
:1008700083E0C3CFCF92DF92EF92FF920F931F934B
:10088000CF93DF93D82FC62F613208F098C00E9413
:10089000C0026B017C018091840581116BC081E0F5
:1008A00080938405809383059FEF90938205109237
:1008B00081059C0F9093800580935F0580915F0573
:1008C000DD0FD82BD0935F0580915E05813009F054
:1008D00078C010925E050E94C0026B017C0180917D
:1008E0005F058093BB008091860590918705A0915C
:1008F0008805B0918905892B8A2B8B2BA1F00E944A
:10090000C0020091860510918705209188053091DD
:1009100089056C197D098E099F0906171707280795
:10092000390708F448C08091BC0083FDD8CF85EC1E
:100930008093BC000E94C0026B017C018091840501
:10094000813009F440C0809181058C1710F4C0916A
:100950008105E0E6F5E0AEE3B5E080E08C1355C03C
:100960008C2FDF91CF911F910F91FF90EF90DF902F
:10097000CF9008958091860590918705A091880574
:10098000B0918905892B8A2B8B2B09F484CF0E9487
:10099000C00200918605109187052091880530914D
:1009A00089056C197D098E099F0906171707280705
:1009B000390708F070CF809185050E941403C0E0CC
:1009C000CFCF85EEB5CF8091860590918705A09118
:1009D0008805B0918905892B8A2B8B2B09F4AECF22
:1009E0000E94C0020091860510918705209188051C
:1009F000309189056C197D098E099F090617170723
:100A00002807390708F09ACFD6CF91919D938F5F31
:100A1000A5CF20910705260F3327331F213231053B
:100A2000ECF420918405FC0190E080E0243069F032
:100A300082E00895A09107052191AC0149515B4FD7
:100A4000A40FB52FB11D2C930196861798F38091B2
:100A50000705680F6093070580E0089581E0089519
:100A60000895E0913D0580913C05E81730F4F0E0F1
:100A7000E25CFA4F808190E008958FEF9FEF089538
:100A800090913D0580913C052FEF3FEF981748F47A
:100A9000E92FF0E0E25CFA4F208130E09F5F909315
:100AA0003D05C901089580913C0590913D05891B44
:100AB000990B0895CF92DF92EF92FF920F931F93BD
:100AC000CF93DF937C01CB018A0120918A052223F9
:100AD00089F0EB016B01C40ED51ECC15DD0569F064
:100AE0006991D701ED91FC910190F081E02DC70152
:100AF0000995F3CF642F0E940905C801DF91CF91BA
:100B00001F910F91FF90EF90DF90CF900895CF93BA
:100B1000DF931F92CDB7DEB7698320918A05222328
:100B2000F9F02091AD05203258F021E030E0FC01D1
:100B30003383228390E080E00F90DF91CF9108957E
:100B400080918B05E82FF0E0E457FA4F998190836C
:100B50008F5F80938B058093AD0581E090E0ECCFB3
:100B600061E0CE0101960E940905F7CF682F8EEA59
:100B700095E00C948705CF93DF93EB0121E0209360
:100B80008A0528E62093AC0510928B051092AD05DE
:100B90000E94B605CE010E94B605DF91CF910C945C
:100BA0005303CF92EF92FF920F931F93CF93DF9354
:100BB000F82E162FD42FC22F81E080938A0588E665
:100BC0008093AC0510928B051092AD0590E080E00B
:100BD0000E94B6058F2D90E00E9408030E94B60582
:100BE000812F90E00E9408030E94B6058D2F90E0AF
:100BF0000E9408030E94B6058C2F90E00E94080313
:100C00000E94B605802F90E00E9408030E94B6055E
:100C10008E2D90E00E9408030E94B6058C2D90E076
:100C20000E9408030E94B605DF91CF911F910F919A
:100C3000FF90EF90CF900C94530390E080E00895E4
:100C4000FC01848195811816190664F480819181D4
:100C5000181619062CF482E08187178216820895EF
:100C600081E0FACF892BD9F780819181892BB9F75F
:100C70001186F3CFCF93DF93EC0160E08FE00E9409
:100C8000440260E08EE00E94440260E088E00E943E
:100C9000440260E087E00E9444021882DF91CF9115
:100CA0000895CF93DF93EC0161E08FE00E9444024E
:100CB00061E08EE00E94440261E088E00E9444020C
:100CC00061E087E00E94440281E08883DF91CF9158
:100CD000089508950895089508950895089508952C
:100CE000089508950895089508950895089508951C
:100CF000089508950895089508950895089508950C
:100D0000089508950895089508950895CF93DF9361
:100D1000FC01A281B3818FB7F89440912F055091C7
:100D2000300560913105709132058FBFAF53BF4FD1
:100D30004D935D936D937C931397A281B381AA5ACF
:100D4000BF4F8D919C91119701968D939C93A28199
:100D5000B381AA5ABF4F8D919C9111970A9714F0B5
:100D60001D921C92A281B381ED01CA5ADF4F888186
:100D70009981A054BF4F892BB1F41C928281938139
:100D8000FC01EB53FF4F8A5A9F4FDC018D919C91E0
:100D9000092E000CAA0BBB0B80839183A283B38323
:100DA000DF91CF91089581E08C93E8CFFC0182819F
:100DB000938160E174E08D599F4F0C94E502DC0152
:100DC0001296ED91FC91DF01A454BF4F8D919C913F
:100DD000039664E070E00E94F32193E0981B892F52
:100DE000ED59FF4F92E7918F95E4928F90E2938FA8
:100DF0009AE2948F858F0895DC011296ED91FC9113
:100E0000DF01A056BF4F9C91ED59FF4F80E2818FCB
:100E1000828F838F8AE2848F958F0895FC0182816F
:100E2000938166E174E08D599F4F0C94E502AF9277
:100E3000BF92CF92EF920F93CF93DF93DC01129684
:100E4000ED91FC911397EA5AFF4F808191810196B1
:100E5000918380831296ED91FC911397EA5AFF4F8C
:100E6000808191818436910521F484E190E0918321
:100E7000808312968D919C91BC016A5A7F4FAC0180
:100E80004A575F4F9C012B573F4FEC01CC57DF4F28
:100E9000DC01AD57BF4F5C01E2E8AE0EB11C8F57CD
:100EA0009F4FFB01C080FA01E080F9010081288199
:100EB0004C91F5016081FC0180810E94D105DF9198
:100EC000CF910F91EF90CF90BF90AF900895DC013C
:100ED0001296ED91FC91DF01AA5ABF4F8D919C9122
:100EE000ED59FF4F22E3218F20E3228F20E2238F51
:100EF0006AE070E00E94F321648F858F0895FC0101
:100F0000828193816CE174E08D599F4F0C94E502CE
:100F1000AF92BF92CF92EF920F93CF93DF93DC010A
:100F20001296ED91FC911397EA5AFF4F80819181BF
:100F30000196918380831296ED91FC911397EA5A62
:100F4000FF4F80819181089721F481E090E09183A7
:100F5000808312968D919C91BC0169577F4FAC01A3
:100F60004A575F4F9C012B573F4FEC01CA5ADF4F46
:100F7000DC01AD57BF4F5C01E2E8AE0EB11C8F57EC
:100F80009F4FFB01C080FA01E080F90100812881B8
:100F90004C91F5016081FC0180810E94D105DF91B7
:100FA000CF910F91EF90CF90BF90AF900895FC013B
:100FB00082819381FC01EA5AFF4F0190F081E02D7C
:100FC000FF27EE0FFF1FE80FF91F608171818D5918
:100FD0009F4F0C94E502FC018281938162E274E0F0
:100FE0008D599F4F0C94E502AF92BF92CF92EF9232
:100FF0000F93CF93DF93DC011296ED91FC91139741
:10100000EA5AFF4F808191810196918380831296E5
:101010004D915C911397FA01E957FF4F80818370DE
:10102000EA01CA57DF4FF197811107C088818230EA
:1010300021F4808191814D97B1F02881022E000C1E
:10104000330B265F3F4F220F331F240F351FE9015B
:1010500028813981808191812817390724F481E022
:1010600090E09183808312968D919C91BC01695789
:101070007F4FAC014A575F4F9C012A5A3F4FEC010A
:10108000CC57DF4FDC01AD57BF4F5C01E2E8AE0E3D
:10109000B11C8F579F4FFB01C080FA01E080F9011E
:1010A000008128814C91E5016881FC0180810E94CA
:1010B000D105DF91CF910F91EF90CF90BF90AF907E
:1010C0000895DC011296ED91FC91DF01AA5ABF4F01
:1010D0002D913C91C9016AE070E00E94F3216111F9
:1010E00001C060E2ED59FF4F80E2818F828F838FD4
:1010F000648FC9016AE070E00E94F321858F089532
:10110000AF92BF92CF92EF920F93CF93DF93DC0118
:101110001296ED91FC911397EA5AFF4F80819181CD
:101120000196918380831296ED91FC911397EA5A70
:10113000FF4F808191810D9721F481E090E09183B0
:10114000808312968D919C91BC0169577F4FAC01B1
:101150004A5A5F4F9C012B573F4FEC01CC57DF4F52
:10116000DC01AD57BF4F5C01E2E8AE0EB11C8F57FA
:101170009F4FFB01C080FA01E080F90100812881C6
:101180004C91F5016081FC0180810E94D105DF91C5
:10119000CF910F91EF90CF90BF90AF900895DC0169
:1011A0001296ED91FC91DF01AA5ABF4F2D913C910F
:1011B000C9016AE070E00E94F321611101C060E2A0
:1011C000ED59FF4F618FC9016AE070E00E94F32181
:1011D000828F80E2838F848F858F0895FC018281C6
:1011E000938168E274E08D599F4F0C94E502CF9291
:1011F000EF920F93CF93DF93DC011296ED91FC9168
:101200001397EA5AFF4F80819181019691838083E1
:101210001296ED91FC911397EA5AFF4F80819181CC
:10122000CC9711F41182108212968D919C91AC0191
:1012300049575F4F9C012A573F4FEC01CB57DF4F77
:10124000DC01AC57BF4FBC016D577F4F8A5A9F4F8F
:10125000FA01C080F901E08008812C91FB014081F6
:10126000FC01608180E00E94D105DF91CF910F9158
:10127000EF90CF900895DC011296ED91FC91DF0183
:10128000AA5ABF4F2D913C91ED59FF4F90E2918F9B
:10129000928F938FC9016AE070E00E94F321648FFE
:1012A000858F0895CF92EF920F93CF93DF93DC0158
:1012B0001296ED91FC911397EA5AFF4F808191812C
:1012C0000196918380831296ED91FC911397EA5ACF
:1012D000FF4F80819181489711F4118210821296FC
:1012E0008D919C91AC0149575F4F9C012A573F4F0C
:1012F000EC01CB57DF4FDC01AC57BF4FBC016A5A42
:101300007F4F8E579F4FFA01C080F901E08008811E
:101310002C91FB014081FC01608180E00E94D1059D
:10132000DF91CF910F91EF90CF900895DC0112964D
:10133000ED91FC91DF01AA5ABF4F2D913C91C9015B
:101340006AE070E00E94F321611101C060E2ED5992
:10135000FF4F618FC9016AE070E00E94F321828F24
:1013600080E2838F848F858F0895FC018281938131
:101370006EE274E08D599F4F0C94E502DC011296E9
:10138000ED91FC911397EA5AFF4F208131812F5F35
:101390003F4F318320831296ED91FC91EA5AFF4F23
:1013A00080819181CC9711F4118210820895DC0123
:1013B0001296ED91FC91DF01AA5ABF4F2D913C91FD
:1013C000C9016AE070E00E94F321611101C060E28E
:1013D000ED59FF4F80E2818F828F838F648FC90127
:1013E0006AE070E00E94F321858F0895DC01129677
:1013F000ED91FC911397EA5AFF4F208131812F5FC5
:101400003F4F318320831296ED91FC91EA5AFF4FB2
:1014100080819181489711F4118210820895DC0136
:101420001296ED91FC91DF01AA5ABF4F2D913C918C
:10143000C9016AE070E00E94F321611101C060E21D
:10144000ED59FF4F618FC9016AE070E00E94F321FE
:10145000828F80E2838F848F858F0895DC011296BE
:10146000ED91FC911397EA5AFF4F208131812F5F54
:101470003F4F318320831296ED91FC91EA5AFF4F42
:1014800080819181039711F4118210820895FC01EB
:1014900082819381FC01EA5AFF4F2081318164E30C
:1014A00074E02115310551F06AE374E02130310513
:1014B00029F02230310531F460E474E08D599F4FFA
:1014C0000C94E5020895FC018281938166E474E046
:1014D0008D599F4F0C94E502FC01828193816CE44D
:1014E00074E08D599F4F0C94E5028F929F92AF92BA
:1014F000BF92CF92DF92EF92FF920F931F93CF9301
:10150000DF93FC01C281D381FE01E455FF4F40818E
:101510005181628173818E0104561F4FF801C5808D
:10152000D680E780F0844A015B018C189D08AE08E4
:10153000BF0880819181B0E0A0E088159905AA05D7
:10154000BB0520F0CD28CE28CF2859F5F8014583DA
:1015500056836783708784E10E94AE02BC01990FB5
:10156000880B990B0E94C32023E333E343E550E447
:101570000E94782120E030E040E85AE30E94782180
:1015800020E030E040E05FE30E94A71F2AE037ED53
:1015900043E25CE30E941920F80163877487858722
:1015A0009687F801C384D484E584F684FE01E0566E
:1015B000FF4FB0808E010D591F4FF6E4BF124FC090
:1015C00020E030E040E151E4C701B6010E947821FB
:1015D00020E030E040EA50E40E94192020E030E0B2
:1015E00040E052E40E94A81F6B017C0120E030E043
:1015F00048EC52E40E9419200E948B20F801618F70
:1016000020E030E040E251E4C701B6010E94192019
:101610000E948B208AE0882E912CCB01B4010E947D
:10162000F321F801828F80E2838FC701B6010E9407
:101630008B20CB01B4010E94F321F801848FC058A4
:10164000DF4FB882DF91CF911F910F91FF90EF9004
:10165000DF90CF90BF90AF909F908F90089581E0E2
:10166000FE01E558FF4F808320E030E040E251E486
:10167000C701B6010E9419200E948B20F801618FDA
:10168000C701B6010E948B20CB016AE070E00E9486
:10169000F321F801828F80E2838F8AE2CFCFFC01B1
:1016A00082819381FC01EC57FF4FE081F0E0EE0F67
:1016B000FF1FE80FF91F608171818D599F4F0C94B6
:1016C000E502DC011296ED91FC91DF01A558BF4FB8
:1016D00091E09C9316968C91ED59FF4F20E2218F5B
:1016E000228F938F6AE00E94E521848F958F089561
:1016F000DC011296ED91FC91DF01AA57BF4F5C917E
:10170000852F6AE00E94E521382F811101C030E267
:10171000DF01AB57BF4F4C91842F6AE00E94E52157
:10172000282F811101C020E2ED59FF4F318F3AE09F
:10173000852F632F0E94E521928F80E2838F248F73
:10174000842F632F0E94E521958F0895CF93DF9317
:10175000FC01DC01AF56BF4F1796CD91DC91CE0155
:101760006CE370E00E94F321262F64361CF023E620
:10177000CBE3D0E0CE016CE370E00E94F321482F70
:10178000ED59FF4F3AE0822F632F0E94E521818FB0
:10179000928F81E0838F842F632F0E94E521848FB5
:1017A000958FDF91CF910895CF93DF93EC018A81DC
:1017B0009B810E94A60B8A819B8162E574E08D5912
:1017C0009F4F0E94E502EA81FB81E558FF4F81E0CF
:1017D0008083DF91CF910895CF93DF93EC018A81CD
:1017E0009B810E94A60BEA81FB81E558FF4F81E0B7
:1017F0008083DF91CF910895CF93DF93EC018A81AD
:101800009B810E94A60B8A819B81FC01EF56FF4FB2
:10181000DC01AE57BF4F4C91042E000C550B509677
:101820002C91421B510927FD53956CE3649FD00115
:10183000659FB00D1124EC01CF57DF4F2881022E98
:10184000000C330B4081241B310947FD3395AD015A
:10185000420F531FDC01AD57BF4F2C91022E000CDD
:10186000330B50967C91271B310977FD3395C0E1EE
:10187000DEE02C9FD0012D9FB00D3C9FB00D1124B8
:101880004A0F5B1FDC01AB57BF4F2C91022E000C9F
:10189000330B8B569F4FDC018C91D901A81BB109EA
:1018A00087FDB395CD0120EA35E0829FD001839F6B
:1018B000B00D929FB00D11246A9F90016B9F300D67
:1018C0001124240F351F30872783DF91CF9108958E
:1018D000FC01DC01AD57BF4F3C91832F6AE00E94B1
:1018E000E521811101C080E2DF01AE57BF4F4C916D
:1018F000ED59FF4F818F2AE0832F622F0E94E5214F
:10190000928F138E842F622F0E94E521848F958FF2
:1019100008950F931F93CF93DF93EC018B01888180
:101920009981009739F0DC01ED91FC910280F381FF
:10193000E02D099519830883F801D383C283DF91D1
:10194000CF911F910F910895CF93DF93FC01C28136
:10195000D381FE01EE57FF4F508131964081319681
:1019600030813196208131969081319680813A96EE
:10197000DE01AF57BF4F6C91608351834283338345
:1019800024839583868381E090E09287818784E039
:1019900090E00E94882224EB32E0FC013183208316
:1019A000BC01CE01DF91CF910C94890CCF93DF93D2
:1019B000FC01C281D38184E090E00E94882226E06D
:1019C00034E0FC0131832083BC01CE01DF91CF9153
:1019D0000C94890CCF93DF93FC01C281D381FE016B
:1019E000EF56FF4F1286118684E090E00E94882215
:1019F00022EC32E0FC0131832083BC01CE01DF9177
:101A0000CF910C94890CCF93DF93FC01C281D381D9
:101A100084E090E00E94882226E034E0FC013183DB
:101A20002083BC01CE01DF91CF910C94890CCF9320
:101A3000DF93FC01C281D381FE01EF56FF4F82E0AC
:101A400090E09287818784E090E00E94882226EAD5
:101A500032E0FC0131832083BC01CE01DF91CF91C4
:101A60000C94890CCF93DF93FC01C281D38184E075
:101A700090E00E94882226E034E0FC01318320833C
:101A8000BC01CE01DF91CF910C94890CCF93DF93F1
:101A9000FC01C281D38184E090E00E94882226E08C
:101AA00034E0FC0131832083BC01CE01DF91CF9172
:101AB0000C94890CBF92CF92DF92EF92FF920F931A
:101AC0001F93CF93DF938C01FC0182819381FC01F2
:101AD000EB53FF4F4081518162817381EC01CD59FD
:101AE000DF4F4930510561057105C9F568E574E0BE
:101AF000CE010E94E5022FB7F89480912F059091B6
:101B00003005A0913105B09132052FBFF801C28197
:101B1000D381FE01EF53FF4F408151816281738178
:101B2000841B950BA60BB70B89389341A105B10512
:101B3000E8F184E090E00E94882226E034E0FC0195
:101B400031832083BC01CE01DF91CF911F910F9192
:101B5000FF90EF90DF90CF90BF900C94890CFC0128
:101B6000EA5AFF4F20813181220F331F220F331F8A
:101B7000820F931FFC0166A577A580A991A920E299
:101B8000298F2A8F2B8F5AE0C52ED12CE12CF12CD6
:101B9000A70196010E940722B62ECA01B901A7012A
:101BA00096010E9407226C8FBD8EA5CFDF91CF9149
:101BB0001F910F91FF90EF90DF90CF90BF9008950D
:101BC0000F931F93CF93DF93EC010A811B8184E075
:101BD00090E00E94882224E631E0DC012D933C93C2
:101BE000BC01C8010E94890CEA81FB81EA5AFF4FBF
:101BF00011821082EA81FB81EB53FF4F1082118228
:101C000012821382EA81FB812FB7F89480912F050D
:101C100090913005A0913105B09132052FBFEF535F
:101C2000FF4F80839183A283B383EA81FB81DF012D
:101C3000AA5ABF4F8D919C91E054FF4F892BC1F45C
:101C400010828A819B81FC01EB53FF4F8A5A9F4F80
:101C5000DC018D919C91092E000CAA0BBB0B80839B
:101C60009183A283B383DF91CF911F910F91089548
:101C700081E08083E6CFCF93DF93FC01C281D381E3
:101C800084E090E00E94882226E034E0FC01318369
:101C90002083BC01CE01DF91CF910C94890CCF93AE
:101CA000DF93FC01C281D38184E090E00E9488220E
:101CB00026E034E0FC0131832083BC01CE01DF91BA
:101CC000CF910C94890CCF93DF93FC01C281D38117
:101CD00084E090E00E94882220E632E0FC0131831B
:101CE0002083BC01CE01DF91CF910C94890CCF935E
:101CF000DF93FC01C281D38184E090E00E948822BE
:101D00002EE831E0FC0131832083BC01CE01DF915C
:101D1000CF910C94890CCF93DF93FC01C281D381C6
:101D200084E090E00E94882226E034E0FC013183C8
:101D30002083BC01CE01DF91CF910C94890CCF930D
:101D4000DF93FC01C281D38184E090E00E9488226D
:101D50002CE931E0FC0131832083BC01CE01DF910D
:101D6000CF910C94890CCF93DF93DC0112962D91C7
:101D70003C91F901EA5AFF4F29573F4FD9012C9165
:101D8000022E000C330B31832083FC01C281D381EE
:101D900084E090E00E9488222AEA31E0DC012D9361
:101DA0003C93BC01CE01DF91CF910C94890CCF9371
:101DB000DF93FC01C281D38184E090E00E948822FD
:101DC00026E034E0FC0131832083BC01CE01DF91A9
:101DD000CF910C94890CCF93DF93FC01C281D38106
:101DE00084E090E00E94882228EB31E0FC013183FE
:101DF0002083BC01CE01DF91CF910C94890CCF934D
:101E0000DF93DC0112962D913C91F901EA5AFF4FC4
:101E10002C573F4FD9012C91022E000C330B3183EC
:101E20002083FC01C281D38184E090E00E9488225B
:101E300026EC31E0DC012D933C93BC01CE01DF9117
:101E4000CF910C94890CCF93DF93FC01C281D38195
:101E500084E090E00E94882226E034E0FC01318397
:101E60002083BC01CE01DF91CF910C94890CCF93DC
:101E7000DF93FC0122813381D901AA5ABF4F2B572E
:101E80003F4FE9018881082E000C990B8D939C939C
:101E900042815381DA01A957BF4F8C918370EA01C7
:101EA000CA57DF4FD197811108C08881823029F449
:101EB0008D919C9111974D97A9F02881022E000CCD
:101EC000330B265F3F4F220F331F240F351FE901CD
:101ED000888199812D913C9111978217930714F471
:101EE0008D939C93C281D38184E090E00E948822EC
:101EF00022EE31E0FC0131832083BC01CE01DF9171
:101F0000CF910C94890CCF93DF93FC01C281D381D4
:101F100084E090E00E94882224ED31E0FC013183CE
:101F20002083BC01CE01DF91CF910C94890CCF931B
:101F3000DF93DC0112962D913C91F901EA5AFF4F93
:101F40002A573F4FD9012C91022E000C330B3183BD
:101F50002083FC01C281D38184E090E00E9488222A
:101F600020EF31E0DC012D933C93BC01CE01DF91E9
:101F7000CF910C94890CCF93DF93FC01C281D38164
:101F800084E090E00E94882226E034E0FC01318366
:101F90002083BC01CE01DF91CF910C94890CCF93AB
:101FA000DF93DC0112962D913C91F901EA5AFF4F23
:101FB0002E573F4FD9012C91022E000C330B318349
:101FC0002083FC01C281D38184E090E00E948822BA
:101FD0002CE032E0DC012D933C93BC01CE01DF917B
:101FE000CF910C94890CCF93DF93FC01C281D381F4
:101FF00084E090E00E9488222EEF31E0FC013183E2
:102000002083BC01CE01DF91CF910C94890CCF933A
:10201000DF93DC0112962D913C91F901EA5AFF4FB2
:102020002D573F4FD9012C91022E000C330B3183D9
:102030002083FC01C281D38184E090E00E94882249
:102040002AE132E0DC012D933C93BC01CE01DF910B
:10205000CF910C94890CCF93DF93EC01EA81FB8143
:10206000EA5AFF4F808191810E940803BC018BE0F6
:1020700090E00E94BB0560E870E08DE090E00E9477
:10208000BB050A80DB81C02D84E090E00E9488229D
:1020900026E034E0FC0131832083BC01CE01DF91D6
:1020A000CF910C94890CCF93DF93FC01C281D38133
:1020B00084E090E00E94882228E232E0FC01318333
:1020C0002083BC01CE01DF91CF910C94890CCF937A
:1020D000DF93DC011296ED91FC911397EA5AFF4FC2
:1020E000118210821296CD91DC9184E090E00E94E2
:1020F000882222E532E0FC0131832083BC01CE013D
:10210000DF91CF910C94890CCF93DF93FC01C281B6
:10211000D38184E090E00E94882220E632E0FC0136
:1021200031832083BC01CE01DF91CF910C94890CC7
:10213000CF93DF93FC01C281D38184E090E00E94C1
:10214000882226E034E0FC0131832083BC01CE01EB
:10215000DF91CF910C94890CCF93DF93FC01C28166
:10216000D38184E090E00E94882226E034E0FC01E4
:1021700031832083BC01CE01DF91CF910C94890C77
:10218000CF93DF93FC01C281D38184E090E00E9471
:1021900088222EE632E0FC0131832083BC01CE018F
:1021A000DF91CF910C94890CCF93DF93FC01C28116
:1021B000D38184E090E00E94882226E034E0FC0194
:1021C00031832083BC01CE01DF91CF910C94890C27
:1021D000CF93DF93FC01C281D38184E090E00E9421
:1021E00088222CE732E0FC0131832083BC01CE0140
:1021F000DF91CF910C94890CCF93DF93FC01C281C6
:10220000D38184E090E00E94882226E034E0FC0143
:1022100031832083BC01CE01DF91CF910C94890CD6
:10222000CF93DF93FC01C281D38184E090E00E94D0
:1022300088222CE732E0FC0131832083BC01CE01EF
:10224000DF91CF910C94890CCF93DF93FC01C28175
:10225000D38184E090E00E9488222AE832E0FC01E9
:1022600031832083BC01CE01DF91CF910C94890C86
:10227000CF93DF93FC01C281D38184E090E00E9480
:1022800088222CE732E0FC0131832083BC01CE019F
:10229000DF91CF910C94890CCF93DF93FC01C28125
:1022A000D38184E090E00E94882228E932E0FC019A
:1022B00031832083BC01CE01DF91CF910C94890C36
:1022C00021E020938A0528E62093AC0510928B0527
:1022D0001092AD050E94B6050E94530361E088E6A6
:1022E0000E943A0410923D0580933C058EEA95E0E9
:1022F0000C944005CF93DF938FE090E00E94601133
:10230000EC0181E080938A0588E68093AC05109209
:102310008B051092AD058FE090E00E94B605CE01CE
:102320008C7F99270E94B605DF91CF910C945303BF
:10233000EF92FF920F931F93CF93DF938C01DC01F9
:1023400012968D919C9185559F4F0E947A11F801AC
:1023500082819381FC01E454FF4F2081318124303C
:1023600031050CF071C0FA972081022E000C330B5E
:102370007901FFEFEF1AFF0A8D579F4FDC01CC91D7
:102380000C2E000CDD0BBCE3EB16F1045CF07901C4
:10239000EBE3EE1AF108CE010196679788319105BB
:1023A0000CF4EC0161E070E087E090E00E94BB0576
:1023B000CE010E940803BC0189E090E00E94BB05A9
:1023C000C7010E940803BC0188E090E00E94BB05A1
:1023D00060E870E08AE090E00E94BB0565E070E094
:1023E0008EE090E00E94BB05D8011296ED91FC9121
:1023F0001397E254FF4F10821296CD91DC9160E06A
:1024000083E00E947202C057DF4F1882F801828178
:10241000938181579F4F0E943A06D8011296CD9121
:10242000DC9184E090E00E94882222E731E0FC0108
:1024300031832083BC01CE01DF91CF911F910F9199
:10244000FF90EF900C94890C11821082CDCFCF9326
:10245000DF93EC01FC01E254FF4F108260E083E067
:102460000E947202FE01E057FF4F1082CE01815799
:102470009F4F0E943A06CE0185559F4FDF91CF9125
:102480000C947A111F93CF93DF93182FC0915906A4
:10249000D0915A06CE0181579F4F0E943A0660E0C4
:1024A00081E00E94440260E082E00E94440260E019
:1024B00080E00E94440260E084E00E94440260E008
:1024C00086E10E94440260E085E00E94440260E0F0
:1024D00086E00E944402CE010E94271260E085E15E
:1024E0000E94440281E08093370510927906109291
:1024F0007A0610927B0610927C0610927306109258
:1025000074061092750610927606112309F485C0A0
:102510008091680081608093680080916B00846086
:1025200080936B0080916800826080936800809146
:102530006C00886080936C0080917A008093E50441
:1025400010927A0085B7982F90668F7D8064809373
:10255000E40495BF8091E40485BF10926F0083B7B7
:10256000816083BF889580913705882309F45AC01C
:102570008091590690915A06FC01E054FF4F108259
:102580003C9721E0208386589F4FFC0120831092C6
:102590003705809165069091660690937806809342
:1025A000770683B78E7F83BF8091E50480937A009E
:1025B0008091380590913905A0913A05B0913B057D
:1025C0008093330590933405A0933505B093360579
:1025D00010926F0610927006109271061092720699
:1025E00080916F00826080936F0061E085E10E94BE
:1025F0004402C0915906D0915A0684E090E00E94AE
:10260000882226E034E0FC0131832083BC01CE0126
:10261000DF91CF911F910C94890C10926800109259
:102620006B0080CFDF91CF911F910895CF93DF93FF
:10263000EC018A819B819C012A543F4FDC01A45507
:10264000BF4F86549F4FFC0140815181052E000CE5
:10265000660B770B8D919D910D90BC91A02D841BE5
:10266000950BA60BB70BF90180839183A283B383EB
:10267000EA81FB81E454FF4F118210828A819B81A1
:102680000E9427120A80DB81C02D84E090E00E9426
:10269000882226E034E0FC0131832083BC01CE0196
:1026A000DF91CF910C94890C2F923F924F925F92C1
:1026B0006F927F928F929F92AF92BF92CF92DF9252
:1026C000EF92FF920F931F93CF93DF9300D01F924F
:1026D000CDB7DEB78C01FC010280F381E02DFB83D6
:1026E000EA83E455FF4F608171818281938128EEF6
:1026F00033E040E050E00E940722653F71408105D1
:10270000910508F4B0C08A819B810E94680CF80191
:102710000280F381E02DFB83EA83E254FF4F808146
:10272000882309F4BBC02A803B80FCEA2F0E311CB1
:10273000F101C080D180E280F380EA81FB81EA541C
:10274000FF4F80809180A280B380EA81FB81E154B9
:10275000FF4F8081882379F1C701B60128EE33E06D
:1027600040E050E00E9429222B013C010A811B819C
:1027700000571F4FF801F081F9832DE730E040E06A
:1027800050E00E9429226E337105810591050CF0FD
:1027900073C024EF421621E05206610471040CF06C
:1027A0006BC08981811107C061E083E00E947202E1
:1027B00081E0F80180830A811B8101571F4FF101DD
:1027C000608171818281938128EE33E040E050E0A6
:1027D0000E9407222B013C01F80130802DE730E0F8
:1027E00040E050E00E9407226E337105810591059B
:1027F00008F04DC0F4EF4F16F1E05F06610471047C
:1028000008F045C0311003C0C8010E945106C81825
:10281000D908EA08FB08EA81FB81E654FF4F808172
:102820009181092E000CAA0BBB0B8C159D05AE05E2
:10283000BF05A4F58A819B810F900F900F90DF91C7
:10284000CF911F910F91FF90EF90DF90CF90BF90AD
:10285000AF909F908F907F906F905F904F903F9040
:102860002F900C94271266E474E08A819B818D5925
:102870009F4F0E94E5024BCFF981FF2309F49BCFC4
:1028800060E083E00E947202F801108294CF33204E
:1028900009F4BDCFC8010E943A06B9CF0F900F903E
:1028A0000F90DF91CF911F910F91FF90EF90DF90EC
:1028B000CF90BF90AF909F908F907F906F905F90E0
:1028C0004F903F902F9008950F931F93CF93DF93D6
:1028D000EC01EA81FB81EA5AFF4F808191810E94DD
:1028E0000803BC018CE090E00E94BB058BE090E007
:1028F0000E9460110A811B810E94F102F801EA5ACC
:10290000FF4F918380830A80DB81C02D84E090E0BB
:102910000E94882226E332E0FC0131832083BC013F
:10292000CE01DF91CF911F910F910C94890C0F93E1
:102930001F93CF93DF93EC018A819B81FC01EA5ABC
:10294000FF4F2081318122303105D1F464E070E005
:102950008EE090E00E94BB050A80DB81C02D84E000
:1029600090E00E94882226E034E0FC01318320833D
:10297000BC01CE01DF91CF911F910F910C94890C76
:10298000232B29F481549F4F21E0FC0120838A816D
:102990009B81FC01EA5AFF4F2081318121303105B2
:1029A00021F481549F4FFC01108266E070E08EE0BC
:1029B00090E00E94BB058A819B8185559F4F0E94B4
:1029C0007A118CE090E00E9460110A811B810E94C4
:1029D000F102F801EA5AFF4F918380830A80DB817C
:1029E000C02D84E090E00E94882224E432E0BDCF34
:1029F0000F931F93CF93DF93EC018A819B810E94F9
:102A0000680C8CE090E00E9460110E94F1028C0141
:102A10008BE090E00E9460110A80DB81C02DFE01F6
:102A2000ED57FF4F8081082E000C990B80179107FE
:102A3000C9F4319780818823A9F0FC96808188238E
:102A400089F084E090E00E94882220E831E0FC01D7
:102A500031832083BC01CE01DF91CF911F910F9173
:102A60000C94890CDF91CF911F910F910895CF9312
:102A7000DF93FC0101900020E9F73197AF01481B7B
:102A8000590BBC018AEB95E00E94A801EC0142E0E1
:102A900050E06EE574E08AEB95E00E94A8018C0F8F
:102AA0009D1FDF91CF91089585ED8093BC008091AB
:102AB000860590918705A0918805B09189050796B4
:102AC000A11DB11D23E0B695A795979587952A95E9
:102AD000D1F72091BC0024FD03C010928405089515
:102AE0004091860550918705609188057091890510
:102AF000452B462B472B69F30097A105B10541F003
:102B00002AE12A95F1F700C00197A109B109E1CFA7
:102B1000809185050C9414030C9424230C94242395
:102B20000C9424230C9424230C9424230C94242309
:102B30000C9424230C9424230C9424230C942423F9
:102B40000C9424230C9424230C9424230C942423E9
:102B50000C9424230C9424230C9424230C942423D9
:102B60000C9424230C9424230C9424230C942423C9
:102B70000C9424230C9424230C9424230C942423B9
:102B80000C9424230C9424230C942423DC0112960B
:102B9000ED91FC91E056FF4F2081233419F526E496
:102BA0002083DC011296ED91FC91E456FF4F648185
:102BB000828193812091E2043091E3042F5F3F4FA3
:102BC0003093E3042093E204409157065091580655
:102BD0004115510519F04217530734F481E694E08A
:102BE0000C94371523E4DCCF9C012F5F3F4F21303D
:102BF00032401CF083E894E0F3CF0C94991F1F92AD
:102C00000F920FB60F9211242F933F934F935F9320
:102C10006F937F938F939F93AF93BF93EF93FF93A4
:102C20008AEB95E00E94F800FF91EF91BF91AF9180
:102C30009F918F917F916F915F914F913F912F91D4
:102C40000F900FBE0F901F9018951F920F920FB606
:102C50000F9211242F938F939F93EF93FF93E09103
:102C6000CA05F091CB058081E091D005F091D105A6
:102C700082FD1BC090818091D3058F5F8F7320915F
:102C8000D405821741F0E091D305F0E0E654FA4F05
:102C9000958F8093D305FF91EF919F918F912F9105
:102CA0000F900FBE0F901F9018958081F4CF1F9248
:102CB0000F920FB60F9211242F933F938F939F93F0
:102CC000AF93BF9380912F0590913005A09131056E
:102CD000B091320530912A0526E0230F2D3758F5A3
:102CE0000296A11DB11D20932A0580932F05909374
:102CF0003005A0933105B093320580912B0590915A
:102D00002C05A0912D05B0912E050196A11DB11D98
:102D100080932B0590932C05A0932D05B0932E0541
:102D2000BF91AF919F918F913F912F910F900FBEC7
:102D30000F901F90189529E8230F0396A11DB11D30
:102D4000D2CF0C94B9001F920F920FB60F9211249C
:102D50002F933F934F935F936F937F938F939F93A3
:102D6000AF93BF93EF93FF938091B900887F803634
:102D700009F44AC0F0F5883209F4A5C018F580318D
:102D800009F499C0B8F4882309F4F5C0883009F42F
:102D900092C0FF91EF91BF91AF919F918F917F91E1
:102DA0006F915F914F913F912F910F900FBE0F90B8
:102DB0001F901895883109F486C0803251F78093AE
:102DC000820514C0803409F49BC040F48033B9F309
:102DD0008833F9F68093820585ECAEC0803509F41E
:102DE00083C0883509F494C0883499F60E9454153C
:102DF000D0CF883909F48AC038F5883729F050F4E3
:102E0000883611F0803729F683E08093840510928C
:102E1000290555C0883809F479C0803919F08038FF
:102E200009F0B7CF80912905803208F06FC0E0919A
:102E3000290581E08E0F809329058091BB00F0E089
:102E4000E75FFA4F80833BC0803B39F0D0F4803A93
:102E500009F477C0883A09F09CCF84E08093840518
:102E60001092080510920705F0E0E0E009958091C6
:102E7000070581110FC081E0809307051092E704D8
:102E800009C0803C09F4A8CF883C09F4A5CF883B51
:102E900009F07FCFE091080581E08E0F809308054F
:102EA000F0E0E951FB4F80818093BB0090910805D1
:102EB0008091070529C080915F058093BB0085EC58
:102EC0008093BC0066CF9091810580918005981712
:102ED00058F5E091810581E08E0F80938105F0E047
:102EE000E05AFA4F8081E9CFE091810581E08E0FB1
:102EF000809381058091BB00F0E0E05AFA4F808317
:102F000090918105809180059817C8F285E8D8CF07
:102F1000E091810581E08E0F809381058091BB0057
:102F2000F0E0E05AFA4F80838091830581115ECFF3
:102F300081E080935E0584EA8093BC001092840552
:102F400028CF85EC8093BC001092840580912905E0
:102F5000803230F4E0912905F0E0E75FFA4F10820B
:102F60006091290570E089E095E0F0E0E0E00995E6
:102F7000109229050ECF1092820538CF1F920F9222
:102F80000FB60F9211242F934F935F936F937F93FC
:102F90008F939F93AF93BF93CF93DF93EF93FF9361
:102FA0008091590690915A06FC01E254FF4F20810E
:102FB000211117C0DC01AA54BF4FEC01C455DF4FEB
:102FC000488159816A817B814D935D936D937C9398
:102FD000139721E02083329780819181019691831C
:102FE0008083FF91EF91DF91CF91BF91AF919F913E
:102FF0008F917F916F915F914F912F910F900FBEA5
:103000000F901F9018951F920F920FB60F921124D8
:103010002F933F934F935F936F937F938F939F93E0
:10302000AF93BF93CF93DF93EF93FF93C091590674
:10303000D0915A06CD59DF4F8D899E899C0125502C
:1030400031092530310518F08F3091051CF160E011
:1030500085E00E94440260E086E00E9444028D897F
:103060009E89019684319105F1F09E8B8D8BFF91A5
:10307000EF91DF91CF91BF91AF919F918F917F9110
:103080006F915F914F913F912F910F900FBE0F90D5
:103090001F9018958530910514F461E0D9CF0A97F7
:1030A0000597E8F6FACF1E8A1D8AE1CF1F920F928C
:1030B0000FB60F9211240F900FBE0F901F9018950E
:1030C000CF92DF92EF92FF920F931F93CF93DF93F4
:1030D0001092BD051092BC0588EE93E0A0E0B0E030
:1030E0008093BE059093BF05A093C005B093C10522
:1030F00022EE33E03093BB052093BA0525EC30E097
:103100003093C7052093C60524EC30E03093C90501
:103110002093C80520EC30E03093CB052093CA05FE
:1031200021EC30E03093CD052093CC0522EC30E04B
:103130003093CF052093CE0526EC30E03093D105B7
:103140002093D0051092D3051092D4051092D50586
:103150001092D60524E6C22ED12CD0925806C092E9
:1031600057061092B1051092B0058093B205909366
:10317000B305A093B405B093B50584EF93E09093A5
:10318000AF058093AE058AE090E090935C06809353
:103190005B068FE090E090935E0680935D068EE084
:1031A00091E09093600680935F068FEF90E090939C
:1031B00062068093610680EF90E0909364068093AE
:1031C000630684E090E0909366068093650683E052
:1031D00090E0909368068093670682E090E0909379
:1031E0006A068093690681E090E090936C06809374
:1031F0006B0610926E0610926D0660E080E10E94F0
:10320000720210926F061092700610927106109260
:103210007206109273061092740610927506109240
:103220007606109278061092770610927906109220
:103230007A0610927B0610927C0684E090E00E9451
:1032400088227C0186E094E0F7019183808389ECF9
:1032500090E00E948822EC01DC011D921D928EE01C
:10326000E6E0F1E001900D928A95E1F780ED97E0BC
:10327000998B888B86E990E09B8B8A8B8AE1E4E1CD
:10328000F1E0DE01549601900D928A95E1F788E213
:10329000EEE2F1E0DE019E9601900D928A95E1F753
:1032A000FE01EA5AFF4F118210828E01075A1F4F0A
:1032B00088EE93E0F8019383828362E089E00E94C4
:1032C000720262E08AE00E947202F80115821482A2
:1032D000118210821782168210861186065F1F4F98
:1032E0008AE0E6E5F1E0D80101900D928A95E1F7D8
:1032F00084EF91E0F80193878287D48AC38A61E0E2
:1033000085E00E94720261E086E00E94720261E044
:1033100080E00E94720261E081E00E94720261E03E
:1033200082E00E94720261E084E00E94720261E029
:1033300086E10E94720260E086E10E94440261E040
:1033400085E00E94440260E086E00E944402F89416
:1033500010928000109281001092850010928400DB
:103360008EE190E0909389008093880080918100A5
:1033700088608093810080918100836080938100C8
:1033800080916F00826080936F007894F8011486BA
:10339000118A128A158616861786108A108E168A4A
:1033A000158A178A7E9610821182128213821482E5
:1033B000158216823796108211821282138214822D
:1033C0001582168261E08FE00E94720261E08EE059
:1033D0000E94720261E088E00E94720261E087E070
:1033E0000E947202CE0181579F4F0E943A0683E6E7
:1033F0008093B0008DE08093B10082E18093B300B0
:1034000089E08093B40060E083E00E947202FE01D4
:10341000E057FF4F10823196108211821282138280
:103420001482158216821086178212861186075C16
:103430001F4F88E893E1F8019183808380E190E059
:103440009383828360E084E10E947202F8018281AA
:10345000938101968130924024F083E894E00E94A9
:103460003715F801158216821782108683E484834B
:103470001386148615861686FE01E654FF4F88E8EB
:1034800093E191838083B701CE010E94890CD09390
:103490005A06C0935906DF91CF911F910F91FF906B
:1034A000EF90DF90CF900895789484B5826084BDCA
:1034B00084B5816084BD85B5826085BD85B5816038
:1034C00085BD80916E00816080936E0010928100B6
:1034D0008091810082608093810080918100816071
:1034E0008093810080918000816080938000809132
:1034F000B10084608093B1008091B00081608093BE
:10350000B000809191008260809391008091910041
:103510008160809391008091900081608093900001
:103520008091A10082608093A1008091A1008160C0
:103530008093A1008091A00081608093A000809181
:103540007A00846080937A0080917A008260809310
:103550007A0080917A008E7F80937A0080917A0041
:10356000806880937A001092C10061E085E10E943A
:10357000720260E085E10E94440283B7817F84602B
:1035800083BF81E00E94421282EC682E82E0782E96
:103590008FB7F89480902F0590903005A09031055A
:1035A000B09032058FBF8092380590923905A09275
:1035B0003A05B0923B05C0915906D0915A06FE01DA
:1035C000E455FF4F80829182A282B3828091770678
:1035D00090917806209165063091660682179307D0
:1035E00009F0D8C040916F06509170066091710645
:1035F0007091720695018401041B150B260B370B85
:1036000080915B0690915C06B0E0A0E08017910786
:10361000A207B30728F0452B462B472B09F067C0BC
:1036200080926F0690927006A0927106B092720618
:1036300080E10E94AE02EC01209073063090740687
:10364000409075065090760660915D0670915E061A
:1036500090E080E00E94C1204B015C01AC019B0125
:10366000C201B1010E94142087FF44C0BE0190E056
:1036700080E00E94C1202091790630917A06409125
:103680007B0650917C060E94A81F6B017C01C092B2
:103690007906D0927A06E0927B06F0927C0620E0D2
:1036A00030E040E85FE3C201B1010E94A81F1B01A6
:1036B0002C01209273063092740640927506509247
:1036C0007606AC019B01C501B4010E941420811152
:1036D0000EC0A2019101C701B6010E94192060939A
:1036E000790670937A0680937B0690937C060E94FD
:1036F00091014ECF8090790690907A06A0907B063B
:10370000B0907C0660915F067091600690E080E06A
:103710000E94C1209B01AC01C501B4010E9473212C
:1037200018164CF480916D0690916E069093780671
:1037300080937706DCCF609161067091620690E01D
:1037400080E00E94C1209B01AC01C501B4010E9430
:10375000732118162CF480916B0690916C06E6CFBD
:10376000609163067091640690E080E00E94C12041
:103770009B01AC01C501B4010E94732118162CF401
:103780008091690690916A06D1CF809167069091E9
:103790006806CCCF209167063091680682179307A0
:1037A00021F480E00E944212A2CF8091370581115E
:1037B0002BC08E0106581F4FD8018C91882321F110
:1037C00061E086E10E9444022091770630917806FC
:1037D0008091690690916A062817390721F061E007
:1037E00082E00E944402F8011082FE01E055FF4F82
:1037F00080829182A282B3828092330590923405B6
:10380000A0923505B0923605209177063091780662
:103810008091690690916A062817390709F4C0C19A
:103820008AE00E941B029E01275A3F4F5901892BB3
:1038300061F4D90114968D919C9115970196159676
:103840009C938E93149710E009C0F90184819581AF
:1038500018161906C4F71582148211E089E00E9437
:103860001B02892B49F4D5018D919C9111970196EA
:103870008D939C9360E009C0F501808191811816B9
:103880001906C4F71182108261E0D50114964D919A
:103890005C91159712962D913C9113978D919C9167
:1038A0001197241735070CF034C3281739070CF08B
:1038B00019C2E5E0F0E01796FC93EE931697F2E05C
:1038C0001996FC9381E080938A05B8E6B093AC0525
:1038D00010928B051092AD0590E080E00E94B60535
:1038E0000E94530367E088E60E943A0410923D0567
:1038F00080933C058EEA95E00E9440058F779927DA
:103900000E94F102FE01EF57FF4F80838EEA95E09F
:103910000E9440050E94F102FE01EE57FF4F808396
:103920008EEA95E00E9440058F7399270E94F1026C
:10393000FE01ED57FF4F80838EEA95E00E9440051F
:103940000E94F102FE01EC57FF4F80838EEA95E062
:103950000E9440050E94F102FE01EB57FF4F808359
:103960008EEA95E00E9440050E94F102FE01EA57AE
:10397000FF4F80838EEA95E00E9440050E94F1028D
:10398000FE01E957FF4F808388819981DC01ED9129
:10399000FC910480F581E02D09958E010C541F4F98
:1039A000F8018081882381F07E01F5EBEF0EF11C98
:1039B000D7018C91882309F4BDC1C5010E9420065E
:1039C000F7011082D8011C92FE01E15AFF4F80815D
:1039D00091818330910509F4E8C108F0AFC18130CD
:1039E000910509F4CFC1029709F4D6C1E0915906B7
:1039F000F0915A068090380590903905A0903A05CC
:103A0000B0903B05209177063091780680916B0647
:103A100090916C06EF01CD59DF4F28173907F1F46B
:103A2000DF01A055BF4F8D919D910D90BC91A02DB0
:103A3000B501A401481B590B6A0B7B0B8089918946
:103A4000092E000CAA0BBB0B481759076A077B0706
:103A500028F467ED74E0CE010E94E5028C85823087
:103A600011F433E03C878A8981111A8A8D859E85FD
:103A7000AF85B889B501A401481B590B6A0B7B0BB4
:103A80008A859B85092E000CAA0BBB0B481759078A
:103A90006A077B0718F0488D442329F041E08B8D9D
:103AA000803209F440E02C858C8D803209F0D2C13F
:103AB000213009F0D2C1822F90E0FE01E80FF91FFA
:103AC000E18D2111CFC12989222309F4EEC110E033
:103AD00000E0EB3738F4F0E0EE0FFF1FE851FD4F48
:103AE000008111810478112721E02A8B198A880F1F
:103AF000991FFE01E80FF91F80819181082B192B76
:103B0000442321F08C819D81082B192B61E084E0F6
:103B10000E944402F12CE12CC8010E2C02C09695A3
:103B200087950A94E2F761E080FF60E080E00E9400
:103B300044025A985A9A599A59988FEFE81AF80AF3
:103B40009CE0E916F10441F760E084E00E94440241
:103B50008C859989992319F0982F9B7F11F08F5F9D
:103B60008C878D859E85AF85B889B501A401481BDA
:103B7000590B6A0B7B0B8A859B85880F991F092E31
:103B8000000CAA0BBB0B84179507A607B70720F4F8
:103B90008D869E86AF86B88A8C85853009F41C8612
:103BA000809177069091780620916B0630916C0693
:103BB0008217930739F02091690630916A068217BF
:103BC000930751F5A0915906B0915A06ED01C455DD
:103BD000DF4FFD01E055FF4F8881998120813181C0
:103BE000821B930B50962D913C915197821793070E
:103BF0009CF45296ED91FC9153979D0121573F4FB4
:103C0000BF01660F771F0E94F3218E179F070CF0EC
:103C100067C1C9010E9451068091590690915A06C8
:103C20008090380590903905A0903A05B0903B05FA
:103C3000FC01E15AFF4F20813181232B41F080921A
:103C4000330590923405A0923505B0923605118265
:103C50001082FC01E558FF4F1082EB5BFF4F208183
:103C6000222309F441C140913305509134056091FC
:103C7000350570913605841A950AA60AB70A359655
:103C800020813181220F331F220F331F820F931F98
:103C9000DC019E962D913D914D915C91D197A0E6CE
:103CA000BAEE0E944E22681579058A059B0508F038
:103CB0001ECD8091370581111ACD81E073CD141688
:103CC00015060CF42AC1D50119968C911997E4E0D8
:103CD000F0E0823091F4E5E0F0E01796FC93EE938B
:103CE0001697F0CD181619060CF417C119968C9179
:103CF0001997E3E0F0E0823071F3D5011796FC9359
:103D0000EE93169781E019968C93DCCD112309F47C
:103D1000D9CDF5018185811105C021E030E03783DF
:103D20002683D0CDD50117961C921E921697199610
:103D30001C92C8CDC5010E94200644CE8430910556
:103D400009F46FC0059709F051CE0990D881C02DB4
:103D50008A819B810E9427128A819B81FC01EA5AF9
:103D6000FF4F8B539F4FDC018D919C9191838083FA
:103D70000A80DB81C02D84E090E00E9488222EED35
:103D800032E064C088819981DC01ED91FC9106806C
:103D9000F781E02D09952ACE88819981DC01ED918A
:103DA000FC910084F185E02DF5CF0990D881C02DDC
:103DB0008A819B810E9427120A80DB81C02DFE012F
:103DC000EF56FF4F818592858130910589F08230D1
:103DD0009105C1F0892BE9F484E090E00E948822EB
:103DE000FC0171826082BC01CE010E94890CFECD73
:103DF00084E090E00E948822E4EBF2E0DC01ED93A5
:103E0000FC93F1CF84E090E00E948822E6EAF2E0A1
:103E1000F5CF84E090E00E948822DC016D927C92D4
:103E2000E2CF0990D881C02D8A819B810E94271200
:103E30000A80DB81C02DFE01EF56FF4F12861186EE
:103E400084E090E00E94882220ED32E0FC01318382
:103E50002083C9CF233009F42ECE253008F078CE48
:103E600040E029CE243079F529892223F1F010E0B1
:103E700000E0EB3738F4F0E0EE0FFF1FE851FD4FA4
:103E8000008111810870127051E05A8B198A2B89B8
:103E90003C891216130634F0598B2F5F3F4F3C8B31
:103EA0002B8B25CE1C8A1B8A22CE10E000E0EB373C
:103EB00038F4F0E0EE0FFF1FE851FD4F0081118153
:103EC00021E0298B14CE10E000E0EB3708F00FCE94
:103ED000F0E0EE0FFF1FE851FD4F0081118107CE8A
:103EE000C9010E943A0698CE80913305909134051D
:103EF000A0913505B0913605881A990AAA0ABB0A1D
:103F0000B1EE8B16BEE29B06A104B10408F0D1CE3F
:103F1000EECB281739070CF4D2CE662309F4F6CE7F
:103F2000D50119968C9119978111FCCEE2E0F0E051
:103F3000D4CE262FF999FECF1FBA92BD81BD20BDE8
:103F40000FB6F894FA9AF99A0FBE01960895505850
:103F5000BB27AA270E94BF1F0C9439210E942B2146
:103F600038F00E94322120F039F49F3F19F426F4F2
:103F70000C9428210EF4E095E7FB0C942221E92F04
:103F80000E944A2158F3BA176207730784079507FE
:103F900020F079F4A6F50C946C210EF4E0950B2E2C
:103FA000BA2FA02D0B01B90190010C01CA01A0018B
:103FB0001124FF27591B99F0593F50F4503E68F1E6
:103FC0001A16F040A22F232F342F4427585FF3CF27
:103FD000469537952795A795F0405395C9F77EF4F8
:103FE0001F16BA0B620B730B840BBAF09150A1F041
:103FF000FF0FBB1F661F771F881FC2F70EC0BA0FC7
:10400000621F731F841F48F4879577956795B7954E
:10401000F7959E3F08F0B0CF9395880F08F0992749
:10402000EE0F9795879508950E94FE2008F481E091
:1040300008950E942D200C9439210E94322158F0BD
:104040000E942B2140F029F45F3F29F00C9422219B
:1040500051110C946D210C9428210E944A2168F37F
:104060009923B1F3552391F3951B550BBB27AA2731
:1040700062177307840738F09F5F5F4F220F331F6B
:10408000441FAA1FA9F335D00E2E3AF0E0E832D033
:1040900091505040E695001CCAF72BD0FE2F29D036
:1040A000660F771F881FBB1F261737074807AB0708
:1040B000B0E809F0BB0B802DBF01FF2793585F4F7D
:1040C0003AF09E3F510578F00C9422210C946D211A
:1040D0005F3FE4F3983ED4F3869577956795B7955F
:1040E000F7959F5FC9F7880F911D9695879597F96A
:1040F0000895E1E0660F771F881FBB1F62177307E3
:104100008407BA0720F0621B730B840BBA0BEE1FF7
:1041100088F7E09508950E9492206894B1110C945C
:104120006D2108950E94522188F09F5798F0B92F71
:104130009927B751B0F0E1F0660F771F881F991FDC
:104140001AF0BA95C9F714C0B13091F00E946C21F1
:10415000B1E008950C946C21672F782F8827B85F01
:1041600039F0B93FCCF3869577956795B395D9F734
:104170003EF490958095709561957F4F8F4F9F4F3E
:104180000895E89409C097FB3EF49095809570954A
:1041900061957F4F8F4F9F4F9923A9F0F92F96E993
:1041A000BB279395F695879577956795B795F11108
:1041B000F8CFFAF4BB0F11F460FF1BC06F5F7F4FA5
:1041C0008F4F9F4F16C0882311F096E911C07723B7
:1041D00021F09EE8872F762F05C0662371F096E8C0
:1041E000862F70E060E02AF09A95660F771F881F8F
:1041F000DAF7880F9695879597F90895990F000833
:10420000550FAA0BE0E8FEEF16161706E807F907A8
:10421000C0F012161306E407F50798F0621B730B43
:10422000840B950B39F40A2661F0232B242B252BC4
:1042300021F408950A2609F4A140A6958FEF811D67
:10424000811D089597F99F6780E870E060E0089508
:104250009FEF80EC089500240A941616170618069E
:104260000906089500240A9412161306140605067A
:104270000895092E0394000C11F4882352F0BB0F0B
:1042800040F4BF2B11F460FF04C06F5F7F4F8F4F6E
:104290009F4F089557FD9058440F551F59F05F3FA9
:1042A00071F04795880F97FB991F61F09F3F79F058
:1042B00087950895121613061406551FF2CF4695DA
:1042C000F1DF08C0161617061806991FF1CF86955C
:1042D0007105610508940895E894BB276627772740
:1042E000CB0197F908950E94FE2008F48FEF0895FE
:1042F0000E948B210C9439210E942B2138F00E94BE
:10430000322120F0952311F00C9422210C942821C5
:1043100011240C946D210E944A2170F3959FC1F3E2
:10432000950F50E0551F629FF001729FBB27F00D63
:10433000B11D639FAA27F00DB11DAA1F649F6627B8
:10434000B00DA11D661F829F2227B00DA11D621F07
:10435000739FB00DA11D621F839FA00D611D221FC1
:10436000749F3327A00D611D231F849F600D211DA5
:10437000822F762F6A2F11249F5750409AF0F1F028
:1043800088234AF0EE0FFF1FBB1F661F771F881F91
:1043900091505040A9F79E3F510580F00C94222186
:1043A0000C946D215F3FE4F3983ED4F386957795A6
:1043B0006795B795F795E7959F5FC1F7FE2B880F37
:1043C000911D9695879597F9089587FB082E0626E7
:1043D00087FD819567FD61950E9459220EF49195A4
:1043E00007FC8195089597FB072E16F4009407D0DB
:1043F00077FD09D00E94652207FC05D03EF4909518
:1044000081959F4F0895709561957F4F0895A1E222
:104410001A2EAA1BBB1BFD010DC0AA1FBB1FEE1F3E
:10442000FF1FA217B307E407F50720F0A21BB30B89
:10443000E40BF50B661F771F881F991F1A9469F705
:1044400060957095809590959B01AC01BD01CF0161
:104450000895052E97FB1EF400940E94402257FDFC
:1044600007D00E94072207FC03D04EF40C94402290
:1044700050954095309521953F4F4F4F5F4F089590
:1044800090958095709561957F4F8F4F9F4F0895C0
:10449000EE0FFF1F0590F491E02D09940E94792200
:1044A000A59F900DB49F900DA49F800D911D112488
:1044B0000895991B79E004C0991F961708F0961B80
:1044C000881F7A95C9F780950895AA1BBB1B51E1F7
:1044D00007C0AA1FBB1FA617B70710F0A61BB70B74
:1044E000881F991F5A95A9F780959095BC01CD0119
:1044F0000895A29FB001B39FC001A39F700D811DBD
:104500001124911DB29F700D811D1124911D0895DC
:104510000F931F93CF93DF938230910510F482E0C5
:1045200090E0E0917F06F091800630E020E0B0E07E
:10453000A0E0309799F42115310509F44AC0281BF1
:10454000390B24303105D8F58A819B8161157105BD
:1045500089F1FB0193838283FE0111C04081518167
:104560000281138148175907E0F04817590799F459
:10457000109761F012960C93129713961C93329633
:10458000CF01DF91CF911F910F91089500937F0686
:1045900010938006F4CF2115310551F042175307CF
:1045A00038F0A901DB019A01BD01DF01F801C1CF9B
:1045B000EF01F9CF9093800680937F06CDCFFE0167
:1045C000E20FF31F8193919322503109398328839D
:1045D000D7CF20917D0630917E06232B41F4209188
:1045E00002013091030130937E0620937D062091D5
:1045F0000001309101012115310541F42DB73EB77D
:104600004091040150910501241B350BE0917D067A
:10461000F0917E06E217F307A0F42E1B3F0B28173C
:10462000390778F0AC014E5F5F4F2417350748F02B
:104630004E0F5F1F50937E0640937D0681939193AA
:104640009FCFF0E0E0E09CCFCF93DF930097E9F0BD
:10465000FC01329713821282A0917F06B0918006EE
:10466000ED0130E020E01097A1F420813181820F2C
:10467000931F20917D0630917E062817390709F097
:1046800061C0F0937E06E0937D06DF91CF9108959F
:10469000EA01CE17DF07E8F54A815B819E014115EB
:1046A0005105B1F7E901FB83EA8349915991C40FA0
:1046B000D51FEC17FD0761F4808191810296840F6C
:1046C000951FE90199838883828193819B838A83E3
:1046D000F0E0E0E012968D919C9113970097B9F568
:1046E0002D913C911197CD010296820F931F20913D
:1046F0007D0630917E062817390739F6309751F537
:104700001092800610927F06B0937E06A0937D06DD
:10471000BCCFD383C28340815181840F951FC817BA
:10472000D90761F44E5F5F4F88819981480F591F07
:10473000518340838A819B81938382832115310534
:1047400009F0B0CFF0938006E0937F069ECFFD0185
:0E475000DC01C0CF13821282D7CFF894FFCFC6
:10475E00000081068000AD04B304B904BF04C50493
:10476E00CB04D10400001F001C001F001E001F0000
:10477E001E001F001F001E001F001E001F00000055
:10478E0000000100000003000000050000000A0008
:10479E0000000F0000001E0000002D0000003C0075
:1047AE0000000F270000200002004000000100085A
:1047BE00000000008506C4155A0D460D8606000041
:1047CE0000008306C015DF063B0E3B0E0000000006
:1047DE008206BE15541316139811000000008106B0
:1047EE008C15FC064F0EC615000000008006BC1589
:1047FE000E07770E630E000000007F06BA156707DE
:10480E008B0E1707000000007E06B8157F07B30E4B
:10481E009F0E000000007D06B615D707D70E88073D
:10482E00000000007C06B415EB07FF0EEB0E000037
:10483E0000007B06B2156108230FF407000000008C
:10484E007A06B015CF08370F8008000000007906F1
:10485E00AE15EE08970F830F000000007806AC151A
:10486E003B09BB0FF708000000007706AA15960952
:10487E00CF0F5209000000007606A815B5090710E3
:10488E00F30F000000007506A615D7092B10BE0900
:10489E00000000007406A4150F0A6414F609000047
:1048AE0000007306A215470A97142E0A0000000096
:1048BE007206A015630A6710531000000000700600
:1048CE009C15750AAC10AC10000000006F069A150E
:1048DE004F0BD410C010000000006E069815610B2F
:1048EE00FC10E810000000006D069615780B2411E0
:1048FE001011000000006A069015EC0B030DEA0C77
:10490E000000000069068E15FC0B320D170D00001D
:10491E0000006B069215D40BD60CA40C0000000000
:10492E0071069E156C0A9810841000000000840613
:10493E00C215D606E00DE00D9D02080215061906F9
:10494E00880699049D0409029D0699060000000040
:10495E000000000000000000000000000000000049
:10496E000000000000000000000000000000000039
:10497E000000000000000000000000000000000029
:10498E000000000000000000000000008106000092
:10499E0000000000000084009D02080215061906A2
:1049AE00880699049D0409029D06990600000000E0
:1049BE00000000000000000000008D069D0695001E
:1049CE009D02950485049D048C06080219020000C0
:1049DE00940009028D029D02850600008D06990441
:1049EE0094049C029C0218028C0688061506000090
:1049FE00000000000000000000008D069C0414045E
:104A0E001C06950685049D048C0404001902000002
:104A1E00940008040C041C04850600000404990488
:104A2E0094041C001C0018008C0698061506000045
:104A3E0000001A01A801BB006701EC00CA00DE00ED
:104A4E000000000087055A051D0630055305400578
:104A5E003105000000006C069415F8144C11381145
:104A6E005041207459007445206E6E005945204106
:104A7E007200646F205555004441207445007469DE
:104A8E00206E6E004F6E202020005369204C450092
:104A9E004F4620462000414C204172005345207461
:104AAE0020003030313030003939203939000D0ACC
:104ABE00004578636565646564206D6178696D7520
:104ACE006D206E756D626572206F662077726974E7
:104ADE00657300417474656D707420746F20777205
:104AEE00697465206F757473696465206F662045FF
:104AFE004550524F4D206D656D6F7279004E4E20B0
:104B0E006F6E007475204520005555204564007465
:104B1E0068207520004672206920005341207420C1
:0E4B2E00005375206E20004241204C6F0000A5
:00000001FF
