:100000000C9491000C94B9000C94B9000C94BC08A9
:100010000C94B9000C94B9000C94B9000C94B9007C
:100020000C94B9000C94B9000C94B9000C946008BD
:100030000C94B9000C94B9000C94B9000C94B9005C
:100040000C94F9060C94B9000C94C7060C94A10604
:100050000C94B9000C94B9000C94B9000C94B9003C
:100060000C9445070C94B9000C9443070C94430777
:100070000C9443070C9443070C9443070C944307D8
:100080000C9443070C9443070C9443070C944307C8
:100090000C9443070C9443070C9443070C944307B8
:1000A0000C9443070C9443070C9443070C944307A8
:1000B0000C94430700000000240027002A002D00B4
:1000C00000000000250028002B002E00000000008A
:1000D0002300260029002C00040404040404040462
:1000E00002020202020203030303030305050505DE
:1000F00001020408102040800102040810200102BF
:100100000408102004080102090C0A08000201007A
:1001100000030407000000000000000000000000D1
:10012000190911241FBECFEFD8E0DEBFCDBF12E00A
:10013000A0E0B1E0E2E2FEE202C005900D92AA3C2E
:10014000B107D9F724E0AAECB2E001C01D92A73AAA
:10015000B207E1F710E0C1E9D0E004C02197FE0149
:100160000E940917C039D107C9F70E940E0A0C94E2
:100170000F170C940000E2EAF4E09C012B5F3F4F64
:10018000DC014D91CD014193A217B307C9F7089542
:10019000FC01538D448D252F30E0842F90E0821B8D
:1001A000930B541710F0CF96089501970895FC0112
:1001B000918D828D981761F0A28DAE0FBF2FB11D6A
:1001C0005D968C91928D9F5F9F73928F90E00895C2
:1001D0008FEF9FEF0895FC01918D828D981731F07C
:1001E000828DE80FF11D858D90E008958FEF9FEFD0
:1001F0000895FC01918D228D892F90E0805C9F4FA6
:10020000821B91098F7399270895FC01A48DA80F73
:10021000B92FB11DA35ABF4F2C91848D90E0019648
:100220008F739927848FA689B7892C93A089B18968
:100230008C91837080648C93938D848D981306C009
:100240000288F389E02D80818F7D80830895EF926D
:10025000FF920F931F93CF93DF93EC0181E0888F80
:100260009B8D8C8D98131AC0E889F989808185FF50
:1002700015C09FB7F894EE89FF896083E889F989F2
:1002800080818370806480839FBF81E090E0DF91F4
:10029000CF911F910F91FF90EF900895F62E0B8D47
:1002A00010E00F5F1F4F0F731127E02E8C8D8E1102
:1002B0000CC00FB607FCFACFE889F989808185FF69
:1002C000F5CFCE010E940501F1CFEB8DEC0FFD2F94
:1002D000F11DE35AFF4FF0829FB7F8940B8FEA8924
:1002E000FB8980818062CFCFCF93DF93EC01888D33
:1002F0008823B9F0AA89BB89E889F9898C9185FDA1
:1003000003C0808186FD0DC00FB607FCF7CF8C912E
:1003100085FFF2CF808185FFEDCFCE010E940501E0
:10032000E9CFDF91CF91089586EB93E00E94F90029
:1003300021E0892B09F420E0822F089580E090E0ED
:10034000892B29F00E94940181110E94000080E015
:1003500090E0892B49F080E090E0892B29F00E9401
:10036000000081110C9400000895AF92BF92CF92CB
:10037000DF92EF92FF920F931F93CF93DF936C0165
:100380007B018B01040F151FEB015E01AE18BF0846
:10039000C017D10759F06991D601ED91FC910190F8
:1003A000F081E02DC6010995892B79F7C501DF9110
:1003B000CF911F910F91FF90EF90DF90CF90BF9062
:1003C000AF90089581508D3008F03DC0E82FF0E0E7
:1003D000E451FE4F0C94091703020702F901FF01D3
:1003E000230223020A02100214021A0223021E022E
:1003F0002402809180008F778093800008958091FF
:1004000080008F7DF9CF84B58F7784BD089584B542
:100410008F7DFBCF8091B0008F778093B0000895DF
:100420008091B0008F7DF9CF809190008F7780937D
:1004300090000895809190008F7DF9CF8091A00069
:100440008F778093A00008958091A0008F7DF9CFD1
:10045000CF93DF93282F30E0F901E85FFE4F8491BE
:10046000F901E051FF4FD491F901E852FF4FC491D7
:10047000CC23A1F081110E94E201EC2FF0E0EE0FFD
:10048000FF1FE453FF4FA591B491EC91ED2381E060
:1004900090E009F480E0DF91CF91089580E090E052
:1004A000FACF1F93CF93DF93282F30E0F901E85F55
:1004B000FE4F8491F901E051FF4FD491F901E852C8
:1004C000FF4FC491CC23A9F0162F81110E94E201A5
:1004D000EC2FF0E0EE0FFF1FE054FF4FA591B49119
:1004E0008FB7F894EC91111108C0D095DE23DC93FE
:1004F0008FBFDF91CF911F910895DE2BF8CF60E081
:100500008FE00E94510260E08EE00E94510260E0A4
:1005100088E00E94510260E087E00C945102CF9382
:10052000DF9390E0FC01E051FF4F249188529F4FF0
:10053000FC0184918823C9F090E0880F991FFC0189
:10054000EC54FF4FA591B491FC01E054FF4FC591CD
:10055000D49161110DC09FB7F8948C91209582239E
:100560008C938881282328839FBFDF91CF910895A2
:10057000623051F49FB7F8943C91822F8095832389
:100580008C93E8812E2BEFCF8FB7F894EC912E2B24
:100590002C938FBFEACF8E50806480937C00809133
:1005A0007A00806480937A0080917A0086FDFCCF87
:1005B000809178009091790008953FB7F8948091E8
:1005C000150390911603A0911703B091180326B557
:1005D000A89B05C02F3F19F00196A11DB11D3FBF7B
:1005E000BA2FA92F982F8827BC01CD01620F711D4A
:1005F000811D911D43E0660F771F881F991F4A9543
:10060000D1F708951F93CF93DF93C1E0C093D00239
:10061000882399F1D091B8001091BA008091BC0064
:100620008A7B8093BC0060E082E10E94510260E01E
:1006300083E10E94510210928C03C0938B031092AD
:10064000660361E082E10E94510261E083E10E9461
:1006500051028091B9008E7F8093B9008091B900DA
:100660008D7F8093B90080E28093B80085E4809309
:10067000BC001093BA00D093B800DF91CF911F91C6
:100680000895CF92DF92EF92FF920F931F93CF9333
:10069000DF93D091B50381E0D13208F09CC0C091C6
:1006A000B4030E94DD026B017C0180918C038111F7
:1006B0006CC082E080938C0381E080938B038FEF8A
:1006C00080938A0310928903D0938803A4E9B3E04E
:1006D000E8E6F3E080E0D8138DC0109267038091C4
:1006E0006703CC0FC82BC0936703809166038130EA
:1006F00009F084C0109266030E94DD026B017C0148
:10070000809167038093BB0080918E0390918F034B
:10071000A0919003B0919103892B8A2B8B2BA1F090
:100720000E94DD0200918E0310918F0320919003AF
:10073000309191036C197D098E099F0906171707DF
:100740002807390708F442C08091BC0083FDD8CF48
:1007500085EC8093BC000E94DD026B017C018091DE
:100760008C03823009F44CC080918A038F3F09F4D6
:1007700069C080918A03803209F466C080918A033F
:10078000803309F463C084E026C080918E03909189
:100790008F03A0919003B0919103892B8A2B8B2B0F
:1007A00009F483CF0E94DD0200918E0310918F0324
:1007B00020919003309191036C197D098E099F0956
:1007C000061717072807390708F06FCF80918D03A8
:1007D0000E94020385E0109293031092B5031092D9
:1007E0009203DF91CF911F910F91FF90EF90DF90D7
:1007F000CF9008959D9191938F5F6DCF85EEA9CF96
:1008000080918E0390918F03A0919003B0919103FA
:10081000892B8A2B8B2B09F4A2CF0E94DD02009139
:100820008E0310918F0320919003309191036C19E6
:100830007D098E099F09061717072807390708F051
:100840008ECFC4CF80E0C7CF82E0C5CF83E0C3CFD7
:100850002091F102260F3327331F21323105ECF4AA
:1008600020918C03FC0190E080E0243069F082E06C
:100870000895A091F1022191AC014F525D4FA40F58
:10088000B52FB11D2C930196861798F38091F10234
:10089000680F6093F10280E0089581E00895089563
:1008A000E0912F0380912E03E81730F4F0E0E05D33
:1008B000FC4F808190E008958FEF9FEF0895909115
:1008C0002F0380912E032FEF3FEF981748F4E92F65
:1008D000F0E0E05DFC4F208130E09F5F90932F03BC
:1008E000C901089580912E0390912F03891B990BC4
:1008F0000895CF92DF92EF92FF920F931F93CF93C1
:10090000DF937C01CB018A0120919203222389F09D
:10091000EB016B01C40ED51ECC15DD0569F06991A4
:10092000D701ED91FC910190F081E02DC70109956F
:10093000F3CF642F0E942804C801DF91CF911F914B
:100940000F91FF90EF90DF90CF900895CF93DF93BA
:100950001F92CDB7DEB76983209192032223F9F06D
:100960002091B503203258F021E030E0FC013383C0
:10097000228390E080E00F90DF91CF9108958091E5
:100980009303E82FF0E0EC56FC4F998190838F5F42
:10099000809393038093B50381E090E0ECCF61E016
:1009A000CE0101960E942804F7CF682F83E594E0DA
:1009B0000C94A604CF92DF92EF92FF920F931F93B5
:1009C000CF93DF93C82FD62EF42E122F81E0809381
:1009D000920388E68093B403109293031092B503B8
:1009E00090E080E00E94D5048C2F90E0CAE0D0E037
:1009F000BE010E94F51624E0660F771F2A95E1F7E5
:100A0000860F971F0E94D5048D2D90E0BE010E9495
:100A1000F51634E0660F771F3A95E1F7860F971FBA
:100A20000E94D5048F2D90E0BE010E94F51644E08F
:100A3000660F771F4A95E1F7860F971F0E94D5042E
:100A4000812F90E0BE010E94F51654E0660F771FDB
:100A50005A95E1F7860F971F0E94D504802F90E0EA
:100A6000BE010E94F516E4E0660F771FEA95E1F7F4
:100A7000860F971F0E94D5048E2D90E0BE010E9424
:100A8000F516F4E0660F771FFA95E1F7860F971FCA
:100A90000E94D5048C2D90E0BE010E94F516A4E0C2
:100AA000660F771FAA95E1F7860F971F0E94D5045E
:100AB000DF91CF911F910F91FF90EF90DF90CF903A
:100AC0000C94410390E080E00895CF93DF93FC0104
:100AD00001900020E9F73197AF01481B590BBC0189
:100AE00086EB93E00E94B501EC0142E050E06BE43C
:100AF00072E086EB93E00E94B5018C0F9D1FDF91A1
:100B0000CF91089520916403309165032F5F3F4F8B
:100B1000309365032093640340915F045091600417
:100B20004115510519F04217530734F48EE492E051
:100B30000E94650580E00895682F80E190E00E94A2
:100B40007B1481E00895CF92EF920F93CF93C82F3B
:100B5000E0912C03F0912D033797ED30F10500F56E
:100B6000EC54FA4F0C940917C105D0052E06D00598
:100B70003B06D0054A06D0055306D0055A06D005D7
:100B80005F06C0906704E0906604009165042091C0
:100B90006404409121036091620480E00E94DA04C1
:100BA0000E947F0260E081E00E94510260E082E0EA
:100BB0000E94510260E080E00E94510260E084E007
:100BC0000E94510260E086E10E94510260E085E0EF
:100BD0000E94510260E086E00E94510260E085E1DF
:100BE0000E94510281E080935F031092850410926D
:100BF0008604109287041092880410928004109248
:100C000081041092820410928304CC2309F45CC006
:100C10008091680081608093680080916B0084609F
:100C200080936B0080917A008093CF0210927A00BB
:100C300085B7982F90668F7D80648093CE0295BF94
:100C40008091CE0285BF10926F0083B7816083BF11
:100C50008895CF910F91EF90CF900895C090670441
:100C6000E09066040091650420916404409163045F
:100C70006091210392CFC0906704E09066040091D8
:100C80006504209121034091630460916204809186
:100C9000610484CFC0906704E09066040091210352
:100CA00020916404F0CFC0906704E090210300918C
:100CB0006504F6CFC0902103E0906604F8CF8091E0
:100CC00000010E9482056CCF1092680010926B00A8
:100CD000A9CF85ED8093BC0080918E0390918F0306
:100CE000A0919003B09191030796A11DB11D23E03F
:100CF000B695A795979587952A95D1F72091BC0031
:100D000024FD03C010928C03089540918E035091EE
:100D10008F036091900370919103452B462B472BD5
:100D200069F30097A105B10541F02AE12A95F1F791
:100D300000C00197A109B109E1CF80918D030C9406
:100D400002031F920F920FB60F9211242F933F931D
:100D50004F935F936F937F938F939F93AF93BF93C3
:100D6000EF93FF9386EB93E00E940501FF91EF91D3
:100D7000BF91AF919F918F917F916F915F914F91B3
:100D80003F912F910F900FBE0F901F9018951F92BB
:100D90000F920FB60F9211242F938F939F93EF937F
:100DA000FF93E091C603F091C7038081E091CC03EB
:100DB000F091CD0382FD1BC090818091CF038F5FA6
:100DC0008F732091D003821741F0E091CF03F0E0C0
:100DD000EA54FC4F958F8093CF03FF91EF919F9141
:100DE0008F912F910F900FBE0F901F9018958081BB
:100DF000F4CF1F920F920FB60F9211242F933F93AF
:100E00008F939F93AF93BF938091190390911A038F
:100E1000A0911B03B0911C033091140326E0230F13
:100E20002D3758F50296A11DB11D20931403809310
:100E3000190390931A03A0931B03B0931C03809192
:100E4000150390911603A0911703B0911803019612
:100E5000A11DB11D8093150390931603A093170352
:100E6000B0931803BF91AF919F918F913F912F91B4
:100E70000F900FBE0F901F90189529E8230F03962F
:100E8000A11DB11DD2CF0C94B9001F920F920FB6C5
:100E90000F9211242F933F934F935F936F937F9300
:100EA0008F939F93AF93BF93EF93FF938091B9007C
:100EB000887F803609F44AC0F0F5883209F4A5C06D
:100EC00018F5803109F499C0B8F4882309F4F5C005
:100ED000883009F492C0FF91EF91BF91AF919F913B
:100EE0008F917F916F915F914F913F912F910F90D3
:100EF0000FBE0F901F901895883109F486C080327C
:100F000051F780938A0314C0803409F49BC040F4E5
:100F10008033B9F38833F9F680938A0385ECAEC049
:100F2000803509F483C0883509F494C0883499F673
:100F30000E946906D0CF883909F48AC038F588370D
:100F400029F050F4883611F0803729F683E0809339
:100F50008C031092130355C0883809F479C0803986
:100F600019F0803809F0B7CF80911303803208F070
:100F70006FC0E091130381E08E0F80931303809183
:100F8000BB00F0E0ED50FD4F80833BC0803B39F06B
:100F9000D0F4803A09F477C0883A09F09CCF84E015
:100FA00080938C031092F2021092F102F0E0E0E0E4
:100FB00009958091F10281110FC081E08093F102C7
:100FC0001092D10209C0803C09F4A8CF883C09F4F2
:100FD000A5CF883B09F07FCFE091F20281E08E0F30
:100FE0008093F202F0E0EF52FD4F80818093BB00CE
:100FF0009091F2028091F10229C080916703809361
:10100000BB0085EC8093BC0066CF909189038091F2
:101010008803981758F5E091890381E08E0F80933B
:101020008903F0E0E859FC4F8081E9CFE091890322
:1010300081E08E0F809389038091BB00F0E0E85936
:10104000FC4F808390918903809188039817C8F2A0
:1010500085E8D8CFE091890381E08E0F80938903E2
:101060008091BB00F0E0E859FC4F808380918B03B6
:1010700081115ECF81E08093660384EA8093BC0097
:1010800010928C0328CF85EC8093BC0010928C03C7
:1010900080911303803230F4E0911303F0E0ED50BF
:1010A000FD4F10826091130370E083EF92E0F0E057
:1010B000E0E00995109213030ECF10928A0338CF07
:1010C0001F920F920FB60F9211242F933F934F93BD
:1010D0005F936F937F938F939F93AF93BF93EF93A0
:1010E000FF938FB7F8944091190350911A036091C0
:1010F0001B0370911C038FBF80919E0490919F04ED
:101100009C01285031092230310518F082319105B7
:101110002CF160E085E00E94510260E086E00E94D0
:10112000510280919E0490919F0401968431910513
:10113000F1F090939F0480939E04FF91EF91BF91F3
:10114000AF919F918F917F916F915F914F913F915F
:101150002F910F900FBE0F901F901895883091051A
:1011600014F461E0D7CF0A970897D8F6FACF109217
:101170009F0410929E04E1CF1F920F920FB60F9220
:1011800011242F933F934F935F936F937F938F938C
:101190009F93AF93BF93EF93FF9380915F03882357
:1011A000B9F181E0809350038093A00410925F0313
:1011B000809172048093840483B78E7F83BF809173
:1011C000CF0280937A0010922D0310922C0380910D
:1011D000600390916103A0916203B09163038093D7
:1011E000570390935803A0935903B0935A03109256
:1011F000CA021092CB021092CC021092CD028091C2
:101200006F00826080936F0061E085E10E9451026F
:10121000FF91EF91BF91AF919F918F917F916F91CE
:101220005F914F913F912F910F900FBE0F901F90A4
:101230001895CF93DF93E6EBF3E01382128288EEEA
:1012400093E0A0E0B0E084839583A683B7832BE28C
:1012500032E03183208325EC30E03587248724EC8D
:1012600030E03787268720EC30E0318B208B21EC73
:1012700030E0338B228B22EC30E0358B248B26EC54
:1012800030E0378B268B118E128E138E148EE3E591
:10129000F4E01382128284839583A683B7838DE35F
:1012A00092E09183808384E690E090936004809341
:1012B0005F042AE0E1E0F1E0A9E8B4E001900D92DA
:1012C0002A95E1F7C9E8D4E02AEF30E03B872A8786
:1012D0009C8B8B8B61E085E00E948F0261E086E051
:1012E0000E948F0261E080E00E948F0261E081E055
:1012F0000E948F0261E082E00E948F0261E084E040
:101300000E948F0261E086E10E948F0260E086E128
:101310000E94510261E085E00E94510260E086E097
:101320000E945102F89410928000E1E8F0E01082EF
:10133000109285001092840086E090E090938900DE
:10134000809388008081886080838081836080832F
:10135000EFE6F0E080818260808378941C86198AB1
:101360001A8A1D861E861F86188A188E1E8A1D8A56
:101370001F8AC8E6D4E08AE090E0998388838FE0F2
:1013800090E09B838A838EE091E09D838C8384E050
:1013900091E09F838E8380EF90E09987888784E037
:1013A00090E09B878A8783E090E09D878C8782E02E
:1013B00090E09F878E8781E090E0998B888B1B8AD5
:1013C0001A8A60E080E10E948F021C8A1D8A1E8AB0
:1013D0001F8A188E198E1A8E1B8E1C8E1D8E1E8EC5
:1013E0001F8E18A261E08FE00E948F0261E08EE004
:1013F0000E948F0261E088E00E948F0261E087E036
:101400000E948F02E1E6F4E01082118212821382C0
:10141000148215821682DF91CF910895CF93DF93C6
:1014200000D000D000D0CDB7DEB7789484B582600C
:1014300084BD84B5816084BD85B5826085BD85B578
:10144000816085BD80916E00816080936E001092F6
:101450008100809181008260809381008091810071
:101460008160809381008091800081608093800002
:101470008091B10084608093B1008091B000816060
:101480008093B00080919100826080939100809160
:1014900091008160809391008091900081608093A1
:1014A00090008091A10082608093A1008091A100B2
:1014B00081608093A1008091A00081608093A00052
:1014C00080917A00846080937A0080917A008260B3
:1014D00080937A0080917A008E7F80937A00809149
:1014E0007A00806880937A001092C10060E084E105
:1014F0000E948F0280E190E00E94731480930001AB
:1015000062E089E00E948F0262E08AE00E948F021E
:1015100061E085E10E948F0260E085E10E94510256
:1015200083B7817F846083BF81E00E94A3051AE0B6
:10153000212E312C8FB7F894C0901903D0901A0344
:10154000E0901B03F0901C038FBFC0926003D09209
:101550006103E0926203F09263038091840490E05F
:1015600020917204309173048217930709F0D5C05B
:1015700040917C0450917D0460917E0470917F04C1
:1015800097018601041B150B260B370B809168040D
:1015900090916904B0E0A0E080179107A207B3071B
:1015A00028F0452B462B472B09F06EC0C0927C04D7
:1015B000D0927D04E0927E04F0927F0480E10E944C
:1015C000CB029E838D83C0908004D0908104E090F4
:1015D0008204F090830460916A0470916B0490E03F
:1015E00080E00E94A31569837A838B839C839B018F
:1015F000AC01C701B6010E94F61487FF48C02D81D7
:101600003E81B90190E080E00E94A31520918504FD
:101610003091860440918704509188040E948A1476
:101620004B015C018092850490928604A09287040D
:10163000B092880420E030E040E85FE3C701B601E3
:101640000E948A146B017C01C0928004D0928104B4
:10165000E0928204F0928304AC019B0169817A815B
:101660008B819C810E94F61481110EC0A701960106
:10167000C501B4010E94FB14609385047093860435
:1016800080938704909388040E949E0153CFC0905A
:101690008504D0908604E0908704F09088046091DF
:1016A0006C0470916D0490E080E00E94A3159B0192
:1016B000AC01C701B6010E94551618162CF4809192
:1016C0007A0480938404E0CF60916E0470916F047B
:1016D00090E080E00E94A3159B01AC01C701B60118
:1016E0000E94551618161CF480917804EACF609178
:1016F00070047091710490E080E00E94A3159B013A
:10170000AC01C701B6010E94551618161CF4809151
:101710007604D7CF80917404D4CF20917404309193
:1017200075048217930721F480E00E94A305ACCFD3
:1017300080915F03811127C08091A004882319F153
:1017400061E086E10E945102209184048091760438
:10175000909177042817190621F061E082E00E9439
:1017600051021092A004C0925B03D0925C03E092FD
:101770005D03F0925E03C0925703D0925803E0924B
:101780005903F0925A032091840480917604909139
:1017900077042817190609F441C38AE00E94280239
:1017A0002091510330915203892B41F42F5F3F4F19
:1017B0003093520320935103198209C01216130665
:1017C000DCF7109252031092510331E0398389E023
:1017D0000E9428022091530330915403892B41F435
:1017E0002F5F3F4F309354032093530340E008C0D2
:1017F00012161306DCF7109254031092530341E0C3
:1018000080915303909154032091510330915203DE
:10181000293E334014F40C945F14893E93400CF439
:101820008EC085E090E0909356038093550306C0E8
:1018300024E030E0309356032093550381E08093F9
:10184000500381E08093920388E68093B403109262
:1018500093031092B50390E080E00E94D5040E94AB
:1018600041030E94DD026B017C0180918C03811198
:1018700088C081E080938C0380938B039FEF9093CB
:101880008A031092890396E09093880380936703FC
:1018900080916703806D8093670380916603813038
:1018A00009F07AC1109266030E94DD026B017C018F
:1018B000809167038093BB0080918E0390918F038A
:1018C000A0919003B0919103892B8A2B8B2BA1F0CF
:1018D0000E94DD0200918E0310918F0320919003EE
:1018E000309191036C197D098E099F09061717071E
:1018F0002807390708F466C08091BC0083FDD8CF63
:1019000085EC8093BC000E94DD026B017C0180911C
:101910008C03813009F442C180918903873008F03B
:101920005FC180918903E8E6F3E0A0E3B3E090E0D3
:10193000981709F44CC021912D939F5FF9CF83E054
:1019400090E071CF80915003811114C059815523CB
:1019500009F477CF80915003811107C061E070E0F6
:1019600070935603609355036CCF80915003882386
:1019700009F467CF1092560310925503109250034A
:1019800060CF80918E0390918F03A0919003B091CE
:101990009103892B8A2B8B2B09F467CF0E94DD02E0
:1019A00000918E0310918F03209190033091910349
:1019B0006C197D098E099F09061717072807390733
:1019C00008F053CF80918D030E94020380E01092B3
:1019D0002F0380932E0383E594E00E945F04AC0103
:1019E000B4E055954795BA95E1F7477055276AE0F9
:1019F000649F9001659F300D11248F709927820F8D
:101A0000931F8093610483E594E00E945F04AC011E
:101A100097FF02C0415F5F4FF4E055954795FA95F7
:101A2000E1F77AE0749F9001759F300D112460E119
:101A300070E00E94F516820F931F8093620483E585
:101A400094E00E945F04AC01A4E055954795AA95E7
:101A5000E1F743705527EAE0E49F9001E59F300DE0
:101A600011248F709927820F931F8093630483E55D
:101A700094E00E945F04AC0197FF02C0415F5F4F9A
:101A8000E4E055954795EA95E1F76AE0649F900197
:101A9000659F300D112460E170E00E94F516820F01
:101AA000931F8093640483E594E00E945F04AC017B
:101AB00097FF02C0415F5F4F74E0559547957A9557
:101AC000E1F76AE0649F9001659F300D112460E1A9
:101AD00070E00E94F516820F931F8093650483E5E2
:101AE00094E00E945F04AC0197FF02C0415F5F4F2A
:101AF00064E0559547956A95E1F76AE0649F900127
:101B0000659F300D112460E170E00E94F516820F90
:101B1000931F8093660483E594E00E945F049C0118
:101B200097FF02C0215F3F4F44E0359527954A95C6
:101B3000E1F74AE0429F6001439FD00C112460E12D
:101B400070E00E94F516C80ED91EC0926704E0919D
:101B50002C03F0912D03A0905503B0905603E5316E
:101B6000F10508F05EC0E954F24F0C940917F20D2C
:101B7000890FAE0FCD0FE90F9F11B011CA11FC11E3
:101B80001A1250126912A212BB120E1327136813F5
:101B90008513C613D713A21085EEB3CE80918E03A2
:101BA00090918F03A0919003B0919103892B8A2B80
:101BB0008B2B09F4ACCE0E94DD0200918E031091B4
:101BC0008F0320919003309191036C197D098E0948
:101BD0009F09061717072807390708F098CEF2CE95
:101BE00087E0A1CE80916304309162042AE0622FE5
:101BF0000E94C7168093A2049093A30481E080936F
:101C0000A404832F0E94C7168093A5049093A60472
:101C100021E0A216B10409F070C1B0922D03A09288
:101C20002C0380915503909156038430910509F05F
:101C3000E6C545E050E050932D0340932C0380907F
:101C4000600390906103A0906203B09063032091C1
:101C50008404809178049091790428171906C9F4B6
:101C600080915B0390915C03A0915D03B0915E0352
:101C7000A5019401281B390B4A0B5B0BDA01C90142
:101C8000803D9740A105B10520F480EA92E00E94D2
:101C9000BB0080919504823019F483E08093950411
:101CA00080919B04811110929B04809196049091E5
:101CB0009704A0919804B0919904B501A401481B20
:101CC000590B6A0B7B0B8091930490919404092E1D
:101CD000000CAA0BBB0B481759076A077B0720F0BB
:101CE0004091A104442331F041E08091A40480326A
:101CF00009F440E0209195048091A504803209F018
:101D000088C5213009F088C5822F90E0FC01E75793
:101D1000FB4FE18D211185C520919A04222309F4FE
:101D2000AFC5F12CE12CEA3738F4F0E0EE0FFF1FDD
:101D3000E55FFE4FE080F18054E8E522FF2421E0DA
:101D400020939B0410929A04880F991FFC01E75777
:101D5000FB4F80819181E82AF92A442331F0809158
:101D60008D0490918E04E82AF92A61E084E00E94B3
:101D700051021A821982C701098002C0969587957F
:101D80000A94E2F761E080FF60E080E00E94510287
:101D90005A985A9A599A599889819A8101969A83A0
:101DA00089830C9741F760E084E00E9451028091A2
:101DB000950490919A04992319F0982F9B7F19F01C
:101DC0008F5F809395048091960490919704A091E1
:101DD0009804B0919904B501A401481B590B6A0BF2
:101DE0007B0B8091930490919404880F991F092E86
:101DF000000CAA0BBB0B84179507A607B70740F486
:101E00008092960490929704A0929804B0929904BC
:101E100080919504853011F410929504809184048A
:101E200090E020917804309179048217930739F07B
:101E300020917604309177048217930751F54091F1
:101E40005B0350915C0360915D0370915E03809130
:101E5000600390916103841B950B803DE7E09E0732
:101E6000C0F46CE271E00E94E1168639910508F039
:101E700023C561E08FE00E94510261E08EE00E9484
:101E8000510261E088E00E94510261E087E00E9417
:101E9000510240916003509161036091620370911F
:101EA00063038091550390915603892B41F0409331
:101EB0005703509358036093590370935A03109239
:101EC0005603109255031092A104809157039091EC
:101ED0005803A0915903B0915A03481B590B6A0B40
:101EE0007B0B493A51466105710508F4CDCB8091D1
:101EF0005F038111C9CB81E018CC32E0A316B10495
:101F000009F08FCE83E090E090932D0380932C0313
:101F100088CE31E03093A10480916604409165043D
:101F20002AE0622F0E94C7168093A2049093A30414
:101F30003093A404842F0E94C7168093A504909325
:101F4000A60462E070E041E0A416B10409F4D8C32D
:101F500072E0A716B10409F064CED4CF8091610479
:101F600090E29093A2049093A3049093A4046AE057
:101F70000E94C7168093A5049093A60481E0A8163A
:101F8000B10429F410922D0310922C034ACE92E052
:101F9000A916B10409F045CEB5CFE0916404E15033
:101FA000FF0BEE0FFF1FE150FE4F808191810E94D9
:101FB000BB00E1E0AE16B10429F344E050E022E0BA
:101FC000A216B10409F02DCE50932D0340932C039B
:101FD00028CE8091600390916103A0916203B0913B
:101FE000630340911D0350911E0360911F03709184
:101FF00020038C019D01041B150B260B370B093E9A
:1020000013402105310520F4452B462B472B59F56C
:1020100080931D0390931E03A0931F03B09320038E
:1020200084E10E94CB02BC01990F880B990B0E949E
:10203000A51523E333E343E550E40E945A1620E05C
:1020400030E040E85AE30E945A1620E030E040E0D9
:102050005FE30E9489142AE037ED43E25CE30E94CB
:10206000FB142B013C01209100012983263409F047
:102070004BC020E030E040E151E4C301B2010E94D6
:102080005A1620E030E040EA50E40E94FB1420E0C1
:1020900030E040E052E40E948A146B017C0120E0B1
:1020A00030E048EC52E40E94FB140E9474156093E7
:1020B000A20420E030E040E251E4C701B6010E94F2
:1020C000FB140E946D15CB01B1010E94F51680939F
:1020D000A30480E28093A404C701B6010E946D1599
:1020E000CB01B1010E94F5168093A504398130938C
:1020F000A60441E0A416B10409F444CF52E0A516A9
:10210000B10409F08ECD3ECF81E08093A10420E0A0
:1021100030E040E251E4C301B2010E94FB140E948E
:1021200074156093A204C301B2010E946D15CB0126
:10213000B1010E94F5168093A30480E28093A40469
:102140008AE2D2CFE0902303F0902403E0912703AA
:10215000F091280320912503309126033A832983A7
:1021600040912B03442309F481C08091630490E0E3
:102170008E1B9F0B60E17EE0869F9001879F300D54
:10218000969F300D11248091620490E069817A81DC
:10219000861B970B5CE3589FB001599F700D11246B
:1021A000260F371F8091610490E08E199F09280F38
:1021B000391FC9016CE370E00E94F516162F6436D2
:1021C0000CF013E6C9016CE370E00E94F516382F9D
:1021D0002AE0812F622F0E94D3168093A20490934D
:1021E000A30481E08093A404832F622F0E94D3165E
:1021F0008093A5049093A60471E0A716B10409F496
:10220000C1CE82E0A816B10409F00BCD442309F435
:102210005DC010922B038091650490E0209129030A
:1022200030912A03821B930B90932A0380932903F6
:102230008091630490E08E1B9F0B90932803809302
:1022400027038091620490E029813A81821B930BDD
:1022500090932603809325038091610490E08E196A
:102260009F099093240380932303DBCCE114F104B2
:1022700031F429813A81232B11F43097C9F081E0A0
:102280008093A10480E19EE0E89F9001E99F300DDA
:10229000F89F300D11245CE369817A81569FC0015B
:1022A000579F900D1124280F391F2E0D3F1D81CFF0
:1022B00081E08093A1041092A2041092A304809361
:1022C000A4041092A5041092A60496CFEF2831F52D
:1022D00049815A81452B11F5EF2B01F581E080935F
:1022E0002B038091610490E0909324038093230357
:1022F0008091620490E0909326038093250380915F
:10230000630490E0909328038093270380916504F1
:1023100090E090932A038093290383CC10922403A6
:102320001092230310922603109225031092280383
:102330001092270310922A031092290372CC80E78F
:1023400092E00E94BB0051E0A516B10409F41ACE38
:1023500062E0A616B10409F064CC86E090E0D4CD2A
:1023600086E792E00E94BB0091E0A916B10451F407
:1023700087E090E090932D0380932C038091630479
:1023800090E08AC1E2E0AE16B10409F04ACC88E0E0
:1023900090E0BACDE0912103F0912203CF01B10189
:1023A0000E94E1166093A2048093A30480E28093CC
:1023B000A4048093A5048093A60422E0A216B1048D
:1023C00051F43196E831F10509F450C0F09322033D
:1023D000E093210326CCAA94AB2809F022CCE0900C
:1023E000660400916504209164044E2F609162049C
:1023F00080E00E94DA04CBCF8CE792E00E94BB0021
:1024000041E0A416B10449F489E090E090932D03D3
:1024100080932C0380916204B3CF52E0A516B104DF
:1024200009F0FFCB30922D0320922C038FE680938E
:10243000A504F7CBE0912103F091220380E2809381
:10244000A2048093A3048093A404CF01B1010E944D
:10245000E1166093A5048093A60462E0A616B10479
:1024600051F43196EC33F10509F0B0CF109222030C
:1024700010922103D6CBAA94AB2809F0D2CBE090DE
:1024800066040091650420916404409163046E2FFA
:1024900080E00E94DA0430922D0320922C03C1CBFD
:1024A00082E892E00E94BB0081E0A816B10449F4E2
:1024B0008BE090E090932D0380932C038091640433
:1024C0005FCF92E0A916B10409F0ABCB8CE090E0AD
:1024D0001BCD20912103309122033A832983422F7F
:1024E0004150550BFA01EE0FFF1FE150FE4F808166
:1024F00091810E94BB0052E0A516B10479F4698174
:102500007A816F5F7F4F7A8369836830710509F440
:10251000C1C0709322036093210383CBAA94AB289C
:1025200009F07FCBC0906704E090660400916504D9
:1025300029814091630460916204809161040E944A
:10254000DA04C4CF88E892E00E94BB00E1E0AE1656
:10255000B10449F48DE090E090932D0380932C0317
:10256000809165040DCF22E0A216B10409F059CB89
:102570008EE090E0C9CC009121031091220380E20B
:102580008093A2048093A3048093A404C801B101A2
:102590000E94E1166093A5048093A60432E0A3167E
:1025A000B10459F50F5F1F4F1093220300932103CD
:1025B00020916604E22FF0E0EE0FFF1FE35FFD4F76
:1025C0008081918101960817190731F441E050E0AC
:1025D00050932203409321038C2D837009F021CB6B
:1025E000223009F01ECB80912103909122034D9758
:1025F00009F017CB61E070E08CCFAA94AB2809F00A
:1026000010CBE090660420916404409163046091D3
:102610006204809161040E94DA04AACF8EE892E0FD
:102620000E94BB0081E0A816B10449F42FE030E01D
:1026300030932D0320932C0380916604A1CE40E1BA
:1026400050E032E0A316B10409F0EBCABDCCE09033
:102650002103F0902203C701B1010E94E1166093AB
:10266000A2048093A30480E28093A4048093A50431
:102670008093A60452E0A516B10499F46FEFE61A10
:10268000F60A7DE0E716F10429F0F0922203E092C9
:102690002103C7CA81E090E0909322038093210335
:1026A000C0CAAA94AB2809F0BCCA00916504209165
:1026B00064044091630460916204809161040E940B
:1026C000DA0420E130E030932D0320932C03A9CAD3
:1026D00084E992E00E94BB0031E0A316B10449F402
:1026E00041E150E050932D0340932C038091670407
:1026F00047CE52E0A516B10409F093CA62E170E03A
:1027000070932D0360932C038CCAC0902103D0904A
:10271000220382E38093A20480E38093A30480E2F7
:102720008093A404C601B1010E94E1166093A50440
:102730008093A60472E0A716B10499F48FEFC81A2B
:10274000D80A94E6C916D10429F0D0922203C09287
:10275000210367CA24E130E0309322032093210350
:1027600060CAAA94AB2809F05CCAE09066040091A4
:102770006504209164044091630460916204809137
:1027800061040E94DA0442E150E01ECC8AE992E042
:102790000E94BB0063E170E051E0A516B10409F4AA
:1027A000AFCF72E0A716B10409F03BCAD6CD809135
:1027B000000190E29093A2049093A3049093A40448
:1027C0009AE29093A5048093A60491E0A916B1041F
:1027D00049F426E030E030932D0320932C030E942F
:1027E00082051FCA32E0A316B10409F01ACA833465
:1027F00021F486E48093000114CA83E4FBCF03979D
:1028000009F01DCA64E170E070932D0360932C03FE
:1028100016CA233009F478CA253008F0C8CA40E047
:1028200073CA2430E1F520919A04222349F1F12C56
:10283000E12CEA3738F4F0E0EE0FFF1FE55FFE4FC2
:10284000E080F18068E0E62262E0F62251E05093F9
:102850009B0410929A0420919C0430919D041216BE
:1028600013064CF050939A042F5F3F4F30939D0412
:1028700020939C0469CA10929D0410929C0464CA1F
:10288000F12CE12CEA3738F4F0E0EE0FFF1FE55FA2
:10289000FE4FE080F18021E020939A0455CAF12C8C
:1028A000E12CEA3708F050CAF0E0EE0FFF1FE55FB9
:1028B000FE4FE080F18048CA0E947F02EACA893E4A
:1028C000934014F00C94180C442309F43FC88091F1
:1028D0005003811137C842E050E0509356034093B3
:1028E00055030C94210CF999FECF92BD81BDF89A45
:1028F000992780B50895262FF999FECF1FBA92BD6A
:1029000081BD20BD0FB6F894FA9AF99A0FBE0196D0
:1029100008955058BB27AA270E94A1140C941B1697
:102920000E940D1638F00E94141620F039F49F3FD3
:1029300019F426F40C940A160EF4E095E7FB0C94B7
:102940000416E92F0E942C1658F3BA176207730772
:102950008407950720F079F4A6F50C944E160EF432
:10296000E0950B2EBA2FA02D0B01B90190010C019F
:10297000CA01A0011124FF27591B99F0593F50F4B7
:10298000503E68F11A16F040A22F232F342F44270F
:10299000585FF3CF469537952795A795F040539507
:1029A000C9F77EF41F16BA0B620B730B840BBAF0D7
:1029B0009150A1F0FF0FBB1F661F771F881FC2F742
:1029C0000EC0BA0F621F731F841F48F48795779556
:1029D0006795B795F7959E3F08F0B0CF9395880F10
:1029E00008F09927EE0F9795879508950E94E015B6
:1029F00008F481E008950E940F150C941B160E94A4
:102A0000141658F00E940D1640F029F45F3F29F08B
:102A10000C94041651110C944F160C940A160E9433
:102A20002C1668F39923B1F3552391F3951B550B9D
:102A3000BB27AA2762177307840738F09F5F5F4F91
:102A4000220F331F441FAA1FA9F335D00E2E3AF0D0
:102A5000E0E832D091505040E695001CCAF72BD0E8
:102A6000FE2F29D0660F771F881FBB1F2617370739
:102A70004807AB07B0E809F0BB0B802DBF01FF276B
:102A800093585F4F3AF09E3F510578F00C9404162E
:102A90000C944F165F3FE4F3983ED4F386957795F8
:102AA0006795B795F7959F5FC9F7880F911D969524
:102AB000879597F90895E1E0660F771F881FBB1F80
:102AC000621773078407BA0720F0621B730B840B2D
:102AD000BA0BEE1F88F7E09508950E94741568946C
:102AE000B1110C944F1608950E94341688F09F5728
:102AF00098F0B92F9927B751B0F0E1F0660F771F22
:102B0000881F991F1AF0BA95C9F714C0B13091F017
:102B10000E944E16B1E008950C944E16672F782F40
:102B20008827B85F39F0B93FCCF3869577956795DC
:102B3000B395D9F73EF490958095709561957F4F48
:102B40008F4F9F4F0895E89409C097FB3EF49095EE
:102B50008095709561957F4F8F4F9F4F9923A9F076
:102B6000F92F96E9BB279395F69587957795679505
:102B7000B795F111F8CFFAF4BB0F11F460FF1BC049
:102B80006F5F7F4F8F4F9F4F16C0882311F096E9DC
:102B900011C0772321F09EE8872F762F05C066238A
:102BA00071F096E8862F70E060E02AF09A95660F43
:102BB000771F881FDAF7880F9695879597F90895FC
:102BC000990F0008550FAA0BE0E8FEEF161617063E
:102BD000E807F907C0F012161306E407F50798F0A6
:102BE000621B730B840B950B39F40A2661F0232BBF
:102BF000242B252B21F408950A2609F4A140A6953B
:102C00008FEF811D811D089597F99F6780E870E01F
:102C100060E008959FEF80EC089500240A94161652
:102C2000170618060906089500240A9412161306BA
:102C3000140605060895092E0394000C11F4882348
:102C400052F0BB0F40F4BF2B11F460FF04C06F5F64
:102C50007F4F8F4F9F4F089557FD9058440F551F3A
:102C600059F05F3F71F04795880F97FB991F61F00E
:102C70009F3F79F087950895121613061406551F85
:102C8000F2CF4695F1DF08C0161617061806991FF1
:102C9000F1CF86957105610508940895E894BB27E6
:102CA00066277727CB0197F908950E94E01508F46D
:102CB0008FEF08950E946D160C941B160E940D163E
:102CC00038F00E94141620F0952311F00C9404168D
:102CD0000C940A1611240C944F160E942C1670F3B3
:102CE000959FC1F3950F50E0551F629FF001729FB1
:102CF000BB27F00DB11D639FAA27F00DB11DAA1FC0
:102D0000649F6627B00DA11D661F829F2227B00D0C
:102D1000A11D621F739FB00DA11D621F839FA00D97
:102D2000611D221F749F3327A00D611D231F849FE7
:102D3000600D211D822F762F6A2F11249F5750403E
:102D40009AF0F1F088234AF0EE0FFF1FBB1F661FB9
:102D5000771F881F91505040A9F79E3F510580F082
:102D60000C9404160C944F165F3FE4F3983ED4F392
:102D7000869577956795B795F795E7959F5FC1F726
:102D8000FE2B880F911D9695879597F90895991BAD
:102D900079E004C0991F961708F0961B881F7A9552
:102DA000C9F78095089587FB082E062687FD819533
:102DB00067FD61950E94C7160EF4919507FC8195F9
:102DC0000895AA1BBB1B51E107C0AA1FBB1FA61772
:102DD000B70710F0A61BB70B881F991F5A95A9F7C4
:102DE00080959095BC01CD01089597FB072E16F4B0
:102DF000009407D077FD09D00E94E11607FC05D0AA
:102E00003EF4909581959F4F0895709561957F4F01
:102E10000895EE0FFF1F0590F491E02D0994F894AA
:022E2000FFCFE2
:102E220020200002004000000100089D0208021557
:102E3200061906880699049D0409029D0699060052
:102E42000000000000000000000000000000000080
:102E52000000000000000000000000000000000070
:102E62000000000000000000000000000000000060
:102E720000000000000000000000000000000081CF
:102E820006000000000000000084009D02080215F8
:102E9200061906880699049D0409029D06990600F2
:102EA200000000000000000000000000008D069DF0
:102EB20006950000009504850400008C06080200B7
:102EC200000000940009028D029D028506000000A8
:102ED20000990400009C020000180200008806000D
:102EE2000000000000000000000000000000009C44
:102EF2000414041C069506850400008C04040000DA
:102F0200000000000008040C041C0400000000047F
:102F120004990494041C0000001800000098068E16
:102F220002A602AC02B202B802BE02C40200001F34
:102F3200001D001F001E001F001E001F001F001E9C
:102F4200001F001E001F00000000002701B501C87D
:102F5200007401F900D700EB0000000000A604791C
:102F62000462054F0472045F0450040D0A004578A0
:102F7200636565646564206D6178696D756D206E49
:102F8200756D626572206F66207772697465730071
:102F9200534520742000486F207572004E4E206900
:102FA2006E00646F20555500646F204E4E004E4EE9
:102FB200206F6E005945204172007445206E6E00EC
:102FC2004241204C6F007475204520005555204524
:102FD2006400746820752000467220692000534105
:0A2FE200207420005375206E2000BB
:00000001FF
