:100000000C9491000C94B9000C94B9000C94BE1798
:100010000C9426170C94B9000C94B9000C94B900F8
:100020000C94B9000C94B9000C94B9000C946B17A3
:100030000C94B9000C94B9000C94B9000C94B9005C
:100040000C94BF150C94B9000C948D150C94671585
:100050000C94B9000C94B9000C94B9000C94B9003C
:100060000C940B160C94B9000C9409160C940916F8
:100070000C9409160C9409160C9409160C94091684
:100080000C9409160C9409160C9409160C94091674
:100090000C9409160C9409160C9409160C94091664
:1000A0000C9409160C9409160C9409160C94091654
:1000B0000C94091600000000240027002A002D00DF
:1000C00000000000250028002B002E00000000008A
:1000D0002300260029002C00040404040404040462
:1000E00002020202020203030303030305050505DE
:1000F00001020408102040800102040810200102BF
:100100000408102004080102090C0A08000201007A
:1001100000030407000000000000000000000000D1
:10012000C81711241FBECFEFD8E0DEBFCDBF14E04B
:10013000A0E0B1E0EEE5F6E402C005900D92AE3D20
:10014000B107D9F726E0AEEDB4E001C01D92A138A9
:10015000B207E1F710E0C1E9D0E004C02197FE0149
:100160000E94C821C039D107C9F70E94B7190C9461
:100170002D230C940000FC01538D448D252F30E07D
:10018000842F90E0821B930B541710F0CF960895A4
:1001900001970895FC01918D828D981761F0A28DD1
:1001A000AE0FBF2FB11D5D968C91928D9F5F9F7397
:1001B000928F90E008958FEF9FEF0895FC01918D4D
:1001C000828D981731F0828DE80FF11D858D90E0BA
:1001D00008958FEF9FEF0895FC01918D228D892F57
:1001E00090E0805C9F4F821B91098F73992708953F
:1001F000FC01A48DA80FB92FB11DA35ABF4F2C919C
:10020000848D90E001968F739927848FA689B78992
:100210002C93A089B1898C91837080648C93938D89
:10022000848D981306C00288F389E02D80818F7D2C
:1002300080830895EF92FF920F931F93CF93DF93E4
:10024000EC0181E0888F9B8D8C8D98131AC0E88912
:10025000F989808185FF15C09FB7F894EE89FF89E1
:100260006083E889F98980818370806480839FBF7F
:1002700081E090E0DF91CF911F910F91FF90EF907F
:100280000895F62E0B8D10E00F5F1F4F0F7311278F
:10029000E02E8C8D8E110CC00FB607FCFACFE889CA
:1002A000F989808185FFF5CFCE010E94F800F1CF5A
:1002B000EB8DEC0FFD2FF11DE35AFF4FF0829FB73E
:1002C000F8940B8FEA89FB8980818062CFCFCF932E
:1002D000DF93EC01888D8823B9F0AA89BB89E8896E
:1002E000F9898C9185FD03C0808186FD0DC00FB614
:1002F00007FCF7CF8C9185FFF2CF808185FFEDCF92
:10030000CE010E94F800E9CFDF91CF9108958AEBEA
:1003100095E00E94EC0021E0892B09F420E0822F77
:10032000089580E090E0892B29F00E9487018111D7
:100330000E94000080E090E0892B49F080E090E08E
:10034000892B29F00E94000081110C94000008956F
:100350000895AF92BF92CF92DF92EF92FF920F93E8
:100360001F93CF93DF936C017B018B01040F151F4B
:10037000EB015E01AE18BF08C017D10759F06991B3
:10038000D601ED91FC910190F081E02DC601099517
:10039000892B79F7C501DF91CF911F910F91FF90C4
:1003A000EF90DF90CF90BF90AF90089581508D3047
:1003B00008F03DC0E82FF0E0E052FE4F0C94C82159
:1003C000F701FB01ED01F30117021702FE01040220
:1003D00008020E02170212021802809180008F7725
:1003E000809380000895809180008F7DF9CF84B53F
:1003F0008F7784BD089584B58F7DFBCF8091B00049
:100400008F778093B00008958091B0008F7DF9CFF1
:10041000809190008F778093900008958091900054
:100420008F7DF9CF8091A0008F778093A0000895F1
:100430008091A0008F7DF9CFCF93DF93282F30E0FC
:10044000F901E85FFE4F8491F901E051FF4FD4912B
:10045000F901E852FF4FC491CC23A1F081110E9411
:10046000D601EC2FF0E0EE0FFF1FE453FF4FA591F4
:10047000B491EC91ED2381E090E009F480E0DF910C
:10048000CF91089580E090E0FACF1F93CF93DF9350
:10049000282F30E0F901E85FFE4F8491F901E05127
:1004A000FF4FD491F901E852FF4FC491CC23A9F03A
:1004B000162F81110E94D601EC2FF0E0EE0FFF1FE6
:1004C000E054FF4FA591B4918FB7F894EC911111BE
:1004D00008C0D095DE23DC938FBFDF91CF911F91B1
:1004E0000895DE2BF8CF60E08FE00E94450260E0C7
:1004F0008EE00E94450260E088E00E94450260E0D4
:1005000087E00C944502CF93DF9390E0FC01E0512B
:10051000FF4F249188529F4FFC0184918823C9F09A
:1005200090E0880F991FFC01EC54FF4FA591B49106
:10053000FC01E054FF4FC591D49161110DC09FB7EC
:10054000F8948C91209582238C938881282328838A
:100550009FBFDF91CF910895623051F49FB7F89417
:100560003C91822F809583238C93E8812E2BEFCFB3
:100570008FB7F894EC912E2B2C938FBFEACF8E502F
:10058000806480937C0080917A00806480937A00FC
:1005900080917A0086FDFCCF80917800909179005F
:1005A00008953FB7F89480912B0590912C05A09168
:1005B0002D05B0912E0526B5A89B05C02F3F19F03B
:1005C0000196A11DB11D3FBFBA2FA92F982F8827D3
:1005D000BC01CD01620F711D811D911D43E0660FAD
:1005E000771F881F991F4A95D1F70895FC017996C6
:1005F000CB010596DB012D91BD012193A817B90709
:10060000C9F708959C0197FF02C0215F3F4F44E066
:10061000359527954A95E1F74AE0429FF001439FBF
:10062000F00D112460E170E00E9473218E0F9F1F76
:1006300008956AE070E00E94732124E0660F771F3E
:100640002A95E1F7860F971F08951F93CF93DF93A5
:10065000C1E0C093E604882399F1D091B8001091CD
:10066000BA008091BC008A7B8093BC0060E082E18C
:100670000E94450260E083E10E94450210928405D9
:10068000C093830510925E0561E082E10E944502FD
:1006900061E083E10E9445028091B9008E7F8093E2
:1006A000B9008091B9008D7F8093B90080E280937A
:1006B000B80085E48093BC001093BA00D093B800D2
:1006C000DF91CF911F910895CF92DF92EF92FF9229
:1006D0000F931F93CF93DF93D091AD0581E0D1327B
:1006E00008F09CC0C091AC050E94D1026B017C0156
:1006F0008091840581116CC082E08093840581E043
:10070000809383058FEF8093820510928105D093AB
:100710008005ACE8B5E0E0E6F5E080E0D8138DC0F8
:1007200010925F0580915F05CC0FC82BC0935F05C9
:1007300080915E05813009F084C010925E050E94B0
:10074000D1026B017C0180915F058093BB00809199
:10075000860590918705A0918805B0918905892B20
:100760008A2B8B2BA1F00E94D1020091860510915B
:10077000870520918805309189056C197D098E09BE
:100780009F09061717072807390708F442C0809108
:10079000BC0083FDD8CF85EC8093BC000E94D102C1
:1007A0006B017C0180918405823009F44CC08091FA
:1007B00082058F3F09F469C080918205803209F477
:1007C00066C080918205803309F463C084E026C04E
:1007D0008091860590918705A0918805B091890543
:1007E000892B8A2B8B2B09F483CF0E94D102009195
:1007F00086051091870520918805309189056C192F
:100800007D098E099F09061717072807390708F081
:100810006FCF809185050E94250385E010928B059E
:100820001092AD0510928A05DF91CF911F910F9123
:10083000FF90EF90DF90CF9008959D9191938F5FFF
:100840006DCF85EEA9CF8091860590918705A09107
:100850008805B0918905892B8A2B8B2B09F4A2CFAF
:100860000E94D1020091860510918705209188058C
:10087000309189056C197D098E099F0906171707A4
:100880002807390708F08ECFC4CF80E0C7CF82E0B9
:10089000C5CF83E0C3CFCF92DF92EF92FF920F9349
:1008A0001F93CF93DF93D82FC62F613208F098C0E3
:1008B0000E94D1026B017C018091840581116BC083
:1008C00081E080938405809383059FEF9093820558
:1008D000109281059C0F9093800580935F05809115
:1008E0005F05DD0FD82BD0935F0580915E058130C9
:1008F00009F078C010925E050E94D1026B017C0164
:1009000080915F058093BB0080918605909187055B
:10091000A0918805B0918905892B8A2B8B2BA1F09A
:100920000E94D102009186051091870520918805CB
:10093000309189056C197D098E099F0906171707E3
:100940002807390708F448C08091BC0083FDD8CF40
:1009500085EC8093BC000E94D1026B017C018091E8
:100960008405813009F440C0809181058C1710F412
:10097000C0918105E0E6F5E0AEE3B5E080E08C13E0
:1009800055C08C2FDF91CF911F910F91FF90EF9069
:10099000DF90CF9008958091860590918705A09172
:1009A0008805B0918905892B8A2B8B2B09F484CF7C
:1009B0000E94D1020091860510918705209188053B
:1009C000309189056C197D098E099F090617170753
:1009D0002807390708F070CF809185050E9425030C
:1009E000C0E0CFCF85EEB5CF809186059091870589
:1009F000A0918805B0918905892B8A2B8B2B09F44E
:100A0000AECF0E94D10200918605109187052091FA
:100A10008805309189056C197D098E099F09061793
:100A200017072807390708F09ACFD6CF91919D93E1
:100A30008F5FA5CF20910705260F3327331F213263
:100A40003105ECF420918405FC0190E080E0243035
:100A500069F082E00895A09107052191AC01495108
:100A60005B4FA40FB52FB11D2C930196861798F3F9
:100A700080910705680F6093070580E0089581E085
:100A80000895E0913D0580913C05E81730F4F0E0D1
:100A9000E25CFA4F808190E008958FEF9FEF089518
:100AA00090913D0580913C052FEF3FEF981748F45A
:100AB000E92FF0E0E25CFA4F208130E09F5F9093F5
:100AC0003D05C901089580913C0590913D05891B24
:100AD000990B0895CF92DF92EF92FF920F931F939D
:100AE000CF93DF937C01CB018A0120918A052223D9
:100AF00089F0EB016B01C40ED51ECC15DD0569F044
:100B00006991D701ED91FC910190F081E02DC70131
:100B10000995F3CF642F0E941A05C801DF91CF9188
:100B20001F910F91FF90EF90DF90CF900895CF939A
:100B3000DF931F92CDB7DEB7698320918A05222308
:100B4000F9F02091AD05203258F021E030E0FC01B1
:100B50003383228390E080E00F90DF91CF9108955E
:100B600080918B05E82FF0E0E457FA4F998190834C
:100B70008F5F80938B058093AD0581E090E0ECCF93
:100B800061E0CE0101960E941A05F7CF682F8EEA28
:100B900095E00C949705CF93DF93EB0121E0209330
:100BA0008A0528E62093AC0510928B051092AD05BE
:100BB0000E94C605CE010E94C605DF91CF910C941C
:100BC0006403CF92EF92FF920F931F93CF93DF9323
:100BD000F82E162FD42FC22F81E080938A0588E645
:100BE0008093AC0510928B051092AD0590E080E0EB
:100BF0000E94C6058F2D90E00E9419030E94C60531
:100C0000812F90E00E9419030E94C6058D2F90E06D
:100C10000E9419030E94C6058C2F90E00E941903C0
:100C20000E94C605802F90E00E9419030E94C6050D
:100C30008E2D90E00E9419030E94C6058C2D90E035
:100C40000E9419030E94C605DF91CF911F910F9159
:100C5000FF90EF90CF900C94640390E080E00895B3
:100C6000CF93DF93EC0160E083E00E94830218825F
:100C7000DF91CF91089508950895089508950895F6
:100C8000089508950895089508950895089508957C
:100C9000089508950895089508950895089508956C
:100CA000089508950895089508950895089508955C
:100CB000CF93DF93FC01A281B3818FB7F894409169
:100CC0002F055091300560913105709132058FBF2D
:100CD000AF53BF4F4D935D936D937C931397A28158
:100CE000B381AA5ABF4F8D919C91119701968D9314
:100CF0009C93A281B381AA5ABF4F8D919C91119769
:100D00000A9714F01D921C92A281B381ED01CA5A78
:100D1000DF4F88819981A054BF4F892BB1F41C9279
:100D200082819381FC01EB53FF4F8A5A9F4FDC0174
:100D30008D919C91092E000CAA0BBB0B8083918393
:100D4000A283B383DF91CF91089581E08C93E8CFA4
:100D5000FC018281938160E174E08D599F4F0C9476
:100D6000F602DC011296ED91FC91DF01A454BF4F15
:100D70008D919C91039664E070E00E94732193E052
:100D8000981B892FED59FF4F92E7918F95E4928F31
:100D900090E2938F9AE2948F858F0895DC011296EA
:100DA000ED91FC91DF01A056BF4F9C91ED59FF4F93
:100DB00080E2818F828F838F8AE2848F958F08955E
:100DC000FC018281938166E174E08D599F4F0C9400
:100DD000F602AF92BF92CF92EF920F93CF93DF9331
:100DE000DC011296ED91FC911397EA5AFF4F808136
:100DF00091810196918380831296ED91FC911397D6
:100E0000EA5AFF4F808191818436910521F484E173
:100E100090E09183808312968D919C91BC016A5AD7
:100E20007F4FAC014A575F4F9C012B573F4FEC015E
:100E3000CC57DF4FDC01AD57BF4F5C01E2E8AE0E8F
:100E4000B11C8F579F4FFB01C080FA01E080F90170
:100E5000008128814C91F5016081FC0180810E9414
:100E6000E105DF91CF910F91EF90CF90BF90AF90C0
:100E70000895DC011296ED91FC91DF01AA5ABF4F53
:100E80008D919C91ED59FF4F22E3218F20E3228F1A
:100E900020E2238F6AE070E00E947321648F858FC7
:100EA0000895FC01828193816CE174E08D599F4F1C
:100EB0000C94F602AF92BF92CF92EF920F93CF9322
:100EC000DF93DC011296ED91FC911397EA5AFF4FE4
:100ED000808191810196918380831296ED91FC919E
:100EE0001397EA5AFF4F80819181089721F481E09E
:100EF00090E09183808312968D919C91BC016957FB
:100F00007F4FAC014A575F4F9C012B573F4FEC017D
:100F1000CA5ADF4FDC01AD57BF4F5C01E2E8AE0EAD
:100F2000B11C8F579F4FFB01C080FA01E080F9018F
:100F3000008128814C91F5016081FC0180810E9433
:100F4000E105DF91CF910F91EF90CF90BF90AF90DF
:100F50000895FC0182819381FC01EA5AFF4F0190C0
:100F6000F081E02DFF27EE0FFF1FE80FF91F6081D2
:100F700071818D599F4F0C94F602FC0182819381FF
:100F800062E274E08D599F4F0C94F602AF92BF92CB
:100F9000CF92EF920F93CF93DF93DC011296ED91F6
:100FA000FC911397EA5AFF4F8081918101969183BA
:100FB000808312964D915C911397FA01E957FF4F88
:100FC00080818370EA01CA57DF4FF197811107C012
:100FD0008881823021F4808191814D97B1F0288100
:100FE000022E000C330B265F3F4F220F331F240FBE
:100FF000351FE901288139818081918128173907BE
:1010000024F481E090E09183808312968D919C91ED
:10101000BC0169577F4FAC014A575F4F9C012A5A68
:101020003F4FEC01CC57DF4FDC01AD57BF4F5C01A8
:10103000E2E8AE0EB11C8F579F4FFB01C080FA0152
:10104000E080F901008128814C91E5016881FC0173
:1010500080810E94E105DF91CF910F91EF90CF90B9
:10106000BF90AF900895DC011296ED91FC91DF01E5
:10107000AA5ABF4F2D913C91C9016AE070E00E94CD
:101080007321611101C060E2ED59FF4F80E2818F51
:10109000828F838F648FC9016AE070E00E947321A0
:1010A000858F0895AF92BF92CF92EF920F93CF9317
:1010B000DF93DC011296ED91FC911397EA5AFF4FF2
:1010C000808191810196918380831296ED91FC91AC
:1010D0001397EA5AFF4F808191810D9721F481E0A7
:1010E00090E09183808312968D919C91BC01695709
:1010F0007F4FAC014A5A5F4F9C012B573F4FEC0189
:10110000CC57DF4FDC01AD57BF4F5C01E2E8AE0EBC
:10111000B11C8F579F4FFB01C080FA01E080F9019D
:10112000008128814C91F5016081FC0180810E9441
:10113000E105DF91CF910F91EF90CF90BF90AF90ED
:101140000895DC011296ED91FC91DF01AA5ABF4F80
:101150002D913C91C9016AE070E00E9473216111F8
:1011600001C060E2ED59FF4F618FC9016AE070E094
:101170000E947321828F80E2838F848F858F0895F0
:10118000FC018281938168E274E08D599F4F0C9439
:10119000F602CF92EF920F93CF93DF93DC0112967A
:1011A000ED91FC911397EA5AFF4F8081918101964E
:1011B000918380831296ED91FC911397EA5AFF4F29
:1011C00080819181CC9711F41182108212968D91B9
:1011D0009C91AC0149575F4F9C012A573F4FEC014E
:1011E000CB57DF4FDC01AC57BF4FBC016D577F4F72
:1011F0008A5A9F4FFA01C080F901E08008812C9142
:10120000FB014081FC01608180E00E94E105DF91EB
:10121000CF910F91EF90CF900895DC011296ED9150
:10122000FC91DF01AA5ABF4F2D913C91ED59FF4F20
:1012300090E2918F928F938FC9016AE070E00E94D3
:101240007321648F858F0895CF92EF920F93CF9380
:10125000DF93DC011296ED91FC911397EA5AFF4F50
:10126000808191810196918380831296ED91FC910A
:101270001397EA5AFF4F80819181489711F41182A8
:10128000108212968D919C91AC0149575F4F9C0141
:101290002A573F4FEC01CB57DF4FDC01AC57BF4F14
:1012A000BC016A5A7F4F8E579F4FFA01C080F901E7
:1012B000E08008812C91FB014081FC01608180E08D
:1012C0000E94E105DF91CF910F91EF90CF900895AB
:1012D000DC011296ED91FC91DF01AA5ABF4F2D91CE
:1012E0003C91C9016AE070E00E947321611101C064
:1012F00060E2ED59FF4F618FC9016AE070E00E9422
:101300007321828F80E2838F848F858F0895FC0103
:10131000828193816EE274E08D599F4F0C94F602A6
:10132000DC011296ED91FC911397EA5AFF4F208150
:1013300031812F5F3F4F318320831296ED91FC91D5
:10134000EA5AFF4F80819181CC9711F4118210826B
:101350000895DC011296ED91FC91DF01AA5ABF4F6E
:101360002D913C91C9016AE070E00E9473216111E6
:1013700001C060E2ED59FF4F80E2818F828F838F41
:10138000648FC9016AE070E00E947321858F08951F
:10139000DC011296ED91FC911397EA5AFF4F2081E0
:1013A00031812F5F3F4F318320831296ED91FC9165
:1013B000EA5AFF4F80819181489711F4118210827F
:1013C0000895DC011296ED91FC91DF01AA5ABF4FFE
:1013D0002D913C91C9016AE070E00E947321611176
:1013E00001C060E2ED59FF4F618FC9016AE070E012
:1013F0000E947321828F80E2838F848F858F08956E
:10140000DC011296ED91FC911397EA5AFF4F20816F
:1014100031812F5F3F4F318320831296ED91FC91F4
:10142000EA5AFF4F80819181039711F41182108253
:101430000895FC0182819381FC01EA5AFF4F2081CB
:10144000318164E374E02115310551F06AE374E001
:101450002130310529F02230310531F460E474E0A7
:101460008D599F4F0C94F6020895FC01828193815F
:1014700066E474E08D599F4F0C94F602FC01828162
:1014800093816CE474E08D599F4F0C94F6028F9217
:101490009F92AF92BF92CF92DF92EF92FF920F9303
:1014A0001F93CF93DF93FC01C281D381FE01E455EA
:1014B000FF4F40815181628173818E0104561F4F1D
:1014C000F801C580D680E780F0844A015B018C1862
:1014D0009D08AE08BF0880819181B0E0A0E088152A
:1014E0009905AA05BB0520F0CD28CE28CF2859F5AF
:1014F000F801458356836783708784E10E94BF02A9
:10150000BC01990F880B990B0E94432023E333E31E
:1015100043E550E40E94F82020E030E040E85AE340
:101520000E94F82020E030E040E05FE30E94271FA7
:101530002AE037ED43E25CE30E94991FF8016387DC
:10154000748785879687F801C384D484E584F684FC
:10155000FE01E056FF4FB0808E010D591F4FF6E49B
:10156000BF124FC020E030E040E151E4C701B601B6
:101570000E94F82020E030E040EA50E40E94991FE9
:1015800020E030E040E052E40E94281F6B017C0123
:1015900020E030E048EC52E40E94991F0E940B20AA
:1015A000F801618F20E030E040E251E4C701B6016C
:1015B0000E94991F0E940B208AE0882E912CCB015B
:1015C000B4010E947321F801828F80E2838FC701EA
:1015D000B6010E940B20CB01B4010E947321F801D7
:1015E000848FC058DF4FB882DF91CF911F910F9148
:1015F000FF90EF90DF90CF90BF90AF909F908F9033
:10160000089581E0FE01E558FF4F808320E030E03F
:1016100040E251E4C701B6010E94991F0E940B20CD
:10162000F801618FC701B6010E940B20CB016AE06F
:1016300070E00E947321F801828F80E2838F8AE23A
:10164000CFCFFC0182819381FC01EC57FF4FE081F9
:10165000F0E0EE0FFF1FE80FF91F608171818D59D7
:101660009F4F0C94F602DC011296ED91FC91DF0184
:10167000A558BF4F91E09C9316968C91ED59FF4F62
:1016800020E2218F228F938F6AE00E946521848F50
:10169000958F0895DC011296ED91FC91DF01AA5718
:1016A000BF4F5C91852F6AE00E946521382F811120
:1016B00001C030E2DF01AB57BF4F4C91842F6AE08D
:1016C0000E946521282F811101C020E2ED59FF4FB2
:1016D000318F3AE0852F632F0E946521928F80E23F
:1016E000838F248F842F632F0E946521958F089507
:1016F000CF93DF93FC01DC01AF56BF4F1796CD911E
:10170000DC91CE016CE370E00E947321262F6436D9
:101710001CF023E6CBE3D0E0CE016CE370E00E9446
:101720007321482FED59FF4F3AE0822F632F0E941B
:101730006521818F928F81E0838F842F632F0E9498
:101740006521848F958FDF91CF910895CF93DF939B
:10175000EC018A819B810E94780B8A819B8162E5E2
:1017600074E08D599F4F0E94F602EA81FB81E55893
:10177000FF4F81E08083DF91CF910895CF93DF9376
:10178000EC018A819B810E94780BEA81FB81E558FC
:10179000FF4F81E08083DF91CF910895CF93DF9356
:1017A000EC018A819B810E94780B8A819B81FC01DC
:1017B000EF56FF4FDC01AE57BF4F4C91042E000C8B
:1017C000550B50962C91421B510927FD53956CE304
:1017D000649FD001659FB00D1124EC01CF57DF4FFE
:1017E0002881022E000C330B4081241B310947FD58
:1017F0003395AD01420F531FDC01AD57BF4F2C9104
:10180000022E000C330B50967C91271B310977FD7B
:101810003395C0E1DEE02C9FD0012D9FB00D3C9FA1
:10182000B00D11244A0F5B1FDC01AB57BF4F2C9149
:10183000022E000C330B8B569F4FDC018C91D9018B
:10184000A81BB10987FDB395CD0120EA35E0829F41
:10185000D001839FB00D929FB00D11246A9F90011B
:101860006B9F300D1124240F351F30872783DF91A4
:10187000CF910895FC01DC01AD57BF4F3C91832F00
:101880006AE00E946521811101C080E2DF01AE574C
:10189000BF4F4C91ED59FF4F818F2AE0832F622F6C
:1018A0000E946521928F138E842F622F0E946521E2
:1018B000848F958F08950F931F93CF93DF93EC013F
:1018C0008B0188819981009739F0DC01ED91FC91C1
:1018D0000280F381E02D099519830883F801D383F1
:1018E000C283DF91CF911F910F910895CF93DF9322
:1018F000FC01C281D381FE01EE57FF4F508131962A
:101900004081319630813196208131969081319697
:1019100080813A96DE01AF57BF4F6C91608351834F
:101920004283338324839583868381E090E092878A
:10193000818784E090E00E94082224EB32E0FC01E1
:1019400031832083BC01CE01DF91CF910C945B0CDD
:10195000CF93DF93FC01C281D38184E090E00E94A9
:10196000082226E034E0FC0131832083BC01CE0153
:10197000DF91CF910C945B0CCF93DF93FC01C2817C
:10198000D381FE01EF56FF4F1286118684E090E06E
:101990000E94082222EC32E0FC0131832083BC014A
:1019A000CE01DF91CF910C945B0CCF93DF93FC01C0
:1019B000C281D38184E090E00E94082226E034E0D6
:1019C000FC0131832083BC01CE01DF91CF910C94C7
:1019D0005B0CCF93DF93FC01C281D381FE01EF56F4
:1019E000FF4F82E090E09287818784E090E00E9440
:1019F000082226EA32E0FC0131832083BC01CE01BB
:101A0000DF91CF910C945B0CCF93DF93FC01C281EB
:101A1000D38184E090E00E94082226E034E0FC01BB
:101A200031832083BC01CE01DF91CF910C945B0CFC
:101A3000CF93DF93C82F0E94730260E081E00E9481
:101A4000450260E082E00E94450260E080E00E9482
:101A5000450260E084E00E94450260E086E10E9469
:101A6000450260E085E00E94450260E086E00E9459
:101A7000450260E085E10E94450281E080933705E0
:101A80001092790610927A0610927B0610927C06CC
:101A900010927306109274061092750610927606D4
:101AA000CC2309F484C08091680081608093680031
:101AB00080916B00846080936B00809168008260ED
:101AC0008093680080916C00886080936C008091A6
:101AD0007A008093E50410927A0085B7982F90667B
:101AE0008F7D80648093E40495BF8091E40485BF7A
:101AF00010926F0083B7816083BF8895809137050E
:101B0000882309F459C08091590690915A06FC0126
:101B1000E054FF4F10823C9721E0208386589F4F6E
:101B2000FC0120831092370580916506909166062E
:101B3000909378068093770683B78E7F83BF8091DA
:101B4000E50480937A008091380590913905A09141
:101B50003A05B0913B058093330590933405A093EB
:101B60003505B093360510926F06109270061092EC
:101B700071061092720680916F00826080936F00F0
:101B800061E085E10E944502C0915906D0915A0654
:101B900084E090E00E94082226E034E0FC013183DA
:101BA0002083BC01CE01DF91CF910C945B0C10928D
:101BB000680010926B0081CFDF91CF910895CF9391
:101BC000DF93FC01C281D38184E090E00E9408226F
:101BD00026E034E0FC0131832083BC01CE01DF919B
:101BE000CF910C945B0CBF92CF92DF92EF92FF9259
:101BF0000F931F93CF93DF938C01FC01828193811C
:101C0000FC01EB53FF4F4081518162817381EC01F4
:101C1000CD59DF4F4930510561057105C9F568E5BA
:101C200074E0CE010E94F6022FB7F89480912F0540
:101C300090913005A0913105B09132052FBFF80188
:101C4000C281D381FE01EF53FF4F408151816281F8
:101C50007381841B950BA60BB70B89389341A105A3
:101C6000B105E8F184E090E00E94082226E034E02B
:101C7000FC0131832083BC01CE01DF91CF911F9104
:101C80000F91FF90EF90DF90CF90BF900C945B0C82
:101C9000FC01EA5AFF4F20813181220F331F220FAE
:101CA000331F820F931FFC0166A577A580A991A918
:101CB00020E2298F2A8F2B8F5AE0C52ED12CE12CC0
:101CC000F12CA70196010E948721B62ECA01B90105
:101CD000A70196010E9487216C8FBD8EA5CFDF9151
:101CE000CF911F910F91FF90EF90DF90CF90BF9019
:101CF00008950F931F93CF93DF93EC010A811B810B
:101D000084E090E00E94082224E631E0DC012D937B
:101D10003C93BC01C8010E945B0CEA81FB81EA5A3A
:101D2000FF4F11821082EA81FB81EB53FF4F10823B
:101D3000118212821382EA81FB812FB7F89480917D
:101D40002F0590913005A0913105B09132052FBF3C
:101D5000EF53FF4F80839183A283B383EA81FB819A
:101D6000DF01AA5ABF4F8D919C91E054FF4F892B00
:101D7000C1F410828A819B81FC01EB53FF4F8A5A88
:101D80009F4FDC018D919C91092E000CAA0BBB0B7F
:101D900080839183A283B383DF91CF911F910F91B1
:101DA000089581E08083E6CFCF93DF93FC01C28169
:101DB000D38184E090E00E94082226E034E0FC0118
:101DC00031832083BC01CE01DF91CF910C945B0C59
:101DD000CF93DF93FC01C281D38184E090E00E9425
:101DE000082226E034E0FC0131832083BC01CE01CF
:101DF000DF91CF910C945B0CCF93DF93FC01C281F8
:101E0000D38184E090E00E94082220E632E0FC01C9
:101E100031832083BC01CE01DF91CF910C945B0C08
:101E2000CF93DF93FC01C281D38184E090E00E94D4
:101E300008222EE831E0FC0131832083BC01CE0171
:101E4000DF91CF910C945B0CCF93DF93FC01C281A7
:101E5000D38184E090E00E94082226E034E0FC0177
:101E600031832083BC01CE01DF91CF910C945B0CB8
:101E7000CF93DF93FC01C281D38184E090E00E9484
:101E800008222CE931E0FC0131832083BC01CE0122
:101E9000DF91CF910C945B0CCF93DF93DC01129612
:101EA0002D913C91F901EA5AFF4F29573F4FD90133
:101EB0002C91022E000C330B31832083FC01C28154
:101EC000D38184E090E00E9408222AEA31E0DC011C
:101ED0002D933C93BC01CE01DF91CF910C945B0C10
:101EE000CF93DF93FC01C281D38184E090E00E9414
:101EF000082226E034E0FC0131832083BC01CE01BE
:101F0000DF91CF910C945B0CCF93DF93FC01C281E6
:101F1000D38184E090E00E94082228EB31E0FC01AC
:101F200031832083BC01CE01DF91CF910C945B0CF7
:101F3000CF93DF93DC0112962D913C91F901EA5A7F
:101F4000FF4F2C573F4FD9012C91022E000C330B21
:101F500031832083FC01C281D38184E090E00E9420
:101F6000082226EC31E0DC012D933C93BC01CE012C
:101F7000DF91CF910C945B0CCF93DF93FC01C28176
:101F8000D38184E090E00E94082226E034E0FC0146
:101F900031832083BC01CE01DF91CF910C945B0C87
:101FA000CF93DF93FC0122813381D901AA5ABF4F1D
:101FB0002B573F4FE9018881082E000C990B8D9318
:101FC0009C9342815381DA01A957BF4F8C91837052
:101FD000EA01CA57DF4FD197811108C0888182304A
:101FE00029F48D919C9111974D97A9F02881022E8B
:101FF000000C330B265F3F4F220F331F240F351F7A
:10200000E901888199812D913C911197821793075D
:1020100014F48D939C93C281D38184E090E00E945C
:10202000082222EE31E0FC0131832083BC01CE0185
:10203000DF91CF910C945B0CCF93DF93FC01C281B5
:10204000D38184E090E00E94082224ED31E0FC017D
:1020500031832083BC01CE01DF91CF910C945B0CC6
:10206000CF93DF93DC0112962D913C91F901EA5A4E
:10207000FF4F2A573F4FD9012C91022E000C330BF2
:1020800031832083FC01C281D38184E090E00E94EF
:10209000082220EF31E0DC012D933C93BC01CE01FE
:1020A000DF91CF910C945B0CCF93DF93FC01C28145
:1020B000D38184E090E00E94082226E034E0FC0115
:1020C00031832083BC01CE01DF91CF910C945B0C56
:1020D000CF93DF93DC0112962D913C91F901EA5ADE
:1020E000FF4F2E573F4FD9012C91022E000C330B7E
:1020F00031832083FC01C281D38184E090E00E947F
:1021000008222CE032E0DC012D933C93BC01CE018F
:10211000DF91CF910C945B0CCF93DF93FC01C281D4
:10212000D38184E090E00E9408222EEF31E0FC0190
:1021300031832083BC01CE01DF91CF910C945B0CE5
:10214000CF93DF93DC0112962D913C91F901EA5A6D
:10215000FF4F2D573F4FD9012C91022E000C330B0E
:1021600031832083FC01C281D38184E090E00E940E
:1021700008222AE132E0DC012D933C93BC01CE0120
:10218000DF91CF910C945B0CCF93DF93EC01EA814C
:10219000FB81EA5AFF4F808191810E941903BC01A3
:1021A0008BE090E00E94CB0560E870E08DE090E06D
:1021B0000E94CB050A80DB81C02D84E090E00E9464
:1021C000082226E034E0FC0131832083BC01CE01EB
:1021D000DF91CF910C945B0CCF93DF93FC01C28114
:1021E000D38184E090E00E94082228E232E0FC01E2
:1021F00031832083BC01CE01DF91CF910C945B0C25
:10220000CF93DF93DC011296ED91FC911397EA5A7C
:10221000FF4F118210821296CD91DC9184E090E004
:102220000E94082222E532E0FC0131832083BC01B8
:10223000CE01DF91CF910C945B0CCF93DF93FC0127
:10224000C281D38184E090E00E94082220E632E03F
:10225000FC0131832083BC01CE01DF91CF910C942E
:102260005B0CCF93DF93FC01C281D38184E090E0CB
:102270000E94082226E034E0FC0131832083BC0167
:10228000CE01DF91CF910C945B0CCF93DF93FC01D7
:10229000C281D38184E090E00E94082226E034E0ED
:1022A000FC0131832083BC01CE01DF91CF910C94DE
:1022B0005B0CCF93DF93FC01C281D38184E090E07B
:1022C0000E9408222EE632E0FC0131832083BC010B
:1022D000CE01DF91CF910C945B0CCF93DF93FC0187
:1022E000C281D38184E090E00E94082226E034E09D
:1022F000FC0131832083BC01CE01DF91CF910C948E
:102300005B0CCF93DF93FC01C281D38184E090E02A
:102310000E9408222CE732E0FC0131832083BC01BB
:10232000CE01DF91CF910C945B0CCF93DF93FC0136
:10233000C281D38184E090E00E94082226E034E04C
:10234000FC0131832083BC01CE01DF91CF910C943D
:102350005B0CCF93DF93FC01C281D38184E090E0DA
:102360000E9408222CE732E0FC0131832083BC016B
:10237000CE01DF91CF910C945B0CCF93DF93FC01E6
:10238000C281D38184E090E00E9408222AE832E0F2
:10239000FC0131832083BC01CE01DF91CF910C94ED
:1023A0005B0CCF93DF93FC01C281D38184E090E08A
:1023B0000E9408222CE732E0FC0131832083BC011B
:1023C000CE01DF91CF910C945B0CCF93DF93FC0196
:1023D000C281D38184E090E00E94082228E932E0A3
:1023E000FC0131832083BC01CE01DF91CF910C949D
:1023F0005B0CCF93DF93EC018A819B810E943A0CA6
:102400000A80DB81C02DFE01E254FF4F80818823CA
:1024100079F084E090E00E94082220E831E0FC019D
:1024200031832083BC01CE01DF91CF910C945B0CF2
:10243000DF91CF91089521E020938A0528E620932B
:10244000AC0510928B051092AD050E94C6050E9446
:10245000640361E088E60E944B0410923D0580937E
:102460003C058EEA95E00C945005CF93DF938FE006
:1024700090E00E941B12EC0181E080938A0588E6BF
:102480008093AC0510928B051092AD058FE090E023
:102490000E94C605CE018C7F99270E94C605DF9158
:1024A000CF910C946403EF92FF920F931F93CF93FD
:1024B000DF938C01DC0112968D919C9185559F4F85
:1024C0000E943512F801C281D381FE01E454FF4F0E
:1024D0008081918104970CF06BC061E08FE00E94D5
:1024E0004502FE01EE57FF4F8081082E000C990B2C
:1024F0007C01FFEFEF1AFF0ACD57DF4FC8810C2E8A
:10250000000CDD0B2CE3E216F1045CF07C01ABE384
:10251000EA1AF108CE0101966797883191050CF40B
:10252000EC0161E070E087E090E00E94CB05CE0115
:102530000E941903BC0189E090E00E94CB05C7010D
:102540000E941903BC0188E090E00E94CB0560E87E
:1025500070E08AE090E00E94CB0565E070E08EE0DC
:1025600090E00E94CB05D8011296ED91FC91139753
:10257000E254FF4F108212968D919C9180579F4F8D
:102580000E943006F801C281D38184E090E00E946D
:10259000082222E731E0DC012D933C93BC01CE01FF
:1025A000DF91CF911F910F91FF90EF900C945B0CF6
:1025B00011821082D8CFCF93DF93EC018A819B8167
:1025C0009C012A543F4FDC01A455BF4F86549F4FB6
:1025D000FC0140815181052E000C660B770B8D911B
:1025E0009D910D90BC91A02D841B950BA60BB70B54
:1025F000F90180839183A283B3838A819B8185556E
:102600009F4F0E943512EA81FB81E454FF4F1182F3
:102610001082EA81FB81E254FF4F10828A819B8104
:1026200080579F4F0E9430060A80DB81C02D84E0D6
:1026300090E00E94082226E034E0FC0131832083F0
:10264000BC01CE01DF91CF910C945B0C2F923F9295
:102650004F925F926F927F928F929F92AF92BF92B2
:10266000CF92DF92EF92FF920F931F93CF93DF935E
:1026700000D01F92CDB7DEB78C01FC010280F38140
:10268000E02DFB83EA83E455FF4F608171818281F5
:10269000938128EE33E040E050E00E948721653FBF
:1026A00071408105910508F48FC08A819B810E9449
:1026B0003A0CF8010280F381E02DFB83EA831F01CD
:1026C000FEEB2F0E311CF1018081882309F48DC0AF
:1026D000EA81FB81E455FF4FC080D180E280F38026
:1026E000EA81FB81EA54FF4F80809180A280B38011
:1026F000EA81FB81E154FF4F8081882379F1C70192
:10270000B60128EE33E040E050E00E94A9212B0101
:102710003C010A811B8100571F4FF801F081F983AA
:102720002DE730E040E050E00E94A9216E337105B2
:10273000810591050CF051C024EF421621E05206AC
:10274000610471040CF049C08981811107C061E006
:1027500083E00E94830281E0F8018083C818D908D1
:10276000EA08FB08EA81FB81E654FF4F80819181F2
:10277000092E000CAA0BBB0B8C159D05AE05BF05E1
:10278000A4F5F10110828A819B8185559F4F0E949B
:1027900035128A819B8180579F4F0F900F900F9029
:1027A000DF91CF911F910F91FF90EF90DF90CF902D
:1027B000BF90AF909F908F907F906F905F904F9061
:1027C0003F902F900C94300666E474E08A819B81E0
:1027D0008D599F4F0E94F6026CCFF981FF2309F4B7
:1027E000BDCFC8010E943006B9CF0F900F900F9057
:1027F000DF91CF911F910F91FF90EF90DF90CF90DD
:10280000BF90AF909F908F907F906F905F904F9010
:102810003F902F9008950F931F93CF93DF93EC0178
:10282000EA81FB81EA5AFF4F808191810E9419035E
:10283000BC018CE090E00E94CB058BE090E00E9410
:102840001B120A811B810E940203F801EA5AFF4F02
:10285000918380830A80DB81C02D84E090E00E9418
:10286000082226E332E0FC0131832083BC01CE0143
:10287000DF91CF911F910F910C945B0C0F931F93DD
:10288000CF93DF93EC018A819B81FC01EA5AFF4FD1
:102890002081318122303105D1F464E070E08EE096
:1028A00090E00E94CB050A80DB81C02D84E090E09F
:1028B0000E94082226E034E0FC0131832083BC0121
:1028C000CE01DF91CF911F910F910C945B0C232BC4
:1028D00029F481549F4F21E0FC0120838A819B8150
:1028E000FC01EA5AFF4F208131812130310521F46A
:1028F00081549F4FFC01108266E070E08EE090E012
:102900000E94CB058A819B8185559F4F0E9435127D
:102910008CE090E00E941B120A811B810E9402033E
:10292000F801EA5AFF4F918380830A80DB81C02D32
:1029300084E090E00E94082224E432E0BDCFCF93EF
:10294000DF93FC0101900020E9F73197AF01481BAC
:10295000590BBC018AEB95E00E94A901EC0142E011
:1029600050E06EE574E08AEB95E00E94A9018C0FBF
:102970009D1FDF91CF91089585ED8093BC008091DC
:10298000860590918705A0918805B09189050796E5
:10299000A11DB11D23E0B695A795979587952A951A
:1029A000D1F72091BC0024FD03C010928405089546
:1029B0004091860550918705609188057091890541
:1029C000452B462B472B69F30097A105B10541F034
:1029D0002AE12A95F1F700C00197A109B109E1CFD9
:1029E000809185050C9425030C94A4220C94A422B8
:1029F0000C94A4220C94A4220C94A4220C94A4223F
:102A00000C94A4220C94A4220C94A4220C94A4222E
:102A10000C94A4220C94A4220C94A4220C94A4221E
:102A20000C94A4220C94A4220C94A4220C94A4220E
:102A30000C94A4220C94A4220C94A4220C94A422FE
:102A40000C94A4220C94A4220C94A4220C94A422EE
:102A50000C94A4220C94A4220C94A422DC011296BF
:102A6000ED91FC91E056FF4F2081233419F526E4C7
:102A70002083DC011296ED91FC91E456FF4F6481B6
:102A8000828193812091E2043091E3042F5F3F4FD4
:102A90003093E3042093E204409157065091580686
:102AA0004115510519F04217530734F481E694E0BB
:102AB0000C949F1423E4DCCF9C012F5F3F4F213007
:102AC00032401CF083E894E0F3CF0C94191F1F925E
:102AD0000F920FB60F9211242F933F934F935F9352
:102AE0006F937F938F939F93AF93BF93EF93FF93D6
:102AF0008AEB95E00E94F800FF91EF91BF91AF91B2
:102B00009F918F917F916F915F914F913F912F9105
:102B10000F900FBE0F901F9018951F920F920FB637
:102B20000F9211242F938F939F93EF93FF93E09134
:102B3000CA05F091CB058081E091D005F091D105D7
:102B400082FD1BC090818091D3058F5F8F73209190
:102B5000D405821741F0E091D305F0E0E654FA4F36
:102B6000958F8093D305FF91EF919F918F912F9136
:102B70000F900FBE0F901F9018958081F4CF1F9279
:102B80000F920FB60F9211242F933F938F939F9321
:102B9000AF93BF9380912F0590913005A09131059F
:102BA000B091320530912A0526E0230F2D3758F5D4
:102BB0000296A11DB11D20932A0580932F059093A5
:102BC0003005A0933105B093320580912B0590918B
:102BD0002C05A0912D05B0912E050196A11DB11DCA
:102BE00080932B0590932C05A0932D05B0932E0573
:102BF000BF91AF919F918F913F912F910F900FBEF9
:102C00000F901F90189529E8230F0396A11DB11D61
:102C1000D2CF0C94B9001F920F920FB60F921124CD
:102C20002F933F934F935F936F937F938F939F93D4
:102C3000AF93BF93EF93FF938091B900887F803665
:102C400009F44AC0F0F5883209F4A5C018F58031BE
:102C500009F499C0B8F4882309F4F5C0883009F460
:102C600092C0FF91EF91BF91AF919F918F917F9112
:102C70006F915F914F913F912F910F900FBE0F90E9
:102C80001F901895883109F486C0803251F78093DF
:102C9000820514C0803409F49BC040F48033B9F33A
:102CA0008833F9F68093820585ECAEC0803509F44F
:102CB00083C0883509F494C0883499F60E94BC1406
:102CC000D0CF883909F48AC038F5883729F050F414
:102CD000883611F0803729F683E0809384051092BE
:102CE000290555C0883809F479C0803919F0803831
:102CF00009F0B7CF80912905803208F06FC0E091CC
:102D0000290581E08E0F809329058091BB00F0E0BA
:102D1000E75FFA4F80833BC0803B39F0D0F4803AC4
:102D200009F477C0883A09F09CCF84E08093840549
:102D30001092080510920705F0E0E0E009958091F7
:102D4000070581110FC081E0809307051092E70409
:102D500009C0803C09F4A8CF883C09F4A5CF883B82
:102D600009F07FCFE091080581E08E0F8093080580
:102D7000F0E0E951FB4F80818093BB009091080502
:102D80008091070529C080915F058093BB0085EC89
:102D90008093BC0066CF9091810580918005981743
:102DA00058F5E091810581E08E0F80938105F0E078
:102DB000E05AFA4F8081E9CFE091810581E08E0FE2
:102DC000809381058091BB00F0E0E05AFA4F808348
:102DD00090918105809180059817C8F285E8D8CF39
:102DE000E091810581E08E0F809381058091BB0089
:102DF000F0E0E05AFA4F80838091830581115ECF25
:102E000081E080935E0584EA8093BC001092840583
:102E100028CF85EC8093BC00109284058091290511
:102E2000803230F4E0912905F0E0E75FFA4F10823C
:102E30006091290570E089E095E0F0E0E0E0099517
:102E4000109229050ECF1092820538CF1F920F9253
:102E50000FB60F9211242F934F935F936F937F932D
:102E60008F939F93AF93BF93CF93DF93EF93FF9392
:102E70008091590690915A06FC01E254FF4F20813F
:102E8000211117C0DC01AA54BF4FEC01C455DF4F1C
:102E9000488159816A817B814D935D936D937C93C9
:102EA000139721E02083329780819181019691834D
:102EB0008083FF91EF91DF91CF91BF91AF919F916F
:102EC0008F917F916F915F914F912F910F900FBED6
:102ED0000F901F9018951F920F920FB60F9211240A
:102EE0002F933F934F935F936F937F938F939F9312
:102EF000AF93BF93CF93DF93EF93FF93C0915906A6
:102F0000D0915A06CD59DF4F8D899E899C0125505D
:102F100031092530310518F08F3091051CF160E042
:102F200085E00E94450260E086E00E9445028D89AE
:102F30009E89019684319105F1F09E8B8D8BFF91D6
:102F4000EF91DF91CF91BF91AF919F918F917F9141
:102F50006F915F914F913F912F910F900FBE0F9006
:102F60001F9018958530910514F461E0D9CF0A9728
:102F70000597E8F6FACF1E8A1D8AE1CF1F920F92BD
:102F80000FB60F9211240F900FBE0F901F9018953F
:102F9000CF92DF92EF92FF920F931F93CF93DF9325
:102FA0001092BD051092BC0588EE93E0A0E0B0E061
:102FB0008093BE059093BF05A093C005B093C10553
:102FC00022EE33E03093BB052093BA0525EC30E0C8
:102FD0003093C7052093C60524EC30E03093C90533
:102FE0002093C80520EC30E03093CB052093CA0530
:102FF00021EC30E03093CD052093CC0522EC30E07D
:103000003093CF052093CE0526EC30E03093D105E8
:103010002093D0051092D3051092D4051092D505B7
:103020001092D60524E6C22ED12CD0925806C0921A
:1030300057061092B1051092B0058093B205909397
:10304000B305A093B405B093B50584EF93E09093D6
:10305000AF058093AE058AE090E090935C06809384
:103060005B068FE090E090935E0680935D068EE0B5
:1030700091E09093600680935F068FEF90E09093CD
:1030800062068093610680EF90E0909364068093DF
:10309000630684E090E0909366068093650683E083
:1030A00090E0909368068093670682E090E09093AA
:1030B0006A068093690681E090E090936C068093A5
:1030C0006B0610926E0610926D0660E080E10E9421
:1030D000830210926F061092700610927106109281
:1030E0007206109273061092740610927506109272
:1030F0007606109278061092770610927906109252
:103100007A0610927B0610927C0684E090E00E9482
:1031100008227C0186E094E0F7019183808389ECAA
:1031200090E00E940822EC01DC011D921D928EE0CD
:10313000E6E0F1E001900D928A95E1F780ED97E0ED
:10314000998B888B86E990E09B8B8A8B8AE1E4E1FE
:10315000F1E0DE01549601900D928A95E1F788E244
:10316000EEE2F1E0DE019E9601900D928A95E1F784
:10317000FE01EA5AFF4F118210828E01075A1F4F3B
:1031800088EE93E0F8019383828362E089E00E94F5
:10319000830262E08AE00E948302F80115821482B1
:1031A000118210821782168210861186065F1F4FC9
:1031B0008AE0E6E5F1E0D80101900D928A95E1F709
:1031C00084EF91E0F80193878287D48AC38A61E013
:1031D00085E00E94830261E086E00E94830261E054
:1031E00080E00E94830261E081E00E94830261E04E
:1031F00082E00E94830261E084E00E94830261E039
:1032000086E10E94830260E086E10E94450261E05F
:1032100085E00E94450260E086E00E944502F89445
:10322000109280001092810010928500109284000C
:103230008EE190E0909389008093880080918100D6
:1032400088608093810080918100836080938100F9
:1032500080916F00826080936F007894F8011486EB
:10326000118A128A158616861786108A108E168A7B
:10327000158A178A7E961082118212821382148216
:10328000158216823796108211821282138214825E
:103290001582168261E08FE00E94830261E08EE079
:1032A0000E94830261E088E00E94830261E087E07F
:1032B0000E94830283E68093B0008DE08093B1008A
:1032C00082E18093B30089E08093B40060E083E002
:1032D0000E948302FE01E057FF4F10823196108258
:1032E000118212821382148215821682108617822E
:1032F00012861186075C1F4F88E893E1F8019183DD
:10330000808380E190E09383828360E084E10E9487
:103310008302F8018281938101968130924024F0EA
:1033200083E894E00E949F14F801158216821782A8
:10333000108683E484831386148615861686FE0120
:10334000E654FF4F88E893E191838083B701CE0173
:103350000E945B0CD0935A06C0935906DF91CF911F
:103360001F910F91FF90EF90DF90CF900895789488
:1033700084B5826084BD84B5816084BD85B582607A
:1033800085BD85B5816085BD80916E00816080932B
:103390006E00109281008091810082608093810094
:1033A00080918100816080938100809180008160A4
:1033B000809380008091B10084608093B1008091FF
:1033C000B00081608093B000809191008260809312
:1033D0009100809191008160809391008091900094
:1033E0008160809390008091A10082608093A10011
:1033F0008091A10081608093A1008091A0008160F4
:103400008093A00080917A00846080937A008091FC
:103410007A00826080937A0080917A008E7F809318
:103420007A0080917A00806880937A001092C100BF
:1034300061E085E10E94830260E085E10E9445022F
:1034400083B7817F846083BF81E00E94180D82EC86
:10345000682E82E0782E8FB7F89480902F05909098
:103460003005A0903105B09032058FBF80923805AD
:1034700090923905A0923A05B0923B05C091590649
:10348000D0915A06FE01E455FF4F80829182A282BC
:10349000B3828091770690917806209165063091ED
:1034A00066068217930709F0D8C040916F065091C5
:1034B0007006609171067091720695018401041B7B
:1034C000150B260B370B80915B0690915C06B0E0E4
:1034D000A0E080179107A207B30728F0452B462BE1
:1034E000472B09F067C080926F0690927006A092F9
:1034F0007106B092720680E10E94BF02EC0120903A
:103500007306309074064090750650907606609170
:103510005D0670915E0690E080E00E9441204B01C4
:103520005C01AC019B01C201B1010E94941F87FFA5
:1035300044C0BE0190E080E00E94412020917906C5
:1035400030917A0640917B0650917C060E94281F9C
:103550006B017C01C0927906D0927A06E0927B06DC
:10356000F0927C0620E030E040E85FE3C201B10168
:103570000E94281F1B012C012092730630927406B2
:103580004092750650927606AC019B01C501B401CC
:103590000E94941F81110EC0A2019101C701B601C2
:1035A0000E94991F6093790670937A0680937B0638
:1035B00090937C060E9491014ECF80907906909066
:1035C0007A06A0907B06B0907C0660915F067091B1
:1035D000600690E080E00E9441209B01AC01C501A3
:1035E000B4010E94F32018164CF480916D0690915E
:1035F0006E069093780680937706DCCF6091610623
:103600007091620690E080E00E9441209B01AC0135
:10361000C501B4010E94F32018162CF480916B06AA
:1036200090916C06E6CF609163067091640690E01D
:1036300080E00E9441209B01AC01C501B4010E94C1
:10364000F32018162CF48091690690916A06D1CF68
:103650008091670690916806CCCF209167063091E3
:1036600068068217930721F480E00E94180DA2CF0C
:103670008091370581112BC08E0106581F4FD8014C
:103680008C91882321F161E086E10E94450220911E
:103690007706309178068091690690916A0628171E
:1036A000390721F061E082E00E944502F8011082B2
:1036B000FE01E055FF4F80829182A282B382809208
:1036C000330590923405A0923505B09236052091CD
:1036D0007706309178068091690690916A062817DE
:1036E000390709F4B9C18AE00E941C028E01075A09
:1036F0001F4F892B61F4D80114968D919C911597D9
:10370000019615969C938E931497F12C0AC0F8019C
:103710008481958118161906C4F715821482FF2436
:10372000F39489E00E941C02892B49F4D8018D9101
:103730009C91119701968D939C9360E009C0F801CC
:103740008081918118161906C4F71182108261E0F8
:10375000D80114964D915C91159712968D919C917C
:1037600013972D913C911197841795070CF051C335
:10377000821793070CF018C2E5E0F0E01796FC936F
:10378000EE931697F2E01996FC93FF24F394F092CF
:103790008A05B8E6B093AC0510928B051092AD0582
:1037A00090E080E00E94C6050E94640367E088E61E
:1037B0000E944B0410923D0580933C058EEA95E0F3
:1037C0000E9450058F7799270E940203FE01EF5750
:1037D000FF4F80838EEA95E00E9450050E9402030D
:1037E000FE01EE57FF4F80838EEA95E00E94500560
:1037F0008F7399270E940203FE01ED57FF4F8083CC
:103800008EEA95E00E9450050E940203FE01EC57EB
:10381000FF4F80838EEA95E00E9450050E940203CC
:10382000FE01EB57FF4F80838EEA95E00E94500522
:103830000E940203FE01EA57FF4F80838EEA95E063
:103840000E9450050E940203FE01E957FF4F80834A
:1038500088819981DC01ED91FC910480F581E02D56
:103860000995FE01EC54FF4F8081882349F0DE0169
:10387000AB54BF4F8C91882309F4BEC11C921082B7
:10388000FE01E15AFF4F808191818330910509F457
:103890001EC208F0D9C18130910509F405C2029712
:1038A00009F40CC2E0915906F0915A06809038054F
:1038B00090903905A0903A05B0903B05209177068D
:1038C0003091780680916B0690916C06EF01CD598E
:1038D000DF4F28173907F1F4DF01A055BF4F8D9155
:1038E0009D910D90BC91A02DB501A401481B590BD1
:1038F0006A0B7B0B80899189092E000CAA0BBB0BEC
:10390000481759076A077B0728F467ED74E0CE0172
:103910000E94F6028C85823011F4B3E0BC878A895C
:1039200081111A8A8D859E85AF85B889B501A4015C
:10393000481B590B6A0B7B0B8A859B85092E000C53
:10394000AA0BBB0B481759076A077B0718F0488D6D
:10395000442329F041E08B8D803209F440E02C852E
:103960008C8D803209F0F7C1213009F0F7C1822F28
:1039700090E0FE01E80FF91FE18D2111F4C12989C2
:10398000222309F413C210E000E0EB3738F4F0E032
:10399000EE0FFF1FE851FD4F0081118104781127C0
:1039A00021E02A8B198A880F991FFE01E80FF91F61
:1039B00080819181082B192B442321F08C819D81DA
:1039C000082B192B61E084E00E944502F12CE12CC8
:1039D000C8010E2C02C0969587950A94E2F761E023
:1039E00080FF60E080E00E9445025A985A9A599AF6
:1039F0005998EFEFEE1AFE0AFCE0EF16F10441F7DA
:103A000060E084E00E9445028C859989992319F031
:103A1000982F9B7F11F08F5F8C878D859E85AF855A
:103A2000B889B501A401481B590B6A0B7B0B8A8529
:103A30009B85880F991F092E000CAA0BBB0B8417BE
:103A40009507A607B70720F48D869E86AF86B88AAD
:103A50008C85853009F41C868091770690917806D4
:103A600020916B0630916C068217930739F02091F4
:103A7000690630916A068217930781F5E09159062D
:103A8000F0915A06EF01C455DF4FDF01A055BF4F3B
:103A9000888199812D913C91821B930B20893189DA
:103AA00082179307DCF422893389B901660F771FE7
:103AB0000E947321821793070CF093C161E08FE09D
:103AC0000E94450261E08EE00E94450261E088E0CC
:103AD0000E94450261E087E00E94450280915906FC
:103AE00090915A068090380590903905A0903A053B
:103AF000B0903B05FC01E15AFF4F20813181232B1F
:103B000041F08092330590923405A0923505B09231
:103B1000360511821082FC01E558FF4F1082EB5BE5
:103B2000FF4F2081222309F45FC14091330550915A
:103B300034056091350570913605841A950AA60AF8
:103B4000B70A359620813181220F331F220F331F90
:103B5000820F931FDC019E962D913D914D915C91BA
:103B6000D197A0E6BAEE0E94CE21681579058A05A4
:103B70009B0508F01FCD8091370581111BCD81E099
:103B800074CD141615060CF448C1D80119968C9101
:103B90001997E4E0F0E0823091F4E5E0F0E0179668
:103BA000FC93EE931697F1CD121613060CF435C163
:103BB00019968C911997E3E0F0E0823071F3D80107
:103BC0001796FC93EE93169781E019968C93DDCDB2
:103BD000FF2009F4DACDF8018185811105C021E0CB
:103BE00030E037832683D1CDD80117961C921E92E0
:103BF000169719961C92C9CDD80114968D919C9157
:103C00001597181619069CF48D919C91119718160A
:103C100019064CF422E019962C93199717961C92CA
:103C20001E9216972CCE1996FC921997F7CF892BD6
:103C300009F025CE8D919C911197892B09F01FCE0B
:103C400019961C921997EACF8430910509F475C032
:103C5000059709F027CE08811981D80112968D9118
:103C60009C91FC01EA5AFF4F8B539F4FDC018D91D1
:103C70009C9191838083F801C281D38184E090E09C
:103C80000E940822EEEDF2E0DC01ED93FC93BC0112
:103C9000CE010E945B0CD8011296ED91FC91EF567B
:103CA000FF4F12861186FECD88819981DC01ED914E
:103CB000FC910680F781E02D0995F4CD88819981EA
:103CC000DC01ED91FC910084F185E02DF5CFE881D8
:103CD000F981C281D381FE01EF56FF4F8185928524
:103CE0008130910589F082309105C1F0892BE9F48A
:103CF00084E090E00E940822FC0171826082BC0195
:103D0000CE010E945B0CCECD84E090E00E940822A0
:103D1000E4EBF2E0DC01ED93FC93F1CF84E090E082
:103D20000E940822E6EAF2E0F5CF84E090E00E94EB
:103D30000822DC016D927C92E2CFE881F981C28198
:103D4000D38184E090E00E94082220ED32E0FC0163
:103D500031832083D4CF233009F409CE253008F0F5
:103D600053CE40E004CE243079F529892223F1F0A6
:103D700010E000E0EB3738F4F0E0EE0FFF1FE85101
:103D8000FD4F008111810870127051E05A8B198A21
:103D90002B893C891216130634F0598B2F5F3F4F45
:103DA0003C8B2B8B00CE1C8A1B8AFDCD10E000E0E3
:103DB000EB3738F4F0E0EE0FFF1FE851FD4F0081C4
:103DC000118121E0298BEFCD10E000E0EB3708F006
:103DD000EACDF0E0EE0FFF1FE851FD4F00811181A9
:103DE000E2CD0E9473027ACE809133059091340522
:103DF000A0913505B0913605881A990AAA0ABB0A1E
:103E0000B1EE8B16BEE29B06A104B10408F0B3CE5E
:103E1000D1CB821793070CF4B4CE662309F4D8CE25
:103E2000D80119968C9119978111DECEE2E0F0E06D
:103E3000B6CE262FF999FECF1FBA92BD81BD20BD07
:103E40000FB6F894FA9AF99A0FBE01960895505851
:103E5000BB27AA270E943F1F0C94B9200E94AB20C9
:103E600038F00E94B22020F039F49F3F19F426F474
:103E70000C94A8200EF4E095E7FB0C94A220E92F07
:103E80000E94CA2058F3BA17620773078407950780
:103E900020F079F4A6F50C94EC200EF4E0950B2EAE
:103EA000BA2FA02D0B01B90190010C01CA01A0018C
:103EB0001124FF27591B99F0593F50F4503E68F1E7
:103EC0001A16F040A22F232F342F4427585FF3CF28
:103ED000469537952795A795F0405395C9F77EF4F9
:103EE0001F16BA0B620B730B840BBAF09150A1F042
:103EF000FF0FBB1F661F771F881FC2F70EC0BA0FC8
:103F0000621F731F841F48F4879577956795B7954F
:103F1000F7959E3F08F0B0CF9395880F08F099274A
:103F2000EE0F9795879508950E947E2008F481E012
:103F300008950E94AD1F0C94B9200E94B22058F041
:103F40000E94AB2040F029F45F3F29F00C94A2209E
:103F500051110C94ED200C94A8200E94CA2068F303
:103F60009923B1F3552391F3951B550BBB27AA2732
:103F700062177307840738F09F5F5F4F220F331F6C
:103F8000441FAA1FA9F335D00E2E3AF0E0E832D034
:103F900091505040E695001CCAF72BD0FE2F29D037
:103FA000660F771F881FBB1F261737074807AB0709
:103FB000B0E809F0BB0B802DBF01FF2793585F4F7E
:103FC0003AF09E3F510578F00C94A2200C94ED201D
:103FD0005F3FE4F3983ED4F3869577956795B79560
:103FE000F7959F5FC9F7880F911D9695879597F96B
:103FF0000895E1E0660F771F881FBB1F62177307E4
:104000008407BA0720F0621B730B840BBA0BEE1FF8
:1040100088F7E09508950E9412206894B1110C94DD
:10402000ED2008950E94D22088F09F5798F0B92F74
:104030009927B751B0F0E1F0660F771F881F991FDD
:104040001AF0BA95C9F714C0B13091F00E94EC2073
:10405000B1E008950C94EC20672F782F8827B85F83
:1040600039F0B93FCCF3869577956795B395D9F735
:104070003EF490958095709561957F4F8F4F9F4F3F
:104080000895E89409C097FB3EF49095809570954B
:1040900061957F4F8F4F9F4F9923A9F0F92F96E994
:1040A000BB279395F695879577956795B795F11109
:1040B000F8CFFAF4BB0F11F460FF1BC06F5F7F4FA6
:1040C0008F4F9F4F16C0882311F096E911C07723B8
:1040D00021F09EE8872F762F05C0662371F096E8C1
:1040E000862F70E060E02AF09A95660F771F881F90
:1040F000DAF7880F9695879597F90895990F000834
:10410000550FAA0BE0E8FEEF16161706E807F907A9
:10411000C0F012161306E407F50798F0621B730B44
:10412000840B950B39F40A2661F0232B242B252BC5
:1041300021F408950A2609F4A140A6958FEF811D68
:10414000811D089597F99F6780E870E060E0089509
:104150009FEF80EC089500240A941616170618069F
:104160000906089500240A9412161306140605067B
:104170000895092E0394000C11F4882352F0BB0F0C
:1041800040F4BF2B11F460FF04C06F5F7F4F8F4F6F
:104190009F4F089557FD9058440F551F59F05F3FAA
:1041A00071F04795880F97FB991F61F09F3F79F059
:1041B00087950895121613061406551FF2CF4695DB
:1041C000F1DF08C0161617061806991FF1CF86955D
:1041D0007105610508940895E894BB276627772741
:1041E000CB0197F908950E947E2008F48FEF08957F
:1041F0000E940B210C94B9200E94AB2038F00E9441
:10420000B22020F0952311F00C94A2200C94A82049
:1042100011240C94ED200E94CA2070F3959FC1F3E5
:10422000950F50E0551F629FF001729FBB27F00D64
:10423000B11D639FAA27F00DB11DAA1F649F6627B9
:10424000B00DA11D661F829F2227B00DA11D621F08
:10425000739FB00DA11D621F839FA00D611D221FC2
:10426000749F3327A00D611D231F849F600D211DA6
:10427000822F762F6A2F11249F5750409AF0F1F029
:1042800088234AF0EE0FFF1FBB1F661F771F881F92
:1042900091505040A9F79E3F510580F00C94A22008
:1042A0000C94ED205F3FE4F3983ED4F38695779528
:1042B0006795B795F795E7959F5FC1F7FE2B880F38
:1042C000911D9695879597F9089587FB082E0626E8
:1042D00087FD819567FD61950E94D9210EF4919526
:1042E00007FC8195089597FB072E16F4009407D0DC
:1042F00077FD09D00E94E52107FC05D03EF490959A
:1043000081959F4F0895709561957F4F0895A1E223
:104310001A2EAA1BBB1BFD010DC0AA1FBB1FEE1F3F
:10432000FF1FA217B307E407F50720F0A21BB30B8A
:10433000E40BF50B661F771F881F991F1A9469F706
:1043400060957095809590959B01AC01BD01CF0162
:104350000895052E97FB1EF400940E94C02157FD7E
:1043600007D00E94872107FC03D04EF40C94C02193
:1043700050954095309521953F4F4F4F5F4F089591
:1043800090958095709561957F4F8F4F9F4F0895C1
:10439000EE0FFF1F0590F491E02D09940E94F92182
:1043A000A59F900DB49F900DA49F800D911D112489
:1043B0000895991B79E004C0991F961708F0961B81
:1043C000881F7A95C9F780950895AA1BBB1B51E1F8
:1043D00007C0AA1FBB1FA617B70710F0A61BB70B75
:1043E000881F991F5A95A9F780959095BC01CD011A
:1043F0000895A29FB001B39FC001A39F700D811DBE
:104400001124911DB29F700D811D1124911D0895DD
:104410000F931F93CF93DF938230910510F482E0C6
:1044200090E0E0917F06F091800630E020E0B0E07F
:10443000A0E0309799F42115310509F44AC0281BF2
:10444000390B24303105D8F58A819B8161157105BE
:1044500089F1FB0193838283FE0111C04081518168
:104460000281138148175907E0F04817590799F45A
:10447000109761F012960C93129713961C93329634
:10448000CF01DF91CF911F910F91089500937F0687
:1044900010938006F4CF2115310551F042175307D0
:1044A00038F0A901DB019A01BD01DF01F801C1CF9C
:1044B000EF01F9CF9093800680937F06CDCFFE0168
:1044C000E20FF31F8193919322503109398328839E
:1044D000D7CF20917D0630917E06232B41F4209189
:1044E00002013091030130937E0620937D062091D6
:1044F0000001309101012115310541F42DB73EB77E
:104500004091040150910501241B350BE0917D067B
:10451000F0917E06E217F307A0F42E1B3F0B28173D
:10452000390778F0AC014E5F5F4F2417350748F02C
:104530004E0F5F1F50937E0640937D0681939193AB
:104540009FCFF0E0E0E09CCFCF93DF930097E9F0BE
:10455000FC01329713821282A0917F06B0918006EF
:10456000ED0130E020E01097A1F420813181820F2D
:10457000931F20917D0630917E062817390709F098
:1045800061C0F0937E06E0937D06DF91CF910895A0
:10459000EA01CE17DF07E8F54A815B819E014115EC
:1045A0005105B1F7E901FB83EA8349915991C40FA1
:1045B000D51FEC17FD0761F4808191810296840F6D
:1045C000951FE90199838883828193819B838A83E4
:1045D000F0E0E0E012968D919C9113970097B9F569
:1045E0002D913C911197CD010296820F931F20913E
:1045F0007D0630917E062817390739F6309751F538
:104600001092800610927F06B0937E06A0937D06DE
:10461000BCCFD383C28340815181840F951FC817BB
:10462000D90761F44E5F5F4F88819981480F591F08
:10463000518340838A819B81938382832115310535
:1046400009F0B0CFF0938006E0937F069ECFFD0186
:0E465000DC01C0CF13821282D7CFF894FFCFC7
:10465E00000081068000AD04B304B904BF04C50494
:10466E00CB04D10400001F001C001F001E001F0001
:10467E001E001F001F001E001F001E001F00000056
:10468E0000000100000003000000050000000A0009
:10469E0000000F0000001E0000002D0000003C0076
:1046AE0000000F270000200002004000000100085B
:1046BE000000000057062C15F30DDF0D5806000004
:1046CE00000055062815B106D40ED40E00000000C9
:1046DE00540626152613DB12531200000000530653
:1046EE002415CE06E80E2E150000000052062215E7
:1046FE00E006100FFC0E00000000510620153907D1
:10470E00240FE9060000000050061E1551074C0F3D
:10471E00380F000000004F061C15A907700F5A072E
:10472E00000000004E061A15BD07980F840F0000FA
:10473E0000004D0618153308BC0FC6070000000018
:10474E004C061615A108D00F5208000000004B06AB
:10475E001415C00830101C10000000004A06121577
:10476E000D095410C908000000004906101568090B
:10477E00681024090000000048060E158709A010D5
:10478E008C100000000047060C15A909C4109009F2
:10479E000000000046060A15E1090B14C8090000C6
:1047AE00000045060815190A3E14000A0000000014
:1047BE0044060615350A0011EC10000000004206F2
:1047CE000215470A4511451100000000410600156B
:1047DE00210B6D115911000000004006FE14330B21
:1047EE0095118111000000003F06FC144A0BBD110B
:1047FE00A911000000003C06F614BE0BD50CBC0C33
:10480E00000000003B06F414CE0B040DE90C000072
:10481E0000003D06F814A60BA80C760C0000000054
:10482E00430604153E0A31111D1100000000560604
:10483E002A15A806790E790E9D020802150619068C
:10484E00880699049D0409029D0699060000000041
:10485E00000000000000000000000000000000004A
:10486E00000000000000000000000000000000003A
:10487E00000000000000000000000000000000002A
:10488E000000000000000000000000008106000093
:10489E0000000000000084009D02080215061906A3
:1048AE00880699049D0409029D06990600000000E1
:1048BE00000000000000000000008D069D0695001F
:1048CE009D02950485049D048C06080219020000C1
:1048DE00940009028D029D02850600008D06990442
:1048EE0094049C029C0218028C0688061506000091
:1048FE00000000000000000000008D069C0414045F
:10490E001C06950685049D048C0404001902000003
:10491E00940008040C041C04850600000404990489
:10492E0094041C001C0018008C0698061506000046
:10493E0000001A01A901BB006701EC00CA00DE00ED
:10494E000000000097056A052D06A80163055005B5
:10495E004105000000003E06FA14F911E511D111CF
:10496E005041207459007445206E6E005945204107
:10497E007200646F205555004441207445007469DF
:10498E00206E6E004F6E202020005369204C450093
:10499E004F4620462000414C204172005345207462
:1049AE0020003030313030003939203939000D0ACD
:1049BE00004578636565646564206D6178696D7521
:1049CE006D206E756D626572206F662077726974E8
:1049DE00657300417474656D707420746F20777206
:1049EE00697465206F757473696465206F66204500
:1049FE004550524F4D206D656D6F7279004E4E20B1
:104A0E006F6E007475204520005555204564007466
:104A1E0068207520004672206920005341207420C2
:0E4A2E00005375206E20004241204C6F0000A6
:00000001FF
