:100000000C9491000C94B9000C94B9000C94C00AA3
:100010000C94B9000C94B9000C94B9000C94B9007C
:100020000C94B9000C94B9000C94B9000C94640AB7
:100030000C94B9000C94B9000C94B9000C94B9005C
:100040000C94FD080C94B9000C94CB080C94A508F2
:100050000C94B9000C94B9000C94B9000C94B9003C
:100060000C9449090C94B9000C9447090C94470965
:100070000C9447090C9447090C9447090C944709C0
:100080000C9447090C9447090C9447090C944709B0
:100090000C9447090C9447090C9447090C944709A0
:1000A0000C9447090C9447090C9447090C94470990
:1000B0000C94470900000000240027002A002D00AE
:1000C00000000000250028002B002E00000000008A
:1000D0002300260029002C00040404040404040462
:1000E00002020202020203030303030305050505DE
:1000F00001020408102040800102040810200102BF
:100100000408102004080102090C0A08000201007A
:1001100000030407000000000000000000000000D1
:10012000230B11241FBECFEFD8E0DEBFCDBF12E0FE
:10013000A0E0B1E0E8E0FBE202C005900D92A23E33
:10014000B107D9F724E0A2EEB2E001C01D92A239B6
:10015000B207E1F710E0C1E9D0E004C02197FE0149
:100160000E945714C039D107C9F70E94CA0C0C94D9
:1001700082150C940000FC01538D448D252F30E036
:10018000842F90E0821B930B541710F0CF960895A4
:1001900001970895FC01918D828D981761F0A28DD1
:1001A000AE0FBF2FB11D5D968C91928D9F5F9F7397
:1001B000928F90E008958FEF9FEF0895FC01918D4D
:1001C000828D981731F0828DE80FF11D858D90E0BA
:1001D00008958FEF9FEF0895FC01918D228D892F57
:1001E00090E0805C9F4F821B91098F73992708953F
:1001F000FC01A48DA80FB92FB11DA35ABF4F2C919C
:10020000848D90E001968F739927848FA689B78992
:100210002C93A089B1898C91837080648C93938D89
:10022000848D981306C00288F389E02D80818F7D2C
:1002300080830895EF92FF920F931F93CF93DF93E4
:10024000EC0181E0888F9B8D8C8D98131AC0E88912
:10025000F989808185FF15C09FB7F894EE89FF89E1
:100260006083E889F98980818370806480839FBF7F
:1002700081E090E0DF91CF911F910F91FF90EF907F
:100280000895F62E0B8D10E00F5F1F4F0F7311278F
:10029000E02E8C8D8E110CC00FB607FCFACFE889CA
:1002A000F989808185FFF5CFCE010E94F800F1CF5A
:1002B000EB8DEC0FFD2FF11DE35AFF4FF0829FB73E
:1002C000F8940B8FEA89FB8980818062CFCFCF932E
:1002D000DF93EC01888D8823B9F0AA89BB89E8896E
:1002E000F9898C9185FD03C0808186FD0DC00FB614
:1002F00007FCF7CF8C9185FFF2CF808185FFEDCF92
:10030000CE010E94F800E9CFDF91CF91089584ECEF
:1003100093E00E94EC0021E0892B09F420E0822F79
:10032000089580E090E0892B29F00E9487018111D7
:100330000E94000080E090E0892B49F080E090E08E
:10034000892B29F00E94000081110C94000008956F
:10035000AF92BF92CF92DF92EF92FF920F931F93D3
:10036000CF93DF936C017B018B01040F151FEB0111
:100370005E01AE18BF08C017D10759F06991D601C8
:10038000ED91FC910190F081E02DC6010995892B3A
:1003900079F7C501DF91CF911F910F91FF90EF90F9
:1003A000DF90CF90BF90AF90089581508D3008F0CE
:1003B0003DC0E82FF0E0E152FE4F0C945714F601D7
:1003C000FA01EC01F20116021602FD010302070216
:1003D0000D02160211021702809180008F77809320
:1003E00080000895809180008F7DF9CF84B58F774C
:1003F00084BD089584B58F7DFBCF8091B0008F7749
:100400008093B00008958091B0008F7DF9CF8091E6
:1004100090008F77809390000895809190008F7D59
:10042000F9CF8091A0008F778093A00008958091EC
:10043000A0008F7DF9CFCF93DF93282F30E0F90113
:10044000E85FFE4F8491F901E051FF4FD491F9012B
:10045000E852FF4FC491CC23A1F081110E94D50135
:10046000EC2FF0E0EE0FFF1FE453FF4FA591B49186
:10047000EC91ED2381E090E009F480E0DF91CF91F1
:10048000089580E090E0FACF1F93CF93DF93282F59
:1004900030E0F901E85FFE4F8491F901E051FF4F30
:1004A000D491F901E852FF4FC491CC23A9F0162F43
:1004B00081110E94D501EC2FF0E0EE0FFF1FE054F8
:1004C000FF4FA591B4918FB7F894EC91111108C02A
:1004D000D095DE23DC938FBFDF91CF911F910895DC
:1004E000DE2BF8CF60E08FE00E94440260E08EE0F7
:1004F0000E94440260E088E00E94440260E087E0DD
:100500000C944402CF93DF9390E0FC01E051FF4F45
:10051000249188529F4FFC0184918823C9F090E078
:10052000880F991FFC01EC54FF4FA591B491FC0179
:10053000E054FF4FC591D49161110DC09FB7F8945D
:100540008C91209582238C938881282328839FBFB8
:10055000DF91CF910895623051F49FB7F8943C91A8
:10056000822F809583238C93E8812E2BEFCF8FB73A
:10057000F894EC912E2B2C938FBFEACF8E50806491
:1005800080937C0080917A00806480937A008091CF
:100590007A0086FDFCCF80917800909179000895D3
:1005A0003FB7F8948091310390913203A0913303C7
:1005B000B091340326B5A89B05C02F3F19F00196D2
:1005C000A11DB11D3FBFBA2FA92F982F8827BC01AD
:1005D000CD01620F711D811D911D43E0660F771FD4
:1005E000881F991F4A95D1F708951F93CF93DF93E2
:1005F000C1E0C093EC02882399F1D091B80010912A
:10060000BA008091BC008A7B8093BC0060E082E1EC
:100610000E94440260E083E10E94440210928E0333
:10062000C0938D031092680361E082E10E9444024E
:1006300061E083E10E9444028091B9008E7F809343
:10064000B9008091B9008D7F8093B90080E28093DA
:10065000B80085E48093BC001093BA00D093B80032
:10066000DF91CF911F910895CF92DF92EF92FF9289
:100670000F931F93CF93DF93D091B70381E0D132D3
:1006800008F09CC0C091B6030E94D0026B017C01AF
:1006900080918E0381116CC082E080938E0381E093
:1006A00080938D038FEF80938C0310928B03D093F4
:1006B0008A03A6E9B3E0EAE6F3E080E0D8138DC050
:1006C0001092690380916903CC0FC82BC093690312
:1006D00080916803813009F084C0109268030E9401
:1006E000D0026B017C01809169038093BB008091F3
:1006F000900390919103A0919203B0919303892B61
:100700008A2B8B2BA1F00E94D002009190031091B4
:10071000910320919203309193036C197D098E0906
:100720009F09061717072807390708F442C0809168
:10073000BC0083FDD8CF85EC8093BC000E94D00222
:100740006B017C0180918E03823009F44CC0809152
:100750008C038F3F09F469C080918C03803209F4C7
:1007600066C080918C03803309F463C084E026C0A6
:100770008091900390919103A0919203B091930383
:10078000892B8A2B8B2B09F483CF0E94D0020091F6
:1007900090031091910320919203309193036C196F
:1007A0007D098E099F09061717072807390708F0E2
:1007B0006FCF80918F030E94F50285E01092950320
:1007C0001092B70310929403DF91CF911F910F9174
:1007D000FF90EF90DF90CF9008959D9191938F5F60
:1007E0006DCF85EEA9CF8091900390919103A09158
:1007F0009203B0919303892B8A2B8B2B09F4A2CF00
:100800000E94D002009190031091910320919203D5
:10081000309193036C197D098E099F0906171707FC
:100820002807390708F08ECFC4CF80E0C7CF82E019
:10083000C5CF83E0C3CF20910D03260F3327331F8D
:1008400021323105ECF420918E03FC0190E080E030
:10085000243069F082E00895A0910D032191AC014C
:1008600043515D4FA40FB52FB11D2C9301968617F0
:1008700098F380910D03680F60930D0380E0089555
:1008800081E008950895E0913A0380913903E817D3
:1008900030F4F0E0E55CFC4F808190E008958FEF4C
:1008A0009FEF089590913A03809139032FEF3FEF26
:1008B000981748F4E92FF0E0E55CFC4F208130E028
:1008C0009F5F90933A03C9010895809139039091F5
:1008D0003A03891B990B0895CF92DF92EF92FF9212
:1008E0000F931F93CF93DF937C01CB018A0120915B
:1008F0009403222389F0EB016B01C40ED51ECC15A5
:10090000DD0569F06991D701ED91FC910190F081CD
:10091000E02DC7010995F3CF642F0E941B04C80185
:10092000DF91CF911F910F91FF90EF90DF90CF90CB
:100930000895CF93DF931F92CDB7DEB769832091DF
:1009400094032223F9F02091B703203258F021E0DC
:1009500030E0FC013383228390E080E00F90DF9150
:10096000CF91089580919503E82FF0E0EA56FC4F6F
:10097000998190838F5F809395038093B70381E083
:1009800090E0ECCF61E0CE0101960E941B04F7CF0E
:10099000682F88EB93E00C949904CF92DF92EF924A
:1009A000FF920F931F93CF93DF93C82FD62EF42E71
:1009B000122F81E08093940388E68093B60310920F
:1009C00095031092B70390E080E00E94C8048C2F3A
:1009D00090E0CAE0D0E0BE010E94431424E0660F1C
:1009E000771F2A95E1F7860F971F0E94C8048D2D67
:1009F00090E0BE010E94431434E0660F771F3A95E1
:100A0000E1F7860F971F0E94C8048F2D90E0BE016A
:100A10000E94431444E0660F771F4A95E1F7860F62
:100A2000971F0E94C804812F90E0BE010E944314CA
:100A300054E0660F771F5A95E1F7860F971F0E94C3
:100A4000C804802F90E0BE010E944314E4E0660FCA
:100A5000771FEA95E1F7860F971F0E94C8048E2D35
:100A600090E0BE010E944314F4E0660F771FFA95F0
:100A7000E1F7860F971F0E94C8048C2D90E0BE01FD
:100A80000E944314A4E0660F771FAA95E1F7860F32
:100A9000971F0E94C804DF91CF911F910F91FF9083
:100AA000EF90DF90CF900C94340390E080E00895B5
:100AB0000F931F93CF93DF93EC018B018881998172
:100AC000009739F0DC01ED91FC910280F381E02D7B
:100AD000099519830883F801D383C283DF91CF91ED
:100AE0001F910F9108950895089508950895089508
:100AF0004F925F926F927F928F929F92AF92BF922E
:100B0000CF92DF92EF92FF920F931F93CF93DF93D9
:100B10005C01FC01C281D381FE01E35BFF4F408198
:100B20005181628173818E01025C1F4FF801C58083
:100B3000D680E780F0842A013B014C185D086E08DE
:100B40007F088EAD9FADB0E0A0E084159505A605A9
:100B5000B70520F0CD28CE28CF2859F5F8014583D8
:100B600056836783708784E10E94BE02BC01990F9F
:100B7000880B990B0E94011323E333E343E550E410
:100B80000E94B61320E030E040E85AE30E94B6131A
:100B900020E030E040E05FE30E94E5112AE037ED1D
:100BA00043E25CE30E945712F801638774878587EC
:100BB0009687F801C384D484E584F684FE01EE5B55
:100BC000FF4F1081163409F062C020E030E040E1B0
:100BD00051E4C701B6010E94B61320E030E040EABC
:100BE00050E40E94571220E030E040E052E40E94BE
:100BF000E6116B017C0120E030E048EC52E40E94F9
:100C000057120E94C9126AAB20E030E040E251E482
:100C1000C701B6010E9457120E94C9128AE0882EAD
:100C2000912CCB01B4010E9443148BAB80E28CABBE
:100C3000C701B6010E94C912CB01B4010E9443143E
:100C40008DAB1EABF501C281D3818E899F89813026
:100C50009105C1F584E090E00E945D1422E632E047
:100C6000FC0131832083BC01CE01DF91CF911F9124
:100C70000F91FF90EF90DF90CF90BF90AF909F903B
:100C80008F907F906F905F904F900C94580581E00B
:100C900089AB20E030E040E251E4C701B6010E9498
:100CA00057120E94C9126AABC701B6010E94C9124D
:100CB000CB016AE070E00E9443148BAB80E28CAB06
:100CC0008AE2BECF029731F2DF91CF911F910F914F
:100CD000FF90EF90DF90CF90BF90AF909F908F905C
:100CE0007F906F905F904F900895CF93DF93FC01BA
:100CF000A281B381DA96EC91DA97F0E0EE0FFF1F54
:100D0000EA0FFB1F0190F081E02DD2969F012B5F2F
:100D10003F4F41914D93E217F307D9F7FC01C28190
:100D2000D3818E899F898130910579F484E090E0A8
:100D30000E945D1422E632E0FC0131832083BC0175
:100D4000CE01DF91CF910C945805029739F484E0DD
:100D500090E00E945D1422E231E0EECFDF91CF916E
:100D60000895CF93DF93DC011296ED91FC911397D8
:100D700087A990E292AB93AB94AB6AE00E942314F4
:100D800085AB96AB1296CD91DC918E899F8981308F
:100D9000910579F484E090E00E945D1422E632E04F
:100DA000FC0131832083BC01CE01DF91CF910C94F3
:100DB0005805029739F484E090E00E945D142CE21B
:100DC00031E0EECFDF91CF910895CF93DF93DC0137
:100DD0001296ED91FC91139731E031AB43AD84ADA8
:100DE0002AE0622F0E94231482AB93AB34AB842F92
:100DF0000E94231485AB96AB1296CD91DC918E891F
:100E00009F898130910579F484E090E00E945D141F
:100E100026E331E0FC0131832083BC01CE01DF9168
:100E2000CF910C945805029739F484E090E00E9429
:100E30005D142CE231E0EECFDF91CF910895CF9396
:100E4000DF93DC011296ED91FC91139730AD81ADEB
:100E50002AE0622F0E94231482AB93AB14AA832F43
:100E60000E94231485AB96AB1296CD91DC918E89AE
:100E70009F898130910579F484E090E00E945D14AF
:100E800020E431E0FC0131832083BC01CE01DF91FD
:100E9000CF910C945805029739F484E090E00E94B9
:100EA0005D142CE231E0EECFDF91CF910895CF9326
:100EB000DF93FC0101900020E9F73197AF01481B57
:100EC000590BBC0184EC93E00E94A801EC0142E0C4
:100ED00050E068E672E084EC93E00E94A8018C0F79
:100EE0009D1FDF91CF91089585ED8093BC00809187
:100EF000900390919103A0919203B0919303079670
:100F0000A11DB11D23E0B695A795979587952A95C4
:100F1000D1F72091BC0024FD03C010928E030895E8
:100F200040919003509191036091920370919303CB
:100F3000452B462B472B69F30097A105B10541F0DE
:100F40002AE12A95F1F700C00197A109B109E1CF83
:100F500080918F030C94F502CF92EF920F93CF9371
:100F6000C82FE091EA02F091EB023797ED30F105DE
:100F7000F0F4E354F84F0C945714CA07D707350818
:100F8000D7074008D7074C08D7075508D7075D088B
:100F9000D7076408E0916304F0916404C5ACE4AC45
:100FA00003AD22AD40E060AD80E00E94CD040E9420
:100FB000720260E081E00E94440260E082E00E94F0
:100FC000440260E080E00E94440260E084E00E940D
:100FD000440260E086E10E94440260E085E00E94F5
:100FE000440260E086E00E94440260E085E10E94E5
:100FF000440281E08093630310928A0410928B0470
:1010000010928C0410928D04109284041092850426
:101010001092860410928704CC2309F487C0809133
:10102000680081608093680080916B008460809389
:101030006B0080917A008093E90210927A0085B764
:10104000982F90668F7D80648093E80295BF809191
:10105000E80285BF10926F0083B7816083BF8895D7
:10106000CF910F91EF90CF900895E0916304F091AC
:101070006404C5ACE4AC03AD22AD41AD60E094CFF7
:10108000E0916304F0916404C5ACE4AC03AD20E0EE
:1010900041AD60AD87A989CFE0916304F09164040C
:1010A000C5ACE4AC00E022ADF3CFE0916304F09175
:1010B0006404C5ACE12C03ADF6CFE0916304F0917C
:1010C0006404C12CE4ACF7CF809163049091640474
:1010D000FC01EE5BFF4F6081805C9F4FFC018081D3
:1010E00091812091E6023091E7022F5F3F4F3093CC
:1010F000E7022093E6024091610450916204411599
:10110000510519F0421753072CF48BE692E00E9428
:1011100057074DCF9C012F5F3F4F213032401CF0CD
:101120008DE892E0F4CF0E94D71141CF1092680071
:1011300010926B007ECF0C94F9140C94F9140C945B
:10114000F9140C94F9140C94F9141F920F920FB621
:101150000F9211242F933F934F935F936F937F933D
:101160008F939F93AF93BF93EF93FF9384EC93E0A0
:101170000E94F800FF91EF91BF91AF919F918F91E5
:101180007F916F915F914F913F912F910F900FBE83
:101190000F901F9018951F920F920FB60F92112467
:1011A0002F938F939F93EF93FF93E091D403F0914C
:1011B000D5038081E091DA03F091DB0382FD1BC04F
:1011C00090818091DD038F5F8F732091DE03821702
:1011D00041F0E091DD03F0E0EC53FC4F958F8093FC
:1011E000DD03FF91EF919F918F912F910F900FBE93
:1011F0000F901F9018958081F4CF1F920F920FB619
:101200000F9211242F933F938F939F93AF93BF938C
:101210008091350390913603A0913703B091380344
:101220003091300326E0230F2D3758F50296A11D8B
:10123000B11D209330038093350390933603A09320
:101240003703B09338038091310390913203A0911A
:101250003303B09134030196A11DB11D8093310376
:1012600090933203A0933303B0933403BF91AF91B3
:101270009F918F913F912F910F900FBE0F901F90D4
:10128000189529E8230F0396A11DB11DD2CF0C9408
:10129000B9001F920F920FB60F9211242F933F9314
:1012A0004F935F936F937F938F939F93AF93BF936E
:1012B000EF93FF938091B900887F803609F44AC08C
:1012C000F0F5883209F4A5C018F5803109F499C009
:1012D000B8F4882309F4F5C0883009F492C0FF916E
:1012E000EF91BF91AF919F918F917F916F915F919E
:1012F0004F913F912F910F900FBE0F901F90189517
:10130000883109F486C0803251F780938C0314C071
:10131000803409F49BC040F48033B9F38833F9F684
:1013200080938C0385ECAEC0803509F483C088358A
:1013300009F494C0883499F60E947407D0CF883994
:1013400009F48AC038F5883729F050F4883611F04E
:10135000803729F683E080938E0310922F0355C0C7
:10136000883809F479C0803919F0803809F0B7CF8E
:1013700080912F03803208F06FC0E0912F0381E04D
:101380008E0F80932F038091BB00F0E0E15FFC4F54
:1013900080833BC0803B39F0D0F4803A09F477C0B9
:1013A000883A09F09CCF84E080938E0310920E035C
:1013B00010920D03F0E0E0E0099580910D0381119A
:1013C0000FC081E080930D031092ED0209C0803CB4
:1013D00009F4A8CF883C09F4A5CF883B09F07FCF5A
:1013E000E0910E0381E08E0F80930E03F0E0E35155
:1013F000FD4F80818093BB0090910E0380910D037F
:1014000029C0809169038093BB0085EC8093BC0068
:1014100066CF90918B0380918A03981758F5E091DD
:101420008B0381E08E0F80938B03F0E0E659FC4F35
:101430008081E9CFE0918B0381E08E0F80938B0355
:101440008091BB00F0E0E659FC4F808390918B03C4
:1014500080918A039817C8F285E8D8CFE0918B0372
:1014600081E08E0F80938B038091BB00F0E0E65902
:10147000FC4F808380918D0381115ECF81E080934A
:10148000680384EA8093BC0010928E0328CF85EC19
:101490008093BC0010928E0380912F03803230F431
:1014A000E0912F03F0E0E15FFC4F108260912F0389
:1014B00070E08FE093E0F0E0E0E0099510922F03F8
:1014C0000ECF10928C0338CF1F920F920FB60F924F
:1014D00011242F933F934F935F936F937F938F9339
:1014E0009F93AF93BF93CF93DF93EF93FF93C091FD
:1014F0006304D09164048FB7F89440913503509100
:10150000360360913703709138038FBF8EA59FA576
:101510009C01285031092230310518F082319105A3
:101520001CF160E085E00E94440260E086E00E94D9
:1015300044028EA59FA5019684319105F1F09FA7E5
:101540008EA7FF91EF91DF91CF91BF91AF919F91C6
:101550008F917F916F915F914F913F912F910F905C
:101560000FBE0F901F9018958830910514F461E01C
:10157000D9CF0A970897E8F6FACF1FA61EA6E1CFA3
:101580001F920F920FB60F9211242F933F934F93F8
:101590005F936F937F938F939F93AF93BF93EF93DB
:1015A000FF93809163038823E9F1E0916304F09154
:1015B000640481E0808F80AB109263038091760495
:1015C00090917704909389048093880483B78E7FE9
:1015D00083BF8091E90280937A001092EB0210920F
:1015E000EA028091640390916503A0916603B09133
:1015F000670380935B0390935C03A0935D03B093B8
:101600005E031092E2021092E3021092E402109242
:10161000E50280916F00826080936F0061E085E158
:101620000E944402FF91EF91BF91AF919F918F91E2
:101630007F916F915F914F913F912F910F900FBECE
:101640000F901F901895EF92FF920F931F93CF93D7
:10165000DF931092C7031092C60388EE93E0A0E0D8
:10166000B0E08093C8039093C903A093CA03B093DA
:10167000CB032EE332E03093C5032093C40325EC63
:1016800030E03093D1032093D00324EC30E030934A
:10169000D3032093D20320EC30E03093D503209382
:1016A000D40321EC30E03093D7032093D60322EC0F
:1016B00030E03093D9032093D80326EC30E0309308
:1016C000DB032093DA031092DD031092DE03109205
:1016D000DF031092E00324E6E22EF12CF092620484
:1016E000E09261041092BB031092BA038093BC0392
:1016F0009093BD03A093BE03B093BF0380E592E037
:101700009093B9038093B8038AE090E090936D04BE
:1017100080936C048FE090E090936F0480936E044C
:101720008EE091E0909371048093700484E091E0E6
:10173000909373048093720480EF90E0909375040B
:101740008093740484E090E090937704809376040F
:1017500083E090E0909379048093780482E090E0B5
:1017600090937B0480937A0481E090E090937D04D1
:1017700080937C0410927F0410927E0460E080E1EC
:101780000E948202109280041092810410928204BE
:10179000109283041092840410928504109286049F
:1017A00010928704109289041092880410928A047F
:1017B00010928B0410928C0410928D0461E08FE0E3
:1017C0000E94820261E08EE00E94820261E088E075
:1017D0000E94820261E087E00E948202109265040A
:1017E00010926604109267041092680410926904C3
:1017F00010926A0410926B0484E090E00E945D14E1
:101800008C0182E692E0F8019183808381E590E08B
:101810000E945D14EC01DC011D921D928EE0E6E059
:10182000F1E001900D928A95E1F788EE93E09D8BAF
:101830008C8B62E089E00E94820262E08AE00E9472
:101840008202198A188A1B8A1A8A1F8A1E8A188E8F
:101850008AE0E4E1F1E0DE01599601900D928A956B
:10186000E1F78AEF90E09CA38BA3FDA6ECA661E0D4
:1018700085E00E94820261E086E00E94820261E0CF
:1018800080E00E94820261E081E00E94820261E0C9
:1018900082E00E94820261E084E00E94820261E0B4
:1018A00086E10E94820260E086E10E94440261E0DB
:1018B00085E00E94440260E086E00E944402F894C1
:1018C0001092800010928100109285001092840086
:1018D00086E090E090938900809388008091810059
:1018E0008860809381008091810083608093810073
:1018F00080916F00826080936F0078941DA21AA679
:101900001BA61EA21FA218A619A619AA1FA61EA6CC
:1019100018AA1FAA18AE19AE1AAE1BAE1CAE1DAE89
:1019200088E893E19FAF8EAF7E01F0E4EF0EF11CEB
:1019300080E190E0F7019183808360E084E10E9480
:101940008202F7018081918101968130924024F0DA
:101950008DE892E00E945707FE01FE9615821682DE
:1019600017821086DE01AE5BBF4F83E48C93138633
:10197000148615861686B801CE010E945805D093AC
:101980006404C0936304DF91CF911F910F91FF9086
:10199000EF900895789484B5826084BD84B58160A9
:1019A00084BD85B5826085BD85B5816085BD80912A
:1019B0006E00816080936E001092810080918100A2
:1019C000826080938100809181008160809381009A
:1019D000809180008160809380008091B10084605C
:1019E0008093B1008091B00081608093B0008091BD
:1019F000910082608093910080919100816080933A
:101A00009100809190008160809390008091A1006E
:101A100082608093A1008091A10081608093A100E9
:101A20008091A00081608093A00080917A00846002
:101A300080937A0080917A00826080937A0080910E
:101A40007A008E7F80937A0080917A0080688093FC
:101A50007A001092C10061E085E10E94820260E09C
:101A600085E10E94440283B7817F846083BF81E067
:101A70000E94AC07ECE26E2E772473948FB7F89433
:101A80008090350390903603A0903703B0903803D0
:101A90008FBF8092640390926503A0926603B09218
:101AA0006703C0916304D0916404FE01E35BFF4FC0
:101AB00080829182A282B38280918804909189046D
:101AC00020917604309177048217930709F0D8C0EB
:101AD000409180045091810460918204709183044C
:101AE00095018401041B150B260B370B80916C04A8
:101AF00090916D04B0E0A0E080179107A207B307B2
:101B000028F0452B462B472B09F067C080928004B4
:101B100090928104A0928204B092830480E10E949A
:101B2000BE02EC012090840430908504409086042D
:101B30005090870460916E0470916F0490E080E093
:101B40000E94FF124B015C01AC019B01C201B1017B
:101B50000E94521287FF44C0BE0190E080E00E94C4
:101B6000FF1220918A0430918B0440918C04509193
:101B70008D040E94E6116B017C01C0928A04D09210
:101B80008B04E0928C04F0928D0420E030E040E879
:101B90005FE3C201B1010E94E6111B012C012092FA
:101BA0008404309285044092860450928704AC01EC
:101BB0009B01C501B4010E94521281110EC0A20105
:101BC0009101C701B6010E94571260938A04709375
:101BD0008B0480938C0490938D040E9491014ECFCE
:101BE00080908A0490908B04A0908C04B0908D0417
:101BF000609170047091710490E080E00E94FF1287
:101C00009B01AC01C501B4010E94B11318164CF43C
:101C100080917E0490917F0490938904809388043E
:101C2000DCCF609172047091730490E080E00E94B8
:101C3000FF129B01AC01C501B4010E94B11318163B
:101C40002CF480917C0490917D04E6CF6091740423
:101C50007091750490E080E00E94FF129B01AC013E
:101C6000C501B4010E94B11318162CF480917A04B6
:101C700090917B04D1CF8091780490917904CCCF5E
:101C800020917804309179048217930721F480E041
:101C90000E94AC07A2CF80916303811127C088A95D
:101CA000882321F161E086E10E94440220918804AA
:101CB0003091890480917A0490917B042817390728
:101CC00021F061E082E00E94440218AA80925F0342
:101CD00090926003A0926103B092620380925B03D2
:101CE00090925C03A0925D03B0925E032091880401
:101CF0003091890480917A0490917B0428173907E8
:101D000009F467C28AE00E941B0228893989892B5D
:101D100031F42F5F3F4F398B288B10E006C012162D
:101D20001306DCF7198A188A11E089E00E941B0269
:101D30002A893B89892B31F42F5F3F4F3B8B2A8BBC
:101D400060E006C012161306DCF71B8A1A8A61E0EF
:101D50008C899D892A893B894889598984179507E7
:101D60000CF016C3821793070CF088C085E090E052
:101D70009F8B8E8B04C0A4E0B0E0BF8BAE8B81E064
:101D8000888F81E08093940398E69093B603109235
:101D900095031092B70390E080E00E94C8040E946F
:101DA00034030E94D0024B015C0180918E038111AB
:101DB00077C081E080938E0380938D03AFEFA09373
:101DC0008C0310928B03B6E0B0938A03809369036F
:101DD00080916903806D80936903809168038130ED
:101DE00009F065C2109268030E94D0024B015C01A9
:101DF000809169038093BB0080919003909191033F
:101E0000A0919203B0919303892B8A2B8B2BA1F085
:101E10000E94D002009190031091910320919203AF
:101E200030919303681979098A099B0906171707E6
:101E30002807390708F455C08091BC0083FDD8CF2E
:101E400025EC2093BC000E94D0024B015C018091E4
:101E50008E03813009F42FC280918B03873008F004
:101E60004CC280918B03AAE6B3E0EBE3F3E090E091
:101E70009817E1F12D9121939F5FFACF83E090E0D5
:101E800077CF112309F47DCF888D811105C081E0C2
:101E900090E09F8B8E8B75CF1F8A1E8A188E71CF14
:101EA0008091900390919103A0919203B09193033C
:101EB000892B8A2B8B2B09F478CF0E94D0020091BA
:101EC000900310919103209192033091930368192C
:101ED00079098A099B09061717072807390708F0A7
:101EE00064CF80918F030E94F50280E010923A0344
:101EF0008093390388EB93E00E945204AC0174E0B4
:101F0000559547957A95E1F7477055276AE0649FA4
:101F10009001659F300D11248F709927820F931FB8
:101F20008FAB88EB93E00E945204AC0197FF02C094
:101F3000415F5F4F34E0559547953A95E1F71AE0D8
:101F4000149F9001159F300D112460E170E00E94F4
:101F50004314820F931F88AF88EB93E00E945204D2
:101F6000AC0164E0559547956A95E1F743705527B4
:101F7000149F9001159F300D11248F709927820FA7
:101F8000931F89AF88EB93E00E945204AC0197FF46
:101F900002C0415F5F4F24E0559547952A95E1F7D0
:101FA0006AE0649F9001659F300D112460E170E04C
:101FB0000E944314820F931F8AAF88EB93E00E9424
:101FC0005204AC0197FF02C0415F5F4F04E055959A
:101FD00047950A95E1F76AE0649F9001659F300D8F
:101FE000112460E170E00E944314820F931F8BAFB5
:101FF00088EB93E00E945204AC0197FF02C0415F5E
:102000005F4F14E0559547951A95E1F76AE0649F94
:102010009001659F300D112460E170E00E9443142F
:10202000820F931F8CAF88EB93E00E945204AC01A7
:1020300097FF02C0415F5F4FB4E055954795BA9551
:10204000E1F76AE0649F9001659F300D112460E123
:1020500070E00E944314820F931F8DAFE0916304E0
:10206000F091640480819181DC01ED91FC91048008
:10207000F581E02D0995C0916304D09164048090AE
:10208000640390906503A0906603B09067038DA1F0
:10209000823011F4B3E0BDA38BA581111BA68EA1E4
:1020A0009FA1A8A5B9A5B501A401481B590B6A0BAE
:1020B0007B0B8BA19CA1092E000CAA0BBB0B481714
:1020C00059076A077B0718F049A9442329F041E022
:1020D0008CA9803209F440E02DA18DA9803209F04D
:1020E0000EC1213009F00EC1822F90E0FE01E80FF1
:1020F000F91FE2A921110BC12AA5222309F42AC143
:1021000010E000E0EA3738F4F0E0EE0FFF1FEA5B82
:10211000FE4F008111810478112721E02BA71AA618
:10212000880F991FFE01E80FF91F818D928D082BF2
:10213000192B442321F08D8D9E8D082B192B61E0E6
:1021400084E00E944402D12CC12CC8010C2C02C096
:10215000969587950A94E2F761E080FF60E080E061
:102160000E9444025A985A9A599A59982FEFC21AC3
:10217000D20A8CE0C816D10441F760E084E00E94E6
:1021800044028DA19AA5992319F0982F9B7F11F0F5
:102190008F5F8DA38EA19FA1A8A5B9A5B501A401AC
:1021A000481B590B6A0B7B0B8BA19CA1880F991FB5
:1021B000092E000CAA0BBB0B84179507A607B707BF
:1021C00020F48EA29FA2A8A6B9A68DA1853009F4FD
:1021D0001DA2809188049091890420917C04309103
:1021E0007D048217930739F020917A0430917B04A3
:1021F0008217930749F540915F0350916003609106
:102200006103709162038091640390916503841B64
:10221000950B803DA7E09A07B8F4B3010E942F14F4
:102220008639910508F0B1C061E08FE00E94440258
:1022300061E08EE00E94440261E088E00E94440276
:1022400061E087E00E944402E0916304F09164043D
:102250004091640350916503609166037091670338
:1022600086899789892B41F040935B0350935C03E7
:1022700060935D0370935E03178A168A11AA80919A
:102280005B0390915C03A0915D03B0915E03481BDA
:10229000590B6A0B7B0B493A51466105710508F4ED
:1022A0009CCC80916303811198CC81E0F1CC85EEC8
:1022B0008093BC00C8CD8091900390919103A09130
:1022C0009203B0919303892B8A2B8B2B09F4BFCDFA
:1022D0000E94D002009190031091910320919203EB
:1022E00030919303681979098A099B090617170722
:1022F0002807390708F0ABCDF4CD87E0B4CD233003
:1023000009F4F2CE253008F03CCF40E0EDCE243089
:1023100079F52AA52223F1F010E000E0EA3738F43D
:10232000F0E0EE0FFF1FEA5BFE4F008111810870A5
:10233000127051E05BA71AA62CA53DA51216130634
:1023400034F05AA72F5F3F4F3DA72CA7E9CE1DA61B
:102350001CA6E6CE10E000E0EA3738F4F0E0EE0F1D
:10236000FF1FEA5BFE4F0081118121E02AA7D8CE32
:1023700010E000E0EA3708F0D3CEF0E0EE0FFF1FE8
:10238000EA5BFE4F00811181CBCE0E9472025CCFCE
:10239000821793070CF4EFCC662309F472CD888D75
:1023A00081117ACDA2E0B0E0BF8BAE8BEACC262FB4
:1023B000F999FECF1FBA92BD81BD20BD0FB6F8942A
:1023C000FA9AF99A0FBE019608955058BB27AA278A
:1023D0000E94FD110C9477130E94691338F00E943B
:1023E000701320F039F49F3F19F426F40C9466130F
:1023F0000EF4E095E7FB0C946013E92F0E9488131C
:1024000058F3BA17620773078407950720F079F429
:10241000A6F50C94AA130EF4E0950B2EBA2FA02D5E
:102420000B01B90190010C01CA01A0011124FF2781
:10243000591B99F0593F50F4503E68F11A16F0407C
:10244000A22F232F342F4427585FF3CF469537957B
:102450002795A795F0405395C9F77EF41F16BA0B40
:10246000620B730B840BBAF09150A1F0FF0FBB1FEE
:10247000661F771F881FC2F70EC0BA0F621F731F37
:10248000841F48F4879577956795B795F7959E3F94
:1024900008F0B0CF9395880F08F09927EE0F979525
:1024A000879508950E943C1308F481E008950E94E6
:1024B0006B120C9477130E94701358F00E946913EA
:1024C00040F029F45F3F29F00C94601351110C94F3
:1024D000AB130C9466130E94881368F39923B1F32D
:1024E000552391F3951B550BBB27AA27621773073A
:1024F000840738F09F5F5F4F220F331F441FAA1FCE
:10250000A9F335D00E2E3AF0E0E832D09150504089
:10251000E695001CCAF72BD0FE2F29D0660F771F37
:10252000881FBB1F261737074807AB07B0E809F01D
:10253000BB0B802DBF01FF2793585F4F3AF09E3FA2
:10254000510578F00C9460130C94AB135F3FE4F3E7
:10255000983ED4F3869577956795B795F7959F5FE5
:10256000C9F7880F911D9695879597F90895E1E031
:10257000660F771F881FBB1F621773078407BA0790
:1025800020F0621B730B840BBA0BEE1F88F7E095EB
:1025900008950E94D0126894B1110C94AB13089561
:1025A0000E94901388F09F5798F0B92F9927B75140
:1025B000B0F0E1F0660F771F881F991F1AF0BA95E7
:1025C000C9F714C0B13091F00E94AA13B1E0089588
:1025D0000C94AA13672F782F8827B85F39F0B93F7A
:1025E000CCF3869577956795B395D9F73EF490959A
:1025F0008095709561957F4F8F4F9F4F0895E89418
:1026000009C097FB3EF490958095709561957F4F3A
:102610008F4F9F4F9923A9F0F92F96E9BB279395E8
:10262000F695879577956795B795F111F8CFFAF4F8
:10263000BB0F11F460FF1BC06F5F7F4F8F4F9F4F29
:1026400016C0882311F096E911C0772321F09EE887
:10265000872F762F05C0662371F096E8862F70E0ED
:1026600060E02AF09A95660F771F881FDAF7880FC7
:102670009695879597F90895990F0008550FAA0B1D
:10268000E0E8FEEF16161706E807F907C0F0121685
:102690001306E407F50798F0621B730B840B950B88
:1026A00039F40A2661F0232B242B252B21F40895DD
:1026B0000A2609F4A140A6958FEF811D811D08957A
:1026C00097F99F6780E870E060E008959FEF80ECE5
:1026D000089500240A941616170618060906089588
:1026E00000240A9412161306140605060895092EEE
:1026F0000394000C11F4882352F0BB0F40F4BF2B5D
:1027000011F460FF04C06F5F7F4F8F4F9F4F08959C
:1027100057FD9058440F551F59F05F3F71F0479592
:10272000880F97FB991F61F09F3F79F08795089577
:10273000121613061406551FF2CF4695F1DF08C096
:10274000161617061806991FF1CF869571056105B3
:1027500008940895E894BB2766277727CB0197F95B
:1027600008950E943C1308F48FEF08950E94C91346
:102770000C9477130E94691338F00E94701320F0B4
:10278000952311F00C9460130C94661311240C948F
:10279000AB130E94881370F3959FC1F3950F50E01F
:1027A000551F629FF001729FBB27F00DB11D639F03
:1027B000AA27F00DB11DAA1F649F6627B00DA11DA9
:1027C000661F829F2227B00DA11D621F739FB00D4F
:1027D000A11D621F839FA00D611D221F749F3327BF
:1027E000A00D611D231F849F600D211D822F762F58
:1027F0006A2F11249F5750409AF0F1F088234AF035
:10280000EE0FFF1FBB1F661F771F881F91505040A0
:10281000A9F79E3F510580F00C9460130C94AB1304
:102820005F3FE4F3983ED4F3869577956795B79527
:10283000F795E7959F5FC1F7FE2B880F911D969541
:10284000879597F90895991B79E004C0991F961709
:1028500008F0961B881F7A95C9F780950895AA1BE2
:10286000BB1B51E107C0AA1FBB1FA617B70710F07B
:10287000A61BB70B881F991F5A95A9F780959095AD
:10288000BC01CD01089597FB072E16F4009407D0E4
:1028900077FD09D00E942F1407FC05D03EF49095D7
:1028A00081959F4F0895709561957F4F0895EE0F24
:1028B000FF1F0590F491E02D09940F931F93CF9380
:1028C000DF938230910510F482E090E0E091900473
:1028D000F091910430E020E0B0E0A0E0309799F46E
:1028E0002115310509F44AC0281B390B2430310564
:1028F000D8F58A819B816115710589F1FB0193836C
:102900008283FE0111C040815181028113814817E9
:102910005907E0F04817590799F4109761F012969B
:102920000C93129713961C933296CF01DF91CF919F
:102930001F910F9108950093900410939104F4CF88
:102940002115310551F04217530738F0A901DB0179
:102950009A01BD01DF01F801C1CFEF01F9CF9093DA
:10296000910480939004CDCFFE01E20FF31F819379
:1029700091932250310939832883D7CF20918E0437
:1029800030918F04232B41F42091020130910301F7
:1029900030938F0420938E04209100013091010127
:1029A0002115310541F42DB73EB7409104015091F6
:1029B0000501241B350BE0918E04F0918F04E21782
:1029C000F307A0F42E1B3F0B2817390778F0AC0152
:1029D0004E5F5F4F2417350748F04E0F5F1F50932F
:1029E0008F0440938E04819391939FCFF0E0E0E0B9
:1029F0009CCFCF93DF930097E9F0FC0132971382CD
:102A00001282A0919004B0919104ED0130E020E099
:102A10001097A1F420813181820F931F20918E04A1
:102A200030918F042817390709F061C0F0938F04A3
:102A3000E0938E04DF91CF910895EA01CE17DF076E
:102A4000E8F54A815B819E0141155105B1F7E90125
:102A5000FB83EA8349915991C40FD51FEC17FD07F9
:102A600061F4808191810296840F951FE901998319
:102A70008883828193819B838A83F0E0E0E01296D1
:102A80008D919C9113970097B9F52D913C911197D9
:102A9000CD010296820F931F20918E0430918F04F6
:102AA0002817390739F6309751F510929104109292
:102AB0009004B0938F04A0938E04BCCFD383C283C1
:102AC00040815181840F951FC817D90761F44E5F6B
:102AD0005F4F88819981480F591F518340838A81B4
:102AE0009B81938382832115310509F0B0CFF09348
:102AF0009104E09390049ECFFD01DC01C0CF1382CE
:082B00001282D7CFF894FFCF39
:102B0800000092048000B702BD02C302C902CF02CE
:102B1800D502DB022000020040000001000800008E
:102B280000007705A3087805000000007605A108D5
:102B380075060000000075059F08B106000000003A
:102B480074059B08E5069D02080215061906880605
:102B580099049D0409029D069906000000000000E2
:102B6800000000000000000000000000000000005D
:102B7800000000000000000000000000000000004D
:102B8800000000000000000000000000000000003D
:102B980000000000000000000000810600000000A6
:102BA8000000000084009D02080215061906880628
:102BB80099049D0409029D06990600000000000082
:102BC80000000000000000008D069D069500000032
:102BD8009504850400008C0608020000000094009B
:102BE80009028D029D02850600000000990400007C
:102BF8009C02000018020000880600000000000087
:102C0800000000000000000000009C0414041C06E2
:102C18009506850400008C040400000000000000F4
:102C280008040C041C040000000004049904940423
:102C38001C000000180000009806000000001A019F
:102C4800A801BB006701EC00CA00DE00000000001C
:102C580099046C04550542046504520443040000B9
:102C6800000073059D081F070D0A00457863656518
:102C7800646564206D6178696D756D206E756D622F
:102C88006572206F66207772697465730041747489
:102C9800656D707420746F207772697465206F7524
:102CA8007473696465206F6620454550524F4D2006
:102CB8006D656D6F7279004E4E206F6E00747520D1
:102CC800452000555520456400746820752000464D
:102CD80072206920005341207420005375206E2013
:022CE8000000EA
:00000001FF
