:020000040000FA
:100000000C9491000C94B9000C94B9000C94FE105F
:100010000C94B9000C94B9000C94B9000C94B9007C
:100020000C94B9000C94B9000C94B9000C94AB106A
:100030000C94B9000C94B9000C94B9000C94B9005C
:100040000C94440F0C94B9000C94120F0C94EC0E09
:100050000C94B9000C94B9000C94B9000C94B9003C
:100060000C94900F0C94B9000C948E0F0C948E0F7E
:100070000C948E0F0C948E0F0C948E0F0C948E0F8C
:100080000C948E0F0C948E0F0C948E0F0C948E0F7C
:100090000C948E0F0C948E0F0C948E0F0C948E0F6C
:1000A0000C948E0F0C948E0F0C948E0F0C948E0F5C
:1000B0000C948E0F00000000240027002A002D0061
:1000C00000000000250028002B002E00000000008A
:1000D0002300260029002C00040404040404040462
:1000E00002020202020203030303030305050505DE
:1000F00001020408102040800102040810200102BF
:100100000408102004080102090C0A08000201007A
:1001100000030407000000000000000000000000D1
:10012000751111241FBECFEFD8E0DEBFCDBF14E0A4
:10013000A0E0B1E0E6E9F8E302C005900D92A0323C
:10014000B107D9F725E0A0E2B4E001C01D92A33CBD
:10015000B207E1F710E0C1E9D0E004C02197FE0149
:100160000E940A1BC039D107C9F70E9431130C94B1
:10017000491C0C940000FC01538D448D252F30E068
:10018000842F90E0821B930B541710F0CF960895A4
:1001900001970895FC01918D828D981761F0A28DD1
:1001A000AE0FBF2FB11D5D968C91928D9F5F9F7397
:1001B000928F90E008958FEF9FEF0895FC01918D4D
:1001C000828D981731F0828DE80FF11D858D90E0BA
:1001D00008958FEF9FEF0895FC01918D228D892F57
:1001E00090E0805C9F4F821B91098F73992708953F
:1001F000FC01A48DA80FB92FB11DA35ABF4F2C919C
:10020000848D90E001968F739927848FA689B78992
:100210002C93A089B1898C91837080648C93938D89
:10022000848D981306C00288F389E02D80818F7D2C
:1002300080830895EF92FF920F931F93CF93DF93E4
:10024000EC0181E0888F9B8D8C8D98131AC0E88912
:10025000F989808185FF15C09FB7F894EE89FF89E1
:100260006083E889F98980818370806480839FBF7F
:1002700081E090E0DF91CF911F910F91FF90EF907F
:100280000895F62E0B8D10E00F5F1F4F0F7311278F
:10029000E02E8C8D8E110CC00FB607FCFACFE889CA
:1002A000F989808185FFF5CFCE010E94F800F1CF5A
:1002B000EB8DEC0FFD2FF11DE35AFF4FF0829FB73E
:1002C000F8940B8FEA89FB8980818062CFCFCF932E
:1002D000DF93EC01888D8823B9F0AA89BB89E8896E
:1002E000F9898C9185FD03C0808186FD0DC00FB614
:1002F00007FCF7CF8C9185FFF2CF808185FFEDCF92
:10030000CE010E94F800E9CFDF91CF9108958CEFE4
:1003100094E00E94EC0021E0892B09F420E0822F78
:10032000089580E090E0892B29F00E9487018111D7
:100330000E94000080E090E0892B49F080E090E08E
:10034000892B29F00E94000081110C94000008956F
:10035000AF92BF92CF92DF92EF92FF920F931F93D3
:10036000CF93DF936C017B018B01040F151FEB0111
:100370005E01AE18BF08C017D10759F06991D601C8
:10038000ED91FC910190F081E02DC6010995892B3A
:1003900079F7C501DF91CF911F910F91FF90EF90F9
:1003A000DF90CF90BF90AF90089581508D3008F0CE
:1003B0003DC0E82FF0E0E152FE4F0C940A1BF6011D
:1003C000FA01EC01F20116021602FD010302070216
:1003D0000D02160211021702809180008F77809320
:1003E00080000895809180008F7DF9CF84B58F774C
:1003F00084BD089584B58F7DFBCF8091B0008F7749
:100400008093B00008958091B0008F7DF9CF8091E6
:1004100090008F77809390000895809190008F7D59
:10042000F9CF8091A0008F778093A00008958091EC
:10043000A0008F7DF9CFCF93DF93282F30E0F90113
:10044000E85FFE4F8491F901E051FF4FD491F9012B
:10045000E852FF4FC491CC23A1F081110E94D50135
:10046000EC2FF0E0EE0FFF1FE453FF4FA591B49186
:10047000EC91ED2381E090E009F480E0DF91CF91F1
:10048000089580E090E0FACF1F93CF93DF93282F59
:1004900030E0F901E85FFE4F8491F901E051FF4F30
:1004A000D491F901E852FF4FC491CC23A9F0162F43
:1004B00081110E94D501EC2FF0E0EE0FFF1FE054F8
:1004C000FF4FA591B4918FB7F894EC91111108C02A
:1004D000D095DE23DC938FBFDF91CF911F910895DC
:1004E000DE2BF8CF60E08FE00E94440260E08EE0F7
:1004F0000E94440260E088E00E94440260E087E0DD
:100500000C944402CF93DF9390E0FC01E051FF4F45
:10051000249188529F4FFC0184918823C9F090E078
:10052000880F991FFC01EC54FF4FA591B491FC0179
:10053000E054FF4FC591D49161110DC09FB7F8945D
:100540008C91209582238C938881282328839FBFB8
:10055000DF91CF910895623051F49FB7F8943C91A8
:10056000822F809583238C93E8812E2BEFCF8FB73A
:10057000F894EC912E2B2C938FBFEACF8E50806491
:1005800080937C0080917A00806480937A008091CF
:100590007A0086FDFCCF80917800909179000895D3
:1005A0003FB7F89480916D0490916E04A0916F0410
:1005B000B091700426B5A89B05C02F3F19F0019695
:1005C000A11DB11D3FBFBA2FA92F982F8827BC01AD
:1005D000CD01620F711D811D911D43E0660F771FD4
:1005E000881F991F4A95D1F70895FC017996CB0190
:1005F0000596DB012D91BD012193A817B907C9F715
:1006000008951F93CF93DF93C1E0C09328048823FC
:1006100099F1D091B8001091BA008091BC008A7B0A
:100620008093BC0060E082E10E94440260E083E1CC
:100630000E9444021092C604C093C5041092A00404
:1006400061E082E10E94440261E083E10E94440291
:100650008091B9008E7F8093B9008091B9008D7F21
:100660008093B90080E28093B80085E48093BC0059
:100670001093BA00D093B800DF91CF911F910895E5
:10068000CF92DF92EF92FF920F931F93CF93DF935E
:10069000D091EF0481E0D13208F09CC0C091EE040B
:1006A0000E94D0026B017C018091C60481116CC054
:1006B00082E08093C60481E08093C5048FEF80932D
:1006C000C4041092C304D093C204AEECB4E0E2EAD6
:1006D000F4E080E0D8138DC01092A1048091A104B1
:1006E000CC0FC82BC093A1048091A004813009F0E5
:1006F00084C01092A0040E94D0026B017C01809102
:10070000A1048093BB008091C8049091C904A0917A
:10071000CA04B091CB04892B8A2B8B2BA1F00E94A9
:10072000D0020091C8041091C9042091CA043091EC
:10073000CB046C197D098E099F0906171707280736
:10074000390708F442C08091BC0083FDD8CF85EC06
:100750008093BC000E94D0026B017C018091C60492
:10076000823009F44CC08091C4048F3F09F469C001
:100770008091C404803209F466C08091C40480333F
:1007800009F463C084E026C08091C8049091C90434
:10079000A091CA04B091CB04892B8A2B8B2B09F42E
:1007A00083CF0E94D0020091C8041091C904209107
:1007B000CA043091CB046C197D098E099F09061774
:1007C00017072807390708F06FCF8091C7040E94E8
:1007D000010385E01092CD041092EF041092CC0436
:1007E000DF91CF911F910F91FF90EF90DF90CF900D
:1007F00008959D9191938F5F6DCF85EEA9CF8091E4
:10080000C8049091C904A091CA04B091CB04892B6B
:100810008A2B8B2B09F4A2CF0E94D0020091C8042E
:100820001091C9042091CA043091CB046C197D0940
:100830008E099F09061717072807390708F08ECF7A
:10084000C4CF80E0C7CF82E0C5CF83E0C3CF209183
:100850004904260F3327331F21323105ECF4209150
:10086000C604FC0190E080E0243069F082E0089545
:10087000A09149042191AC01475D5B4FA40FB52FB6
:10088000B11D2C930196861798F380914904680F47
:100890006093490480E0089581E008950895E0910F
:1008A000760480917504E81730F4F0E0E958FB4FC6
:1008B000808190E008958FEF9FEF089590917604E6
:1008C000809175042FEF3FEF981748F4E92FF0E07F
:1008D000E958FB4F208130E09F5F90937604C90177
:1008E00008958091750490917604891B990B089561
:1008F000CF92DF92EF92FF920F931F93CF93DF93EC
:100900007C01CB018A012091CC04222389F0EB01E8
:100910006B01C40ED51ECC15DD0569F06991D701B8
:10092000ED91FC910190F081E02DC7010995F3CF85
:10093000642F0E942704C801DF91CF911F910F916E
:10094000FF90EF90DF90CF900895CF93DF931F92A9
:10095000CDB7DEB769832091CC042223F9F0209132
:10096000EF04203258F021E030E0FC013383228391
:1009700090E080E00F90DF91CF9108958091CD04B9
:10098000E82FF0E0E253FB4F998190838F5F8093D3
:10099000CD048093EF0481E090E0ECCF61E0CE01E4
:1009A00001960E942704F7CF682F80EF94E00C9403
:1009B000A504CF92DF92EF92FF920F931F93CF93F4
:1009C000DF93C82FD62EF42E122F81E08093CC0413
:1009D00088E68093EE041092CD041092EF0490E02C
:1009E00080E00E94D4048C2F90E0CAE0D0E0BE01E9
:1009F0000E94F61A24E0660F771F2A95E1F7860F0A
:100A0000971F0E94D4048D2D90E0BE010E94F61A1B
:100A100034E0660F771F3A95E1F7860F971F0E9423
:100A2000D4048F2D90E0BE010E94F61A44E0660FB8
:100A3000771F4A95E1F7860F971F0E94D404812FF4
:100A400090E0BE010E94F61A54E0660F771F5A9597
:100A5000E1F7860F971F0E94D404802F90E0BE011B
:100A60000E94F61AE4E0660F771FEA95E1F7860F19
:100A7000971F0E94D4048E2D90E0BE010E94F61AAA
:100A8000F4E0660F771FFA95E1F7860F971F0E9433
:100A9000D4048C2D90E0BE010E94F61AA4E0660FEB
:100AA000771FAA95E1F7860F971F0E94D404DF9164
:100AB000CF911F910F91FF90EF90DF90CF900C940A
:100AC000400390E080E00895CF93C82F0E94720207
:100AD00060E081E00E94440260E082E00E94440203
:100AE00060E080E00E94440260E084E00E944402F2
:100AF00060E086E10E94440260E085E00E944402DA
:100B000060E086E00E94440260E085E10E944402C9
:100B100081E080939B041092BB051092BC0510925B
:100B2000BD051092BE051092B5051092B605109243
:100B3000B7051092B805CC2319F180916800816047
:100B40008093680080916B00846080936B0080913B
:100B50007A008093270410927A0085B7982F9066C8
:100B60008F7D80648093260495BF8091260485BF85
:100B700010926F0083B7816083BF8895CF910895ED
:100B80001092680010926B00E2CF089508950895C6
:100B9000089508950895089508950895089508956D
:100BA000089508950895089508950895089508955D
:100BB00008950895FC0182819381FC01E559FF4F5E
:100BC0003081789720E220833196208331962083EC
:100BD00031962AE22083895A9F4FFC013083089581
:100BE000FC018281938166E773E0CA960C94F5025A
:100BF000CF92EF920F93CF93DF93FC01A281B38149
:100C00009E968D919C919F9701969F969C938E9313
:100C10009E97A281B3819E968D919C919F978436D9
:100C2000910531F484E190E09F969C938E939E977A
:100C30000280F381E02DBF01635A7F4FAF01445A18
:100C40005F4F9F01255A3F4FCF01865A9F4FEF01BB
:100C5000C75ADF4FDF01A85ABF4FC6A4FB01E0808F
:100C6000FA010081F9012081FC01408168818C91A9
:100C70000E94D904DF91CF910F91EF90CF9008950A
:100C8000CF93DF93DC011296ED91FC9186A597A599
:100C9000DF01AD5ABF4F22E32C93119620E32C9332
:100CA000119620E22C93EF01CA5ADF4F6AE070E000
:100CB0000E94F61A6883E95AFF4F8083DF91CF9133
:100CC0000895FC01828193816CE773E0CA960C94CD
:100CD000F502AF92BF92CF92EF920F93CF93DF9333
:100CE000FC01A281B3819E968D919C919F97019664
:100CF0009F969C938E939E97A281B3819E968D9191
:100D00009C919F970D9731F481E090E09F969C9382
:100D10008E939E970280F381E02DBF01625A7F4F30
:100D2000AF01445A5F4F9F01255A3F4FCF01865A6A
:100D30009F4FEF01C75ADF4F5F01A8E5AA0EB11C14
:100D4000DB01CC90E6A4FA010081D9012C91FC01D1
:100D500040816881D5018C910E94D904DF91CF91A7
:100D60000F91EF90CF90BF90AF900895CF93DF9306
:100D7000DC011296ED91FC9186A597A5EF01CD5A65
:100D8000DF4F6AE070E00E94F61A6883DF01AC5A18
:100D9000BF4F8C93119680E28C9311968C93E95AF5
:100DA000FF4F8083DF91CF910895FC018281938171
:100DB00062E873E0CA960C94F502AF92BF92CF92AC
:100DC000EF920F93CF93DF93DC011296ED91FC919C
:100DD000139786A597A5019697A786A71296CD91FA
:100DE000DC911397FE01E35AFF4FE081F0E03A9661
:100DF000EE0FFF1FEC0FFD1F8081918101962EA544
:100E00003FA52817390721F481E090E09FA78EA71E
:100E10001296ED91FC911397EF01C25ADF4F888132
:100E2000837061F421978881823041F486A597A56B
:100E30004D9721F481E090E097A786A71296ED9157
:100E4000FC91BF01625A7F4FAF01435A5F4F9F0130
:100E5000255A3F4FCF01865A9F4FEF01C75ADF4FA8
:100E60005F01A8E5AA0EB11CDB01CC90DA01EC9081
:100E700006A5F9012081DC014C916881F501808192
:100E80000E94D904DF91CF910F91EF90CF90BF9046
:100E9000AF900895CF93DF93DC011296ED91FC9112
:100EA00026A537A5DF01AD5ABF4F90E29C9311965E
:100EB0009C9311969C93EF01CA5ADF4FC9016AE0D7
:100EC00070E00E94F61A6883E95AFF4F8083DF9131
:100ED000CF910895FC018281938168E873E0CA96FE
:100EE0000C94F502AF92BF92CF92EF920F93CF93F3
:100EF000DF93FC01A281B3819E968D919C919F9777
:100F000001969F969C938E939E97A281B3819E9605
:100F10008D919C919F97089731F481E090E09F9686
:100F20009C938E939E970280F381E02DBF01625ABD
:100F30007F4FAF01435A5F4F9F01245A3F4FCF016C
:100F4000865A9F4FEF01C75ADF4F5F01A8E5AA0EEF
:100F5000B11CDB01CC90DA01EC90D9010C9126A5F3
:100F6000FC0140816881D5018C910E94D904DF91F8
:100F7000CF910F91EF90CF90BF90AF900895DC018B
:100F800012968D919C91DC019E96ED91FC91FF272C
:100F9000EE0FFF1FE80FF91F60817181CA960C9454
:100FA000F502FC01828193816EE873E0CA960C948D
:100FB000F502CF92EF920F93CF93DF93FC01A281C2
:100FC000B3819E968D919C919F9701969F969C933D
:100FD0008E939E97A281B3819E968D919C919F97AF
:100FE000CC9721F49F961C921E929E970280F381CB
:100FF000E02DAF01425A5F4F9F01235A3F4FCF016F
:10100000845A9F4FEF01C55ADF4FBF01665A7F4F89
:10101000DA01CC90D901EC90DC010C912881DB0144
:101020004C9166A580E00E94D904DF91CF910F9189
:10103000EF90CF900895CF93DF93DC011296ED915E
:10104000FC9126A537A5DF01AD5ABF4F90E29C93D6
:1010500011969C9311969C93EF01CA5ADF4FC901D8
:101060006AE070E00E94F61A6883E95AFF4F8083B5
:10107000DF91CF910895FC018281938164E973E04F
:10108000CA960C94F502CF92EF920F93CF93DF9311
:10109000FC01A281B3819E968D919C919F970196B0
:1010A0009F969C938E939E97A281B3819E968D91DD
:1010B0009C919F97489721F49F961C921E929E9711
:1010C0000280F381E02DAF01425A5F4F9F01235A06
:1010D0003F4FCF01845A9F4FEF01C55ADF4FBF01E9
:1010E000675A7F4FDA01CC90D901EC90DC010C916A
:1010F000288146A5FB01608180E00E94D904DF9130
:10110000CF910F91EF90CF900895CF93DF93DC01B3
:101110001296ED91FC9186A597A5EF01CD5ADF4F70
:101120006AE070E00E94F61A6883DF01AC5ABF4F94
:101130008C93119680E28C9311968C93E95AFF4F11
:101140008083DF91CF910895FC01828193816AE9C8
:1011500073E0CA960C94F502FC018281938160EAE7
:1011600073E0CA960C94F502CF93DF93FC01A28141
:10117000B381D0968C91D0978823A9F1D0961C92F8
:1011800082819381DC01AD59BF4F845A9F4FEC019E
:1011900088819C91891B8C9382819381DC01AF595A
:1011A000BF4F865A9F4FEC0188819C91891B8C937D
:1011B00082819381DC01A05ABF4F875A9F4FEC0177
:1011C00088819C91891B8C9382819381FC01E15AD7
:1011D000FF4F885A9F4FDC018C919081891B80833F
:1011E000DF91CF9108959D01215A3F4FE9018881F8
:1011F000811139C0CD01805A9F4FEC018881811146
:1012000032C0CD018F599F4FEC01888181112BC0D5
:1012100081E0D0968C9382819381DC01A15ABF4FEB
:10122000885A9F4FEC0188818C9382819381DC01E5
:10123000A05ABF4F875A9F4FEC0188818C938281BF
:101240009381DC01AF59BF4F865A9F4FEC018881D3
:101250008C9382819381FC01ED59FF4F845A9F4FFB
:10126000DC018C91BCCFE9011882A281B381A05A24
:10127000BF4F1C92A281B381AF59BF4F1C92028015
:10128000F381E02DED59FF4F1082AACFAF92BF92AC
:10129000CF92DF92EF92FF920F931F93CF93DF9342
:1012A000DC011296ED91FC91DF01A15ABF4F2C9108
:1012B00011963C9111964C9180A9BF016D5A7F4FB8
:1012C0005B011D976D016E5F7F4F7B018F010A5A95
:1012D0001F4FEF01C95ADF4F882309F452C01696F9
:1012E0008C91A82FA41BBB0B60E17EE0A69FC001E0
:1012F000A79F900DB69F900D1124DF01A75ABF4FF5
:101300004C91431B550B3CE3349FB001359F700D4E
:101310001124860F971FE85AFF4F3081E32FE21BFD
:10132000FF0B9F01280F391FC9016CE370E00E9479
:10133000F61A462F64360CF043E6C9016CE370E000
:101340000E94F61A382F2AE0842F622F0E94E81A92
:10135000D5018C93F601908381E0D7018C93832F84
:10136000622F0E94E81AF80180839883DF91CF9161
:101370001F910F91FF90EF90DF90CF90BF90AF90B3
:101380000895EE5AFF4F211104C0311102C04423C9
:1013900091F081E0808360E17EE0469FC001479F3D
:1013A000900D1124FCE33F9F800D911D1124280F07
:1013B000392F311DB9CF81E08083D5011C92F60110
:1013C0001082DB018C93F80110821882CFCF5F92DC
:1013D0006F927F928F929F92AF92BF92CF92DF9245
:1013E000EF92FF920F931F93CF93DF93FC01C28183
:1013F000D381FE01E958FF4F4081518162817381A1
:101400008E0109591F4FF801C580D680E780F0840E
:101410004A015B018C189D08AE08BF08808191814C
:10142000B0E0A0E088159905AA05BB0520F0CD28FD
:10143000CE28CF2859F5F8014583568367837087F6
:1014400084E10E94BE02BC01990F880B990B0E9497
:10145000BA1923E333E343E550E40E946F1A20E016
:1014600030E040E85AE30E946F1A20E030E040E0AC
:101470005FE30E949E182AE037ED43E25CE30E949E
:101480001019F8016387748785879687F80183842C
:101490009484A584B684FE01E559FF4F5080CE01A7
:1014A0008D5A9F4F6C0177977F018E010B5A1F4F0A
:1014B00003963C0196E4591253C020E030E040E12D
:1014C00051E4C501B4010E946F1A20E030E040EA07
:1014D00050E40E94101920E030E040E052E40E9405
:1014E0009F184B015C0120E030E048EC52E40E9480
:1014F00010190E948219F601608320E030E040E27A
:1015000051E4C501B4010E9410190E9482198AE0B9
:10151000C82ED12CCB01B6010E94F61AF7018083A8
:1015200080E2F8018083C501B4010E948219CB01D9
:10153000B6010E94F61AF3018083C95ADF4F588220
:10154000DF91CF911F910F91FF90EF90DF90CF909F
:10155000BF90AF909F908F907F906F905F90089515
:1015600081E0FE01EE5AFF4F808320E030E040E250
:1015700051E4C501B4010E9410190E948219F601BC
:101580006083C501B4010E948219CB016AE070E05A
:101590000E94F61AF701808380E2F80180838AE2D4
:1015A000CACFFC0182819381FC01E55AFF4FE081A3
:1015B000F0E0EE0FFF1FE80FF91F60817181CA96FE
:1015C0000C94F502FC0122813381F901E85AFF4FA6
:1015D0008081359790E29083319690833196908305
:1015E00031966AE00E94DC1A8083295A3F4FF90144
:1015F00090830895FC0122813381F901EE5AFF4F57
:1016000051E050833A96A081319680813A974AE022
:10161000642F0E94DC1A8083319690833196508328
:1016200031968A2F0E94DC1A8083295A3F4FF90194
:1016300090830895FC0122813381F901E75AFF4F1D
:1016400050813196808137974AE0642F0E94DC1ADE
:10165000808331969083319610823196852F0E9437
:10166000DC1A8083295A3F4FF901908308950F9324
:101670001F93CF93DF93EC018B01888199810097B1
:1016800039F0DC01ED91FC910280F381E02D0995A8
:1016900019830883F801D383C283DF91CF911F910F
:1016A0000F910895CF93DF93FC01C281D38184E031
:1016B00090E00E94241B22EF31E0FC013183208363
:1016C000BC01CE01DF91CF910C94370BCF93DF9308
:1016D000FC01C281D38184E090E00E94241B22EFB0
:1016E00031E0FC0131832083BC01CE01DF91CF9139
:1016F0000C94370BCF93DF93FC01C281D38184E03C
:1017000090E00E94241B2CE331E0FC013183208314
:10171000BC01CE01DF91CF910C94370BCF93DF93B7
:10172000FC01C281D38184E090E00E94241B2AE462
:1017300031E0FC0131832083BC01CE01DF91CF91E8
:101740000C94370BCF93DF93FC01C281D38184E0EB
:1017500090E00E94241B2AE431E0FC0131832083C5
:10176000BC01CE01DF91CF910C94370BCF93DF9367
:10177000DC011296ED91FC91DF01A25ABF4F2C9132
:1017800030E037A726A7FC01C281D38184E090E036
:101790000E94241B28E531E0DC012D933C93BC0121
:1017A000CE01DF91CF910C94370BCF93DF93FC01E7
:1017B000C281D38184E090E00E94241B26E631E0C0
:1017C000FC0131832083BC01CE01DF91CF910C94C9
:1017D000370BCF93DF93FC01C281D38184E090E08B
:1017E0000E94241B26E631E0FC0131832083BC01EA
:1017F000CE01DF91CF910C94370BCF93DF93DC01B7
:101800001296ED91FC91DF01A35ABF4F2C9130E06D
:1018100037A726A7FC01C281D38184E090E00E9413
:10182000241B24E731E0DC012D933C93BC01CE0165
:10183000DF91CF910C94370BCF93DF93FC01C281E2
:10184000D38184E090E00E94241B22E831E0FC0177
:1018500031832083BC01CE01DF91CF910C94370BF3
:10186000CF93DF93FC01C281D38184E090E00E949A
:10187000241B22E831E0FC0131832083BC01CE012E
:10188000DF91CF910C94370BCF93DF93DC0112964D
:10189000ED91FC91DF01A45ABF4F2C9130E037A7A6
:1018A00026A7FC01C281D38184E090E00E94241B22
:1018B00020E931E0DC012D933C93BC01CE01DF91A6
:1018C000CF910C94370BCF93DF93FC01C281D3816E
:1018D00084E090E00E94241B2EE931E0FC0131837A
:1018E0002083BC01CE01DF91CF910C94370BCF93B5
:1018F000DF93FC01C281D38184E090E00E94241B2D
:101900002EE931E0FC0131832083BC01CE01DF915F
:10191000CF910C94370BCF93DF93DC011296ED91AE
:10192000FC91DF01A55ABF4F2C9130E037A726A7C5
:10193000FC01C281D38184E090E00E94241B2CEA48
:1019400031E0DC012D933C93BC01CE01DF91CF91BE
:101950000C94370BCF93DF93FC01C281D38184E0D9
:1019600090E00E94241B2AEB31E0FC0131832083AC
:10197000BC01CE01DF91CF910C94370BCF93DF9355
:10198000DC011296ED91FC911397EA5AFF4F2FE676
:1019900020831296CD91DC9184E090E00E94241B7C
:1019A0002AEB31E0FC0131832083BC01CE01DF91C1
:1019B000CF910C94370B0F931F93CF93DF93EC01D0
:1019C0000A811B8184E090E00E94241B28EC31E016
:1019D000FC0131832083BC01C8010E94370BEA81DE
:1019E000FB81DF01A75ABF4F8C9190E097A786A794
:1019F000DF91CF911F910F910895CF93DF93FC0159
:101A0000C281D38184E090E00E94241B26ED31E066
:101A1000FC0131832083BC01CE01DF91CF910C9476
:101A2000370BCF93DF93FC01C281D38184E090E038
:101A30000E94241B26ED31E0FC0131832083BC0190
:101A4000CE01DF91CF910C94370BCF93DF93DC0164
:101A50001296ED91FC91DF01A65ABF4F2C9130E018
:101A600037A726A7FC01C281D38184E090E00E94C1
:101A7000241B24EE31E0DC012D933C93BC01CE010C
:101A8000DF91CF910C94370BCF93DF93FC01C28190
:101A9000D38184E090E00E94241B22EF31E0FC011E
:101AA00031832083BC01CE01DF91CF910C94370BA1
:101AB000CF93DF93FC01C281D38184E090E00E9448
:101AC000241B2CE633E0FC0131832083BC01CE01D2
:101AD000DF91CF910C94370BCF93DF93FC01C28140
:101AE000D38184E090E00E94241B2CE633E0FC01CB
:101AF00031832083BC01CE01DF91CF910C94370B51
:101B0000CF93DF93FC01C281D38184E090E00E94F7
:101B1000241B2CE633E0FC0131832083BC01CE0181
:101B2000DF91CF910C94370BCF93DF93FC01C281EF
:101B3000D38184E090E00E94241B20E032E0FC018D
:101B400031832083BC01CE01DF91CF910C94370B00
:101B5000CF93DF93FC01C281D38184E090E00E94A7
:101B6000241B2CE633E0FC0131832083BC01CE0131
:101B7000DF91CF910C94370BCF93DF93FC01C2819F
:101B8000D38184E090E00E94241B2EE032E0FC012F
:101B900031832083BC01CE01DF91CF910C94370BB0
:101BA000CF93DF93FC01C281D38184E090E00E9457
:101BB000241B2CE633E0FC0131832083BC01CE01E1
:101BC000DF91CF910C94370BCF93DF93FC01C2814F
:101BD000D38184E090E00E94241B2EE032E0FC01DF
:101BE00031832083BC01CE01DF91CF910C94370B60
:101BF000CF93DF93FC01C281D38184E090E00E9407
:101C0000241B2CE132E0FC0131832083BC01CE0196
:101C1000DF91CF910C94370BCF93DF93FC01C281FE
:101C2000D38184E090E00E94241B2EE032E0FC018E
:101C300031832083BC01CE01DF91CF910C94370B0F
:101C4000CF93DF93FC01C281D38184E090E00E94B6
:101C5000241B2AE232E0FC0131832083BC01CE0147
:101C6000DF91CF910C94370BCF93DF93FC01019060
:101C70000020E9F73197AF01481B590BBC018CEFED
:101C800094E00E94A801EC0142E050E066EA73E0B3
:101C90008CEF94E00E94A8018C0F9D1FDF91CF91E3
:101CA000089585ED8093BC008091C8049091C9048B
:101CB000A091CA04B091CB040796A11DB11D23E0E9
:101CC000B695A795979587952A95D1F72091BC0051
:101CD00024FD03C01092C60408954091C804509199
:101CE000C9046091CA047091CB04452B462B472B45
:101CF00069F30097A105B10541F02AE12A95F1F7B2
:101D000000C00197A109B109E1CF8091C7040C94EB
:101D100001030C94C01B0C94C01B0C94C01B0C94AE
:101D2000C01B0C94C01B0C94C01B0C94C01B0C94C7
:101D3000C01B0C94C01B0C94C01B0C94C01B0C94B7
:101D4000C01B0C94C01B0C94C01B0C94C01B0C94A7
:101D5000C01B0C94C01B0C94C01B0C94C01B0C9497
:101D6000C01B0C94C01BDC011296ED91FC91E5594F
:101D7000FF4F2081233419F526E42083DC011296DD
:101D8000ED91FC91E959FF4F64818281938120910B
:101D90002404309125042F5F3F4F30932504209376
:101DA00024044091990550919A054115510519F067
:101DB0004217530734F489EA93E00C94340E23E479
:101DC000DCCF9C012F5F3F4F213032401CF08BEC69
:101DD00093E0F3CF0C9490181F920F920FB60F92CE
:101DE00011242F933F934F935F936F937F938F9320
:101DF0009F93AF93BF93EF93FF938CEF94E00E9478
:101E0000F800FF91EF91BF91AF919F918F917F91DA
:101E10006F915F914F913F912F910F900FBE0F9057
:101E20001F9018951F920F920FB60F9211242F93A7
:101E30008F939F93EF93FF93E0910C05F0910D0525
:101E40008081E0911205F091130582FD1BC0908105
:101E5000809115058F5F8F7320911605821741F0D1
:101E6000E0911505F0E0E450FB4F958F8093150548
:101E7000FF91EF919F918F912F910F900FBE0F9037
:101E80001F9018958081F4CF1F920F920FB60F927A
:101E900011242F933F938F939F93AF93BF93809180
:101EA000710490917204A0917304B0917404309104
:101EB0006C0426E0230F2D3758F50296A11DB11DA5
:101EC00020936C048093710490937204A093730424
:101ED000B093740480916D0490916E04A0916F048E
:101EE000B09170040196A11DB11D80936D04909373
:101EF0006E04A0936F04B0937004BF91AF919F9153
:101F00008F913F912F910F900FBE0F901F901895BA
:101F100029E8230F0396A11DB11DD2CF0C94B9005F
:101F20001F920F920FB60F9211242F933F934F934E
:101F30005F936F937F938F939F93AF93BF93EF9331
:101F4000FF938091B900887F803609F44AC0F0F58C
:101F5000883209F4A5C018F5803109F499C0B8F4A5
:101F6000882309F4F5C0883009F492C0FF91EF91FD
:101F7000BF91AF919F918F917F916F915F914F91A1
:101F80003F912F910F900FBE0F901F9018958831A1
:101F900009F486C0803251F78093C40414C08034A1
:101FA00009F49BC040F48033B9F38833F9F6809389
:101FB000C40485ECAEC0803509F483C0883509F4CB
:101FC00094C0883499F60E94510ED0CF883909F414
:101FD0008AC038F5883729F050F4883611F08037F8
:101FE00029F683E08093C60410926B0455C08838AC
:101FF00009F479C0803919F0803809F0B7CF8091A1
:102000006B04803208F06FC0E0916B0481E08E0FAA
:1020100080936B048091BB00F0E0E55BFB4F808315
:102020003BC0803B39F0D0F4803A09F477C0883A5D
:1020300009F09CCF84E08093C60410924A04109269
:102040004904F0E0E0E009958091490481110FC056
:1020500081E0809349041092290409C0803C09F46E
:10206000A8CF883C09F4A5CF883B09F07FCFE09149
:102070004A0481E08E0F80934A04F0E0E75DFB4F55
:1020800080818093BB0090914A048091490429C0CB
:102090008091A1048093BB0085EC8093BC0066CF47
:1020A0009091C3048091C204981758F5E091C3043D
:1020B00081E08E0F8093C304F0E0EE55FB4F8081EA
:1020C000E9CFE091C30481E08E0F8093C304809137
:1020D000BB00F0E0EE55FB4F80839091C3048091EC
:1020E000C2049817C8F285E8D8CFE091C30481E014
:1020F0008E0F8093C3048091BB00F0E0EE55FB4F40
:1021000080838091C50481115ECF81E08093A0041B
:1021100084EA8093BC001092C60428CF85EC80939B
:10212000BC001092C60480916B04803230F4E091C0
:102130006B04F0E0E55BFB4F108260916B0470E094
:102140008BE494E0F0E0E0E0099510926B040ECF90
:102150001092C40438CF1F920F920FB60F92112421
:102160002F933F934F935F936F937F938F939F939F
:10217000AF93BF93CF93DF93EF93FF93C0919B05F2
:10218000D0919C05C15BDF4F888199819C012650CD
:1021900031092430310518F0803191051CF160E0DF
:1021A00085E00E94440260E086E00E94440288814B
:1021B0009981019684319105F1F099838883FF918B
:1021C000EF91DF91CF91BF91AF919F918F917F91CF
:1021D0006F915F914F913F912F910F900FBE0F9094
:1021E0001F9018958630910514F461E0D9CF0A97B5
:1021F0000697E8F6FACF19821882E1CF1F920F9264
:102200000FB60F9211242F933F934F935F936F93C9
:102210007F938F939F93AF93BF93CF93DF93EF936E
:10222000FF9380919B04882309F44CC0E0919B05A7
:10223000F0919C0581E081AFEF5AFF4F80831092AF
:102240009B048091A7059091A8059093BA0580936F
:10225000B90583B78E7F83BF8091270480937A006E
:10226000C0919B05D0919C0584E090E00E94241BC6
:102270002CE633E0FC0131832083BC01CE010E94B7
:10228000370B80919C0490919D04A0919E04B09185
:102290009F048093970490939804A0939904B0931B
:1022A0009A041092B1051092B2051092B3051092E3
:1022B000B40580916F00826080936F0061E085E1DA
:1022C0000E944402FF91EF91DF91CF91BF91AF91B6
:1022D0009F918F917F916F915F914F913F912F913E
:1022E0000F900FBE0F901F901895EF92FF920F93D3
:1022F0001F93CF93DF931092FF041092FE0488EE99
:1023000093E0A0E0B0E08093000590930105A093D6
:102310000205B093030528E433E03093FD042093D5
:10232000FC0425EC30E0309309052093080524ECEB
:1023300030E030930B0520930A0520EC30E0309319
:102340000D0520930C0521EC30E030930F05209310
:102350000E0522EC30E0309311052093100526EC99
:1023600030E030931305209312051092150510925A
:102370001605109217051092180504E610E0109348
:102380009A05009399051092F3041092F204809339
:10239000F4049093F504A093F604B093F7048AE54F
:1023A00093E09093F1048093F0048AE090E090939E
:1023B0009E0580939D058FE090E09093A00580930B
:1023C0009F058EE091E09093A2058093A10584E0A3
:1023D00091E09093A4058093A30580EF90E0909303
:1023E000A6058093A50584E090E09093A8058093CE
:1023F000A70583E090E09093AA058093A90582E069
:1024000090E09093AC058093AB0581E090E09093D1
:10241000AE058093AD051092B0051092AF0560E057
:1024200080E10E9482021092B1051092B2051092D2
:10243000B3051092B4051092B5051092B60510922E
:10244000B7051092B8051092BA051092B90510920E
:10245000BB051092BC051092BD051092BE0584E02C
:1024600090E00E94241B7C018CE693E0F7019183AD
:1024700080838FE790E00E94241BEC01DC011D9219
:102480001D928EE0E6E0F1E001900D928A95E1F771
:1024900080ED97E0998B888B86E990E09B8B8A8B07
:1024A0008AE1E4E1F1E0DE01549601900D928A9513
:1024B000E1F71FA61EA688EE93E09EAB8DAB62E00F
:1024C00089E00E94820262E08AE00E9482021AAAE7
:1024D00019AA1CAA1BAA18AE1FAA19AE8AE0EEE21E
:1024E000F1E0DE01DA9601900D928A95E1F7FE01A6
:1024F000EC5BFF4F84EF91E09183808339961183E9
:10250000008361E085E00E94820261E086E00E9433
:10251000820261E080E00E94820261E081E00E942C
:10252000820261E082E00E94820261E084E00E9417
:10253000820261E086E10E94820260E086E10E9400
:10254000440261E085E00E94440260E086E00E946F
:102550004402F8941092800010928100109285003D
:102560001092840086E090E0909389008093880028
:1025700080918100886080938100809181008360D8
:102580008093810080916F00826080936F007894C7
:10259000FE01EA5BFF4F1082359610823196108261
:1025A000359710821182128213823B9610823397E4
:1025B0001182108232961082379610821182128216
:1025C000138214821582168237961082118212822B
:1025D000138214821582168261E08FE00E948202CB
:1025E00061E08EE00E94820261E088E00E94820247
:1025F00061E087E00E9482028E0109591F4F88E83E
:1026000093E1F8019183808380E190E0938382835A
:1026100060E084E10E948202F80182819381019648
:102620008130924024F08BEC93E00E94340EF8014C
:10263000158216821782108683E48483138614869B
:1026400015861686B701CE010E94370BD0939C05E4
:10265000C0939B05DF91CF911F910F91FF90EF9059
:102660000895789484B5826084BD84B5816084BD0A
:1026700085B5826085BD85B5816085BD80916E0020
:10268000816080936E001092810080918100826051
:10269000809381008091810081608093810080918E
:1026A00080008160809380008091B100846080937D
:1026B000B1008091B00081608093B0008091910062
:1026C000826080939100809191008160809391005D
:1026D000809190008160809390008091A100826041
:1026E0008093A1008091A10081608093A1008091DE
:1026F000A00081608093A00080917A008460809324
:102700007A0080917A00826080937A0080917A00CA
:102710008E7F80937A0080917A00806880937A001F
:102720001092C10061E085E10E94820260E085E1D3
:102730000E94440283B7817F846083BF81E00E944E
:10274000640550E1652E712C8FB7F894C090710428
:10275000D0907204E0907304F09074048FBFC09224
:102760009C04D0929D04E0929E04F0929F04C0913C
:102770009B05D0919C05FE01E958FF4FC082D18294
:10278000E282F3828091B9059091BA052091A70564
:102790003091A8058217930709F0D8C04091B10580
:1027A0005091B2056091B3057091B405970186010F
:1027B000041B150B260B370B80919D0590919E05F0
:1027C000B0E0A0E080179107A207B30728F0452BDF
:1027D000462B472B09F067C0C092B105D092B205D5
:1027E000E092B305F092B40580E10E94BE02EC01D4
:1027F0008090B5059090B605A090B705B090B8054B
:1028000060919F057091A00590E080E00E94B8194A
:102810006B017C01AC019B01C501B4010E940B1945
:1028200087FF44C0BE0190E080E00E94B81920916B
:10283000BB053091BC054091BD055091BE050E947D
:102840009F181B012C012092BB053092BC054092C1
:10285000BD055092BE0520E030E040E85FE3C501D1
:10286000B4010E949F184B015C018092B5059092C3
:10287000B605A092B705B092B805AC019B01C7019F
:10288000B6010E940B1981110EC0A5019401C2016D
:10289000B1010E9410196093BB057093BC05809331
:1028A000BD059093BE050E9491014ECFC090BB051F
:1028B000D090BC05E090BD05F090BE056091A105EB
:1028C0007091A20590E080E00E94B8199B01AC01D4
:1028D000C701B6010E946A1A18164CF48091AF0520
:1028E0009091B0059093BA058093B905DCCF6091C3
:1028F000A3057091A40590E080E00E94B8199B01A7
:10290000AC01C701B6010E946A1A18162CF4809116
:10291000AD059091AE05E6CF6091A5057091A60535
:1029200090E080E00E94B8199B01AC01C701B6019C
:102930000E946A1A18162CF48091AB059091AC0590
:10294000D1CF8091A9059091AA05CCCF2091A9055E
:102950003091AA058217930721F480E00E94640554
:10296000A2CF80919B0481112BC08E010F5A1F4F63
:10297000D8018C91882321F161E086E10E94440214
:102980002091B9053091BA058091AB059091AC05C5
:102990002817390721F061E082E00E944402F80123
:1029A0001082FE01E558FF4FC082D182E282F3829D
:1029B000C0929704D0929804E0929904F0929A04FD
:1029C0002091B9053091BA058091AB059091AC0585
:1029D0002817390709F4B2C28AE00E941B0229A90C
:1029E0003AA9892B31F42F5F3F4F3AAB29AB10E066
:1029F00006C012161306DCF71AAA19AA11E089E01C
:102A00000E941B022BA93CA9892B31F42F5F3F4F59
:102A10003CAB2BAB60E006C012161306DCF71CAA19
:102A20001BAA61E08DA99EA92BA93CA949A95AA975
:102A3000841795070CF065C3821793070CF089C0C3
:102A400025E030E038AF2FAB81E089AF81E08093A3
:102A5000CC0438E63093EE041092CD041092EF04CB
:102A600090E080E00E94D4040E9440030E94D002C3
:102A70006B017C018091C60481117FC081E080934D
:102A8000C6048093C5049FEF9093C4041092C304BE
:102A9000A6E0A093C2048093A1048091A104806D5C
:102AA0008093A1048091A004813009F0BEC21092ED
:102AB000A0040E94D0026B017C018091A10480934C
:102AC000BB008091C8049091C904A091CA04B09140
:102AD000CB04892B8A2B8B2BA1F00E94D002009172
:102AE000C8041091C9042091CA043091CB046C1918
:102AF0007D098E099F09061717072807390708F46B
:102B00005DC08091BC0083FDD8CF85EC8093BC0074
:102B10000E94D0026B017C018091C604813009F4CF
:102B200088C28091C304873008F0A5C28091C30495
:102B3000A2EAB4E0E7E7F4E090E0981709F443C0B4
:102B40002D9121939F5FF9CF84E090E098AF8FABF8
:102B50007BCFA3E0B0E0B8AFAFAB76CF112309F4E1
:102B600075CF89AD811105C021E030E038AF2FABC2
:102B70006DCF18AE1FAA19AE69CF8091C80490918D
:102B8000C904A091CA04B091CB04892B8A2B8B2B4A
:102B900009F470CF0E94D0020091C8041091C904BA
:102BA0002091CA043091CB046C197D098E099F09CC
:102BB000061717072807390708F05CCF8091C7046C
:102BC0000E94010380E0109276048093750480EFE8
:102BD00094E00E945E049C0144E0359527954A9557
:102BE000E1F7277033276AE0629FA001639F500DD1
:102BF00011248F709927480F591FFE01E85AFF4F83
:102C0000408380EF94E00E945E04FE01E75AFF4F8C
:102C1000AC0197FF02C0415F5F4F14E055954795A7
:102C20001A95E1F71AE0149F9001159F300D1124B9
:102C3000B3010E94F61A820F931F808380EF94E005
:102C40000E945E049C0104E0359527950A95E1F702
:102C500023703327129FA001139F500D11248F70F2
:102C60009927480F591FFE01E65AFF4F408380EF16
:102C700094E00E945E04FE01E55AFF4FAC0197FF0D
:102C800002C0415F5F4FB4E055954795BA95E1F7B3
:102C90006AE0649F9001659F300D1124B3010E948A
:102CA000F61A820F931F808380EF94E00E945E04E7
:102CB000FE01E45AFF4FAC0197FF02C0415F5F4F36
:102CC000A4E055954795AA95E1F76AE0649F9001C5
:102CD000659F300D1124B3010E94F61A820F931FD5
:102CE000808380EF94E00E945E04FE01E35AFF4F70
:102CF000AC0197FF02C0415F5F4F74E05595479567
:102D00007A95E1F76AE0649F9001659F300D112488
:102D1000B3010E94F61A820F931F808380EF94E024
:102D20000E945E04C25ADF4FAC0197FF02C0415FB0
:102D30005F4F64E0559547956A95E1F76AE0649FB7
:102D40009001659F300D1124B3010E94F61A820F85
:102D5000931F8883C0919B05D0919C0588819981A0
:102D6000DC01ED91FC910480F581E02D09958FA99E
:102D700098AD8230910509F49EC108F07EC101979B
:102D800009F48FC1C0919B05D0919C0580909C0453
:102D900090909D04A0909E04B0909F042091B9054E
:102DA0003091BA058091AD059091AE05281739078D
:102DB000F1F4FE01E558FF4F80819181A281B3813A
:102DC000B501A401481B590B6A0B7B0B88899989B3
:102DD000092E000CAA0BBB0B481759076A077B0783
:102DE00030F469E174E0CE01CA960E94F5028E01CA
:102DF0000A5B1F4FD8018C91823011F4E3E0EC9311
:102E00006E01F7E4CF0ED11CF60180819181A28181
:102E1000B381B501A401481B590B6A0B7B0B2E0132
:102E2000F4E44F0E511CD2018D919C91092E000C9F
:102E3000AA0BBB0B481759076A077B0730F0FE0146
:102E4000EE5AFF4F2081222341F021E0FE01EB5A90
:102E5000FF4F8081803209F420E0F8018081FE017B
:102E6000EA5AFF4F9081903209F040C1813009F059
:102E700040C190E0FE01E80FF91FED5AFF4FE081DD
:102E8000F12CE12CEA3738F4F0E0EE0FFF1FE05BA5
:102E9000FD4FE080F180880F991FFE01E80FF91FB8
:102EA00082AD93ADE82AF92A222321F08EAD9FADA1
:102EB000E82AF92A61E084E00E944402D0E0C0E000
:102EC000C7010C2E02C0969587950A94E2F761E03F
:102ED00080FF60E080E00E9444025A985A9A599A12
:102EE00059982196CC30D10559F760E084E00E94D2
:102EF0004402D8012C912F5F2C93F601808191819F
:102F0000A281B381B501A401481B590B6A0B7B0B4D
:102F1000D2018D919C91880F991F092E000CAA0B4C
:102F2000BB0B84179507A607B70720F48082918210
:102F3000A282B382253011F4D8011C928091B90588
:102F40009091BA052091AD053091AE058217930797
:102F500039F02091AB053091AC058217930781F5CC
:102F6000E0919B05F0919C05EF01C958DF4FDF010F
:102F7000A558BF4F888199812D913C91821B930B5D
:102F80002089318982179307DCF422893389B901BA
:102F9000660F771F0E94F61A821793070CF0AEC0D7
:102FA00061E08FE00E94440261E08EE00E944402F2
:102FB00061E088E00E94440261E087E00E944402F0
:102FC000E0919B05F0919C0540919C0450919D04DB
:102FD00060919E0470919F0487A990AD892B41F068
:102FE00040939704509398046093990470939A04C3
:102FF00010AE17AAEE5AFF4F10828091970490915D
:103000009804A0919904B0919A04481B590B6A0B3B
:103010007B0B413E5E426105710508F444CC809112
:103020009B04811140CC81E099CCB5EEB093BC00FB
:103030006FCD8091C8049091C904A091CA04B09149
:10304000CB04892B8A2B8B2B09F466CD0E94D002EE
:103050000091C8041091C9042091CA043091CB0496
:103060006C197D098E099F0906171707280739076C
:1030700008F052CDA3CD87E05BCD8330910521F1DF
:10308000049709F07FCEE881F981C281D38184E081
:1030900090E00E94241BE6E4F2E0DC01ED93FC9357
:1030A00020C088819981DC01ED91FC910680F78137
:1030B000E02D099567CE88819981DC01ED91FC9125
:1030C0000084F185E02DF5CFE881F981C281D381BB
:1030D00084E090E00E94241B28E332E0FC0131836D
:1030E0002083BC01CE010E94370B4CCE833009F403
:1030F000C0CE853008F0FDCE20E0BBCE0E9472022B
:103100005FCF821793070CF41FCD662309F426CDF9
:1031100089AD81112ECDE2E0F0E0F8AFEFAB96CCB7
:10312000262FF999FECF1FBA92BD81BD20BD0FB6E3
:10313000F894FA9AF99A0FBE019608955058BB2751
:10314000AA270E94B6180C94301A0E94221A38F04E
:103150000E94291A20F039F49F3F19F426F40C94A8
:103160001F1A0EF4E095E7FB0C94191AE92F0E9440
:10317000411A58F3BA17620773078407950720F0BE
:1031800079F4A6F50C94631A0EF4E0950B2EBA2F81
:10319000A02D0B01B90190010C01CA01A00111245D
:1031A000FF27591B99F0593F50F4503E68F11A1609
:1031B000F040A22F232F342F4427585FF3CF46959A
:1031C00037952795A795F0405395C9F77EF41F16BC
:1031D000BA0B620B730B840BBAF09150A1F0FF0F86
:1031E000BB1F661F771F881FC2F70EC0BA0F621F72
:1031F000731F841F48F4879577956795B795F79562
:103200009E3F08F0B0CF9395880F08F09927EE0FF6
:103210009795879508950E94F51908F481E008951F
:103220000E9424190C94301A0E94291A58F00E9406
:10323000221A40F029F45F3F29F00C94191A511119
:103240000C94641A0C941F1A0E94411A68F3992373
:10325000B1F3552391F3951B550BBB27AA27621792
:103260007307840738F09F5F5F4F220F331F441F9F
:10327000AA1FA9F335D00E2E3AF0E0E832D09150D3
:103280005040E695001CCAF72BD0FE2F29D0660FC0
:10329000771F881FBB1F261737074807AB07B0E803
:1032A00009F0BB0B802DBF01FF2793585F4F3AF009
:1032B0009E3F510578F00C94191A0C94641A5F3FE4
:1032C000E4F3983ED4F3869577956795B795F7958F
:1032D0009F5FC9F7880F911D9695879597F9089577
:1032E000E1E0660F771F881FBB1F62177307840713
:1032F000BA0720F0621B730B840BBA0BEE1F88F722
:10330000E09508950E9489196894B1110C94641A8B
:1033100008950E94491A88F09F5798F0B92F99276D
:10332000B751B0F0E1F0660F771F881F991F1AF0B0
:10333000BA95C9F714C0B13091F00E94631AB1E098
:1033400008950C94631A672F782F8827B85F39F097
:10335000B93FCCF3869577956795B395D9F73EF449
:1033600090958095709561957F4F8F4F9F4F0895F1
:10337000E89409C097FB3EF490958095709561950F
:103380007F4F8F4F9F4F9923A9F0F92F96E9BB27C5
:103390009395F695879577956795B795F111F8CF41
:1033A000FAF4BB0F11F460FF1BC06F5F7F4F8F4FAC
:1033B0009F4F16C0882311F096E911C0772321F0A2
:1033C0009EE8872F762F05C0662371F096E8862F3A
:1033D00070E060E02AF09A95660F771F881FDAF791
:1033E000880F9695879597F90895990F0008550FBE
:1033F000AA0BE0E8FEEF16161706E807F907C0F07B
:1034000012161306E407F50798F0621B730B840B82
:10341000950B39F40A2661F0232B242B252B21F45C
:1034200008950A2609F4A140A6958FEF811D811DFC
:10343000089597F99F6780E870E060E008959FEF36
:1034400080EC089500240A9416161706180609063B
:10345000089500240A94121613061406050608950A
:10346000092E0394000C11F4882352F0BB0F40F492
:10347000BF2B11F460FF04C06F5F7F4F8F4F9F4FD2
:10348000089557FD9058440F551F59F05F3F71F054
:103490004795880F97FB991F61F09F3F79F08795BB
:1034A0000895121613061406551FF2CF4695F1DF44
:1034B00008C0161617061806991FF1CF86957105D4
:1034C000610508940895E894BB2766277727CB0108
:1034D00097F908950E94F51908F48FEF08950E9456
:1034E000821A0C94301A0E94221A38F00E94291A6B
:1034F00020F0952311F00C94191A0C941F1A112422
:103500000C94641A0E94411A70F3959FC1F3950FB1
:1035100050E0551F629FF001729FBB27F00DB11D57
:10352000639FAA27F00DB11DAA1F649F6627B00DE7
:10353000A11D661F829F2227B00DA11D621F739FD0
:10354000B00DA11D621F839FA00D611D221F749FDE
:103550003327A00D611D231F849F600D211D822F25
:10356000762F6A2F11249F5750409AF0F1F088234C
:103570004AF0EE0FFF1FBB1F661F771F881F915079
:103580005040A9F79E3F510580F00C94191A0C94F5
:10359000641A5F3FE4F3983ED4F386957795679578
:1035A000B795F795E7959F5FC1F7FE2B880F911DA3
:1035B0009695879597F90895991B79E004C0991F0E
:1035C000961708F0961B881F7A95C9F7809508957D
:1035D00087FB082E062687FD819567FD61950E9471
:1035E000DC1A0EF4919507FC8195089597FB072E40
:1035F00016F4009407D077FD09D00E94101B07FC39
:1036000005D03EF4909581959F4F089570956195F2
:103610007F4F0895EE0FFF1F0590F491E02D099460
:10362000AA1BBB1B51E107C0AA1FBB1FA617B707E8
:1036300010F0A61BB70B881F991F5A95A9F7809504
:103640009095BC01CD0108950F931F93CF93DF9305
:103650008230910510F482E090E0E091C105F09194
:10366000C20530E020E0B0E0A0E0309799F42115E9
:10367000310509F44AC0281B390B24303105D8F52F
:103680008A819B816115710589F1FB019383828396
:10369000FE0111C0408151810281138148175907F1
:1036A000E0F04817590799F4109761F012960C93BF
:1036B000129713961C933296CF01DF91CF911F91F1
:1036C0000F9108950093C1051093C205F4CF211501
:1036D000310551F04217530738F0A901DB019A0177
:1036E000BD01DF01F801C1CFEF01F9CF9093C20511
:1036F0008093C105CDCFFE01E20FF31F819391931B
:103700002250310939832883D7CF2091BF053091CA
:10371000C005232B41F42091020130910301309325
:10372000C0052093BF0520910001309101012115B2
:10373000310541F42DB73EB7409104015091050188
:10374000241B350BE091BF05F091C005E217F3078C
:10375000A0F42E1B3F0B2817390778F0AC014E5F01
:103760005F4F2417350748F04E0F5F1F5093C00579
:103770004093BF05819391939FCFF0E0E0E09CCF11
:10378000CF93DF930097E9F0FC0132971382128206
:10379000A091C105B091C205ED0130E020E0109785
:1037A000A1F420813181820F931F2091BF053091B8
:1037B000C0052817390709F061C0F093C005E093F0
:1037C000BF05DF91CF910895EA01CE17DF07E8F535
:1037D0004A815B819E0141155105B1F7E901FB83E7
:1037E000EA8349915991C40FD51FEC17FD0761F485
:1037F000808191810296840F951FE90199838883C6
:10380000828193819B838A83F0E0E0E012968D9120
:103810009C9113970097B9F52D913C911197CD018B
:103820000296820F931F2091BF053091C005281783
:10383000390739F6309751F51092C2051092C1053B
:10384000B093C005A093BF05BCCFD383C283408192
:103850005181840F951FC817D90761F44E5F5F4FE0
:1038600088819981480F591F518340838A819B81A8
:10387000938382832115310509F0B0CFF093C205FF
:10388000E093C1059ECFFD01DC01C0CF13821282FF
:10389000D7CFF894FFCF0000C30580008203F50363
:1038A000FB03010407040D04130400001F001D00A6
:1038B0001F001E001F001E001F001F001E001F0013
:1038C0001E001F0020000200400000010008000050
:1038D0000000D905890EDA05520BB30E0000000076
:1038E000D805B10EF0057A0B660B00000000D70575
:1038F000AF0E40068E0BF80500000000D605AD0E99
:103900006106B60BA20B00000000D505AB0EB60693
:10391000D50B690600000000D405A90ED506FD0BE5
:10392000E90B00000000D305A70E4A071C0CDD06BA
:1039300000000000D205A50E6A07440C300C000000
:103940000000D105A30EBF07630C72070000000042
:10395000D005A10ED1078B0C770C00000000CF051D
:103960009F0E1B08AA0CD90700000000CE059D0E73
:103970003B08DB0CBE0C00000000CD059B0E85084B
:10398000FD0C430800000000CC05990EA408250D8D
:10399000110D00000000C905930EE709800D800D90
:1039A00000000000C805910ED10AA80D940D00007A
:1039B0000000C7058F0EE20AD00DBC0D000000000C
:1039C000C6058D0EFA0AF80DE40D00000000CA05C8
:1039D000950E46096C0DB40800000000CB05970E4B
:1039E000AC08580D440D9D020802150619068806FC
:1039F00099049D0409029D0699060000000000003C
:103A000000000000000000000000000000000000B6
:103A100000000000000000000000000000000000A6
:103A20000000000000000000000000000000000096
:103A300000000000000000000000810600000000FF
:103A40000000000084009D02080215061906880681
:103A500099049D0409029D069906000000000000DB
:103A600000000000000000008D069D06950000008B
:103A70009504850400008C060802000000009400F4
:103A800009028D029D0285060000000099040000D5
:103A90009C020000180200008806000000000000E0
:103AA000000000000000000000009C0414041C063C
:103AB0009506850400008C0404000000000000004E
:103AC00008040C041C04000000000404990494047D
:103AD0001C000000180000009806000000001A01F9
:103AE000A801BB006701EC00CA00DE000000000076
:103AF000A504780461054E0471045E044F040000BF
:103B00000000C5058B0E1A0B200E0C0E7445206E9E
:103B10006E005945204172004E4E206F6E00646F5A
:103B2000204E4E00646F205555004E4E20696E00A9
:103B3000486F207572005345207420000D0A00451F
:103B400078636565646564206D6178696D756D2065
:103B50006E756D626572206F662077726974657329
:103B600000417474656D707420746F20777269748D
:103B700065206F757473696465206F6620454550D4
:103B8000524F4D206D656D6F727900747520452020
:103B90000055552045640074682075200046722049
:103BA0006920005341207420005375206E2000428C
:063BB00041204C6F0000F3
:107E0000112484B714BE81FFF1D085E080938100F6
:107E1000589A82E08093C00088E18093C10086E098
:107E20008093C20080E18093C4008EE0C9D0259A7F
:107E300086E028E13EEF91E03093850020938400B6
:107E400096BBB09BFECF1D9AA8958150A9F7CC2474
:107E5000DD2488248394B5E0AB2EA1E19A2EF3E0D3
:107E6000BF2EA2D0813461F49FD0082FAFD002384A
:107E700011F0013811F484E001C083E08DD089C095
:107E8000823411F484E103C0853419F485E0A6D06E
:107E900080C0853579F488D0E82EFF2485D0082F5E
:107EA00010E0102F00270E291F29000F111F8ED060
:107EB00068016FC0863521F484E090D080E0DECF89
:107EC000843609F040C070D06FD0082F6DD080E0AC
:107ED000C81680E7D80618F4F601B7BEE895C0E0EA
:107EE000D1E062D089930C17E1F7F0E0CF16F0E70C
:107EF000DF0618F0F601B7BEE89568D007B600FCBB
:107F0000FDCFA601A0E0B1E02C9130E011968C915C
:107F1000119790E0982F8827822B932B1296FA01C5
:107F20000C0187BEE89511244E5F5F4FF1E0A03849
:107F3000BF0751F7F601A7BEE89507B600FCFDCFD5
:107F400097BEE89526C08437B1F42ED02DD0F82EF8
:107F50002BD03CD0F601EF2C8F010F5F1F4F849187
:107F60001BD0EA94F801C1F70894C11CD11CFA9403
:107F7000CF0CD11C0EC0853739F428D08EE10CD03F
:107F800085E90AD086E17ACF813511F488E018D0EE
:107F90001DD080E101D065CF982F8091C00085FF72
:107FA000FCCF9093C60008958091C00087FFFCCF5E
:107FB0008091C00084FD01C0A8958091C6000895FD
:107FC000E0E6F0E098E1908380830895EDDF803271
:107FD00019F088E0F5DFFFCF84E1DECF1F93182F83
:107FE000E3DF1150E9F7F2DF1F91089580E0E8DF49
:067FF000EE27FF270994B3
:027FFE00040479
:00000001FF
