:100000000C9491000C94B9000C94B9000C948A08DB
:100010000C94B9000C94B9000C94B9000C94B9007C
:100020000C94B9000C94B9000C94B9000C946008BD
:100030000C94B9000C94B9000C94B9000C94B9005C
:100040000C94F9060C94B9000C94C7060C94A10604
:100050000C94B9000C94B9000C94B9000C94B9003C
:100060000C9445070C94B9000C9443070C94430777
:100070000C9443070C9443070C9443070C944307D8
:100080000C9443070C9443070C9443070C944307C8
:100090000C9443070C9443070C9443070C944307B8
:1000A0000C9443070C9443070C9443070C944307A8
:1000B0000C94430700000000240027002A002D00B4
:1000C00000000000250028002B002E00000000008A
:1000D0002300260029002C00040404040404040462
:1000E00002020202020203030303030305050505DE
:1000F00001020408102040800102040810200102BF
:100100000408102004080102090C0A08000201007A
:1001100000030407000000000000000000000000D1
:10012000E60811241FBECFEFD8E0DEBFCDBF12E03E
:10013000A0E0B1E0EAECFCE202C005900D92AA3C1E
:10014000B107D9F724E0AAECB2E001C01D92A339AF
:10015000B207E1F710E0C1E9D0E004C02197FE0149
:100160000E945D16C039D107C9F70E9478090C9426
:1001700063160C940000EEE8F4E09C012B5F3F4F07
:10018000DC014D91CD014193A217B307C9F7089542
:10019000FC01538D448D252F30E0842F90E0821B8D
:1001A000930B541710F0CF96089501970895FC0112
:1001B000918D828D981761F0A28DAE0FBF2FB11D6A
:1001C0005D968C91928D9F5F9F73928F90E00895C2
:1001D0008FEF9FEF0895FC01918D828D981731F07C
:1001E000828DE80FF11D858D90E008958FEF9FEFD0
:1001F0000895FC01918D228D892F90E0805C9F4FA6
:10020000821B91098F7399270895FC01A48DA80F73
:10021000B92FB11DA35ABF4F2C91848D90E0019648
:100220008F739927848FA689B7892C93A089B18968
:100230008C91837080648C93938D848D981306C009
:100240000288F389E02D80818F7D80830895EF926D
:10025000FF920F931F93CF93DF93EC0181E0888F80
:100260009B8D8C8D98131AC0E889F989808185FF50
:1002700015C09FB7F894EE89FF896083E889F989F2
:1002800080818370806480839FBF81E090E0DF91F4
:10029000CF911F910F91FF90EF900895F62E0B8D47
:1002A00010E00F5F1F4F0F731127E02E8C8D8E1102
:1002B0000CC00FB607FCFACFE889F989808185FF69
:1002C000F5CFCE010E940501F1CFEB8DEC0FFD2F94
:1002D000F11DE35AFF4FF0829FB7F8940B8FEA8924
:1002E000FB8980818062CFCFCF93DF93EC01888D33
:1002F0008823B9F0AA89BB89E889F9898C9185FDA1
:1003000003C0808186FD0DC00FB607FCF7CF8C912E
:1003100085FFF2CF808185FFEDCFCE010E940501E0
:10032000E9CFDF91CF9108958EEC93E00E94F90020
:1003300021E0892B09F420E0822F089580E090E0ED
:10034000892B29F00E94940181110E94000080E015
:1003500090E0892B49F080E090E0892B29F00E9401
:10036000000081110C9400000895AF92BF92CF92CB
:10037000DF92EF92FF920F931F93CF93DF936C0165
:100380007B018B01040F151FEB015E01AE18BF0846
:10039000C017D10759F06991D601ED91FC910190F8
:1003A000F081E02DC6010995892B79F7C501DF9110
:1003B000CF911F910F91FF90EF90DF90CF90BF9062
:1003C000AF90089581508D3008F03DC0E82FF0E0E7
:1003D000E451FE4F0C945D1603020702F901FF0180
:1003E000230223020A02100214021A0223021E022E
:1003F0002402809180008F778093800008958091FF
:1004000080008F7DF9CF84B58F7784BD089584B542
:100410008F7DFBCF8091B0008F778093B0000895DF
:100420008091B0008F7DF9CF809190008F7780937D
:1004300090000895809190008F7DF9CF8091A00069
:100440008F778093A00008958091A0008F7DF9CFD1
:10045000CF93DF93282F30E0F901E85FFE4F8491BE
:10046000F901E051FF4FD491F901E852FF4FC491D7
:10047000CC23A1F081110E94E201EC2FF0E0EE0FFD
:10048000FF1FE453FF4FA591B491EC91ED2381E060
:1004900090E009F480E0DF91CF91089580E090E052
:1004A000FACF1F93CF93DF93282F30E0F901E85F55
:1004B000FE4F8491F901E051FF4FD491F901E852C8
:1004C000FF4FC491CC23A9F0162F81110E94E201A5
:1004D000EC2FF0E0EE0FFF1FE054FF4FA591B49119
:1004E0008FB7F894EC91111108C0D095DE23DC93FE
:1004F0008FBFDF91CF911F910895DE2BF8CF60E081
:100500008FE00E94510260E08EE00E94510260E0A4
:1005100088E00E94510260E087E00C945102CF9382
:10052000DF9390E0FC01E051FF4F249188529F4FF0
:10053000FC0184918823C9F090E0880F991FFC0189
:10054000EC54FF4FA591B491FC01E054FF4FC591CD
:10055000D49161110DC09FB7F8948C91209582239E
:100560008C938881282328839FBFDF91CF910895A2
:10057000623051F49FB7F8943C91822F8095832389
:100580008C93E8812E2BEFCF8FB7F894EC912E2B24
:100590002C938FBFEACF8E50806480937C00809133
:1005A0007A00806480937A0080917A0086FDFCCF87
:1005B000809178009091790008953FB7F8948091E8
:1005C000110390911203A0911303B091140326B567
:1005D000A89B05C02F3F19F00196A11DB11D3FBF7B
:1005E000BA2FA92F982F8827BC01CD01620F711D4A
:1005F000811D911D43E0660F771F881F991F4A9543
:10060000D1F708951F93CF93DF93C1E0C093CC023D
:10061000882399F1D091B8001091BA008091BC0064
:100620008A7B8093BC0060E082E10E94510260E01E
:1006300083E10E9451021092A403C093A30310927D
:100640007E0361E082E10E94510261E083E10E9449
:1006500051028091B9008E7F8093B9008091B900DA
:100660008D7F8093B90080E28093B80085E4809309
:10067000BC001093BA00D093B800DF91CF911F91C6
:100680000895CF92DF92EF92FF920F931F93CF9333
:10069000DF93D091CD0381E0D13208F09CC0C091AE
:1006A000CC030E94DD026B017C018091A4038111C7
:1006B0006CC082E08093A40381E08093A3038FEF5A
:1006C0008093A2031092A103D093A003ACEAB3E0FD
:1006D000E0E8F3E080E0D8138DC010927F038091B2
:1006E0007F03CC0FC82BC0937F0380917E038130A2
:1006F00009F084C010927E030E94DD026B017C0130
:1007000080917F038093BB008091A6039091A70303
:10071000A091A803B091A903892B8A2B8B2BA1F060
:100720000E94DD020091A6031091A7032091A80367
:100730003091A9036C197D098E099F0906171707C7
:100740002807390708F442C08091BC0083FDD8CF48
:1007500085EC8093BC000E94DD026B017C018091DE
:10076000A403823009F44CC08091A2038F3F09F4A6
:1007700069C08091A203803209F466C08091A2030F
:10078000803309F463C084E026C08091A603909171
:10079000A703A091A803B091A903892B8A2B8B2BC7
:1007A00009F483CF0E94DD020091A6031091A703F4
:1007B0002091A8033091A9036C197D098E099F0926
:1007C000061717072807390708F06FCF8091A50390
:1007D0000E94020385E01092AB031092CD031092A9
:1007E000AA03DF91CF911F910F91FF90EF90DF90BF
:1007F000CF9008959D9191938F5F6DCF85EEA9CF96
:100800008091A6039091A703A091A803B091A9039A
:10081000892B8A2B8B2B09F4A2CF0E94DD02009139
:10082000A6031091A7032091A8033091A9036C1986
:100830007D098E099F09061717072807390708F051
:100840008ECFC4CF80E0C7CF82E0C5CF83E0C3CFD7
:100850002091ED02260F3327331F21323105ECF4AE
:100860002091A403FC0190E080E0243069F082E054
:100870000895A091ED022191AC0143535D4FA40F67
:10088000B52FB11D2C930196861798F38091ED0238
:10089000680F6093ED0280E0089581E00895089567
:1008A000E091370380913603E81730F4F0E0E85C1C
:1008B000FC4F808190E008958FEF9FEF0895909115
:1008C0003703809136032FEF3FEF981748F4E92F55
:1008D000F0E0E85CFC4F208130E09F5F90933703AD
:1008E000C90108958091360390913703891B990BB4
:1008F0000895CF92DF92EF92FF920F931F93CF93C1
:10090000DF937C01CB018A012091AA03222389F085
:10091000EB016B01C40ED51ECC15DD0569F06991A4
:10092000D701ED91FC910190F081E02DC70109956F
:10093000F3CF642F0E942804C801DF91CF911F914B
:100940000F91FF90EF90DF90CF900895CF93DF93BA
:100950001F92CDB7DEB769832091AA032223F9F055
:100960002091CD03203258F021E030E0FC013383A8
:10097000228390E080E00F90DF91CF9108958091E5
:10098000AB03E82FF0E0E455FC4F998190838F5F33
:100990008093AB038093CD0381E090E0ECCF61E0E6
:1009A000CE0101960E942804F7CF682F8BE694E0D1
:1009B0000C94A604CF92DF92EF92FF920F931F93B5
:1009C000CF93DF93C82FD62EF42E122F81E0809381
:1009D000AA0388E68093CC031092AB031092CD0358
:1009E00090E080E00E94D5048C2F90E0CAE0D0E037
:1009F000BE010E94491624E0660F771F2A95E1F791
:100A0000860F971F0E94D5048D2D90E0BE010E9495
:100A1000491634E0660F771F3A95E1F7860F971F66
:100A20000E94D5048F2D90E0BE010E94491644E03B
:100A3000660F771F4A95E1F7860F971F0E94D5042E
:100A4000812F90E0BE010E94491654E0660F771F87
:100A50005A95E1F7860F971F0E94D504802F90E0EA
:100A6000BE010E944916E4E0660F771FEA95E1F7A0
:100A7000860F971F0E94D5048E2D90E0BE010E9424
:100A80004916F4E0660F771FFA95E1F7860F971F76
:100A90000E94D5048C2D90E0BE010E944916A4E06E
:100AA000660F771FAA95E1F7860F971F0E94D5045E
:100AB000DF91CF911F910F91FF90EF90DF90CF903A
:100AC0000C94410390E080E00895CF93DF93FC0104
:100AD00001900020E9F73197AF01481B590BBC0189
:100AE0008EEC93E00E94B501EC0142E050E06BE433
:100AF00072E08EEC93E00E94B5018C0F9D1FDF9198
:100B0000CF91089520917C0330917D032F5F3F4F5B
:100B100030937D0320937C034091770450917804B7
:100B20004115510519F04217530734F48EE492E051
:100B30000E94650580E00895682F80E190E00E94A2
:100B4000CF1381E00895CF92EF920F93CF93C82FE8
:100B5000E0913403F09135033797ED30F10500F55E
:100B6000EC54FA4F0C945D16C105D0052E06D00545
:100B70003B06D0054A06D0055306D0055A06D005D7
:100B80005F06C0905E03E0905D0300915C032091DE
:100B90005B03409129036091590380E00E94DA04CD
:100BA0000E947F0260E081E00E94510260E082E0EA
:100BB0000E94510260E080E00E94510260E084E007
:100BC0000E94510260E086E10E94510260E085E0EF
:100BD0000E94510260E086E00E94510260E085E1DF
:100BE0000E94510281E080936E03109219031092CB
:100BF0001A0310921B0310921C0310921D031092F3
:100C00001E0310921F0310922003CC2309F45CC032
:100C10008091680081608093680080916B0084609F
:100C200080936B0080917A008093CB0210927A00BF
:100C300085B7982F90668F7D80648093CA0295BF98
:100C40008091CA0285BF10926F0083B7816083BF15
:100C50008895CF910F91EF90CF900895C0905E034B
:100C6000E0905D0300915C0320915B0340915A0387
:100C70006091290392CFC0905E03E0905D030091E4
:100C80005C032091290340915A036091590380919C
:100C9000580384CFC0905E03E0905D030091290368
:100CA00020915B03F0CFC0905E03E0902903009198
:100CB0005C03F6CFC0902903E0905D03F8CF8091EC
:100CC00000010E9482056CCF1092680010926B00A8
:100CD000A9CF85ED8093BC008091A6039091A703D6
:100CE000A091A803B091A9030796A11DB11D23E00F
:100CF000B695A795979587952A95D1F72091BC0031
:100D000024FD03C01092A40308954091A6035091BE
:100D1000A7036091A8037091A903452B462B472B8D
:100D200069F30097A105B10541F02AE12A95F1F791
:100D300000C00197A109B109E1CF8091A5030C94EE
:100D400002031F920F920FB60F9211242F933F931D
:100D50004F935F936F937F938F939F93AF93BF93C3
:100D6000EF93FF938EEC93E00E940501FF91EF91CA
:100D7000BF91AF919F918F917F916F915F914F91B3
:100D80003F912F910F900FBE0F901F9018951F92BB
:100D90000F920FB60F9211242F938F939F93EF937F
:100DA000FF93E091DE03F091DF038081E091E403A3
:100DB000F091E50382FD1BC090818091E7038F5F76
:100DC0008F732091E803821741F0E091E703F0E090
:100DD000E253FC4F958F8093E703FF91EF919F9132
:100DE0008F912F910F900FBE0F901F9018958081BB
:100DF000F4CF1F920F920FB60F9211242F933F93AF
:100E00008F939F93AF93BF93809115039091160397
:100E1000A0911703B09118033091100326E0230F1F
:100E20002D3758F50296A11DB11D20931003809314
:100E3000150390931603A0931703B09318038091A2
:100E4000110390911203A0911303B0911403019622
:100E5000A11DB11D8093110390931203A09313035E
:100E6000B0931403BF91AF919F918F913F912F91B8
:100E70000F900FBE0F901F90189529E8230F03962F
:100E8000A11DB11DD2CF0C94B9001F920F920FB6C5
:100E90000F9211242F933F934F935F936F937F9300
:100EA0008F939F93AF93BF93EF93FF938091B9007C
:100EB000887F803609F44AC0F0F5883209F4A5C06D
:100EC00018F5803109F499C0B8F4882309F4F5C005
:100ED000883009F492C0FF91EF91BF91AF919F913B
:100EE0008F917F916F915F914F913F912F910F90D3
:100EF0000FBE0F901F901895883109F486C080327C
:100F000051F78093A20314C0803409F49BC040F4CD
:100F10008033B9F38833F9F68093A20385ECAEC031
:100F2000803509F483C0883509F494C0883499F673
:100F30000E946906D0CF883909F48AC038F588370D
:100F400029F050F4883611F0803729F683E0809339
:100F5000A40310920F0355C0883809F479C0803972
:100F600019F0803809F0B7CF80910F03803208F074
:100F70006FC0E0910F0381E08E0F80930F0380918B
:100F8000BB00F0E0E151FD4F80833BC0803B39F076
:100F9000D0F4803A09F477C0883A09F09CCF84E015
:100FA0008093A4031092EE021092ED02F0E0E0E0D4
:100FB00009958091ED0281110FC081E08093ED02CF
:100FC0001092CD0209C0803C09F4A8CF883C09F4F6
:100FD000A5CF883B09F07FCFE091EE0281E08E0F34
:100FE0008093EE02F0E0E353FD4F80818093BB00DD
:100FF0009091EE028091ED0229C080917F03809351
:10100000BB0085EC8093BC0066CF9091A1038091DA
:10101000A003981758F5E091A10381E08E0F80930B
:10102000A103F0E0E058FC4F8081E9CFE091A103FB
:1010300081E08E0F8093A1038091BB00F0E0E05827
:10104000FC4F80839091A1038091A0039817C8F270
:1010500085E8D8CFE091A10381E08E0F8093A103B2
:101060008091BB00F0E0E058FC4F80838091A303A7
:1010700081115ECF81E080937E0384EA8093BC007F
:101080001092A40328CF85EC8093BC001092A40397
:1010900080910F03803230F4E0910F03F0E0E151D2
:1010A000FD4F108260910F0370E08FEE92E0F0E050
:1010B000E0E0099510920F030ECF1092A20338CFF3
:1010C0001F920F920FB60F9211242F933F934F93BD
:1010D0005F936F937F938F939F93AF93BF93EF93A0
:1010E000FF9360E085E00E94510261E086E00E948B
:1010F0005102FF91EF91BF91AF919F918F917F919D
:101100006F915F914F913F912F910F900FBE0F9074
:101110001F9018951F920F920FB60F9211242F93C4
:101120003F934F935F936F937F938F939F93AF936F
:10113000BF93EF93FF9380916E038823B1F181E019
:1011400080935F0380938C0410926E0384E08093FD
:101150006F0383B78E7F83BF8091CB0280937A0029
:1011600010923503109234038091780390917903A3
:10117000A0917A03B0917B038093660390936703F9
:10118000A0936803B0936903109221031092220385
:10119000109223031092240380916F008260809349
:1011A0006F0061E085E10E945102FF91EF91BF91D4
:1011B000AF919F918F917F916F915F914F913F91EF
:1011C0002F910F900FBE0F901F901895CF93DF9324
:1011D000EEECF3E01382128288EE93E0A0E0B0E040
:1011E00084839583A683B7832BE232E03183208307
:1011F00025EC30E03587248724EC30E037872687DC
:1012000020EC30E0318B208B21EC30E0338B228BD3
:1012100022EC30E0358B248B26EC30E0378B268BAC
:10122000118E128E138E148EEBE6F4E0138212826E
:1012300084839583A683B7838DE392E09183808333
:1012400084E690E090937804809377048AE0E1E06C
:10125000F1E0A9E7B4E001900D928A95E1F7C9E7C2
:10126000D4E08AEF90E09B878A8761E085E00E9466
:101270008F0261E086E00E948F0261E080E00E94C0
:101280008F0261E081E00E948F0261E082E00E94B3
:101290008F0261E084E00E948F0261E086E10E949B
:1012A0008F0260E086E10E94510261E085E00E94C9
:1012B000510260E086E00E9451021C861D861E8657
:1012C0001F86188A1C8A1A8A198A1B8A61E08FE095
:1012D0000E948F0261E08EE00E948F0261E088E050
:1012E0000E948F0261E087E0DF91CF910C948F0222
:1012F000CF93DF9300D000D000D0CDB7DEB7789485
:1013000084B5826084BD84B5816084BD85B582600A
:1013100085BD85B5816085BD80916E0081608093BB
:101320006E00109281008091810082608093810024
:101330008091810081608093810080918000816034
:10134000809380008091B10084608093B10080918F
:10135000B00081608093B0008091910082608093A2
:101360009100809191008160809391008091900024
:101370008160809390008091A10082608093A100A1
:101380008091A10081608093A1008091A000816084
:101390008093A00080917A00846080937A0080918D
:1013A0007A00826080937A0080917A008E7F8093A9
:1013B0007A0080917A00806880937A001092C10050
:1013C00060E084E10E948F0280E190E00E94C713F8
:1013D0008093000162E089E00E948F0262E08AE06F
:1013E0000E948F0260E080E10E948F0261E085E14F
:1013F0000E948F0260E085E10E94510283B7817FE5
:10140000846083BF81E00E94A305AAE02A2E312CCC
:101410008FB7F894C0901503D0901603E09017038F
:10142000F09018038FBFC0927803D0927903E092B6
:101430007A03F0927B038091740390917503A091DD
:101440007603B0917703A7019601281B390B4A0B4D
:101450005B0BDA01C901893E9340A105B10580F01B
:101460001092700310927103109272031092730322
:10147000C0927403D0927503E0927603F0927703E2
:1014800080916F03843009F0B3C080912103909163
:101490002203A0912303B0912403A7019601281BE6
:1014A000390B4A0B5B0BDA01C9010B97A105B1059A
:1014B00068F48091210390912203A0912303B091BD
:1014C0002403892B8A2B8B2B09F066C0C092210341
:1014D000D0922203E0922303F092240380E10E9441
:1014E000CB029E838D8380901D0390901E03A0905D
:1014F0001F03B0902003C0901903D0901A03E0900E
:101500001B03F0901C0320E030E040E751E4C501EC
:10151000B4010E944A1487FF42C080916F034D813D
:101520005E81BA0190E080E00E94F714A701960165
:101530000E94DE136B017C01C0921903D0921A0342
:10154000E0921B03F0921C0320E030E040E85FE3F0
:10155000C501B4010E94DE1360931D0370931E0346
:1015600080931F039093200320E030E040E751E494
:101570000E944A14811110C020E030E040E751E49D
:10158000C701B6010E944F146093190370931A03A8
:1015900080931B0390931C030E949E0139CF20E08F
:1015A00030E047E853E4C701B6010E94A9151816B8
:1015B0001CF410926F03F0CF20E030E042E853E4D7
:1015C000C701B6010E94A915181624F481E0809382
:1015D0006F03E2CF20E030E040E753E4C701B601FB
:1015E0000E94A915181614F482E0F1CF83E0EFCF22
:1015F00080916F03833021F480E00E94A305CCCF5B
:1016000080916E03811122C080918C048823F1F0B7
:1016100061E086E10E94510280916F03823021F0E7
:1016200061E082E00E94510210928C04C0926A0331
:10163000D0926B03E0926C03F0926D03C09266034C
:10164000D0926703E0926803F092690380916F0380
:10165000823009F471C38AE00E942802209160035D
:1016600030916103892B41F42F5F3F4F3093610329
:10167000209360031D8209C012161306DCF7109236
:1016800061031092600351E05D8389E00E942802AB
:101690002091620330916303892B41F42F5F3F4F08
:1016A000309363032093620340E008C012161306D0
:1016B000DCF7109263031092620341E080916203B1
:1016C000909163032091600330916103293E334080
:1016D00014F40C94B413893E93400CF48EC025E0AE
:1016E00030E0309365032093640381E080935F03CF
:1016F00081E08093AA0388E68093CC031092AB0329
:101700001092CD0390E080E00E94D5040E94410336
:101710000E94DD026B017C018091A403811193C0C2
:1017200081E08093A4038093A3039FEF9093A2038F
:101730001092A10396E09093A00380937F03809181
:101740007F03806D80937F0380917E03813009F059
:1017500087C110927E030E94DD026B017C018091A3
:101760007F038093BB008091A6039091A703A09173
:10177000A803B091A903892B8A2B8B2BA1F00E947F
:10178000DD020091A6031091A7032091A8033091D8
:10179000A9036C197D098E099F09061717072807E9
:1017A000390708F471C08091BC0083FDD8CF85EC67
:1017B0008093BC000E94DD026B017C018091A40338
:1017C000813009F44FC18091A103873008F06CC1CA
:1017D0008091A103A0E8B3E0E8E3F3E090E098177C
:1017E00009F457C02D9121939F5FF9CF44E050E059
:1017F000509365034093640378CF83E090E0909327
:1018000065038093640371CF80915F03811114C0DD
:101810009D81992309F46CCF80915F03811107C0EA
:1018200021E030E0309365032093640361CF809121
:101830005F03882309F45CCF109265031092640360
:1018400010925F0355CF8091A6039091A703A091BA
:10185000A803B091A903892B8A2B8B2B09F45CCFA9
:101860000E94DD020091A6031091A7032091A80316
:101870003091A9036C197D098E099F090617170776
:101880002807390708F048CF8091A5030E9402037A
:1018900080E010923703809336038BE694E00E9439
:1018A0005F04AC01F4E055954795FA95E1F7477070
:1018B00055276AE0649F9001659F300D11248F7059
:1018C0009927820F931F809358038BE694E00E9420
:1018D0005F04AC0197FF02C0415F5F4F74E0559514
:1018E00047957A95E1F76AE0649F9001659F300D16
:1018F000112460E170E00E944916820F931F8093CB
:1019000059038BE694E00E945F04AC01E4E0559536
:101910004795EA95E1F743705527EAE0E49F900187
:10192000E59F300D11248F709927820F931F8093AC
:101930005A038BE694E00E945F04AC0197FF02C05B
:10194000415F5F4F64E0559547956A95E1F76AE01E
:10195000649F9001659F300D112460E170E00E944A
:101960004916820F931F80935B038BE694E00E94DD
:101970005F04AC0197FF02C0415F5F4F34E05595B3
:1019800047953A95E1F76AE0649F9001659F300DB5
:10199000112460E170E00E944916820F931F80932A
:1019A0005C038BE694E00E945F04AC0197FF02C0E9
:1019B000415F5F4F24E0559547952A95E1F76AE02E
:1019C000649F9001659F300D112460E170E00E94DA
:1019D0004916820F931F80935D038BE694E00E946B
:1019E0005F049C0197FF02C0215F3F4F04E03595E3
:1019F00027950A95E1F74AE0429F6001439FD00C8A
:101A0000112460E170E00E944916C80ED91EC092F0
:101A10005E03E0913403F09135032091640330912B
:101A200065033E832D83E531F10508F05FC0E55E77
:101A3000F24F0C945D16560D020F2E0F4F0F680FCC
:101A400026113C1157118C11AB11E311FE11361206
:101A50005012AA12C51204131E135E13721329101A
:101A600085EEA6CE8091A6039091A703A091A8032E
:101A7000B091A903892B8A2B8B2B09F49FCE0E944E
:101A8000DD020091A6031091A7032091A8033091D5
:101A9000A9036C197D098E099F09061717072807E6
:101AA000390708F08BCEF0CE87E094CE80915A03B0
:101AB000309159032AE0622F0E941B1680938E04F6
:101AC00090938F0481E080939004832F0E941B16D3
:101AD00080939104909392044D815E814130510531
:101AE00009F0B0C1509335034093340380916403EF
:101AF000909165038430910509F01EC645E050E0E1
:101B0000509335034093340380916F03C090780362
:101B1000D0907903E0907A03F0907B038130C9F490
:101B200080916A0390916B03A0916C03B0916D0357
:101B3000A7019601281B390B4A0B5B0BDA01C9017F
:101B4000803D9740A105B10520F480EA92E00E9413
:101B5000BB0088E080938E0480938F0490E2909382
:101B6000900480939104809392040E94DD022B01E3
:101B70003C0163E0862E912CA12CB12C0E94DD0249
:101B80006419750986099709683E734081059105B6
:101B9000A8F341E0841A9108A108B10858EE450E57
:101BA00053E0551E611C711C81149104A104B10401
:101BB00029F780918504823019F483E080938504AD
:101BC0008091860490918704A0918804B091890443
:101BD000B701A601481B590B6A0B7B0B809183044C
:101BE00090918404092E000CAA0BBB0B48175907CF
:101BF0006A077B0720F020918D04222331F021E039
:101C000080919004803209F420E0809185049091C5
:101C10009104903209F09AC5813009F09AC590E09C
:101C2000FC01E758FB4FE589EA3708F097C5F0E07B
:101C3000EE0FFF1FE55FFE4F408151815E834D83B4
:101C4000880F991FFC01E758FB4F808191814D81DE
:101C50005E81482B592B5E834D83222341F0809176
:101C60007D0490917E04482B592B5E834D8361E067
:101C700084E00E94510210E000E08D819E81002EE0
:101C800002C0969587950A94E2F761E080FF60E0D4
:101C900080E00E9451025A985A9A599A59980F5FB7
:101CA0001F4F0C30110549F760E084E00E9451029B
:101CB000209185042F5F2093850480918604909164
:101CC0008704A0918804B0918904B701A601481B3C
:101CD000590B6A0B7B0B8091830490918404880FCD
:101CE000991F092E000CAA0BBB0B84179507A6079A
:101CF000B70740F4C0928604D0928704E09288042B
:101D0000F0928904253011F41092850420E030E02F
:101D100040E85FE3609170037091710380917203FA
:101D2000909173030E94DE136093700370937103AC
:101D3000809372039093730380916F03813021F03D
:101D400080916F03823051F540916A0350916B038B
:101D500060916C0370916D03809178039091790389
:101D6000841B950B803D57E09507C0F46CE271E051
:101D70000E9435168639910508F0F3C461E08FE0C2
:101D80000E94510261E08EE00E94510261E088E011
:101D90000E94510261E087E00E9451024091780365
:101DA0005091790360917A0370917B038091640371
:101DB00090916503892B41F040936603509367032C
:101DC0006093680370936903109265031092640333
:101DD00010928D048091660390916703A09168032F
:101DE000B0916903481B590B6A0B7B0B493A51466A
:101DF0006105710508F4D0CB80916E038111CCCBC5
:101E000081E0FBCB31E030938D0480915D03409104
:101E10005C032AE0622F0E941B1680938E0490932D
:101E20008F0430939004842F0E941B16809391049A
:101E3000909392042D813E812130310519F442E0C6
:101E400050E050CE8D819E81029709F04FCE83E005
:101E500090E0909335038093340348CE80915803EB
:101E600090E290938E0490938F04909390046AE094
:101E70000E941B1680939104909392042D813E81C1
:101E80002130310529F410923503109234032ECEFF
:101E90004D815E814230510509F028CED8CFE091C6
:101EA0005B03E150FF0BEE0FFF1FE150FE4F8081FF
:101EB00091810E94BB008D819E81019721F32D812C
:101EC0003E8144E050E02230310509F00FCE0ACEC9
:101ED0008091780390917903A0917A03B0917B036C
:101EE00040912503509126036091270370912803A8
:101EF0008C019D01041B150B260B370B093E13406B
:101F00002105310520F4452B462B472B69F580939D
:101F1000250390932603A0932703B093280384E11D
:101F20000E94CB02BC01990F880B990B0E94F914F7
:101F300023E333E343E550E40E94AE1520E030E0B4
:101F400040E85AE30E94AE1520E030E040E05FE355
:101F50000E94DD132AE037ED43E25CE30E944F1458
:101F600069837A838B839C8310910001163409F076
:101F70004EC020E030E040E151E469817A818B81FC
:101F80009C810E94AE1520E030E040EA50E40E94BF
:101F90004F1420E030E040E052E40E94DE136B0179
:101FA0007C0120E030E048EC52E40E944F140E9493
:101FB000C81460938E0420E030E040E251E4C70191
:101FC000B6010E944F140E94C114CB01B1010E94BE
:101FD000491680938F0480E280939004C701B60174
:101FE0000E94C114CB01B1010E9449168093910453
:101FF000109392042D813E812130310509F443CFA5
:102000004D815E814230510509F070CD3CCF81E0B9
:1020100080938D0420E030E040E251E469817A81D0
:102020008B819C810E944F140E94C81460938E047F
:1020300069817A818B819C810E94C114CB01B1019D
:102040000E94491680938F0480E2809390048AE274
:10205000CDCFE0902B03F0902C03E0912F03F09173
:10206000300300912D0310912E034091330344233C
:1020700071F180915A0390E08E1B9F0B60E17EE02E
:10208000869F9001879F300D969F300D112480917F
:10209000590390E0801B910B5CE3589FB001599F5E
:1020A000700D1124260F371F8091580390E08E1970
:1020B0009F09280F391FC9016CE370E00E9449167F
:1020C000D62E53E656175CF5B3E6DB2E28C0E11496
:1020D000F10431F40115110519F4309709F471C0B8
:1020E00081E080938D0480E19EE0E89F9001E99F6C
:1020F000300DF89F300D11245CE3509FC001519FBB
:10210000900D1124280F391F2E0D3F1DC9016CE3BE
:1021100070E00E944916D62E63E66D15ACF2C90137
:102120006CE370E00E944916382F2AE08D2D622F53
:102130000E94271680938E0490938F0481E08093F1
:102140009004832F622F0E9427168093910490930E
:1021500092048D819E81019709F495CE2D813E8157
:102160002230310509F0C2CC4423C9F11092330367
:1021700080915C0390E02091310330913203821B07
:10218000930B909332038093310380915A0390E034
:102190008E1B9F0B9093300380932F0380915903E4
:1021A00090E0801B910B90932E0380932D038091E0
:1021B000580390E08E199F0990932C0380932B0372
:1021C00095CC81E080938D0410928E0410928F0440
:1021D000809390041092910410929204BACFEF2849
:1021E00021F5012B11F5EF2B01F581E080933303ED
:1021F0008091580390E090932C0380932B0380915F
:10220000590390E090932E0380932D0380915A03FD
:1022100090E09093300380932F0380915C0390E0D3
:10222000909332038093310361CC10922C0310926F
:102230002B0310922E0310922D0310923003109254
:102240002F03109232031092310350CC80E792E0BA
:102250000E94BB004D815E814130510509F413CECF
:102260008D819E8126E030E0029709F03FCC3093CB
:102270003503209334033ACC86E792E00E94BB00FA
:102280004D815E814130510551F487E090E090939B
:1022900035038093340380915A0390E043C18D81CC
:1022A0009E81029709F022CC88E090E0D2CDE091A7
:1022B0002903F0912A03CF01B1010E9435166093E2
:1022C0008E0480938F0480E2809390048093910425
:1022D000809392042D813E812230310551F4319654
:1022E000E831F10509F454C0F0932A03E09329037F
:1022F000FDCB4D815E814130510509F0F7CBE09077
:102300005D0300915C0320915B034E2F60915903A4
:1023100080E00E94DA04C8CF8CE792E00E94BB0004
:102320008D819E81019749F489E090E09093350377
:102330008093340380915903B0CF2D813E812230A8
:10234000310509F0D3CB30923503209234038FE668
:1023500080939104CBCBE0912903F0912A0380E292
:1023600080938E0480938F0480939004CF01B101F9
:102370000E94351660939104809392044D815E8192
:102380004230510551F43196EC33F10509F0ACCFF0
:1023900010922A0310922903A9CB8D819E81019767
:1023A00009F0A4CBE0905D0300915C0320915B03F6
:1023B00040915A036E2F80E00E94DA043092350378
:1023C0002092340393CB82E892E00E94BB002D81DF
:1023D0003E812130310549F48BE090E09093350344
:1023E0008093340380915B0358CF4D815E814230EE
:1023F000510509F07BCB8CE090E02BCDA090290318
:10240000B0902A038A2D8150990BFC01EE0FFF1F1B
:10241000E150FE4F808191810E94BB002D813E8161
:102420002230310569F43FEFA31AB30A48E0A4163D
:10243000B10409F475C0B0922A03A092290356CBC7
:102440002D813E812130310509F050CBC0905E03D3
:10245000E0905D0300915C032A2D40915A03609146
:102460005903809158030E94DA04C5CF88E892E0AE
:102470000E94BB004D815E814130510549F48DE0E1
:1024800090E0909335038093340380915C0305CFF3
:102490008D819E81029709F029CB8EE090E0D9CC06
:1024A0000091290310912A0380E280938E04809387
:1024B0008F0480939004C801B1010E943516609387
:1024C0009104809392042D813E812230310579F56B
:1024D0000F5F1F4F10932A030093290320915D0380
:1024E000E22FF0E0EE0FFF1FE35FFD4F808191814F
:1024F00001960817190731F441E050E050932A0380
:10250000409329038C2D837009F0F0CA223009F022
:10251000EDCA8091290390912A034D9709F0E6CAEC
:1025200081E090E090932A0380932903DFCA2D81F4
:102530003E812130310509F0D9CAE0905D03209138
:102540005B0340915A0360915903809158030E94A4
:10255000DA04A3CF8EE892E00E94BB004D815E8139
:102560004130510549F48FE090E09093350380931A
:10257000340380915D0391CE2D813E8140E150E096
:102580002230310509F0B2CAADCAE0902903F090BB
:102590002A03C701B1010E94351660938E0480930F
:1025A0008F0480E28093900480939104809392043E
:1025B0008D819E81029799F49FEFE91AF90AEDE067
:1025C000EE16F10429F0F0922A03E09229038ECA54
:1025D00021E030E030932A032093290387CA4D81FC
:1025E0005E814130510509F081CA00915C03209160
:1025F0005B0340915A0360915903809158030E94F4
:10260000DA0480E190E025CC84E992E00E94BB00EE
:102610002D813E812130310549F441E150E0509354
:1026200035034093340380915E0337CE8D819E81C4
:1026300022E130E0029709F059CA19CEC09029036F
:10264000D0902A0382E380938E0480E380938F04EA
:1026500080E280939004C601B1010E943516609318
:102660009104809392044D815E814230510579F44A
:102670005FEFC51AD50A64E6C616D10429F0D092D8
:102680002A03C092290332CA84E190E04BCF2D8106
:102690003E812130310509F029CAE0905D030091A7
:1026A0005C0320915B0340915A0360915903809130
:1026B00058030E94DA0442E150E014CA8AE992E029
:1026C0000E94BB008D819E81019719F423E130E0C7
:1026D000CECD4D815E814230510509F007CA86E0BA
:1026E00090E0B7CB8091000190E290938E0490939C
:1026F0008F04909390049AE29093910480939204B3
:102700002D813E812130310549F446E050E050935F
:102710003503409334030E948205E8C92D813E8130
:102720002230310509F0E2C9833421F486E4809334
:102730000001DCC983E4FBCF039709F0E5C984E11C
:1027400090E09093350380933403DEC9833009F41D
:1027500066CA853008F0ACCA20E061CA1E821D82BC
:102760006FCA0E947F021ACB893E93400CF03EC88C
:10277000442309F44DC880915F03811145C882E06C
:1027800090E090936503809364030C94780BF9991F
:10279000FECF92BD81BDF89A992780B50895262F66
:1027A000F999FECF1FBA92BD81BD20BD0FB6F89436
:1027B000FA9AF99A0FBE019608955058BB27AA2796
:1027C0000E94F5130C946F150E94611538F00E9459
:1027D000681520F039F49F3F19F426F40C945E1527
:1027E0000EF4E095E7FB0C945815E92F0E94801534
:1027F00058F3BA17620773078407950720F079F436
:10280000A6F50C94A2150EF4E0950B2EBA2FA02D70
:102810000B01B90190010C01CA01A0011124FF278D
:10282000591B99F0593F50F4503E68F11A16F04088
:10283000A22F232F342F4427585FF3CF4695379587
:102840002795A795F0405395C9F77EF41F16BA0B4C
:10285000620B730B840BBAF09150A1F0FF0FBB1FFA
:10286000661F771F881FC2F70EC0BA0F621F731F43
:10287000841F48F4879577956795B795F7959E3FA0
:1028800008F0B0CF9395880F08F09927EE0F979531
:10289000879508950E94341508F481E008950E94F8
:1028A00063140C946F150E94681558F00E9461150E
:1028B00040F029F45F3F29F00C94581551110C9405
:1028C000A3150C945E150E94801568F39923B1F34B
:1028D000552391F3951B550BBB27AA276217730746
:1028E000840738F09F5F5F4F220F331F441FAA1FDA
:1028F000A9F335D00E2E3AF0E0E832D09150504096
:10290000E695001CCAF72BD0FE2F29D0660F771F43
:10291000881FBB1F261737074807AB07B0E809F029
:10292000BB0B802DBF01FF2793585F4F3AF09E3FAE
:10293000510578F00C9458150C94A3155F3FE4F3FF
:10294000983ED4F3869577956795B795F7959F5FF1
:10295000C9F7880F911D9695879597F90895E1E03D
:10296000660F771F881FBB1F621773078407BA079C
:1029700020F0621B730B840BBA0BEE1F88F7E095F7
:1029800008950E94C8146894B1110C94A315089579
:102990000E94881588F09F5798F0B92F9927B75152
:1029A000B0F0E1F0660F771F881F991F1AF0BA95F3
:1029B000C9F714C0B13091F00E94A215B1E008959A
:1029C0000C94A215672F782F8827B85F39F0B93F8C
:1029D000CCF3869577956795B395D9F73EF49095A6
:1029E0008095709561957F4F8F4F9F4F0895E89424
:1029F00009C097FB3EF490958095709561957F4F47
:102A00008F4F9F4F9923A9F0F92F96E9BB279395F4
:102A1000F695879577956795B795F111F8CFFAF404
:102A2000BB0F11F460FF1BC06F5F7F4F8F4F9F4F35
:102A300016C0882311F096E911C0772321F09EE893
:102A4000872F762F05C0662371F096E8862F70E0F9
:102A500060E02AF09A95660F771F881FDAF7880FD3
:102A60009695879597F90895990F0008550FAA0B29
:102A7000E0E8FEEF16161706E807F907C0F0121691
:102A80001306E407F50798F0621B730B840B950B94
:102A900039F40A2661F0232B242B252B21F40895E9
:102AA0000A2609F4A140A6958FEF811D811D089586
:102AB00097F99F6780E870E060E008959FEF80ECF1
:102AC000089500240A941616170618060906089594
:102AD00000240A9412161306140605060895092EFA
:102AE0000394000C11F4882352F0BB0F40F4BF2B69
:102AF00011F460FF04C06F5F7F4F8F4F9F4F0895A9
:102B000057FD9058440F551F59F05F3F71F047959E
:102B1000880F97FB991F61F09F3F79F08795089583
:102B2000121613061406551FF2CF4695F1DF08C0A2
:102B3000161617061806991FF1CF869571056105BF
:102B400008940895E894BB2766277727CB0197F967
:102B500008950E94341508F48FEF08950E94C1155E
:102B60000C946F150E94611538F00E94681520F0D2
:102B7000952311F00C9458150C945E1511240C94A7
:102B8000A3150E94801570F3959FC1F3950F50E037
:102B9000551F629FF001729FBB27F00DB11D639F0F
:102BA000AA27F00DB11DAA1F649F6627B00DA11DB5
:102BB000661F829F2227B00DA11D621F739FB00D5B
:102BC000A11D621F839FA00D611D221F749F3327CB
:102BD000A00D611D231F849F600D211D822F762F64
:102BE0006A2F11249F5750409AF0F1F088234AF041
:102BF000EE0FFF1FBB1F661F771F881F91505040AD
:102C0000A9F79E3F510580F00C9458150C94A3151C
:102C10005F3FE4F3983ED4F3869577956795B79533
:102C2000F795E7959F5FC1F7FE2B880F911D96954D
:102C3000879597F90895991B79E004C0991F961715
:102C400008F0961B881F7A95C9F78095089587FB31
:102C5000082E062687FD819567FD61950E941B164B
:102C60000EF4919507FC81950895AA1BBB1B51E1B9
:102C700007C0AA1FBB1FA617B70710F0A61BB70BEC
:102C8000881F991F5A95A9F780959095BC01CD0191
:102C9000089597FB072E16F4009407D077FD09D00E
:102CA0000E94351607FC05D03EF4909581959F4F04
:102CB0000895709561957F4F0895EE0FFF1F059061
:0A2CC000F491E02D0994F894FFCF81
:102CCA0020200002004000000100089D02080215B1
:102CDA00061906880699049D0409029D06990600AC
:102CEA0000000000000000000000000000000000DA
:102CFA0000000000000000000000000000000000CA
:102D0A0000000000000000000000000000000000B9
:102D1A000000000000000000000000000000008128
:102D2A0006000000000000000000009D02080215D5
:102D3A00061906880699049D0409029D069906004B
:102D4A00000000000000000000000000008D069D49
:102D5A0006950000009504850400008C0608020010
:102D6A00000000940009028D029D02850600000001
:102D7A0000990400009C0200001802000088060066
:102D8A000000000000000000000000000000009C9D
:102D9A000414041C069506850400008C0404000033
:102DAA00000000000008040C041C040000000004D9
:102DBA0004990494041C0000001800000098068E70
:102DCA0002A602AC02B202B802BE02C40200001F8E
:102DDA00001D001F001E001F001E001F001F001EF6
:102DEA00001F001E001F00000000002701B501C8D7
:102DFA00007401F900D700EB0000000000A6047976
:102E0A000462054F0472045F0450040D0A004578F9
:102E1A00636565646564206D6178696D756D206EA2
:102E2A00756D626572206F662077726974657300CA
:102E3A00534520742000486F207572004E4E206959
:102E4A006E00646F20555500646F204E4E004E4E42
:102E5A00206F6E005945204172007445206E6E0045
:102E6A004241204C6F00747520452000555520457D
:102E7A00640074682075200046722069200053415E
:0A2E8A00207420005375206E200014
:00000001FF
