:100000000C9491000C94B9000C94B9000C94091153
:100010000C94B9000C94B9000C94B9000C94B9007C
:100020000C94B9000C94B9000C94B9000C94AB106A
:100030000C94B9000C94B9000C94B9000C94B9005C
:100040000C94440F0C94B9000C94120F0C94EC0E09
:100050000C94B9000C94B9000C94B9000C94B9003C
:100060000C94900F0C94B9000C948E0F0C948E0F7E
:100070000C948E0F0C948E0F0C948E0F0C948E0F8C
:100080000C948E0F0C948E0F0C948E0F0C948E0F7C
:100090000C948E0F0C948E0F0C948E0F0C948E0F6C
:1000A0000C948E0F0C948E0F0C948E0F0C948E0F5C
:1000B0000C948E0F00000000240027002A002D0061
:1000C00000000000250028002B002E00000000008A
:1000D0002300260029002C00040404040404040462
:1000E00002020202020203030303030305050505DE
:1000F00001020408102040800102040810200102BF
:100100000408102004080102090C0A08000201007A
:1001100000030407000000000000000000000000D1
:10012000801111241FBECFEFD8E0DEBFCDBF14E099
:10013000A0E0B1E0E4E7F9E302C005900D92A0323F
:10014000B107D9F725E0A0E2B4E001C01D92A73CB9
:10015000B207E1F710E0C1E9D0E004C02197FE0149
:100160000E948D1BC039D107C9F70E9434130C942B
:10017000B81C0C940000FC01538D448D252F30E0F9
:10018000842F90E0821B930B541710F0CF960895A4
:1001900001970895FC01918D828D981761F0A28DD1
:1001A000AE0FBF2FB11D5D968C91928D9F5F9F7397
:1001B000928F90E008958FEF9FEF0895FC01918D4D
:1001C000828D981731F0828DE80FF11D858D90E0BA
:1001D00008958FEF9FEF0895FC01918D228D892F57
:1001E00090E0805C9F4F821B91098F73992708953F
:1001F000FC01A48DA80FB92FB11DA35ABF4F2C919C
:10020000848D90E001968F739927848FA689B78992
:100210002C93A089B1898C91837080648C93938D89
:10022000848D981306C00288F389E02D80818F7D2C
:1002300080830895EF92FF920F931F93CF93DF93E4
:10024000EC0181E0888F9B8D8C8D98131AC0E88912
:10025000F989808185FF15C09FB7F894EE89FF89E1
:100260006083E889F98980818370806480839FBF7F
:1002700081E090E0DF91CF911F910F91FF90EF907F
:100280000895F62E0B8D10E00F5F1F4F0F7311278F
:10029000E02E8C8D8E110CC00FB607FCFACFE889CA
:1002A000F989808185FFF5CFCE010E94F800F1CF5A
:1002B000EB8DEC0FFD2FF11DE35AFF4FF0829FB73E
:1002C000F8940B8FEA89FB8980818062CFCFCF932E
:1002D000DF93EC01888D8823B9F0AA89BB89E8896E
:1002E000F9898C9185FD03C0808186FD0DC00FB614
:1002F00007FCF7CF8C9185FFF2CF808185FFEDCF92
:10030000CE010E94F800E9CFDF91CF91089580E0FF
:1003100095E00E94EC0021E0892B09F420E0822F77
:10032000089580E090E0892B29F00E9487018111D7
:100330000E94000080E090E0892B49F080E090E08E
:10034000892B29F00E94000081110C94000008956F
:10035000AF92BF92CF92DF92EF92FF920F931F93D3
:10036000CF93DF936C017B018B01040F151FEB0111
:100370005E01AE18BF08C017D10759F06991D601C8
:10038000ED91FC910190F081E02DC6010995892B3A
:1003900079F7C501DF91CF911F910F91FF90EF90F9
:1003A000DF90CF90BF90AF90089581508D3008F0CE
:1003B0003DC0E82FF0E0E152FE4F0C948D1BF6019A
:1003C000FA01EC01F20116021602FD010302070216
:1003D0000D02160211021702809180008F77809320
:1003E00080000895809180008F7DF9CF84B58F774C
:1003F00084BD089584B58F7DFBCF8091B0008F7749
:100400008093B00008958091B0008F7DF9CF8091E6
:1004100090008F77809390000895809190008F7D59
:10042000F9CF8091A0008F778093A00008958091EC
:10043000A0008F7DF9CFCF93DF93282F30E0F90113
:10044000E85FFE4F8491F901E051FF4FD491F9012B
:10045000E852FF4FC491CC23A1F081110E94D50135
:10046000EC2FF0E0EE0FFF1FE453FF4FA591B49186
:10047000EC91ED2381E090E009F480E0DF91CF91F1
:10048000089580E090E0FACF1F93CF93DF93282F59
:1004900030E0F901E85FFE4F8491F901E051FF4F30
:1004A000D491F901E852FF4FC491CC23A9F0162F43
:1004B00081110E94D501EC2FF0E0EE0FFF1FE054F8
:1004C000FF4FA591B4918FB7F894EC91111108C02A
:1004D000D095DE23DC938FBFDF91CF911F910895DC
:1004E000DE2BF8CF60E08FE00E94440260E08EE0F7
:1004F0000E94440260E088E00E94440260E087E0DD
:100500000C944402CF93DF9390E0FC01E051FF4F45
:10051000249188529F4FFC0184918823C9F090E078
:10052000880F991FFC01EC54FF4FA591B491FC0179
:10053000E054FF4FC591D49161110DC09FB7F8945D
:100540008C91209582238C938881282328839FBFB8
:10055000DF91CF910895623051F49FB7F8943C91A8
:10056000822F809583238C93E8812E2BEFCF8FB73A
:10057000F894EC912E2B2C938FBFEACF8E50806491
:1005800080937C0080917A00806480937A008091CF
:100590007A0086FDFCCF80917800909179000895D3
:1005A0003FB7F89480916D0490916E04A0916F0410
:1005B000B091700426B5A89B05C02F3F19F0019695
:1005C000A11DB11D3FBFBA2FA92F982F8827BC01AD
:1005D000CD01620F711D811D911D43E0660F771FD4
:1005E000881F991F4A95D1F70895FC017996CB0190
:1005F0000596DB012D91BD012193A817B907C9F715
:1006000008951F93CF93DF93C1E0C09328048823FC
:1006100099F1D091B8001091BA008091BC008A7B0A
:100620008093BC0060E082E10E94440260E083E1CC
:100630000E9444021092CA04C093C9041092A404F8
:1006400061E082E10E94440261E083E10E94440291
:100650008091B9008E7F8093B9008091B9008D7F21
:100660008093B90080E28093B80085E48093BC0059
:100670001093BA00D093B800DF91CF911F910895E5
:10068000CF92DF92EF92FF920F931F93CF93DF935E
:10069000D091F30481E0D13208F09CC0C091F20403
:1006A0000E94D0026B017C018091CA0481116CC050
:1006B00082E08093CA0481E08093C9048FEF809325
:1006C000C8041092C704D093C604A2EDB4E0E6EAD1
:1006D000F4E080E0D8138DC01092A5048091A504A9
:1006E000CC0FC82BC093A5048091A404813009F0DD
:1006F00084C01092A4040E94D0026B017C018091FE
:10070000A5048093BB008091CC049091CD04A0916E
:10071000CE04B091CF04892B8A2B8B2BA1F00E94A1
:10072000D0020091CC041091CD042091CE043091E0
:10073000CF046C197D098E099F0906171707280732
:10074000390708F442C08091BC0083FDD8CF85EC06
:100750008093BC000E94D0026B017C018091CA048E
:10076000823009F44CC08091C8048F3F09F469C0FD
:100770008091C804803209F466C08091C804803337
:1007800009F463C084E026C08091CC049091CD042C
:10079000A091CE04B091CF04892B8A2B8B2B09F426
:1007A00083CF0E94D0020091CC041091CD042091FF
:1007B000CE043091CF046C197D098E099F0906176C
:1007C00017072807390708F06FCF8091CB040E94E4
:1007D000010385E01092D1041092F3041092D0042A
:1007E000DF91CF911F910F91FF90EF90DF90CF900D
:1007F00008959D9191938F5F6DCF85EEA9CF8091E4
:10080000CC049091CD04A091CE04B091CF04892B5B
:100810008A2B8B2B09F4A2CF0E94D0020091CC042A
:100820001091CD042091CE043091CF046C197D0934
:100830008E099F09061717072807390708F08ECF7A
:10084000C4CF80E0C7CF82E0C5CF83E0C3CF209183
:100850004904260F3327331F21323105ECF4209150
:10086000CA04FC0190E080E0243069F082E0089541
:10087000A09149042191AC01475D5B4FA40FB52FB6
:10088000B11D2C930196861798F380914904680F47
:100890006093490480E0089581E008950895E0910F
:1008A000760480917504E81730F4F0E0E958FB4FC6
:1008B000808190E008958FEF9FEF089590917604E6
:1008C000809175042FEF3FEF981748F4E92FF0E07F
:1008D000E958FB4F208130E09F5F90937604C90177
:1008E00008958091750490917604891B990B089561
:1008F000CF92DF92EF92FF920F931F93CF93DF93EC
:100900007C01CB018A012091D004222389F0EB01E4
:100910006B01C40ED51ECC15DD0569F06991D701B8
:10092000ED91FC910190F081E02DC7010995F3CF85
:10093000642F0E942704C801DF91CF911F910F916E
:10094000FF90EF90DF90CF900895CF93DF931F92A9
:10095000CDB7DEB769832091D0042223F9F020912E
:10096000F304203258F021E030E0FC01338322838D
:1009700090E080E00F90DF91CF9108958091D104B5
:10098000E82FF0E0EE52FB4F998190838F5F8093C8
:10099000D1048093F30481E090E0ECCF61E0CE01DC
:1009A00001960E942704F7CF682F84EF94E00C94FF
:1009B000A504CF92DF92EF92FF920F931F93CF93F4
:1009C000DF93C82FD62EF42E122F81E08093D0040F
:1009D00088E68093F2041092D1041092F30490E020
:1009E00080E00E94D4048C2F90E0CAE0D0E0BE01E9
:1009F0000E94791B24E0660F771F2A95E1F7860F86
:100A0000971F0E94D4048D2D90E0BE010E94791B97
:100A100034E0660F771F3A95E1F7860F971F0E9423
:100A2000D4048F2D90E0BE010E94791B44E0660F34
:100A3000771F4A95E1F7860F971F0E94D404812FF4
:100A400090E0BE010E94791B54E0660F771F5A9513
:100A5000E1F7860F971F0E94D404802F90E0BE011B
:100A60000E94791BE4E0660F771FEA95E1F7860F95
:100A7000971F0E94D4048E2D90E0BE010E94791B26
:100A8000F4E0660F771FFA95E1F7860F971F0E9433
:100A9000D4048C2D90E0BE010E94791BA4E0660F67
:100AA000771FAA95E1F7860F971F0E94D404DF9164
:100AB000CF911F910F91FF90EF90DF90CF900C940A
:100AC000400390E080E00895CF93C82F0E94720207
:100AD00060E081E00E94440260E082E00E94440203
:100AE00060E080E00E94440260E084E00E944402F2
:100AF00060E086E10E94440260E085E00E944402DA
:100B000060E086E00E94440260E085E10E944402C9
:100B100081E080939F041092BF051092C00510924F
:100B2000C1051092C2051092B9051092BA05109233
:100B3000BB051092BC05CC2319F18091680081603F
:100B40008093680080916B00846080936B0080913B
:100B50007A008093270410927A0085B7982F9066C8
:100B60008F7D80648093260495BF8091260485BF85
:100B700010926F0083B7816083BF8895CF910895ED
:100B80001092680010926B00E2CF0F931F93CF93E7
:100B9000DF93EC018B0188819981009739F0DC01AA
:100BA000ED91FC910280F381E02D09951983088372
:100BB000F801D383C283DF91CF911F910F910895E4
:100BC000089508950895089508950895089508953D
:100BD000089508950895089508950895089508952D
:100BE00008950895089508950895FC0182819381E0
:100BF000FC01EA59FF4F3081779720E2208331963C
:100C000020833196208331962AE220838D5A9F4F8C
:100C1000FC0130830895FC018281938166E773E0D3
:100C2000C6960C94F502CF92EF920F93CF93DF9379
:100C3000FC01A281B3819A968D919C919B9701961C
:100C40009B969C938E939A97A281B3819A968D914D
:100C50009C919B978436910531F484E190E09B96BA
:100C60009C938E939A970280F381E02DBF01675A7F
:100C70007F4FAF01485A5F4F9F01295A3F4FCF0125
:100C80008A5A9F4FEF01CB5ADF4FDF01AC5ABF4F5B
:100C9000C2A4FB01E080FA010081F9012081FC017E
:100CA000408168818C910E94D904DF91CF910F918E
:100CB000EF90CF900895CF93DF93DC011296ED91E2
:100CC000FC9182A593A5DF01A15BBF4F22E32C938A
:100CD000119620E32C93119620E22C93EF01CE5A2B
:100CE000DF4F6AE070E00E94791B6883ED5AFF4F86
:100CF0008083DF91CF910895FC01828193816CE71D
:100D000073E0C6960C94F502AF92BF92CF92EF9229
:100D10000F93CF93DF93FC01A281B3819A968D91BB
:100D20009C919B9701969B969C938E939A97A281F8
:100D3000B3819A968D919C919B970D9731F481E0A8
:100D400090E09B969C938E939A970280F381E02D7E
:100D5000BF01665A7F4FAF01485A5F4F9F01295A22
:100D60003F4FCF018A5A9F4FEF01CB5ADF4F5F01B0
:100D7000A4E5AA0EB11CDB01CC90E2A4FA0100812B
:100D8000D9012C91FC0140816881D5018C910E9490
:100D9000D904DF91CF910F91EF90CF90BF90AF909A
:100DA0000895CF93DF93DC011296ED91FC9182A51B
:100DB00093A5EF01C15BDF4F6AE070E00E94791BF1
:100DC0006883DF01A05BBF4F8C93119680E28C9308
:100DD00011968C93ED5AFF4F8083DF91CF91089548
:100DE000FC018281938162E873E0C6960C94F5025F
:100DF000AF92BF92CF92EF920F93CF93DF93DC012C
:100E00001296ED91FC91139782A593A5019693A755
:100E100082A71296CD91DC911397FE01E75AFF4FFE
:100E2000E081F0E03896EE0FFF1FEC0FFD1F808190
:100E3000918101962AA53BA52817390721F481E065
:100E400090E09BA78AA71296ED91FC911397EF0172
:100E5000C65ADF4F8881837061F421978881823080
:100E600041F482A593A54D9721F481E090E093A7EA
:100E700082A71296ED91FC91BF01665A7F4FAF0198
:100E8000475A5F4F9F01295A3F4FCF018A5A9F4FC0
:100E9000EF01CB5ADF4F5F01A4E5AA0EB11CDB01C5
:100EA000CC90DA01EC9002A5F9012081DC014C9193
:100EB0006881F50180810E94D904DF91CF910F9163
:100EC000EF90CF90BF90AF900895CF93DF93DC0168
:100ED0001296ED91FC9122A533A5DF01A15BBF4FD6
:100EE00090E29C9311969C9311969C93EF01CE5A9D
:100EF000DF4FC9016AE070E00E94791B6883ED5AF8
:100F0000FF4F8083DF91CF910895FC01828193810F
:100F100068E873E0C6960C94F502AF92BF92CF9248
:100F2000EF920F93CF93DF93FC01A281B3819A9646
:100F30008D919C919B9701969B969C938E939A97EB
:100F4000A281B3819A968D919C919B97089731F4D9
:100F500081E090E09B969C938E939A970280F38118
:100F6000E02DBF01665A7F4FAF01475A5F4F9F0187
:100F7000285A3F4FCF018A5A9F4FEF01CB5ADF4F7C
:100F80005F01A4E5AA0EB11CDB01CC90DA01EC9064
:100F9000D9010C9122A5FC0140816881D5018C9179
:100FA0000E94D904DF91CF910F91EF90CF90BF9025
:100FB000AF900895DC0112968D919C91DC019A9678
:100FC000ED91FC91FF27EE0FFF1FE80FF91F6081E5
:100FD0007181C6960C94F502FC01828193816EE8C2
:100FE00073E0C6960C94F502CF92EF920F93CF93D5
:100FF000DF93FC01A281B3819A968D919C919B977E
:1010000001969B969C938E939A97A281B3819A9610
:101010008D919C919B97CC9721F49B961C921E924C
:101020009A970280F381E02DAF01465A5F4F9F01EE
:10103000275A3F4FCF01885A9F4FEF01C95ADF4FC0
:10104000BF016A5A7F4FDA01CC90D901EC90DC01E4
:101050000C912881DB014C9162A580E00E94D904AB
:10106000DF91CF910F91EF90CF900895CF93DF93C1
:10107000DC011296ED91FC9122A533A5DF01A15B65
:10108000BF4F90E29C9311969C9311969C93EF0115
:10109000CE5ADF4FC9016AE070E00E94791B688375
:1010A000ED5AFF4F8083DF91CF910895FC0182813B
:1010B000938164E973E0C6960C94F502CF92EF92A7
:1010C0000F93CF93DF93FC01A281B3819A968D9108
:1010D0009C919B9701969B969C938E939A97A28145
:1010E000B3819A968D919C919B97489721F49B96FA
:1010F0001C921E929A970280F381E02DAF01465A0E
:101100005F4F9F01275A3F4FCF01885A9F4FEF01F2
:10111000C95ADF4FBF016B5A7F4FDA01CC90D9011A
:10112000EC90DC010C91288142A5FB01608180E0FC
:101130000E94D904DF91CF910F91EF90CF90089545
:10114000CF93DF93DC011296ED91FC9182A593A5DC
:10115000EF01C15BDF4F6AE070E00E94791B68839A
:10116000DF01A05BBF4F8C93119680E28C931196A8
:101170008C93ED5AFF4F8083DF91CF910895FC014E
:10118000828193816AE973E0C6960C94F502FC01B2
:101190008281938160EA73E0C6960C94F502CF9346
:1011A000DF93FC01A281B3819C968C919C9788234C
:1011B000A9F19C961C9282819381DC01A15ABF4FB8
:1011C000885A9F4FEC0188819C91891B8C93828166
:1011D0009381DC01A35ABF4F8A5A9F4FEC0188814B
:1011E0009C91891B8C9382819381DC01A45ABF4F0F
:1011F0008B5A9F4FEC0188819C91891B8C93828133
:101200009381FC01E55AFF4F8C5A9F4FDC018C9172
:101210009081891B8083DF91CF9108959D01255A8C
:101220003F4FE9018881811139C0CD01845A9F4F18
:10123000EC018881811132C0CD01835A9F4FEC01AE
:10124000888181112BC081E09C968C93828193814F
:10125000DC01A55ABF4F8C5A9F4FEC0188818C93BB
:1012600082819381DC01A45ABF4F8B5A9F4FEC01BE
:1012700088818C9382819381DC01A35ABF4F8A5A63
:101280009F4FEC0188818C9382819381FC01E15A0C
:10129000FF4F885A9F4FDC018C91BCCFE901188227
:1012A000A281B381A45ABF4F1C92A281B381A35AD9
:1012B000BF4F1C920280F381E02DE15AFF4F108254
:1012C000AACFAF92BF92CF92DF92EF92FF920F938D
:1012D0001F93CF93DF93DC011296ED91FC91DF0118
:1012E000A55ABF4F2C9111963C9111964C9184A513
:1012F000BF01615B7F4F5B011D976D016E5F7F4F8B
:101300007B018F010E5A1F4FEF01CD5ADF4F88230B
:1013100009F452C016968C91A82FA41BBB0B60E158
:101320007EE0A69FC001A79F900DB69F900D11244F
:10133000DF01AB5ABF4F4C91431B550B3CE3349F2D
:10134000B001359F700D1124860F971FEC5AFF4F87
:101350003081E32FE21BFF0B9F01280F391FC901CA
:101360006CE370E00E94791B462F64360CF043E674
:10137000C9016CE370E00E94791B382F2AE0842FAA
:10138000622F0E94571BD5018C93F601908381E058
:10139000D7018C93832F622F0E94571BF801808303
:1013A0009883DF91CF911F910F91FF90EF90DF9085
:1013B000CF90BF90AF900895E25BFF4F211104C022
:1013C000311102C0442391F081E0808360E17EE02E
:1013D000469FC001479F900D1124FCE33F9F800D65
:1013E000911D1124280F392F311DB9CF81E0808341
:1013F000D5011C92F6011082DB018C93F80110825A
:101400001882CFCF5F926F927F928F929F92AF920E
:10141000BF92CF92DF92EF92FF920F931F93CF93E1
:10142000DF93FC01C281D381FE01EE58FF4F408162
:101430005181628173818E010E591F4FF801C58061
:10144000D680E780F0844A015B018C189D08AE08C5
:10145000BF0880819181B0E0A0E088159905AA05B8
:10146000BB0520F0CD28CE28CF2859F5F8014583BB
:1014700056836783708784E10E94BE02BC01990F86
:10148000880B990B0E94291A23E333E343E550E4C8
:101490000E94DE1A20E030E040E85AE30E94DE1AA3
:1014A00020E030E040E05FE30E940D192AE037EDD4
:1014B00043E25CE30E947F19F801638774878587A4
:1014C0009687F80183849484A584B684FE01EA5942
:1014D000FF4F5080CE01815B9F4F6C0176977F015B
:1014E0008E010F5A1F4F03963C0196E4591253C0C8
:1014F00020E030E040E151E4C501B4010E94DE1A71
:1015000020E030E040EA50E40E947F1920E030E023
:1015100040E052E40E940E194B015C0120E030E0F3
:1015200048EC52E40E947F190E94F119F601608391
:1015300020E030E040E251E4C501B4010E947F198F
:101540000E94F1198AE0C82ED12CCB01B6010E946D
:10155000791BF701808380E2F8018083C501B40123
:101560000E94F119CB01B6010E94791BF30180831F
:10157000CD5ADF4F5882DF91CF911F910F91FF908D
:10158000EF90DF90CF90BF90AF909F908F907F9023
:101590006F905F90089581E0FE01E25BFF4F8083D2
:1015A00020E030E040E251E4C501B4010E947F191F
:1015B0000E94F119F6016083C501B4010E94F1197E
:1015C000CB016AE070E00E94791BF701808380E222
:1015D000F80180838AE2CACFFC0182819381FC01F9
:1015E000E95AFF4FE081F0E0EE0FFF1FE80FF91F0F
:1015F00060817181C6960C94F502FC0122813381D1
:10160000F901EC5AFF4F8081359790E29083319633
:1016100090833196908331966AE00E944B1B8083C1
:101620002D5A3F4FF90190830895FC0122813381A7
:10163000F901E25BFF4F51E050833A96A081319669
:1016400080813A974AE0642F0E944B1B8083319639
:1016500090833196508331968A2F0E944B1B808352
:101660002D5A3F4FF90190830895FC012281338167
:10167000F901EB5AFF4F50813196808137974AE04C
:10168000642F0E944B1B8083319690833196108289
:101690003196852F0E944B1B80832D5A3F4FF901B5
:1016A00090830895CF93DF93FC01C281D38184E0BE
:1016B00090E00E94931B22EF31E0FC0131832083F4
:1016C000BC01CE01DF91CF910C94C505CF93DF9380
:1016D000FC01C281D38184E090E00E94931B22EF41
:1016E00031E0FC0131832083BC01CE01DF91CF9139
:1016F0000C94C505CF93DF93FC01C281D38184E0B4
:1017000090E00E94931B2CE331E0FC0131832083A5
:10171000BC01CE01DF91CF910C94C505CF93DF932F
:10172000FC01C281D38184E090E00E94931B2AE4F3
:1017300031E0FC0131832083BC01CE01DF91CF91E8
:101740000C94C505CF93DF93FC01C281D38184E063
:1017500090E00E94931B2AE431E0FC013183208356
:10176000BC01CE01DF91CF910C94C505CF93DF93DF
:10177000DC011296ED91FC91DF01A65ABF4F2C912E
:1017800030E033A722A7FC01C281D38184E090E03E
:101790000E94931B28E531E0DC012D933C93BC01B2
:1017A000CE01DF91CF910C94C505CF93DF93FC015F
:1017B000C281D38184E090E00E94931B26E631E051
:1017C000FC0131832083BC01CE01DF91CF910C94C9
:1017D000C505CF93DF93FC01C281D38184E090E003
:1017E0000E94931B26E631E0FC0131832083BC017B
:1017F000CE01DF91CF910C94C505CF93DF93DC012F
:101800001296ED91FC91DF01A75ABF4F2C9130E069
:1018100033A722A7FC01C281D38184E090E00E941B
:10182000931B24E731E0DC012D933C93BC01CE01F6
:10183000DF91CF910C94C505CF93DF93FC01C2815A
:10184000D38184E090E00E94931B22E831E0FC0108
:1018500031832083BC01CE01DF91CF910C94C5056B
:10186000CF93DF93FC01C281D38184E090E00E949A
:10187000931B22E831E0FC0131832083BC01CE01BF
:10188000DF91CF910C94C505CF93DF93DC011296C5
:10189000ED91FC91DF01A85ABF4F2C9130E033A7A6
:1018A00022A7FC01C281D38184E090E00E94931BB7
:1018B00020E931E0DC012D933C93BC01CE01DF91A6
:1018C000CF910C94C505CF93DF93FC01C281D381E6
:1018D00084E090E00E94931B2EE931E0FC0131830B
:1018E0002083BC01CE01DF91CF910C94C505CF932D
:1018F000DF93FC01C281D38184E090E00E94931BBE
:101900002EE931E0FC0131832083BC01CE01DF915F
:10191000CF910C94C505CF93DF93DC011296ED9126
:10192000FC91DF01A95ABF4F2C9130E033A722A7C9
:10193000FC01C281D38184E090E00E94931B2CEAD9
:1019400031E0DC012D933C93BC01CE01DF91CF91BE
:101950000C94C505CF93DF93FC01C281D38184E051
:1019600090E00E94931B2AEB31E0FC01318320833D
:10197000BC01CE01DF91CF910C94C505CF93DF93CD
:10198000DC011296ED91FC911397EE5AFF4F2FE672
:1019900020831296CD91DC9184E090E00E94931B0D
:1019A0002AEB31E0FC0131832083BC01CE01DF91C1
:1019B000CF910C94C5050F931F93CF93DF93EC0148
:1019C0000A811B8184E090E00E94931B28EC31E0A7
:1019D000FC0131832083BC01C8010E94C505EA8156
:1019E000FB81DF01AB5ABF4F8C9190E093A782A798
:1019F000DF91CF911F910F910895CF93DF93FC0159
:101A0000C281D38184E090E00E94931B26ED31E0F7
:101A1000FC0131832083BC01CE01DF91CF910C9476
:101A2000C505CF93DF93FC01C281D38184E090E0B0
:101A30000E94931B26ED31E0FC0131832083BC0121
:101A4000CE01DF91CF910C94C505CF93DF93DC01DC
:101A50001296ED91FC91DF01AA5ABF4F2C9130E014
:101A600033A722A7FC01C281D38184E090E00E94C9
:101A7000931B24EE31E0DC012D933C93BC01CE019D
:101A8000DF91CF910C94C505CF93DF93FC01C28108
:101A9000D38184E090E00E94931B22EF31E0FC01AF
:101AA00031832083BC01CE01DF91CF910C94C50519
:101AB000CF93DF93FC01C281D38184E090E00E9448
:101AC000931B2CE633E0FC0131832083BC01CE0163
:101AD000DF91CF910C94C505CF93DF93FC01C281B8
:101AE000D38184E090E00E94931B2CE633E0FC015C
:101AF00031832083BC01CE01DF91CF910C94C505C9
:101B0000CF93DF93FC01C281D38184E090E00E94F7
:101B1000931B2CE633E0FC0131832083BC01CE0112
:101B2000DF91CF910C94C505CF93DF93FC01C28167
:101B3000D38184E090E00E94931B20E032E0FC011E
:101B400031832083BC01CE01DF91CF910C94C50578
:101B5000CF93DF93FC01C281D38184E090E00E94A7
:101B6000931B2CE633E0FC0131832083BC01CE01C2
:101B7000DF91CF910C94C505CF93DF93FC01C28117
:101B8000D38184E090E00E94931B2EE032E0FC01C0
:101B900031832083BC01CE01DF91CF910C94C50528
:101BA000CF93DF93FC01C281D38184E090E00E9457
:101BB000931B2CE633E0FC0131832083BC01CE0172
:101BC000DF91CF910C94C505CF93DF93FC01C281C7
:101BD000D38184E090E00E94931B2EE032E0FC0170
:101BE00031832083BC01CE01DF91CF910C94C505D8
:101BF000CF93DF93FC01C281D38184E090E00E9407
:101C0000931B2CE132E0FC0131832083BC01CE0127
:101C1000DF91CF910C94C505CF93DF93FC01C28176
:101C2000D38184E090E00E94931B2EE032E0FC011F
:101C300031832083BC01CE01DF91CF910C94C50587
:101C4000CF93DF93FC01C281D38184E090E00E94B6
:101C5000931B2AE232E0FC0131832083BC01CE01D8
:101C6000DF91CF910C94C505CF93DF93FC010190D8
:101C70000020E9F73197AF01481B590BBC0180E008
:101C800095E00E94A801EC0142E050E066EA73E0B2
:101C900080E095E00E94A8018C0F9D1FDF91CF91FD
:101CA000089585ED8093BC008091CC049091CD0483
:101CB000A091CE04B091CF040796A11DB11D23E0E1
:101CC000B695A795979587952A95D1F72091BC0051
:101CD00024FD03C01092CA0408954091CC04509191
:101CE000CD046091CE047091CF04452B462B472B39
:101CF00069F30097A105B10541F02AE12A95F1F7B2
:101D000000C00197A109B109E1CF8091CB040C94E7
:101D100001030C942F1C0C942F1C0C942F1C0C945E
:101D20002F1C0C942F1C0C942F1C0C942F1C0C9407
:101D30002F1C0C942F1C0C942F1C0C942F1C0C94F7
:101D40002F1C0C942F1C0C942F1C0C942F1C0C94E7
:101D50002F1C0C942F1C0C942F1C0C942F1C0C94D7
:101D60002F1C0C942F1CDC011296ED91FC91EA596A
:101D7000FF4F2081233419F526E42083DC011296DD
:101D8000ED91FC91EE59FF4F648182819381209106
:101D90002004309121042F5F3F4F30932104209382
:101DA000200440919D0550919E054115510519F063
:101DB0004217530734F489EA93E00C94340E23E479
:101DC000DCCF9C012F5F3F4F213032401CF08BEC69
:101DD00093E0F3CF0C94FF181F920F920FB60F925F
:101DE00011242F933F934F935F936F937F938F9320
:101DF0009F93AF93BF93EF93FF9380E095E00E9492
:101E0000F800FF91EF91BF91AF919F918F917F91DA
:101E10006F915F914F913F912F910F900FBE0F9057
:101E20001F9018951F920F920FB60F9211242F93A7
:101E30008F939F93EF93FF93E0911005F09111051D
:101E40008081E0911605F091170582FD1BC09081FD
:101E5000809119058F5F8F7320911A05821741F0C9
:101E6000E0911905F0E0E050FB4F958F8093190544
:101E7000FF91EF919F918F912F910F900FBE0F9037
:101E80001F9018958081F4CF1F920F920FB60F927A
:101E900011242F933F938F939F93AF93BF93809180
:101EA000710490917204A0917304B0917404309104
:101EB0006C0426E0230F2D3758F50296A11DB11DA5
:101EC00020936C048093710490937204A093730424
:101ED000B093740480916D0490916E04A0916F048E
:101EE000B09170040196A11DB11D80936D04909373
:101EF0006E04A0936F04B0937004BF91AF919F9153
:101F00008F913F912F910F900FBE0F901F901895BA
:101F100029E8230F0396A11DB11DD2CF0C94B9005F
:101F20001F920F920FB60F9211242F933F934F934E
:101F30005F936F937F938F939F93AF93BF93EF9331
:101F4000FF938091B900887F803609F44AC0F0F58C
:101F5000883209F4A5C018F5803109F499C0B8F4A5
:101F6000882309F4F5C0883009F492C0FF91EF91FD
:101F7000BF91AF919F918F917F916F915F914F91A1
:101F80003F912F910F900FBE0F901F9018958831A1
:101F900009F486C0803251F78093C80414C080349D
:101FA00009F49BC040F48033B9F38833F9F6809389
:101FB000C80485ECAEC0803509F483C0883509F4C7
:101FC00094C0883499F60E94510ED0CF883909F414
:101FD0008AC038F5883729F050F4883611F08037F8
:101FE00029F683E08093CA0410926B0455C08838A8
:101FF00009F479C0803919F0803809F0B7CF8091A1
:102000006B04803208F06FC0E0916B0481E08E0FAA
:1020100080936B048091BB00F0E0E55BFB4F808315
:102020003BC0803B39F0D0F4803A09F477C0883A5D
:1020300009F09CCF84E08093CA0410924A04109265
:102040004904F0E0E0E009958091490481110FC056
:1020500081E0809349041092290409C0803C09F46E
:10206000A8CF883C09F4A5CF883B09F07FCFE09149
:102070004A0481E08E0F80934A04F0E0E75DFB4F55
:1020800080818093BB0090914A048091490429C0CB
:102090008091A5048093BB0085EC8093BC0066CF43
:1020A0009091C7048091C604981758F5E091C70431
:1020B00081E08E0F8093C704F0E0EA55FB4F8081EA
:1020C000E9CFE091C70481E08E0F8093C70480912F
:1020D000BB00F0E0EA55FB4F80839091C7048091EC
:1020E000C6049817C8F285E8D8CFE091C70481E00C
:1020F0008E0F8093C7048091BB00F0E0EA55FB4F40
:1021000080838091C90481115ECF81E08093A40413
:1021100084EA8093BC001092CA0428CF85EC809397
:10212000BC001092CA0480916B04803230F4E091BC
:102130006B04F0E0E55BFB4F108260916B0470E094
:102140008BE494E0F0E0E0E0099510926B040ECF90
:102150001092C80438CF1F920F920FB60F9211241D
:102160002F933F934F935F936F937F938F939F939F
:10217000AF93BF93CF93DF93EF93FF93C0919F05EE
:10218000D091A0058FB7F8944091710450917204DA
:1021900060917304709174048FBFC55BDF4F8881B9
:1021A00099819C01285031092230310518F0823183
:1021B00091051CF160E085E00E94440260E086E049
:1021C0000E94440288819981019684319105F1F041
:1021D00099838883FF91EF91DF91CF91BF91AF9168
:1021E0009F918F917F916F915F914F913F912F912F
:1021F0000F900FBE0F901F9018958830910514F422
:1022000061E0D9CF0A970897E8F6FACF19821882C9
:10221000E1CF1F920F920FB60F9211242F933F938D
:102220004F935F936F937F938F939F93AF93BF93DE
:10223000CF93DF93EF93FF9380919F04882309F45A
:102240004CC0E0919F05F091A00581E085ABE35B78
:10225000FF4F808310929F048091AB059091AC0555
:102260009093BE058093BD0583B78E7F83BF809119
:10227000270480937A00C0919F05D091A00584E047
:1022800090E00E94931B2CE633E0FC013183208315
:10229000BC01CE010E94C5058091A0049091A104CB
:1022A000A091A204B091A304809397049093980402
:1022B000A0939904B0939A041092220410922304DC
:1022C000109224041092250480916F008260809304
:1022D0006F0061E085E10E944402FF91EF91DF9180
:1022E000CF91BF91AF919F918F917F916F915F91AE
:1022F0004F913F912F910F900FBE0F901F90189507
:10230000EF92FF920F931F93CF93DF9310920305E9
:102310001092020588EE93E0A0E0B0E080930405FF
:1023200090930505A0930605B093070528E433E0D4
:10233000309301052093000525EC30E030930D0526
:1023400020930C0524EC30E030930F0520930E050C
:1023500020EC30E0309311052093100521EC30E0A3
:10236000309313052093120522EC30E030931505CD
:102370002093140526EC30E03093170520931605C2
:102380001092190510921A0510921B0510921C0547
:1023900004E610E010939E0500939D051092F7044B
:1023A0001092F6048093F8049093F904A093FA0431
:1023B000B093FB048AE593E09093F5048093F404D2
:1023C0008AE090E09093A2058093A1058FE090E0D1
:1023D0009093A4058093A3058EE091E09093A605C9
:1023E0008093A50584E091E09093A8058093A705CC
:1023F00080EF90E09093AA058093A90584E090E097
:102400009093AC058093AB0583E090E09093AE058C
:102410008093AD0582E090E09093B0058093AF0586
:1024200081E090E09093B2058093B1051092B405DD
:102430001092B30560E080E10E9482021092B5051F
:102440001092B6051092B7051092B8051092B90512
:102450001092BA051092BB051092BC051092BE05F1
:102460001092BD051092BF051092C0051092C105D3
:102470001092C20561E08FE00E94820261E08EE06E
:102480000E94820261E088E00E94820261E087E0AF
:102490000E94820284E090E00E94931B7C018CE603
:1024A00093E0F7019183808386E790E00E94931B7D
:1024B000EC01DC011D921D928EE0E6E0F1E001905E
:1024C0000D928A95E1F78AE1E4E1F1E0DE015096B0
:1024D00001900D928A95E1F71BA61AA688EE93E06B
:1024E0009AAB89AB62E089E00E94820262E08AE0F6
:1024F0000E9482021EA61DA618AA1FA61CAA1BAA1D
:102500001DAA8AE0EEE2F1E0DE01D69601900D927E
:102510008A95E1F7FE01E05CFF4F8AEF90E091833E
:10252000808339961183008361E085E00E948202F6
:1025300061E086E00E94820261E080E00E94820207
:1025400061E081E00E94820261E082E00E948202FA
:1025500061E084E00E94820261E086E10E948202E2
:1025600060E086E10E94440261E085E00E9444024E
:1025700060E086E00E944402F8941092800010927D
:102580008100109285001092840086E090E0909384
:102590008900809388008091810088608093810009
:1025A0008091810083608093810080916F008260C0
:1025B00080936F007894FE01EE5BFF4F108235969A
:1025C0001082319610823597108211821282138206
:1025D0003B96108233971182108232961082379682
:1025E000108211821282138214821582168237960B
:1025F00010821182128213821482158216828E0139
:102600000E591F4F88E893E1F8019183808380E1A0
:1026100090E09383828360E084E10E948202F8016B
:102620008281938101968130924024F08BEC93E07B
:102630000E94340EF801158216821782108683E4F8
:1026400084831386148615861686B701CE010E94F0
:10265000C505D093A005C0939F05DF91CF911F9131
:102660000F91FF90EF900895789484B5826084BDB7
:1026700084B5816084BD85B5826085BD85B5816086
:1026800085BD80916E00816080936E001092810004
:1026900080918100826080938100809181008160BF
:1026A0008093810080918000816080938000809180
:1026B000B10084608093B1008091B000816080930C
:1026C000B000809191008260809391008091910090
:1026D0008160809391008091900081608093900050
:1026E0008091A10082608093A1008091A10081600F
:1026F0008093A1008091A00081608093A0008091D0
:102700007A00846080937A0080917A00826080935E
:102710007A0080917A008E7F80937A0080917A008F
:10272000806880937A001092C10061E085E10E9488
:10273000820260E085E10E94440283B7817F846069
:1027400083BF81E00E946405E0E16E2E712C8FB79B
:10275000F894C0907104D0907204E0907304F090EB
:1027600074048FBFC092A004D092A104E092A2048E
:10277000F092A304C0919F05D091A005FE01EE58F0
:10278000FF4FC082D182E282F3828091BD05909199
:10279000BE052091AB053091AC058217930709F077
:1027A000D8C04091B5055091B6056091B7057091BC
:1027B000B80597018601041B150B260B370B80917A
:1027C000A1059091A205B0E0A0E080179107A207B3
:1027D000B30728F0452B462B472B09F067C0C09262
:1027E000B505D092B605E092B705F092B80580E144
:1027F0000E94BE02EC018090B9059090BA05A090AD
:10280000BB05B090BC056091A3057091A40590E054
:1028100080E00E94271A6B017C01AC019B01C5017D
:10282000B4010E947A1987FF44C0BE0190E080E0A5
:102830000E94271A2091BF053091C0054091C10523
:102840005091C2050E940E191B012C012092BF0558
:102850003092C0054092C1055092C20520E030E0A0
:1028600040E85FE3C501B4010E940E194B015C0111
:102870008092B9059092BA05A092BB05B092BC05B2
:10288000AC019B01C701B6010E947A1981110EC0EB
:10289000A5019401C201B1010E947F196093BF0597
:1028A0007093C0058093C1059093C2050E94910169
:1028B0004ECFC090BF05D090C005E090C105F0900C
:1028C000C2056091A5057091A60590E080E00E9488
:1028D000271A9B01AC01C701B6010E94D91A18162C
:1028E0004CF48091B3059091B4059093BE0580930C
:1028F000BD05DCCF6091A7057091A80590E080E050
:102900000E94271A9B01AC01C701B6010E94D91A87
:1029100018162CF48091B1059091B205E6CF609124
:10292000A9057091AA0590E080E00E94271A9B01FA
:10293000AC01C701B6010E94D91A18162CF4809177
:10294000AF059091B005D1CF8091AD059091AE05C6
:10295000CCCF2091AD053091AE058217930721F4BD
:1029600080E00E946405A2CF80919F0481112CC059
:102970008E01035B1F4FD8018C91882329F161E000
:1029800086E10E9444022091BD053091BE058091F0
:10299000AF059091B0052817390721F061E082E07A
:1029A0000E944402F8011082C0929B04D0929C04C1
:1029B000E0929D04F0929E04C0929704D0929804F5
:1029C000E0929904F0929A042091BD053091BE05E1
:1029D0008091AF059091B0052817390709F4D7C247
:1029E0008AE00E941B022DA53EA5892B31F42F5FA2
:1029F0003F4F3EA72DA710E006C012161306DCF7C6
:102A00001EA61DA611E089E00E941B022FA538A971
:102A1000892B31F42F5F3F4F38AB2FA760E006C002
:102A200012161306DCF718AA1FA661E089A99AA955
:102A30002FA538A94DA55EA5841795070CF0D0C326
:102A4000821793070CF089C025E030E03CAB2BAB3C
:102A500081E08DAB81E08093D004F8E6F093F2043E
:102A60001092D1041092F30490E080E00E94D4040C
:102A70000E9440030E94D0026B017C018091CA0435
:102A800081117FC081E08093CA048093C9042FEF35
:102A90002093C8041092C70436E03093C604809394
:102AA000A5048091A504806D8093A5048091A40461
:102AB000813009F0DDC21092A4040E94D0026B01A3
:102AC0007C018091A5048093BB008091CC049091FF
:102AD000CD04A091CE04B091CF04892B8A2B8B2BEF
:102AE000A1F00E94D0020091CC041091CD0420915D
:102AF000CE043091CF046C197D098E099F09061709
:102B000017072807390708F45DC08091BC0083FDD2
:102B1000D8CF85EC8093BC000E94D0026B017C0171
:102B20008091CA04813009F4A5C28091C70487301E
:102B300008F0C2C28091C704A6EAB4E0E7E7F4E077
:102B400090E0981709F443C02D9121939F5FF9CF2E
:102B500044E050E05CAB4BAB7BCF83E090E09CABC0
:102B60008BAB76CF112309F475CF8DA9811105C0E8
:102B7000E1E0F0E0FCABEBAB6DCF1CAA1BAA1DAAF9
:102B800069CF8091CC049091CD04A091CE04B091F6
:102B9000CF04892B8A2B8B2B09F470CF0E94D00293
:102BA0000091CC041091CD042091CE043091CF043B
:102BB0006C197D098E099F09061717072807390721
:102BC00008F05CCF8091CB040E94010380E010925A
:102BD00076048093750484EF94E00E945E04AC0157
:102BE00074E0559547957A95E1F7477055276AE067
:102BF000649F9001659F300D11248F709927820F7B
:102C0000931FFE01EC5AFF4F808384EF94E00E94F3
:102C10005E04FE01EB5AFF4FAC0197FF02C0415F1B
:102C20005F4F34E0559547953A95E1F71AE0149FC8
:102C30009001159F300D1124B3010E94791B820F62
:102C4000931F808384EF94E00E945E04AC0164E0F3
:102C5000559547956A95E1F743705527149F900164
:102C6000159F300D11248F709927820F931FFE013D
:102C7000EA5AFF4F808384EF94E00E945E04FE01D5
:102C8000E95AFF4FAC0197FF02C0415F5F4F24E05C
:102C9000559547952A95E1F76AE0649F9001659FF5
:102CA000300D1124B3010E94791B820F931F808382
:102CB00084EF94E00E945E04FE01E85AFF4FAC01ED
:102CC00097FF02C0415F5F4F04E0559547950A9515
:102CD000E1F76AE0649F9001659F300D1124B30114
:102CE0000E94791B820F931F808384EF94E00E94DF
:102CF0005E04FE01E75AFF4FAC0197FF02C0415F3F
:102D00005F4F14E0559547951A95E1F76AE0649F87
:102D10009001659F300D1124B3010E94791B820F31
:102D2000931F808384EF94E00E945E04C65ADF4FB5
:102D3000AC0197FF02C0415F5F4FB4E055954795E6
:102D4000BA95E1F76AE0649F9001659F300D112408
:102D5000B3010E94791B820F931F8883C0919F0546
:102D6000D091A00588819981DC01ED91FC910480CE
:102D7000F581E02D09958BA99CA98230910509F474
:102D8000BBC108F09BC1019709F4ACC18090A004BD
:102D90009090A104A090A204B090A30400919F057C
:102DA0001091A0052091BD053091BE058091B1051F
:102DB0009091B20528173907D9F480919B0490911E
:102DC0009C04A0919D04B0919E04A5019401281B30
:102DD000390B4A0B5B0BDA01C901803D9740A10515
:102DE000B10530F469E174E0C801C6960E94F502AD
:102DF000780142E4E40EF11CD7018C91823011F489
:102E0000E3E0EC936801F8E4CF0ED11CD6018C917D
:102E100081111C922801B3E44B0E511CF201408138
:102E2000518162817381D501C401841B950BA60B6E
:102E3000B70BAC01BD01180190E4290E311CD10182
:102E40008D919C91092E000CAA0BBB0B48175907BA
:102E50006A077B0720F03B964081442341F041E024
:102E6000F801EF5AFF4F8081803209F440E0F7010A
:102E70002081F801EE5AFF4F8081803209F057C15E
:102E8000213009F057C1822F90E0F801E80FF91FB7
:102E9000E15BFF4FC081211155C1F801E95BFF4F94
:102EA0002081222309F47BC1CA3708F048C1D0E051
:102EB000CC0FDD1FC05BDD4F0990D881C02DC478D9
:102EC000DD2721E0D6012C931082880F991FF8018D
:102ED000E80FF91F86A997A9C82BD92B442329F0FD
:102EE000F80182AD93ADC82BD92B61E084E00E943C
:102EF0004402D12CC12CCE010C2C02C09695879592
:102F00000A94E2F761E080FF60E080E00E94440202
:102F10005A985A9A599A5998FFEFCF1ADF0A2CE01B
:102F2000C216D10441F760E084E00E944402D70158
:102F30008C91F801E95BFF4F9081992319F0982F4C
:102F40009B7F19F08F5FF7018083F201808191816F
:102F5000A281B381B501A401481B590B6A0B7B0BFD
:102F6000D1018D919C91880F991F092E000CAA0BFD
:102F7000BB0B84179507A607B70720F480829182C0
:102F8000A282B382D7018C91853009F41C92809182
:102F9000BD059091BE052091B1053091B205821713
:102FA000930739F02091AF053091B0058217930750
:102FB00051F540919B0450919C0460919D04709147
:102FC0009E048091A0049091A104841B950B803DE8
:102FD000B7E09B07C0F46CE271E00E94651B863984
:102FE000910508F0FAC061E08FE00E94440261E0C0
:102FF0008EE00E94440261E088E00E94440261E0A9
:1030000087E00E944402E0919F05F091A005409165
:10301000A0045091A1046091A2047091A30483A91B
:1030200094A9892B41F0409397045093980460939E
:10303000990470939A0414AA13AAE25BFF4F1082BA
:103040008091970490919804A0919904B0919A046A
:10305000481B590B6A0B7B0B493A514661057105B8
:1030600008F424CC80919F04811120CC81E079CC9C
:1030700085EE50CD8091CC049091CD04A091CE04EA
:10308000B091CF04892B8A2B8B2B09F449CD0E9458
:10309000D0020091CC041091CD042091CE04309147
:1030A000CF046C197D098E099F0906171707280799
:1030B000390708F035CD86CD87E03ECD83309105C8
:1030C00021F1049709F062CEE881F981C281D381B0
:1030D00084E090E00E94931BE6E4F2E0DC01ED93D3
:1030E000FC9320C088819981DC01ED91FC910680E0
:1030F000F781E02D09954ACE88819981DC01ED9117
:10310000FC910084F185E02DF5CFE881F981C28141
:10311000D38184E090E00E94931B28E332E0FC011D
:1031200031832083BC01CE010E94C5052FCE233000
:1031300009F4A9CE253008F0FACE40E0A4CED0E0C4
:10314000C0E0BDCE2430D9F5F801E95BFF4F208106
:10315000222329F1CA37E8F4D0E0CC0FDD1FC05B91
:10316000DD4F0990D881C02DC870D27051E0D601D2
:103170005C931082D801A75BBF4F2D913C911197B2
:10318000121613064CF050832F5F3F4F2D933C9344
:103190009CCED0E0C0E0E8CF1D921C9296CECA37FC
:1031A00058F4D0E0CC0FDD1FC05BDD4F0990D88113
:1031B000C02D21E0208389CED0E0C0E0FACFCA370D
:1031C00048F4D0E0CC0FDD1FC05BDD4F0990D88103
:1031D000C02D7BCED0E0C0E078CE0E94720213CF2B
:1031E000821793070CF4B4CC662309F4BBCC8DA9E9
:1031F0008111C3CCA2E0B0E0BCABABAB2BCC262F93
:10320000F999FECF1FBA92BD81BD20BD0FB6F894CB
:10321000FA9AF99A0FBE019608955058BB27AA272B
:103220000E9425190C949F1A0E94911A38F00E944E
:10323000981A20F039F49F3F19F426F40C948E1A52
:103240000EF4E095E7FB0C94881AE92F0E94B01A5F
:1032500058F3BA17620773078407950720F079F4CB
:10326000A6F50C94D21A0EF4E0950B2EBA2FA02DD1
:103270000B01B90190010C01CA01A0011124FF2723
:10328000591B99F0593F50F4503E68F11A16F0401E
:10329000A22F232F342F4427585FF3CF469537951D
:1032A0002795A795F0405395C9F77EF41F16BA0BE2
:1032B000620B730B840BBAF09150A1F0FF0FBB1F90
:1032C000661F771F881FC2F70EC0BA0F621F731FD9
:1032D000841F48F4879577956795B795F7959E3F36
:1032E00008F0B0CF9395880F08F09927EE0F9795C7
:1032F000879508950E94641A08F481E008950E9459
:1033000093190C949F1A0E94981A58F00E94911ACF
:1033100040F029F45F3F29F00C94881A51110C9465
:10332000D31A0C948E1A0E94B01A68F39923B1F341
:10333000552391F3951B550BBB27AA2762177307DB
:10334000840738F09F5F5F4F220F331F441FAA1F6F
:10335000A9F335D00E2E3AF0E0E832D0915050402B
:10336000E695001CCAF72BD0FE2F29D0660F771FD9
:10337000881FBB1F261737074807AB07B0E809F0BF
:10338000BB0B802DBF01FF2793585F4F3AF09E3F44
:10339000510578F00C94881A0C94D31A5F3FE4F32B
:1033A000983ED4F3869577956795B795F7959F5F87
:1033B000C9F7880F911D9695879597F90895E1E0D3
:1033C000660F771F881FBB1F621773078407BA0732
:1033D00020F0621B730B840BBA0BEE1F88F7E0958D
:1033E00008950E94F8196894B1110C94D31A0895A5
:1033F0000E94B81A88F09F5798F0B92F9927B751B3
:10340000B0F0E1F0660F771F881F991F1AF0BA9588
:10341000C9F714C0B13091F00E94D21AB1E00895FA
:103420000C94D21A672F782F8827B85F39F0B93FEC
:10343000CCF3869577956795B395D9F73EF490953B
:103440008095709561957F4F8F4F9F4F0895E894B9
:1034500009C097FB3EF490958095709561957F4FDC
:103460008F4F9F4F9923A9F0F92F96E9BB2793958A
:10347000F695879577956795B795F111F8CFFAF49A
:10348000BB0F11F460FF1BC06F5F7F4F8F4F9F4FCB
:1034900016C0882311F096E911C0772321F09EE829
:1034A000872F762F05C0662371F096E8862F70E08F
:1034B00060E02AF09A95660F771F881FDAF7880F69
:1034C0009695879597F90895990F0008550FAA0BBF
:1034D000E0E8FEEF16161706E807F907C0F0121627
:1034E0001306E407F50798F0621B730B840B950B2A
:1034F00039F40A2661F0232B242B252B21F408957F
:103500000A2609F4A140A6958FEF811D811D08951B
:1035100097F99F6780E870E060E008959FEF80EC86
:10352000089500240A941616170618060906089529
:1035300000240A9412161306140605060895092E8F
:103540000394000C11F4882352F0BB0F40F4BF2BFE
:1035500011F460FF04C06F5F7F4F8F4F9F4F08953E
:1035600057FD9058440F551F59F05F3F71F0479534
:10357000880F97FB991F61F09F3F79F08795089519
:10358000121613061406551FF2CF4695F1DF08C038
:10359000161617061806991FF1CF86957105610555
:1035A00008940895E894BB2766277727CB0197F9FD
:1035B00008950E94641A08F48FEF08950E94F11A8A
:1035C0000C949F1A0E94911A38F00E94981A20F0C9
:1035D000952311F00C94881A0C948E1A11240C94D3
:1035E000D31A0E94B01A70F3959FC1F3950F50E063
:1035F000551F629FF001729FBB27F00DB11D639FA5
:10360000AA27F00DB11DAA1F649F6627B00DA11D4A
:10361000661F829F2227B00DA11D621F739FB00DF0
:10362000A11D621F839FA00D611D221F749F332760
:10363000A00D611D231F849F600D211D822F762FF9
:103640006A2F11249F5750409AF0F1F088234AF0D6
:10365000EE0FFF1FBB1F661F771F881F9150504042
:10366000A9F79E3F510580F00C94881A0C94D31A48
:103670005F3FE4F3983ED4F3869577956795B795C9
:10368000F795E7959F5FC1F7FE2B880F911D9695E3
:10369000879597F90895991B79E004C0991F9617AB
:1036A00008F0961B881F7A95C9F78095089587FBC7
:1036B000082E062687FD819567FD61950E944B1BAC
:1036C0000EF4919507FC81950895AA1BBB1B51E14F
:1036D00007C0AA1FBB1FA617B70710F0A61BB70B82
:1036E000881F991F5A95A9F780959095BC01CD0127
:1036F000089597FB072E16F4009407D077FD09D0A4
:103700000E94651B07FC05D03EF4909581959F4F64
:103710000895709561957F4F0895EE0FFF1F0590F6
:10372000F491E02D09940F931F93CF93DF93823090
:10373000910510F482E090E0E091C505F091C60596
:1037400030E020E0B0E0A0E0309799F42115310599
:1037500009F44AC0281B390B24303105D8F58A8179
:103760009B816115710589F1FB0193838283FE01C1
:1037700011C0408151810281138148175907E0F03F
:103780004817590799F4109761F012960C93129705
:1037900013961C933296CF01DF91CF911F910F9119
:1037A00008950093C5051093C605F4CF2115310582
:1037B00051F04217530738F0A901DB019A01BD010E
:1037C000DF01F801C1CFEF01F9CF9093C6058093D7
:1037D000C505CDCFFE01E20FF31F819391932250D7
:1037E000310939832883D7CF2091C3053091C4058F
:1037F000232B41F420910201309103013093C40541
:103800002093C3052091000130910101211531055C
:1038100041F42DB73EB74091040150910501241B9E
:10382000350BE091C305F091C405E217F307A0F44E
:103830002E1B3F0B2817390778F0AC014E5F5F4F06
:103840002417350748F04E0F5F1F5093C40540936F
:10385000C305819391939FCFF0E0E0E09CCFCF939D
:10386000DF930097E9F0FC01329713821282A09156
:10387000C505B091C605ED0130E020E01097A1F438
:1038800020813181820F931F2091C3053091C4059F
:103890002817390709F061C0F093C405E093C30508
:1038A000DF91CF910895EA01CE17DF07E8F54A814D
:1038B0005B819E0141155105B1F7E901FB83EA8364
:1038C00049915991C40FD51FEC17FD0761F4808110
:1038D00091810296840F951FE901998388838281E3
:1038E00093819B838A83F0E0E0E012968D919C9116
:1038F00013970097B9F52D913C911197CD01029640
:10390000820F931F2091C3053091C40528173907F2
:1039100039F6309751F51092C6051092C505B0934F
:10392000C405A093C305BCCFD383C283408151811A
:10393000840F951FC817D90761F44E5F5F4F8881C8
:103940009981480F591F518340838A819B819383BA
:1039500082832115310509F0B0CFF093C605E093BD
:10396000C5059ECFFD01DC01C0CF13821282D7CFE7
:04397000F894FFCFF9
:103974000000C70580008203F503FB03010407046C
:103984000D04130400001F001D001F001E001F0073
:103994001E001F001F001E001F001E001F0020002D
:1039A400020040000001000800000000F405B10E10
:1039B400F505520BB30E00000000F305890E0B064B
:1039C4007A0B660B00000000F205AF0E5B068E0B4F
:1039D400130600000000F105AD0E7C06B60BA20B29
:1039E40000000000F005AB0ED106D50B84060000E4
:1039F4000000EF05A90EF006FD0BE90B0000000026
:103A0400EE05A70E65071C0CF80600000000ED0586
:103A1400A50E8507440C300C00000000EC05A30E35
:103A2400DA07630C8D0700000000EB05A10EEC071C
:103A34008B0C770C00000000EA059F0E3608AA0CD8
:103A4400F40700000000E9059D0E5608DB0CBE0CCF
:103A540000000000E8059B0EA008FD0C5E080000B5
:103A64000000E705990EBF08250D110D00000000A8
:103A7400E405930E020A800D800D00000000E305AA
:103A8400910EEC0AA80D940D00000000E2058F0EC3
:103A9400FD0AD00DBC0D00000000E1058D0E150BD4
:103AA400F80DE40D00000000E505950E61096C0DAC
:103AB400CF0800000000E605970EC708580D440D16
:103AC4009D02080215061906880699049D04090238
:103AD4009D069906000000000000000000000000A0
:103AE40000000000000000000000000000000000D2
:103AF40000000000000000000000000000000000C2
:103B040000000000000000000000000000000000B1
:103B14000000000081060000000000000000840096
:103B24009D02080215061906880699049D040902D7
:103B34009D0699060000000000000000000000003F
:103B440000008D069D069500000095048504000084
:103B54008C06080200000000940009028D029D02F8
:103B6400850600000000990400009C020000180271
:103B740000008806000000000000000000000000B3
:103B8400000000009C0414041C0695068504000033
:103B94008C04040000000000000008040C041C0451
:103BA400000000000404990494041C0000001800A0
:103BB40000009806000000001A01A801BB0067017C
:103BC400EC00CA00DE0000000000A50478046105D2
:103BD4004E0471045E044F0400000000E0058B0EE7
:103BE400350B200E0C0E7445206E6E005945204195
:103BF40072004E4E206F6E00646F204E4E00646F54
:103C0400205555004E4E20696E00486F2075720095
:103C14005345207420000D0A00457863656564658A
:103C240064206D6178696D756D206E756D62657265
:103C3400206F662077726974657300417474656DD2
:103C4400707420746F207772697465206F75747353
:103C5400696465206F6620454550524F4D206D655F
:103C64006D6F7279007475204520005555204564A8
:103C7400007468207520004672206920005341209A
:103C84007420005375206E20004241204C6F0000C8
:00000001FF
