:100000000C9491000C94B9000C94B9000C94FD0868
:100010000C94B9000C94B9000C94B9000C94B9007C
:100020000C94B9000C94B9000C94B9000C94AD0870
:100030000C94B9000C94B9000C94B9000C94B9005C
:100040000C9446070C94B9000C9414070C94EE061B
:100050000C94B9000C94B9000C94B9000C94B9003C
:100060000C9492070C94B9000C9490070C94900790
:100070000C9490070C9490070C9490070C949007A4
:100080000C9490070C9490070C9490070C94900794
:100090000C9490070C9490070C9490070C94900784
:1000A0000C9490070C9490070C9490070C94900774
:1000B0000C94900700000000240027002A002D0067
:1000C00000000000250028002B002E00000000008A
:1000D0002300260029002C00040404040404040462
:1000E00002020202020203030303030305050505DE
:1000F00001020408102040800102040810200102BF
:100100000408102004080102090C0A08000201007A
:1001100000030407000000000000000000000000D1
:10012000590911241FBECFEFD8E0DEBFCDBF12E0CA
:10013000A0E0B1E0E2E7FDE202C005900D92A23638
:10014000B107D9F724E0A2E6B2E001C01D92A032C7
:10015000B207E1F710E0C1E9D0E004C02197FE0149
:100160000E94B116C039D107C9F70E9498090C94B2
:10017000B7160C940000FC01538D448D252F30E000
:10018000842F90E0821B930B541710F0CF960895A4
:1001900001970895FC01918D828D981761F0A28DD1
:1001A000AE0FBF2FB11D5D968C91928D9F5F9F7397
:1001B000928F90E008958FEF9FEF0895FC01918D4D
:1001C000828D981731F0828DE80FF11D858D90E0BA
:1001D00008958FEF9FEF0895FC01918D228D892F57
:1001E00090E0805C9F4F821B91098F73992708953F
:1001F000FC01A48DA80FB92FB11DA35ABF4F2C919C
:10020000848D90E001968F739927848FA689B78992
:100210002C93A089B1898C91837080648C93938D89
:10022000848D981306C00288F389E02D80818F7D2C
:1002300080830895EF92FF920F931F93CF93DF93E4
:10024000EC0181E0888F9B8D8C8D98131AC0E88912
:10025000F989808185FF15C09FB7F894EE89FF89E1
:100260006083E889F98980818370806480839FBF7F
:1002700081E090E0DF91CF911F910F91FF90EF907F
:100280000895F62E0B8D10E00F5F1F4F0F7311278F
:10029000E02E8C8D8E110CC00FB607FCFACFE889CA
:1002A000F989808185FFF5CFCE010E94F800F1CF5A
:1002B000EB8DEC0FFD2FF11DE35AFF4FF0829FB73E
:1002C000F8940B8FEA89FB8980818062CFCFCF932E
:1002D000DF93EC01888D8823B9F0AA89BB89E8896E
:1002E000F9898C9185FD03C0808186FD0DC00FB614
:1002F00007FCF7CF8C9185FFF2CF808185FFEDCF92
:10030000CE010E94F800E9CFDF91CF91089585E7F3
:1003100093E00E94EC0021E0892B09F420E0822F79
:10032000089580E090E0892B29F00E9487018111D7
:100330000E94000080E090E0892B49F080E090E08E
:10034000892B29F00E94000081110C94000008956F
:10035000AF92BF92CF92DF92EF92FF920F931F93D3
:10036000CF93DF936C017B018B01040F151FEB0111
:100370005E01AE18BF08C017D10759F06991D601C8
:10038000ED91FC910190F081E02DC6010995892B3A
:1003900079F7C501DF91CF911F910F91FF90EF90F9
:1003A000DF90CF90BF90AF90089581508D3008F0CE
:1003B0003DC0E82FF0E0E152FE4F0C94B116F6017B
:1003C000FA01EC01F20116021602FD010302070216
:1003D0000D02160211021702809180008F77809320
:1003E00080000895809180008F7DF9CF84B58F774C
:1003F00084BD089584B58F7DFBCF8091B0008F7749
:100400008093B00008958091B0008F7DF9CF8091E6
:1004100090008F77809390000895809190008F7D59
:10042000F9CF8091A0008F778093A00008958091EC
:10043000A0008F7DF9CFCF93DF93282F30E0F90113
:10044000E85FFE4F8491F901E051FF4FD491F9012B
:10045000E852FF4FC491CC23A1F081110E94D50135
:10046000EC2FF0E0EE0FFF1FE453FF4FA591B49186
:10047000EC91ED2381E090E009F480E0DF91CF91F1
:10048000089580E090E0FACF1F93CF93DF93282F59
:1004900030E0F901E85FFE4F8491F901E051FF4F30
:1004A000D491F901E852FF4FC491CC23A9F0162F43
:1004B00081110E94D501EC2FF0E0EE0FFF1FE054F8
:1004C000FF4FA591B4918FB7F894EC91111108C02A
:1004D000D095DE23DC938FBFDF91CF911F910895DC
:1004E000DE2BF8CFCF93DF9390E0FC01E051FF4F7C
:1004F000249188529F4FFC0184918823C9F090E099
:10050000880F991FFC01EC54FF4FA591B491FC0199
:10051000E054FF4FC591D49161110DC09FB7F8947D
:100520008C91209582238C938881282328839FBFD8
:10053000DF91CF910895623051F49FB7F8943C91C8
:10054000822F809583238C93E8812E2BEFCF8FB75A
:10055000F894EC912E2B2C938FBFEACF8E508064B1
:1005600080937C0080917A00806480937A008091EF
:100570007A0086FDFCCF80917800909179000895F3
:100580003FB7F8948091AB029091AC02A091AD027C
:10059000B091AE0226B5A89B05C02F3F19F0019679
:1005A000A11DB11D3FBFBA2FA92F982F8827BC01CD
:1005B000CD01620F711D811D911D43E0660F771FF4
:1005C000881F991F4A95D1F708951F93CF93DF9302
:1005D000C1E0C0936602882399F1D091B8001091D0
:1005E000BA008091BC008A7B8093BC0060E082E10D
:1005F0000E94440260E083E10E94440210924B0397
:10060000C0934A031092250361E082E10E944402F4
:1006100061E083E10E9444028091B9008E7F809363
:10062000B9008091B9008D7F8093B90080E28093FA
:10063000B80085E48093BC001093BA00D093B80052
:10064000DF91CF911F9108958F929F92AF92BF92A9
:10065000CF92DF92EF92FF920F931F93CF93DF938E
:10066000D0917403D13208F0D7C0182FC091730312
:100670000E94C0026B017C0180914B0381116BC011
:1006800082E080934B0310934A038FEF80934903DA
:1006900010924803D0934703A3E5B3E0E7E2F3E009
:1006A00080E0D81391C01092260380912603CC0FCE
:1006B000C82BC093260380912503813009F088C0A0
:1006C000109225030E94C0026B017C0180912603D9
:1006D0008093BB0080914D0390914E03A0914F03F6
:1006E000B0915003892B8A2B8B2BA1F00E94C00262
:1006F00000914D0310914E0320914F033091500310
:100700006C197D098E099F090617170728073907F5
:1007100008F442C08091BC0083FDD8CF85EC809363
:10072000BC000E94C0026B017C0180914B038230AF
:1007300009F450C0809149038F3F09F46FC0809144
:100740004903803209F46CC080914903803309F475
:1007500069C084E026C080914D0390914E03A09122
:100760004F03B0915003892B8A2B8B2B09F484CF34
:100770000E94C00280904D0390904E03A0904F03C2
:10078000B09050036C197D098E099F098616970653
:10079000A806B90608F070CF80914C030E94E502CC
:1007A00085E0109252031092740310925103DF916E
:1007B000CF911F910F91FF90EF90DF90CF90BF905E
:1007C000AF909F908F9008959D9191938F5F69CF87
:1007D00085EEA5CF80914D0390914E03A0914F03DC
:1007E000B0915003892B8A2B8B2B09F49ECF0E944A
:1007F000C00200914D0310914E0320914F033091A0
:1008000050036C197D098E099F09061717072807E1
:10081000390708F08ACFC0CF81E0C3CF80E0C1CFD5
:1008200082E0BFCF83E0BDCF20918702260F332720
:10083000331F21323105ECF420914B03FC0190E091
:1008400080E0243069F082E00895A0918702219130
:10085000AC0149595D4FA40FB52FB11D2C930196E2
:10086000861798F380918702680F6093870280E073
:10087000089581E008950895E091E4028091E302F3
:10088000E81730F4F0E0EB51FD4F808190E00895DF
:100890008FEF9FEF08959091E4028091E3022FEF94
:1008A0003FEF981748F4E92FF0E0EB51FD4F20811E
:1008B00030E09F5F9093E402C90108958091E302C4
:1008C0009091E402891B990B0895CF92DF92EF92E9
:1008D000FF920F931F93CF93DF937C01CB018A018B
:1008E00020915103222389F0EB016B01C40ED51E28
:1008F000CC15DD0569F06991D701ED91FC9101906E
:10090000F081E02DC7010995F3CF642F0E941404F4
:10091000C801DF91CF911F910F91FF90EF90DF9071
:10092000CF900895CF93DF931F92CDB7DEB7698341
:10093000209151032223F9F020917403203258F0C2
:1009400021E030E0FC013383228390E080E00F90CF
:10095000DF91CF91089580915203E82FF0E0ED5A96
:10096000FC4F998190838F5F80935203809374032F
:1009700081E090E0ECCF61E0CE0101960E9414048A
:10098000F7CF90E080E00895CF92DF92EF92FF9250
:100990000F931F93CF93DF93D82EF62E142FD22FC1
:1009A00081E08093510388E6809373031092520391
:1009B0001092740360E082E194E00E949204CAE025
:1009C0008D2D6C2F0E946F168295807F682F690F86
:1009D00082E194E00E9492048F2D6C2F0E946F168A
:1009E0008295807F682F690F82E194E00E949204D3
:1009F000812F6C2F0E946F168295807F682F690F60
:100A000082E194E00E9492048D2F6C2F0E946F1659
:100A10008295807F682F690F82E194E00E949204A2
:100A2000802F6C2F0E946F168295807F682F690F30
:100A300082E194E00E9492048E2D6C2F0E946F162A
:100A40008295807F682F690F82E194E00E94920472
:100A50008C2D6C2F0E946F168295807F682F690FF6
:100A600082E194E00E94920481E0DF91CF911F9196
:100A70000F91FF90EF90DF90CF900C942403815062
:100A80008730D8F4E82FF0E0E85BFA4F0C94B11609
:100A90004F055E056B05780583058E0599058EE487
:100AA0008093D3028093D40280E28093D5028FE6B4
:100AB0008093D6028EE68093D702089584E78093D0
:100AC000D30285E78093D40280E28093D50295E437
:100AD0009093D602F0CF85E58093D3028093D40221
:100AE00080E28093D50285E48093D60284E6E3CF4A
:100AF00084E78093D30288E68093D40280E28093D7
:100B0000D50295E7E5CF86E48093D30282E7809310
:100B1000D40280E28093D50299E6DACF83E780930E
:100B2000D30281E48093D40280E28093D50294E7DB
:100B3000CFCF83E58093D30285E78093D40280E210
:100B40008093D5029EE6C4CFCF93DF93FC01019042
:100B50000020E9F73197AF01481B590BBC0185E72D
:100B600093E00E94A801EC0142E050E06DE372E0E6
:100B700085E793E00E94A8018C0F9D1FDF91CF9124
:100B8000089520912303309124032F5F3F4F30932A
:100B900024032093230340911E0450911F04411508
:100BA000510519F04217530734F480E492E00E9493
:100BB000A40580E00895682F80E190E00E9423144E
:100BC00081E00895CF92EF920F93CF93C82FE091D9
:100BD000E102F091E2023797ED30F10500F5ED50BA
:100BE000FA4F0C94B11600060F067B060F06880616
:100BF0000F0697060F06A0060F06A7060F06AC06FF
:100C0000C0900B03E0900A030091090320910803B0
:100C10004091D1026091060380E00E94C40460E02C
:100C20008FE00E94440260E08EE00E94440260E097
:100C300088E00E94440260E087E00E94440260E095
:100C400081E00E94440260E082E00E94440260E091
:100C500080E00E94440260E084E00E94440260E080
:100C600086E10E94440260E085E00E94440260E068
:100C700086E00E94440260E085E10E94440281E037
:100C800080931D031092B3021092B4021092B50229
:100C90001092B6021092B7021092B8021092B902E6
:100CA0001092BA02CC2309F45CC080916800816084
:100CB0008093680080916B00846080936B008091CA
:100CC0007A008093630210927A0085B7982F90661D
:100CD0008F7D80648093620295BF8091620285BFA0
:100CE00010926F0083B7816083BF8895CF910F9179
:100CF000EF90CF900895C0900B03E0900A0300910D
:100D0000090320910803409107036091D10284CF29
:100D1000C0900B03E0900A03009109032091D102D7
:100D200040910703609106038091050376CFC09040
:100D30000B03E0900A030091D10220910803F0CF49
:100D4000C0900B03E090D10200910903F6CFC09050
:100D5000D102E0900A03F8CF809100010E94C10502
:100D60005ECF1092680010926B00A9CF85ED809342
:100D7000BC0080914D0390914E03A0914F03B09120
:100D800050030796A11DB11D23E0B695A795979531
:100D900087952A95D1F72091BC0024FD03C01092BD
:100DA0004B03089540914D0350914E0360914F03C2
:100DB00070915003452B462B472B69F30097A105F3
:100DC000B10541F02AE12A95F1F700C00197A10988
:100DD000B109E1CF80914C030C94E5021F920F9270
:100DE0000FB60F9211242F933F934F935F936F93FE
:100DF0007F938F939F93AF93BF93EF93FF9385E779
:100E000093E00E94F800FF91EF91BF91AF919F9105
:100E10008F917F916F915F914F913F912F910F90A3
:100E20000FBE0F901F9018951F920F920FB60F9242
:100E300011242F938F939F93EF93FF93E09185035A
:100E4000F09186038081E0918B03F0918C0382FD09
:100E50001BC0908180918E038F5F8F7320918F03D1
:100E6000821741F0E0918E03F0E0EB58FC4F958F34
:100E700080938E03FF91EF919F918F912F910F900F
:100E80000FBE0F901F9018958081F4CF1F920F9284
:100E90000FB60F9211242F933F938F939F93AF938D
:100EA000BF938091AF029091B002A091B102B09136
:100EB000B2023091AA0226E0230F2D3758F5029690
:100EC000A11DB11D2093AA028093AF029093B0029E
:100ED000A093B102B093B2028091AB029091AC02A8
:100EE000A091AD02B091AE020196A11DB11D8093FB
:100EF000AB029093AC02A093AD02B093AE02BF914F
:100F0000AF919F918F913F912F910F900FBE0F90B6
:100F10001F90189529E8230F0396A11DB11DD2CF6C
:100F20000C94B9001F920F920FB60F9211242F93B9
:100F30003F934F935F936F937F938F939F93AF9361
:100F4000BF93EF93FF938091B900887F803609F4B7
:100F50004AC0F0F5883209F4A5C018F5803109F4CB
:100F600099C0B8F4882309F4F5C0883009F492C018
:100F7000FF91EF91BF91AF919F918F917F916F9171
:100F80005F914F913F912F910F900FBE0F901F9047
:100F90001895883109F486C0803251F7809349034F
:100FA00014C0803409F49BC040F48033B9F3883313
:100FB000F9F68093490385ECAEC0803509F483C00F
:100FC000883509F494C0883499F60E94B606D0CFCB
:100FD000883909F48AC038F5883729F050F4883602
:100FE00011F0803729F683E080934B031092A90219
:100FF00055C0883809F479C0803919F0803809F073
:10100000B7CF8091A902803208F06FC0E091A902A9
:1010100081E08E0F8093A9028091BB00F0E0E7573A
:10102000FD4F80833BC0803B39F0D0F4803A09F417
:1010300077C0883A09F09CCF84E080934B031092EC
:10104000880210928702F0E0E0E009958091870223
:1010500081110FC081E0809387021092670209C05E
:10106000803C09F4A8CF883C09F4A5CF883B09F05F
:101070007FCFE091880281E08E0F80938802F0E0BC
:10108000E959FD4F80818093BB0090918802809147
:10109000870229C0809126038093BB0085EC809352
:1010A000BC0066CF9091480380914703981758F58C
:1010B000E091480381E08E0F80934803F0E0E95D02
:1010C000FC4F8081E9CFE091480381E08E0F80934F
:1010D00048038091BB00F0E0E95DFC4F8083909174
:1010E0004803809147039817C8F285E8D8CFE0916C
:1010F000480381E08E0F809348038091BB00F0E0AD
:10110000E95DFC4F808380914A0381115ECF81E0CD
:101110008093250384EA8093BC0010924B0328CF70
:1011200085EC8093BC0010924B038091A902803221
:1011300030F4E091A902F0E0E757FD4F1082609192
:10114000A90270E089E892E0F0E0E0E009951092F1
:10115000A9020ECF1092490338CF1F920F920FB6FB
:101160000F9211242F933F934F935F936F937F932D
:101170008F939F93AF93BF93CF93DF93EF93FF939F
:10118000C0916402D0916502CE010497069718F0D1
:10119000CE30D1051CF160E085E00E94440260E0A1
:1011A00086E00E9444022196C431D10509F1D09312
:1011B0006502C0936402FF91EF91DF91CF91BF91DF
:1011C000AF919F918F917F916F915F914F913F91DF
:1011D0002F910F900FBE0F901F901895C430D1051E
:1011E00014F461E0D9CFCE010A970497E0F6F9CF65
:1011F0001092650210926402DECF1F920F920FB61A
:101200000F9211242F933F934F935F936F937F938C
:101210008F939F93AF93BF93EF93FF9380911D03A1
:101220008823B1F181E080930C0380931C0310921A
:101230001D0384E080931E0383B78E7F83BF80915C
:10124000630280937A001092E2021092E102809190
:101250001F0390912003A0912103B091220380935A
:10126000140390931503A0931603B09317031092E1
:10127000BB021092BC021092BD021092BE0280917D
:101280006F00826080936F0061E085E10E944402FC
:10129000FF91EF91BF91AF919F918F917F916F914E
:1012A0005F914F913F912F910F900FBE0F901F9024
:1012B0001895E5E7F3E01382128288EE93E0A0E050
:1012C000B0E084839583A683B7832DE132E0318338
:1012D000208325EC30E03587248724EC30E0378705
:1012E000268720EC30E0318B208B21EC30E0338BF3
:1012F000228B22EC30E0358B248B26EC30E0378BD0
:10130000268B118E128E138E148EE2E1F4E013827E
:10131000128284839583A683B7838FE292E09183C0
:10132000808384E690E090931F0480931E040895C8
:10133000789484B5826084BD84B5816084BD85B5B0
:10134000826085BD85B5816085BD80916E008160BC
:1013500080936E0010928100809181008260809362
:101360008100809181008160809381008091800064
:101370008160809380008091B10084608093B1008F
:101380008091B00081608093B00080919100826074
:101390008093910080919100816080939100809171
:1013A00090008160809390008091A1008260809382
:1013B000A1008091A10081608093A1008091A00094
:1013C00081608093A00080917A00846080937A008D
:1013D00080917A00826080937A0080917A008E7F7B
:1013E00080937A0080917A00806880937A001092CE
:1013F000C10060E084E10E94720280E190E00E94FE
:101400001B148093000162E089E00E94720262E096
:101410008AE00E94720260E080E10E94720261E054
:101420008FE00E94720261E08EE00E94720261E031
:1014300088E00E94720261E087E00E94720261E02F
:1014400086E10E94720260E086E10E94440261E04F
:1014500085E00E94720261E086E00E94720261E013
:1014600080E00E94720261E081E00E94720261E00D
:1014700082E00E94720261E084E00E94720260E0F9
:1014800080E10E94720261E085E10E94720260E0E8
:1014900085E10E944402F89410928000109281002D
:1014A000109285001092840080E190E09093890072
:1014B0008093880080918100886080938100809172
:1014C000810084608093810080916F0082608093AE
:1014D0006F00789483B7817F846083BF81E00E942E
:1014E000E205EAE02E2E312C8FB7F894C090AF02BF
:1014F000D090B002E090B102F090B2028FBFC092E3
:101500001F03D0922003E0922103F09222038091E6
:101510001E03843009F0B0C08091BB029091BC02E0
:10152000A091BD02B091BE02A7019601281B390B04
:101530004A0B5B0BDA01C9010B97A105B10568F4F1
:101540008091BB029091BC02A091BD02B091BE02FD
:10155000892B8A2B8B2B09F063C0C092BB02D092DF
:10156000BC02E092BD02F092BE0280E10E94AE0297
:10157000EC01C090B702D090B802E090B902F090B0
:10158000BA028090B3029090B402A090B502B090DD
:10159000B60220E030E040E751E4C701B6010E9406
:1015A0009E1487FF40C080911E03BE0190E080E042
:1015B0000E944B15A50194010E9432144B015C015D
:1015C0008092B3029092B402A092B502B092B60299
:1015D00020E030E040E85FE3C701B6010E9432142A
:1015E0006093B7027093B8028093B9029093BA02E5
:1015F00020E030E040E751E40E949E14811110C0C9
:1016000020E030E040E751E4C501B4010E94A3149A
:101610006093B3027093B4028093B5029093B602C4
:101620000E94910161CF20E030E047E953E4C50119
:10163000B4010E94FD1518161CF410921E03F0CF81
:1016400020E030E849E853E4C501B4010E94FD15EB
:10165000181624F481E080931E03E2CF20E030E0EE
:101660004BE753E4C501B4010E94FD15181614F4AC
:1016700082E0F1CF83E0EFCF80911E03833021F42D
:1016800080E00E94E205CCCF80911D03811122C031
:1016900080911C038823F1F061E086E10E944402FE
:1016A00080911E03823021F061E082E00E944402BA
:1016B00010921C03C0921803D0921903E0921A03EF
:1016C000F0921B03C0921403D0921503E09216030C
:1016D000F092170380911E03823009F4B9C78AE0A3
:1016E0000E941B0220910D0330910E03892B41F4BF
:1016F0002F5F3F4F30930E0320930D03C0E008C0CF
:1017000012161306DCF710920E0310920D03C1E0BF
:1017100089E00E941B0220910F0330911003892B56
:1017200041F42F5F3F4F3093100320930F0340E0AD
:1017300008C012161306DCF71092100310920F0364
:1017400041E080910F039091100320910D0330919F
:101750000E03293E334014F40C940714893E934041
:101760000CF492C075E0C72ED12CD0921303C09216
:10177000120381E080930C0381E08093510388E69B
:1017800080937303109252031092740360E082E11D
:1017900094E00E94920481E00E9424030E94C0020F
:1017A0006B017C0180914B03811193C081E0809398
:1017B0004B0380934A039FEF909349031092480391
:1017C00096E0909347038093260380912603806DD3
:1017D0008093260380912503813009F026C1109261
:1017E00025030E94C0026B017C0180912603809337
:1017F000BB0080914D0390914E03A0914F03B09197
:101800005003892B8A2B8B2BA1F00E94C0020091E0
:101810004D0310914E0320914F03309150036C19EA
:101820007D098E099F09061717072807390708F44D
:1018300071C08091BC0083FDD8CF85EC8093BC0043
:101840000E94C0026B017C0180914B03813009F43E
:10185000EEC080914803873008F00BC180914803A7
:10186000E7E2F3E0A5EEB2E090E0981709F457C084
:1018700021912D939F5FF9CF64E0E62EF12CF09239
:101880001303E092120375CF83E090E0909313036B
:10189000809312036ECF80910C03811113C0CC236F
:1018A00009F46ACF80910C03811107C041E050E038
:1018B00050931303409312035FCF80910C0388234E
:1018C00009F45ACF109213031092120310920C03D2
:1018D00053CF80914D0390914E03A0914F03B0914F
:1018E0005003892B8A2B8B2B09F45CCF0E94C002FA
:1018F00000914D0310914E0320914F0330915003FE
:101900006C197D098E099F090617170728073907E3
:1019100008F048CF80914C030E94E50280E01092CD
:10192000E4028093E30282E194E00E944B04982F4A
:1019300092959770CAE08F709C9F800D11248093C0
:10194000050382E194E00E944B04982F92959F70CA
:101950008F709C9F800D11248093060382E194E098
:101960000E944B04982F929593708F709C9F800DCE
:1019700011248093070382E194E00E944B04982F86
:1019800092959F708F709C9F800D11248093080307
:1019900082E194E00E944B04982F92959F708F7083
:1019A0009C9F800D11248093090382E194E00E94A2
:1019B0004B04982F92959F708F709C9F800D1124DF
:1019C00080930A0382E194E00E944B04982F929541
:1019D0009F708F70C82E9C9FC00C1124C0920B0367
:1019E000E091E102F091E202C0911203D091130361
:1019F000E531F10508F05DC0E050F34F0C94B116ED
:101A00003B0D3E0E600E7E0E8F0E3E105B10811061
:101A1000B110D6100A112A1154117411C511EA110E
:101A200025124A1280129B12430F85EE07CF809138
:101A30004D0390914E03A0914F03B0915003892B19
:101A40008A2B8B2B09F400CF0E94C00200914D031A
:101A500010914E0320914F03309150036C197D0972
:101A60008E099F09061717072807390708F0ECCEDB
:101A700051CF87E0F5CE80910703309106032AE02D
:101A8000622F0E946F168093D3029093D40281E05C
:101A90008093D502832F0E946F168093D602909375
:101AA000D702C130D10509F023C1D093E202C0931F
:101AB000E10280911203909113038430910509F0A3
:101AC00060C525E030E03093E2022093E10280918E
:101AD0001E03C0901F03D0902003E0902103F090DC
:101AE0002203813021F58091180390911903A09170
:101AF0001A03B0911B03A7019601281B390B4A0B4F
:101B00005B0BDA01C901803D9740A105B10578F46E
:101B100082E48093D30281E48093D40280E28093B4
:101B2000D5028CE48093D6028FE68093D702809111
:101B3000C9029091CA02A091CB02B091CC02B70128
:101B4000A601481B590B6A0B7B0B493E53406105AC
:101B5000710520F4892B8A2B8B2B91F4C092C9023A
:101B6000D092CA02E092CB02F092CC0285E10E94B0
:101B7000AE028436910508F00EC588EC8093C80249
:101B80008091C702823019F483E08093C70280916C
:101B9000C3029091C402A091C502B091C602C81AB6
:101BA000D90AEA0AFB0AFAEFCF16D104E104F104DC
:101BB00020F010911103112331F011E08091D50232
:101BC000803209F410E0C091C7028091D6028032C1
:101BD00009F0E9C4C13009F0E9C4D0E0FE01ED52DA
:101BE000FD4F00810E94C0026B017C0190E080E00B
:101BF0000A3740F4E02FF0E0EE0FFF1FE55FFE4FE5
:101C000080819181CC0FDD1FCF5FDE4F0990D8819D
:101C1000C02DC82BD92B1111C06461E084E00E9453
:101C20004402C092BF02D092C002E092C102F09280
:101C3000C20210E000E0CE01002E02C0969587950A
:101C40000A94E2F761E080FF60E080E00E944402D5
:101C50005A985A9A599A59980F5F1F4F0C3011058C
:101C600051F7C091C80261E084E00E947202C11184
:101C7000A1C460E084E00E944402BAC431E0309321
:101C8000110380910A03409109032AE0622F0E9408
:101C90006F168093D3029093D4023093D502842F91
:101CA0000E946F168093D6029093D702C130D1055F
:101CB000F9F482E090E09093E2028093E102F9CEA1
:101CC0008091050390E29093D3029093D402909375
:101CD000D5026AE00E946F168093D6029093D702D5
:101CE000C130D10529F41092E2021092E102E1CE56
:101CF00083E090E0229709F0DCCEDDCF80910803ED
:101D00000E943F05C130D10571F3E4E0F0E0229775
:101D100009F0CFCEF093E202E093E102CACE8091C7
:101D20001F0390912003A0912103B09122034091C1
:101D3000CD025091CE026091CF027091D0028C0101
:101D40009D01041B150B260B370B093E1340210583
:101D5000310520F4452B462B472B59F58093CD02B6
:101D60009093CE02A093CF02B093D00284E10E9460
:101D7000AE02BC01990F880B990B0E944D1523E30D
:101D800033E343E550E40E94021620E030E040E8EF
:101D90005AE30E94021620E030E040E05FE30E9438
:101DA00031142AE037ED43E25CE30E94A3142B01D7
:101DB0003C0110910001163409F047C020E030E0EA
:101DC00040E151E4C301B2010E94021620E030E07C
:101DD00040EA50E40E94A31420E030E040E052E4E6
:101DE0000E9432146B017C0120E030E048EC52E4A8
:101DF0000E94A3140E941C156093D30220E030E0DF
:101E000040E251E4C701B6010E94A3140E941515D7
:101E1000CB01B1010E949D168093D40280E2809391
:101E2000D502C701B6010E941515CB01B1010E9470
:101E30009D168093D6021093D702C130D10509F4C4
:101E400052CF229709F035CE4ECF81E08093110317
:101E500020E030E040E251E4C301B2010E94A3144B
:101E60000E941C156093D302C301B2010E94151594
:101E7000CB01B1010E949D168093D40280E2809331
:101E8000D5028AE2D6CF0091D8021091D902E09112
:101E9000DC02F091DD02A090DA02B090DB0240910A
:101EA000E002442379F18091070390E08E1B9F0BA1
:101EB00060E17EE0869F9001879F300D969F300DF8
:101EC00011248091060390E08A199B095CE3589FD6
:101ED000B001599F700D1124260F371F8091050303
:101EE00090E0801B910B280F391FC9016CE370E053
:101EF0000E949D16F62E53E6C52EC61664F583E69F
:101F0000F82E29C00115110531F4A114B10419F4FA
:101F1000309709F46EC081E08093110380E19EE068
:101F2000E89F9001E99F300DF89F300D11245CE38C
:101F30005A9DC0015B9D900D1124280F391F200F61
:101F4000311FC9016CE370E00E949D16F62E93E6E6
:101F5000D92ED616A4F2C9016CE370E00E949D163A
:101F6000382F2AE08F2D622F0E947B168093D30298
:101F70009093D40281E08093D502832F622F0E9438
:101F80007B168093D6029093D702C130D10509F415
:101F9000AACE229709F08DCD4423C9F11092E00218
:101FA0008091090390E02091DE023091DF02821BD4
:101FB000930B9093DF028093DE028091070390E001
:101FC0008E1B9F0B9093DD028093DC0280910603B1
:101FD00090E08A199B099093DB028093DA0280914A
:101FE000050390E0801B910B9093D9028093D80257
:101FF00060CD81E0809311031092D3021092D4023D
:102000008093D5021092D6021092D702BECF012B38
:1020100021F5AB2811F5EF2B01F581E08093E0026B
:102020008091050390E09093D9028093D80280912B
:10203000060390E09093DB028093DA02809107031D
:1020400090E09093DD028093DC028091090390E0A0
:102050009093DF028093DE022CCD1092D902109271
:10206000D8021092DB021092DA021092DD02109276
:10207000DC021092DF021092DE021BCD83E580931A
:10208000D30285E48093D40280E28093D50294E762
:102090009093D6028093D702C130D10509F423CEA4
:1020A000229709F006CDB6E0EB2EF12CF092E20279
:1020B000E092E102FECC88E48093D3028FE6809325
:1020C000D40280E28093D50285E78093D60282E72E
:1020D0008093D702C130D10571F487E090E09093EE
:1020E000E2028093E1028091070390E09093D20294
:1020F0008093D102DECC229709F0DBCC88E090E01F
:10210000DACDE091D102F091D202CF01B1010E946B
:1021100089166093D3028093D40280E28093D50223
:102120008093D6028093D702C230D10551F4319604
:10213000E831F10509F455C0F093D202E093D102E1
:10214000B8CC219709F0B5CCE0900A0300910903BF
:10215000209108034E2F6091060380E00E94C40482
:10216000CDCF8EE48093D3028093D40280E280931B
:10217000D50289E68093D6028EE68093D702C130DD
:10218000D10549F489E090E09093E2028093E10266
:1021900080910603AACF229709F08BCC3092E202FD
:1021A0002092E1028FE68093D60283CC80E2809376
:1021B000D3028093D4028093D502E091D102F091B2
:1021C000D202CF01B1010E9489166093D60280939A
:1021D000D702C230D10551F43196EC33F10509F044
:1021E000ABCF1092D2021092D10263CC219709F0AA
:1021F00060CCE0900A03009109032091080340910C
:1022000007036E2F80E00E94C4043092E202209205
:10221000E1024FCC84E68093D3028FE68093D40210
:1022200080E28093D50285E58093D6028093D70221
:10223000C130D10549F48BE090E09093E2028093A5
:10224000E1028091080351CF229709F032CC8CE053
:1022500090E031CDA090D102B090D2028A2D0E94A0
:102260003F05C230D10569F42FEFA21AB20A38E057
:10227000A316B10409F4D0C0B092D202A092D10248
:1022800018CC219709F015CCC0900B03E0900A03FD
:10229000009109032A2D4091070360910603809164
:1022A00005030E94C404D3CF84E68093D3028FE653
:1022B0008093D40280E28093D5028EE48093D6028C
:1022C0008093D702C130D10549F48DE090E090931E
:1022D000E2028093E1028091090307CF229709F07F
:1022E000E8CB8EE090E0E7CC80E28093D30280934D
:1022F000D4028093D5020091D1021091D202C8017C
:10230000B1010E9489166093D6028093D702C23031
:10231000D10559F50F5F1F4F1093D2020093D102E0
:1023200020910A03E22FF0E0EE0FFF1FE150FE4F75
:102330008081918101960817190731F481E090E0BE
:102340009093D2028093D1029C2D937009F0B1CB6F
:10235000223009F0AECB8091D1029091D2024D97FC
:1023600009F0A7CBE1E0F0E0E7CE219709F0A1CB9F
:10237000E0900A032091080340910703609106034F
:10238000809105030E94C404ACCF8EE48093D302F5
:102390008093D40280E28093D5028FE68093D602A8
:1023A0008EE68093D702C130D10549F48FE090E0EA
:1023B0009093E2028093E10280910A0396CE70E14D
:1023C000C72ED12C229709F074CBD092E202C09292
:1023D000E1026FCBE090D102F090D202C701B101CF
:1023E0000E9489166093D3028093D40280E2809386
:1023F000D5028093D6028093D702C230D10599F4DA
:102400002FEFE21AF20A3DE0E316F10429F0F09210
:10241000D202E092D1024DCB41E050E05093D20283
:102420004093D10246CB219709F043CB0091090399
:1024300020910803409107036091060380910503F2
:102440000E94C40480E190E036CC89E58093D302F9
:1024500085E48093D40280E28093D50281E4809366
:10246000D60282E78093D702C130D10561F4E1E161
:10247000F0E0F093E202E093E102D12CD092D2029C
:10248000C092D10216CB62E1C62ED12C229709F060
:1024900010CB9BCF82E38093D30280E38093D4025E
:1024A00080E28093D502C090D102D090D202C601C2
:1024B000B1010E9489166093D6028093D702C23080
:1024C000D10551F42FEFC21AD20A34E6C316D10453
:1024D000A9F644E150E0A2CF219709F0EACAE090C2
:1024E0000A030091090320910803409107036091BA
:1024F0000603809105030E94C40482E190E0DBCBD7
:1025000084E78093D30285E48093D40280E28093B1
:10251000D5028EE68093D6028093D702C130D105D2
:1025200019F4E3E1F0E0F6CB229709F0C2CA56E0D5
:10253000C52ED12C4ACF80E28093D3028093D4025F
:102540008093D5028AE28093D60280910001809325
:10255000D702C130D10551F446E0E42EF12CF092BF
:10256000E202E092E1020E94C105A3CA229709F0AB
:10257000A0CA833421F486E4809300019ACA83E4DC
:10258000FBCF039709F0A3CA44E150E05093E20265
:102590004093E1029CCA883C910510F484E6EECA9F
:1025A0001092C802EDCAC33009F417CBC53010F53C
:1025B00010E013CBECE0F1E08491EFEFE80FED30A9
:1025C00008F057CBF0E0E951FD4E0C94B116F4122F
:1025D00091139613A313390E390EB013B813C01309
:1025E000CD13390EDA13EC1384B5806884BDC7BDF2
:1025F0000E94C0028091C7028F5F8093C702409102
:102600001F035091200360912103709122030091D8
:10261000C3021091C4022091C5023091C6026A0122
:102620007B01C01AD10AE20AF30A97018601053F2D
:1026300011402105310540F04093C3025093C4027C
:102640006093C5027093C602853011F41092C702E0
:1026500080911E03813021F080911E03823051F55C
:10266000409118035091190360911A0370911B0354
:1026700080911F0390912003841B950B803DE7E020
:102680009E07C0F46CE271E00E94891686399105BC
:1026900008F0AFC061E08FE00E94440261E08EE08C
:1026A0000E94440261E088E00E94440261E087E009
:1026B0000E94440240911F03509120036091210326
:1026C000709122038091120390911303892B41F0A2
:1026D00040931403509315036093160370931703EC
:1026E000109213031092120310921103809114039D
:1026F00090911503A0911603B0911703481B590B35
:102700006A0B7B0B493A51466105710510F40C9434
:10271000100B80911D0381110C94100B81E00C941F
:10272000410B84B5806284BDC8BD62CF80918000BA
:102730008068809380000C2E000CDD0BD093890004
:10274000C093880055CF8091800080628093800084
:102750000C2E000CDD0BD0938B00C0938A0048CF69
:102760008091B00080688093B000C093B30040CFE8
:102770008091B00080628093B000C093B40038CFE5
:10278000809190008068809390000C2E000CDD0BEF
:10279000D0939900C09398002BCF809190008062D5
:1027A000809390000C2E000CDD0BD0939B00C09307
:1027B0009A001ECF8091A00080688093A000809135
:1027C000A0008F7B8093A0000C2E000CDD0BD0931B
:1027D000A900C093A8000CCF8091A00080628093D4
:1027E000A0000C2E000CDD0BD093AB00C093AA0010
:1027F000FFCE60E08FE00E94440260E08EE00E9425
:10280000440260E088E00E94440260E050CF893ECC
:10281000934014F00C943C0C442309F440C880917C
:102820000C03811138C822E030E030931303209369
:1028300012030C94BC0BF999FECF92BD81BDF89A9E
:10284000992780B50895262FF999FECF1FBA92BD1A
:1028500081BD20BD0FB6F894FA9AF99A0FBE019681
:1028600008955058BB27AA270E9449140C94C315F9
:102870000E94B51538F00E94BC1520F039F49F3F36
:1028800019F426F40C94B2150EF4E095E7FB0C94C1
:10289000AC15E92F0E94D41558F3BA1762077307D5
:1028A0008407950720F079F4A6F50C94F6150EF43C
:1028B000E0950B2EBA2FA02D0B01B90190010C0150
:1028C000CA01A0011124FF27591B99F0593F50F468
:1028D000503E68F11A16F040A22F232F342F4427C0
:1028E000585FF3CF469537952795A795F0405395B8
:1028F000C9F77EF41F16BA0B620B730B840BBAF088
:102900009150A1F0FF0FBB1F661F771F881FC2F7F2
:102910000EC0BA0F621F731F841F48F48795779506
:102920006795B795F7959E3F08F0B0CF9395880FC0
:1029300008F09927EE0F9795879508950E948815BE
:1029400008F481E008950E94B7140C94C3150E9406
:10295000BC1558F00E94B51540F029F45F3F29F0EE
:102960000C94AC1551110C94F7150C94B2150E94EF
:10297000D41568F39923B1F3552391F3951B550BA7
:10298000BB27AA2762177307840738F09F5F5F4F42
:10299000220F331F441FAA1FA9F335D00E2E3AF081
:1029A000E0E832D091505040E695001CCAF72BD099
:1029B000FE2F29D0660F771F881FBB1F26173707EA
:1029C0004807AB07B0E809F0BB0B802DBF01FF271C
:1029D00093585F4F3AF09E3F510578F00C94AC1538
:1029E0000C94F7155F3FE4F3983ED4F38695779502
:1029F0006795B795F7959F5FC9F7880F911D9695D5
:102A0000879597F90895E1E0660F771F881FBB1F30
:102A1000621773078407BA0720F0621B730B840BDD
:102A2000BA0BEE1F88F7E09508950E941C15689474
:102A3000B1110C94F71508950E94DC1588F09F578A
:102A400098F0B92F9927B751B0F0E1F0660F771FD2
:102A5000881F991F1AF0BA95C9F714C0B13091F0C8
:102A60000E94F615B1E008950C94F615672F782FA3
:102A70008827B85F39F0B93FCCF38695779567958D
:102A8000B395D9F73EF490958095709561957F4FF9
:102A90008F4F9F4F0895E89409C097FB3EF490959F
:102AA0008095709561957F4F8F4F9F4F9923A9F027
:102AB000F92F96E9BB279395F695879577956795B6
:102AC000B795F111F8CFFAF4BB0F11F460FF1BC0FA
:102AD0006F5F7F4F8F4F9F4F16C0882311F096E98D
:102AE00011C0772321F09EE8872F762F05C066233B
:102AF00071F096E8862F70E060E02AF09A95660FF4
:102B0000771F881FDAF7880F9695879597F90895AC
:102B1000990F0008550FAA0BE0E8FEEF16161706EE
:102B2000E807F907C0F012161306E407F50798F056
:102B3000621B730B840B950B39F40A2661F0232B6F
:102B4000242B252B21F408950A2609F4A140A695EB
:102B50008FEF811D811D089597F99F6780E870E0D0
:102B600060E008959FEF80EC089500240A94161603
:102B7000170618060906089500240A94121613066B
:102B8000140605060895092E0394000C11F48823F9
:102B900052F0BB0F40F4BF2B11F460FF04C06F5F15
:102BA0007F4F8F4F9F4F089557FD9058440F551FEB
:102BB00059F05F3F71F04795880F97FB991F61F0BF
:102BC0009F3F79F087950895121613061406551F36
:102BD000F2CF4695F1DF08C0161617061806991FA2
:102BE000F1CF86957105610508940895E894BB2797
:102BF00066277727CB0197F908950E94881508F476
:102C00008FEF08950E9415160C94C3150E94B515F8
:102C100038F00E94BC1520F0952311F00C94AC15EF
:102C20000C94B21511240C94F7150E94D41570F36E
:102C3000959FC1F3950F50E0551F629FF001729F61
:102C4000BB27F00DB11D639FAA27F00DB11DAA1F70
:102C5000649F6627B00DA11D661F829F2227B00DBD
:102C6000A11D621F739FB00DA11D621F839FA00D48
:102C7000611D221F749F3327A00D611D231F849F98
:102C8000600D211D822F762F6A2F11249F575040EF
:102C90009AF0F1F088234AF0EE0FFF1FBB1F661F6A
:102CA000771F881F91505040A9F79E3F510580F033
:102CB0000C94AC150C94F7155F3FE4F3983ED4F3F5
:102CC000869577956795B795F795E7959F5FC1F7D7
:102CD000FE2B880F911D9695879597F90895991B5E
:102CE00079E004C0991F961708F0961B881F7A9503
:102CF000C9F78095089587FB082E062687FD8195E4
:102D000067FD61950E946F160EF4919507FC819501
:102D10000895AA1BBB1B51E107C0AA1FBB1FA61722
:102D2000B70710F0A61BB70B881F991F5A95A9F774
:102D300080959095BC01CD01089597FB072E16F460
:102D4000009407D077FD09D00E94891607FC05D0B2
:102D50003EF4909581959F4F0895709561957F4FB2
:102D60000895EE0FFF1F0590F491E02D0994F8945B
:022D7000FFCF93
:102D720020200002004000000100089D0208021508
:102D8200061906880699049D0409029D0699060003
:102D92000000000000000000000000000000000031
:102DA2000000000000000000000000000000000021
:102DB2000000000000000000000000000000000011
:102DC2000000000000000000000000000000008180
:102DD20006000000000000000000009D020802152D
:102DE200061906880699049D0409029D06990600A3
:102DF200000000000000000000000000008D069DA1
:102E020006950000009504850400008C0608020067
:102E1200000000940009028D020000000000000082
:102E220000990400009C02000018020000880600BD
:102E32000000000000000000000000000000009CF4
:102E42000414041C069506850400008C040400008A
:102E5200000000000008040C041C04000000000430
:102E620004990494041C0000001800000098060055
:102E7200001F001D001F001E001F001E001F001F5C
:102E8200001E001F001E001F00000000001A01A803
:102E920001BB006701EC00CA00DE000000000092E6
:102EA200046504C1043B045E044B043C040D0A00A7
:102EB2004578636565646564206D6178696D756DDB
:102EC200206E756D626572206F6620777269746517
:022ED20073008B
:00000001FF
